{
	"contracts/kiazen/ERC721A.sol": {
		"KaiERC721": {
			"abi": [
				{
					"inputs": [],
					"stateMutability": "nonpayable",
					"type": "constructor"
				},
				{
					"inputs": [],
					"name": "ApprovalCallerNotOwnerNorApproved",
					"type": "error"
				},
				{
					"inputs": [],
					"name": "ApprovalQueryForNonexistentToken",
					"type": "error"
				},
				{
					"inputs": [],
					"name": "BalanceQueryForZeroAddress",
					"type": "error"
				},
				{
					"inputs": [],
					"name": "MintERC2309QuantityExceedsLimit",
					"type": "error"
				},
				{
					"inputs": [],
					"name": "MintToZeroAddress",
					"type": "error"
				},
				{
					"inputs": [],
					"name": "MintZeroQuantity",
					"type": "error"
				},
				{
					"inputs": [],
					"name": "OwnerQueryForNonexistentToken",
					"type": "error"
				},
				{
					"inputs": [],
					"name": "OwnershipNotInitializedForExtraData",
					"type": "error"
				},
				{
					"inputs": [],
					"name": "TransferCallerNotOwnerNorApproved",
					"type": "error"
				},
				{
					"inputs": [],
					"name": "TransferFromIncorrectOwner",
					"type": "error"
				},
				{
					"inputs": [],
					"name": "TransferToNonERC721ReceiverImplementer",
					"type": "error"
				},
				{
					"inputs": [],
					"name": "TransferToZeroAddress",
					"type": "error"
				},
				{
					"inputs": [],
					"name": "URIQueryForNonexistentToken",
					"type": "error"
				},
				{
					"anonymous": false,
					"inputs": [
						{
							"indexed": true,
							"internalType": "address",
							"name": "owner",
							"type": "address"
						},
						{
							"indexed": true,
							"internalType": "address",
							"name": "approved",
							"type": "address"
						},
						{
							"indexed": true,
							"internalType": "uint256",
							"name": "tokenId",
							"type": "uint256"
						}
					],
					"name": "Approval",
					"type": "event"
				},
				{
					"anonymous": false,
					"inputs": [
						{
							"indexed": true,
							"internalType": "address",
							"name": "owner",
							"type": "address"
						},
						{
							"indexed": true,
							"internalType": "address",
							"name": "operator",
							"type": "address"
						},
						{
							"indexed": false,
							"internalType": "bool",
							"name": "approved",
							"type": "bool"
						}
					],
					"name": "ApprovalForAll",
					"type": "event"
				},
				{
					"anonymous": false,
					"inputs": [
						{
							"indexed": true,
							"internalType": "uint256",
							"name": "fromTokenId",
							"type": "uint256"
						},
						{
							"indexed": false,
							"internalType": "uint256",
							"name": "toTokenId",
							"type": "uint256"
						},
						{
							"indexed": true,
							"internalType": "address",
							"name": "from",
							"type": "address"
						},
						{
							"indexed": true,
							"internalType": "address",
							"name": "to",
							"type": "address"
						}
					],
					"name": "ConsecutiveTransfer",
					"type": "event"
				},
				{
					"anonymous": false,
					"inputs": [
						{
							"indexed": true,
							"internalType": "address",
							"name": "previousOwner",
							"type": "address"
						},
						{
							"indexed": true,
							"internalType": "address",
							"name": "newOwner",
							"type": "address"
						}
					],
					"name": "OwnershipTransferred",
					"type": "event"
				},
				{
					"anonymous": false,
					"inputs": [
						{
							"indexed": true,
							"internalType": "address",
							"name": "from",
							"type": "address"
						},
						{
							"indexed": true,
							"internalType": "address",
							"name": "to",
							"type": "address"
						},
						{
							"indexed": true,
							"internalType": "uint256",
							"name": "tokenId",
							"type": "uint256"
						}
					],
					"name": "Transfer",
					"type": "event"
				},
				{
					"inputs": [
						{
							"internalType": "address",
							"name": "to",
							"type": "address"
						},
						{
							"internalType": "uint256",
							"name": "tokenId",
							"type": "uint256"
						}
					],
					"name": "approve",
					"outputs": [],
					"stateMutability": "payable",
					"type": "function"
				},
				{
					"inputs": [
						{
							"internalType": "address",
							"name": "owner",
							"type": "address"
						}
					],
					"name": "balanceOf",
					"outputs": [
						{
							"internalType": "uint256",
							"name": "",
							"type": "uint256"
						}
					],
					"stateMutability": "view",
					"type": "function"
				},
				{
					"inputs": [
						{
							"internalType": "uint256",
							"name": "tokenId",
							"type": "uint256"
						}
					],
					"name": "burn",
					"outputs": [
						{
							"internalType": "string",
							"name": "",
							"type": "string"
						}
					],
					"stateMutability": "nonpayable",
					"type": "function"
				},
				{
					"inputs": [
						{
							"internalType": "uint256",
							"name": "tokenId",
							"type": "uint256"
						}
					],
					"name": "getApproved",
					"outputs": [
						{
							"internalType": "address",
							"name": "",
							"type": "address"
						}
					],
					"stateMutability": "view",
					"type": "function"
				},
				{
					"inputs": [
						{
							"internalType": "address",
							"name": "owner",
							"type": "address"
						},
						{
							"internalType": "address",
							"name": "operator",
							"type": "address"
						}
					],
					"name": "isApprovedForAll",
					"outputs": [
						{
							"internalType": "bool",
							"name": "",
							"type": "bool"
						}
					],
					"stateMutability": "view",
					"type": "function"
				},
				{
					"inputs": [
						{
							"internalType": "address",
							"name": "to",
							"type": "address"
						},
						{
							"internalType": "uint256",
							"name": "quantity",
							"type": "uint256"
						}
					],
					"name": "mint",
					"outputs": [],
					"stateMutability": "nonpayable",
					"type": "function"
				},
				{
					"inputs": [],
					"name": "name",
					"outputs": [
						{
							"internalType": "string",
							"name": "",
							"type": "string"
						}
					],
					"stateMutability": "view",
					"type": "function"
				},
				{
					"inputs": [],
					"name": "owner",
					"outputs": [
						{
							"internalType": "address",
							"name": "",
							"type": "address"
						}
					],
					"stateMutability": "view",
					"type": "function"
				},
				{
					"inputs": [
						{
							"internalType": "uint256",
							"name": "tokenId",
							"type": "uint256"
						}
					],
					"name": "ownerOf",
					"outputs": [
						{
							"internalType": "address",
							"name": "",
							"type": "address"
						}
					],
					"stateMutability": "view",
					"type": "function"
				},
				{
					"inputs": [],
					"name": "renounceOwnership",
					"outputs": [],
					"stateMutability": "nonpayable",
					"type": "function"
				},
				{
					"inputs": [
						{
							"internalType": "address",
							"name": "from",
							"type": "address"
						},
						{
							"internalType": "address",
							"name": "to",
							"type": "address"
						},
						{
							"internalType": "uint256",
							"name": "tokenId",
							"type": "uint256"
						}
					],
					"name": "safeTransferFrom",
					"outputs": [],
					"stateMutability": "payable",
					"type": "function"
				},
				{
					"inputs": [
						{
							"internalType": "address",
							"name": "from",
							"type": "address"
						},
						{
							"internalType": "address",
							"name": "to",
							"type": "address"
						},
						{
							"internalType": "uint256",
							"name": "tokenId",
							"type": "uint256"
						},
						{
							"internalType": "bytes",
							"name": "_data",
							"type": "bytes"
						}
					],
					"name": "safeTransferFrom",
					"outputs": [],
					"stateMutability": "payable",
					"type": "function"
				},
				{
					"inputs": [
						{
							"internalType": "address",
							"name": "operator",
							"type": "address"
						},
						{
							"internalType": "bool",
							"name": "approved",
							"type": "bool"
						}
					],
					"name": "setApprovalForAll",
					"outputs": [],
					"stateMutability": "nonpayable",
					"type": "function"
				},
				{
					"inputs": [
						{
							"internalType": "bytes4",
							"name": "interfaceId",
							"type": "bytes4"
						}
					],
					"name": "supportsInterface",
					"outputs": [
						{
							"internalType": "bool",
							"name": "",
							"type": "bool"
						}
					],
					"stateMutability": "view",
					"type": "function"
				},
				{
					"inputs": [],
					"name": "symbol",
					"outputs": [
						{
							"internalType": "string",
							"name": "",
							"type": "string"
						}
					],
					"stateMutability": "view",
					"type": "function"
				},
				{
					"inputs": [
						{
							"internalType": "uint256",
							"name": "tokenId",
							"type": "uint256"
						}
					],
					"name": "tokenURI",
					"outputs": [
						{
							"internalType": "string",
							"name": "",
							"type": "string"
						}
					],
					"stateMutability": "view",
					"type": "function"
				},
				{
					"inputs": [],
					"name": "totalSupply",
					"outputs": [
						{
							"internalType": "uint256",
							"name": "",
							"type": "uint256"
						}
					],
					"stateMutability": "view",
					"type": "function"
				},
				{
					"inputs": [
						{
							"internalType": "address",
							"name": "from",
							"type": "address"
						},
						{
							"internalType": "address",
							"name": "to",
							"type": "address"
						},
						{
							"internalType": "uint256",
							"name": "tokenId",
							"type": "uint256"
						}
					],
					"name": "transferFrom",
					"outputs": [],
					"stateMutability": "payable",
					"type": "function"
				},
				{
					"inputs": [
						{
							"internalType": "address",
							"name": "newOwner",
							"type": "address"
						}
					],
					"name": "transferOwnership",
					"outputs": [],
					"stateMutability": "nonpayable",
					"type": "function"
				}
			],
			"devdoc": {
				"kind": "dev",
				"methods": {
					"approve(address,uint256)": {
						"details": "Gives permission to `to` to transfer `tokenId` token to another account. See {ERC721A-_approve}. Requirements: - The caller must own the token or be an approved operator."
					},
					"balanceOf(address)": {
						"details": "Returns the number of tokens in `owner`'s account."
					},
					"getApproved(uint256)": {
						"details": "Returns the account approved for `tokenId` token. Requirements: - `tokenId` must exist."
					},
					"isApprovedForAll(address,address)": {
						"details": "Returns if the `operator` is allowed to manage all of the assets of `owner`. See {setApprovalForAll}."
					},
					"name()": {
						"details": "Returns the token collection name."
					},
					"owner()": {
						"details": "Returns the address of the current owner."
					},
					"ownerOf(uint256)": {
						"details": "Returns the owner of the `tokenId` token. Requirements: - `tokenId` must exist."
					},
					"renounceOwnership()": {
						"details": "Leaves the contract without owner. It will not be possible to call `onlyOwner` functions anymore. Can only be called by the current owner. NOTE: Renouncing ownership will leave the contract without an owner, thereby removing any functionality that is only available to the owner."
					},
					"safeTransferFrom(address,address,uint256)": {
						"details": "Equivalent to `safeTransferFrom(from, to, tokenId, '')`."
					},
					"safeTransferFrom(address,address,uint256,bytes)": {
						"details": "Safely transfers `tokenId` token from `from` to `to`. Requirements: - `from` cannot be the zero address. - `to` cannot be the zero address. - `tokenId` token must exist and be owned by `from`. - If the caller is not `from`, it must be approved to move this token by either {approve} or {setApprovalForAll}. - If `to` refers to a smart contract, it must implement {IERC721Receiver-onERC721Received}, which is called upon a safe transfer. Emits a {Transfer} event."
					},
					"setApprovalForAll(address,bool)": {
						"details": "Approve or remove `operator` as an operator for the caller. Operators can call {transferFrom} or {safeTransferFrom} for any token owned by the caller. Requirements: - The `operator` cannot be the caller. Emits an {ApprovalForAll} event."
					},
					"supportsInterface(bytes4)": {
						"details": "Returns true if this contract implements the interface defined by `interfaceId`. See the corresponding [EIP section](https://eips.ethereum.org/EIPS/eip-165#how-interfaces-are-identified) to learn more about how these ids are created. This function call must use less than 30000 gas."
					},
					"symbol()": {
						"details": "Returns the token collection symbol."
					},
					"tokenURI(uint256)": {
						"details": "Returns the Uniform Resource Identifier (URI) for `tokenId` token."
					},
					"totalSupply()": {
						"details": "Returns the total number of tokens in existence. Burned tokens will reduce the count. To get the total number of tokens minted, please see {_totalMinted}."
					},
					"transferFrom(address,address,uint256)": {
						"details": "Transfers `tokenId` from `from` to `to`. Requirements: - `from` cannot be the zero address. - `to` cannot be the zero address. - `tokenId` token must be owned by `from`. - If the caller is not `from`, it must be approved to move this token by either {approve} or {setApprovalForAll}. Emits a {Transfer} event."
					},
					"transferOwnership(address)": {
						"details": "Transfers ownership of the contract to a new account (`newOwner`). Can only be called by the current owner."
					}
				},
				"version": 1
			},
			"evm": {
				"assembly": "    /* \"contracts/kiazen/ERC721A.sol\":197:1130  contract KaiERC721 is ERC721A, Ownable {... */\n  mstore(0x40, 0x80)\n    /* \"contracts/kiazen/ERC721A.sol\":252:363  constructor(... */\n  callvalue\n  dup1\n  iszero\n  tag_1\n  jumpi\n  0x00\n  dup1\n  revert\ntag_1:\n  pop\n    /* \"https://github.com/chiru-labs/ERC721A/blob/main/contracts/ERC721A.sol\":4946:5100  constructor(string memory name_, string memory symbol_) {... */\n  mload(0x40)\n  dup1\n  0x40\n  add\n  0x40\n  mstore\n  dup1\n  0x06\n  dup2\n  mstore\n  0x20\n  add\n  0x4b616947656e0000000000000000000000000000000000000000000000000000\n  dup2\n  mstore\n  pop\n  mload(0x40)\n  dup1\n  0x40\n  add\n  0x40\n  mstore\n  dup1\n  0x04\n  dup2\n  mstore\n  0x20\n  add\n  0x4b61474500000000000000000000000000000000000000000000000000000000\n  dup2\n  mstore\n  pop\n    /* \"https://github.com/chiru-labs/ERC721A/blob/main/contracts/ERC721A.sol\":5020:5025  name_ */\n  dup2\n    /* \"https://github.com/chiru-labs/ERC721A/blob/main/contracts/ERC721A.sol\":5012:5017  _name */\n  0x02\n    /* \"https://github.com/chiru-labs/ERC721A/blob/main/contracts/ERC721A.sol\":5012:5025  _name = name_ */\n  swap1\n  dup1\n  mload\n  swap1\n  0x20\n  add\n  swap1\n  tag_6\n  swap3\n  swap2\n  swap1\n  tag_7\n  jump\t// in\ntag_6:\n  pop\n    /* \"https://github.com/chiru-labs/ERC721A/blob/main/contracts/ERC721A.sol\":5045:5052  symbol_ */\n  dup1\n    /* \"https://github.com/chiru-labs/ERC721A/blob/main/contracts/ERC721A.sol\":5035:5042  _symbol */\n  0x03\n    /* \"https://github.com/chiru-labs/ERC721A/blob/main/contracts/ERC721A.sol\":5035:5052  _symbol = symbol_ */\n  swap1\n  dup1\n  mload\n  swap1\n  0x20\n  add\n  swap1\n  tag_8\n  swap3\n  swap2\n  swap1\n  tag_7\n  jump\t// in\ntag_8:\n  pop\n    /* \"https://github.com/chiru-labs/ERC721A/blob/main/contracts/ERC721A.sol\":5078:5093  _startTokenId() */\n  tag_9\n    /* \"https://github.com/chiru-labs/ERC721A/blob/main/contracts/ERC721A.sol\":5078:5091  _startTokenId */\n  shl(0x20, tag_10)\n    /* \"https://github.com/chiru-labs/ERC721A/blob/main/contracts/ERC721A.sol\":5078:5093  _startTokenId() */\n  0x20\n  shr\n  jump\t// in\ntag_9:\n    /* \"https://github.com/chiru-labs/ERC721A/blob/main/contracts/ERC721A.sol\":5062:5075  _currentIndex */\n  0x00\n    /* \"https://github.com/chiru-labs/ERC721A/blob/main/contracts/ERC721A.sol\":5062:5093  _currentIndex = _startTokenId() */\n  dup2\n  swap1\n  sstore\n  pop\n    /* \"https://github.com/chiru-labs/ERC721A/blob/main/contracts/ERC721A.sol\":4946:5100  constructor(string memory name_, string memory symbol_) {... */\n  pop\n  pop\n    /* \"@openzeppelin/contracts/access/Ownable.sol\":936:968  _transferOwnership(_msgSender()) */\n  tag_12\n    /* \"@openzeppelin/contracts/access/Ownable.sol\":955:967  _msgSender() */\n  tag_13\n    /* \"@openzeppelin/contracts/access/Ownable.sol\":955:965  _msgSender */\n  shl(0x20, tag_14)\n    /* \"@openzeppelin/contracts/access/Ownable.sol\":955:967  _msgSender() */\n  0x20\n  shr\n  jump\t// in\ntag_13:\n    /* \"@openzeppelin/contracts/access/Ownable.sol\":936:954  _transferOwnership */\n  shl(0x20, tag_15)\n    /* \"@openzeppelin/contracts/access/Ownable.sol\":936:968  _transferOwnership(_msgSender()) */\n  0x20\n  shr\n  jump\t// in\ntag_12:\n    /* \"contracts/kiazen/ERC721A.sol\":321:351  _transferOwnership(msg.sender) */\n  tag_17\n    /* \"contracts/kiazen/ERC721A.sol\":340:350  msg.sender */\n  caller\n    /* \"contracts/kiazen/ERC721A.sol\":321:339  _transferOwnership */\n  shl(0x20, tag_15)\n    /* \"contracts/kiazen/ERC721A.sol\":321:351  _transferOwnership(msg.sender) */\n  0x20\n  shr\n  jump\t// in\ntag_17:\n    /* \"contracts/kiazen/ERC721A.sol\":197:1130  contract KaiERC721 is ERC721A, Ownable {... */\n  jump(tag_18)\n    /* \"https://github.com/chiru-labs/ERC721A/blob/main/contracts/ERC721A.sol\":5426:5516  function _startTokenId() internal view virtual returns (uint256) {... */\ntag_10:\n    /* \"https://github.com/chiru-labs/ERC721A/blob/main/contracts/ERC721A.sol\":5482:5489  uint256 */\n  0x00\n    /* \"https://github.com/chiru-labs/ERC721A/blob/main/contracts/ERC721A.sol\":5426:5516  function _startTokenId() internal view virtual returns (uint256) {... */\n  swap1\n  jump\t// out\n    /* \"@openzeppelin/contracts/utils/Context.sol\":640:736  function _msgSender() internal view virtual returns (address) {... */\ntag_14:\n    /* \"@openzeppelin/contracts/utils/Context.sol\":693:700  address */\n  0x00\n    /* \"@openzeppelin/contracts/utils/Context.sol\":719:729  msg.sender */\n  caller\n    /* \"@openzeppelin/contracts/utils/Context.sol\":712:729  return msg.sender */\n  swap1\n  pop\n    /* \"@openzeppelin/contracts/utils/Context.sol\":640:736  function _msgSender() internal view virtual returns (address) {... */\n  swap1\n  jump\t// out\n    /* \"@openzeppelin/contracts/access/Ownable.sol\":2433:2620  function _transferOwnership(address newOwner) internal virtual {... */\ntag_15:\n    /* \"@openzeppelin/contracts/access/Ownable.sol\":2506:2522  address oldOwner */\n  0x00\n    /* \"@openzeppelin/contracts/access/Ownable.sol\":2525:2531  _owner */\n  0x08\n  0x00\n  swap1\n  sload\n  swap1\n  0x0100\n  exp\n  swap1\n  div\n  0xffffffffffffffffffffffffffffffffffffffff\n  and\n    /* \"@openzeppelin/contracts/access/Ownable.sol\":2506:2531  address oldOwner = _owner */\n  swap1\n  pop\n    /* \"@openzeppelin/contracts/access/Ownable.sol\":2550:2558  newOwner */\n  dup2\n    /* \"@openzeppelin/contracts/access/Ownable.sol\":2541:2547  _owner */\n  0x08\n  0x00\n    /* \"@openzeppelin/contracts/access/Ownable.sol\":2541:2558  _owner = newOwner */\n  0x0100\n  exp\n  dup2\n  sload\n  dup2\n  0xffffffffffffffffffffffffffffffffffffffff\n  mul\n  not\n  and\n  swap1\n  dup4\n  0xffffffffffffffffffffffffffffffffffffffff\n  and\n  mul\n  or\n  swap1\n  sstore\n  pop\n    /* \"@openzeppelin/contracts/access/Ownable.sol\":2604:2612  newOwner */\n  dup2\n    /* \"@openzeppelin/contracts/access/Ownable.sol\":2573:2613  OwnershipTransferred(oldOwner, newOwner) */\n  0xffffffffffffffffffffffffffffffffffffffff\n  and\n    /* \"@openzeppelin/contracts/access/Ownable.sol\":2594:2602  oldOwner */\n  dup2\n    /* \"@openzeppelin/contracts/access/Ownable.sol\":2573:2613  OwnershipTransferred(oldOwner, newOwner) */\n  0xffffffffffffffffffffffffffffffffffffffff\n  and\n  0x8be0079c531659141344cd1fd0a4f28419497f9722a3daafe3b4186f6b6457e0\n  mload(0x40)\n  mload(0x40)\n  dup1\n  swap2\n  sub\n  swap1\n  log3\n    /* \"@openzeppelin/contracts/access/Ownable.sol\":2496:2620  {... */\n  pop\n    /* \"@openzeppelin/contracts/access/Ownable.sol\":2433:2620  function _transferOwnership(address newOwner) internal virtual {... */\n  pop\n  jump\t// out\n    /* \"contracts/kiazen/ERC721A.sol\":197:1130  contract KaiERC721 is ERC721A, Ownable {... */\ntag_7:\n  dup3\n  dup1\n  sload\n  tag_22\n  swap1\n  tag_23\n  jump\t// in\ntag_22:\n  swap1\n  0x00\n  mstore\n  keccak256(0x00, 0x20)\n  swap1\n  0x1f\n  add\n  0x20\n  swap1\n  div\n  dup2\n  add\n  swap3\n  dup3\n  tag_25\n  jumpi\n  0x00\n  dup6\n  sstore\n  jump(tag_24)\ntag_25:\n  dup3\n  0x1f\n  lt\n  tag_26\n  jumpi\n  dup1\n  mload\n  not(0xff)\n  and\n  dup4\n  dup1\n  add\n  or\n  dup6\n  sstore\n  jump(tag_24)\ntag_26:\n  dup3\n  dup1\n  add\n  0x01\n  add\n  dup6\n  sstore\n  dup3\n  iszero\n  tag_24\n  jumpi\n  swap2\n  dup3\n  add\ntag_27:\n  dup3\n  dup2\n  gt\n  iszero\n  tag_28\n  jumpi\n  dup3\n  mload\n  dup3\n  sstore\n  swap2\n  0x20\n  add\n  swap2\n  swap1\n  0x01\n  add\n  swap1\n  jump(tag_27)\ntag_28:\ntag_24:\n  pop\n  swap1\n  pop\n  tag_29\n  swap2\n  swap1\n  tag_30\n  jump\t// in\ntag_29:\n  pop\n  swap1\n  jump\t// out\ntag_30:\ntag_31:\n  dup1\n  dup3\n  gt\n  iszero\n  tag_32\n  jumpi\n  0x00\n  dup2\n  0x00\n  swap1\n  sstore\n  pop\n  0x01\n  add\n  jump(tag_31)\ntag_32:\n  pop\n  swap1\n  jump\t// out\n    /* \"#utility.yul\":7:187   */\ntag_33:\n    /* \"#utility.yul\":55:132   */\n  0x4e487b7100000000000000000000000000000000000000000000000000000000\n    /* \"#utility.yul\":52:53   */\n  0x00\n    /* \"#utility.yul\":45:133   */\n  mstore\n    /* \"#utility.yul\":152:156   */\n  0x22\n    /* \"#utility.yul\":149:150   */\n  0x04\n    /* \"#utility.yul\":142:157   */\n  mstore\n    /* \"#utility.yul\":176:180   */\n  0x24\n    /* \"#utility.yul\":173:174   */\n  0x00\n    /* \"#utility.yul\":166:181   */\n  revert\n    /* \"#utility.yul\":193:513   */\ntag_23:\n    /* \"#utility.yul\":237:243   */\n  0x00\n    /* \"#utility.yul\":274:275   */\n  0x02\n    /* \"#utility.yul\":268:272   */\n  dup3\n    /* \"#utility.yul\":264:276   */\n  div\n    /* \"#utility.yul\":254:276   */\n  swap1\n  pop\n    /* \"#utility.yul\":321:322   */\n  0x01\n    /* \"#utility.yul\":315:319   */\n  dup3\n    /* \"#utility.yul\":311:323   */\n  and\n    /* \"#utility.yul\":342:360   */\n  dup1\n    /* \"#utility.yul\":332:413   */\n  tag_37\n  jumpi\n    /* \"#utility.yul\":398:402   */\n  0x7f\n    /* \"#utility.yul\":390:396   */\n  dup3\n    /* \"#utility.yul\":386:403   */\n  and\n    /* \"#utility.yul\":376:403   */\n  swap2\n  pop\n    /* \"#utility.yul\":332:413   */\ntag_37:\n    /* \"#utility.yul\":460:462   */\n  0x20\n    /* \"#utility.yul\":452:458   */\n  dup3\n    /* \"#utility.yul\":449:463   */\n  lt\n    /* \"#utility.yul\":429:447   */\n  dup2\n    /* \"#utility.yul\":426:464   */\n  eq\n    /* \"#utility.yul\":423:507   */\n  iszero\n  tag_38\n  jumpi\n    /* \"#utility.yul\":479:497   */\n  tag_39\n  tag_33\n  jump\t// in\ntag_39:\n    /* \"#utility.yul\":423:507   */\ntag_38:\n    /* \"#utility.yul\":244:513   */\n  pop\n    /* \"#utility.yul\":193:513   */\n  swap2\n  swap1\n  pop\n  jump\t// out\n    /* \"contracts/kiazen/ERC721A.sol\":197:1130  contract KaiERC721 is ERC721A, Ownable {... */\ntag_18:\n  dataSize(sub_0)\n  dup1\n  dataOffset(sub_0)\n  0x00\n  codecopy\n  0x00\n  return\nstop\n\nsub_0: assembly {\n        /* \"contracts/kiazen/ERC721A.sol\":197:1130  contract KaiERC721 is ERC721A, Ownable {... */\n      mstore(0x40, 0x80)\n      jumpi(tag_1, lt(calldatasize, 0x04))\n      shr(0xe0, calldataload(0x00))\n      dup1\n      0x6352211e\n      gt\n      tag_21\n      jumpi\n      dup1\n      0xa22cb465\n      gt\n      tag_22\n      jumpi\n      dup1\n      0xa22cb465\n      eq\n      tag_16\n      jumpi\n      dup1\n      0xb88d4fde\n      eq\n      tag_17\n      jumpi\n      dup1\n      0xc87b56dd\n      eq\n      tag_18\n      jumpi\n      dup1\n      0xe985e9c5\n      eq\n      tag_19\n      jumpi\n      dup1\n      0xf2fde38b\n      eq\n      tag_20\n      jumpi\n      jump(tag_1)\n    tag_22:\n      dup1\n      0x6352211e\n      eq\n      tag_11\n      jumpi\n      dup1\n      0x70a08231\n      eq\n      tag_12\n      jumpi\n      dup1\n      0x715018a6\n      eq\n      tag_13\n      jumpi\n      dup1\n      0x8da5cb5b\n      eq\n      tag_14\n      jumpi\n      dup1\n      0x95d89b41\n      eq\n      tag_15\n      jumpi\n      jump(tag_1)\n    tag_21:\n      dup1\n      0x18160ddd\n      gt\n      tag_23\n      jumpi\n      dup1\n      0x18160ddd\n      eq\n      tag_6\n      jumpi\n      dup1\n      0x23b872dd\n      eq\n      tag_7\n      jumpi\n      dup1\n      0x40c10f19\n      eq\n      tag_8\n      jumpi\n      dup1\n      0x42842e0e\n      eq\n      tag_9\n      jumpi\n      dup1\n      0x42966c68\n      eq\n      tag_10\n      jumpi\n      jump(tag_1)\n    tag_23:\n      dup1\n      0x01ffc9a7\n      eq\n      tag_2\n      jumpi\n      dup1\n      0x06fdde03\n      eq\n      tag_3\n      jumpi\n      dup1\n      0x081812fc\n      eq\n      tag_4\n      jumpi\n      dup1\n      0x095ea7b3\n      eq\n      tag_5\n      jumpi\n    tag_1:\n      0x00\n      dup1\n      revert\n        /* \"https://github.com/chiru-labs/ERC721A/blob/main/contracts/ERC721A.sol\":9164:9794  function supportsInterface(bytes4 interfaceId) public view virtual override returns (bool) {... */\n    tag_2:\n      callvalue\n      dup1\n      iszero\n      tag_24\n      jumpi\n      0x00\n      dup1\n      revert\n    tag_24:\n      pop\n      tag_25\n      0x04\n      dup1\n      calldatasize\n      sub\n      dup2\n      add\n      swap1\n      tag_26\n      swap2\n      swap1\n      tag_27\n      jump\t// in\n    tag_26:\n      tag_28\n      jump\t// in\n    tag_25:\n      mload(0x40)\n      tag_29\n      swap2\n      swap1\n      tag_30\n      jump\t// in\n    tag_29:\n      mload(0x40)\n      dup1\n      swap2\n      sub\n      swap1\n      return\n        /* \"https://github.com/chiru-labs/ERC721A/blob/main/contracts/ERC721A.sol\":10048:10146  function name() public view virtual override returns (string memory) {... */\n    tag_3:\n      callvalue\n      dup1\n      iszero\n      tag_31\n      jumpi\n      0x00\n      dup1\n      revert\n    tag_31:\n      pop\n      tag_32\n      tag_33\n      jump\t// in\n    tag_32:\n      mload(0x40)\n      tag_34\n      swap2\n      swap1\n      tag_35\n      jump\t// in\n    tag_34:\n      mload(0x40)\n      dup1\n      swap2\n      sub\n      swap1\n      return\n        /* \"https://github.com/chiru-labs/ERC721A/blob/main/contracts/ERC721A.sol\":16911:17134  function getApproved(uint256 tokenId) public view virtual override returns (address) {... */\n    tag_4:\n      callvalue\n      dup1\n      iszero\n      tag_36\n      jumpi\n      0x00\n      dup1\n      revert\n    tag_36:\n      pop\n      tag_37\n      0x04\n      dup1\n      calldatasize\n      sub\n      dup2\n      add\n      swap1\n      tag_38\n      swap2\n      swap1\n      tag_39\n      jump\t// in\n    tag_38:\n      tag_40\n      jump\t// in\n    tag_37:\n      mload(0x40)\n      tag_41\n      swap2\n      swap1\n      tag_42\n      jump\t// in\n    tag_41:\n      mload(0x40)\n      dup1\n      swap2\n      sub\n      swap1\n      return\n        /* \"https://github.com/chiru-labs/ERC721A/blob/main/contracts/ERC721A.sol\":16639:16761  function approve(address to, uint256 tokenId) public payable virtual override {... */\n    tag_5:\n      tag_43\n      0x04\n      dup1\n      calldatasize\n      sub\n      dup2\n      add\n      swap1\n      tag_44\n      swap2\n      swap1\n      tag_45\n      jump\t// in\n    tag_44:\n      tag_46\n      jump\t// in\n    tag_43:\n      stop\n        /* \"https://github.com/chiru-labs/ERC721A/blob/main/contracts/ERC721A.sol\":5894:6211  function totalSupply() public view virtual override returns (uint256) {... */\n    tag_6:\n      callvalue\n      dup1\n      iszero\n      tag_47\n      jumpi\n      0x00\n      dup1\n      revert\n    tag_47:\n      pop\n      tag_48\n      tag_49\n      jump\t// in\n    tag_48:\n      mload(0x40)\n      tag_50\n      swap2\n      swap1\n      tag_51\n      jump\t// in\n    tag_50:\n      mload(0x40)\n      dup1\n      swap2\n      sub\n      swap1\n      return\n        /* \"https://github.com/chiru-labs/ERC721A/blob/main/contracts/ERC721A.sol\":20546:23993  function transferFrom(... */\n    tag_7:\n      tag_52\n      0x04\n      dup1\n      calldatasize\n      sub\n      dup2\n      add\n      swap1\n      tag_53\n      swap2\n      swap1\n      tag_54\n      jump\t// in\n    tag_53:\n      tag_55\n      jump\t// in\n    tag_52:\n      stop\n        /* \"contracts/kiazen/ERC721A.sol\":846:984  function mint(... */\n    tag_8:\n      callvalue\n      dup1\n      iszero\n      tag_56\n      jumpi\n      0x00\n      dup1\n      revert\n    tag_56:\n      pop\n      tag_57\n      0x04\n      dup1\n      calldatasize\n      sub\n      dup2\n      add\n      swap1\n      tag_58\n      swap2\n      swap1\n      tag_45\n      jump\t// in\n    tag_58:\n      tag_59\n      jump\t// in\n    tag_57:\n      stop\n        /* \"https://github.com/chiru-labs/ERC721A/blob/main/contracts/ERC721A.sol\":24084:24271  function safeTransferFrom(... */\n    tag_9:\n      tag_60\n      0x04\n      dup1\n      calldatasize\n      sub\n      dup2\n      add\n      swap1\n      tag_61\n      swap2\n      swap1\n      tag_54\n      jump\t// in\n    tag_61:\n      tag_62\n      jump\t// in\n    tag_60:\n      stop\n        /* \"contracts/kiazen/ERC721A.sol\":990:1127  function burn(uint256 tokenId) public onlyOwner returns (string memory) {... */\n    tag_10:\n      callvalue\n      dup1\n      iszero\n      tag_63\n      jumpi\n      0x00\n      dup1\n      revert\n    tag_63:\n      pop\n      tag_64\n      0x04\n      dup1\n      calldatasize\n      sub\n      dup2\n      add\n      swap1\n      tag_65\n      swap2\n      swap1\n      tag_39\n      jump\t// in\n    tag_65:\n      tag_66\n      jump\t// in\n    tag_64:\n      mload(0x40)\n      tag_67\n      swap2\n      swap1\n      tag_35\n      jump\t// in\n    tag_67:\n      mload(0x40)\n      dup1\n      swap2\n      sub\n      swap1\n      return\n        /* \"https://github.com/chiru-labs/ERC721A/blob/main/contracts/ERC721A.sol\":11409:11559  function ownerOf(uint256 tokenId) public view virtual override returns (address) {... */\n    tag_11:\n      callvalue\n      dup1\n      iszero\n      tag_68\n      jumpi\n      0x00\n      dup1\n      revert\n    tag_68:\n      pop\n      tag_69\n      0x04\n      dup1\n      calldatasize\n      sub\n      dup2\n      add\n      swap1\n      tag_70\n      swap2\n      swap1\n      tag_39\n      jump\t// in\n    tag_70:\n      tag_71\n      jump\t// in\n    tag_69:\n      mload(0x40)\n      tag_72\n      swap2\n      swap1\n      tag_42\n      jump\t// in\n    tag_72:\n      mload(0x40)\n      dup1\n      swap2\n      sub\n      swap1\n      return\n        /* \"https://github.com/chiru-labs/ERC721A/blob/main/contracts/ERC721A.sol\":7045:7284  function balanceOf(address owner) public view virtual override returns (uint256) {... */\n    tag_12:\n      callvalue\n      dup1\n      iszero\n      tag_73\n      jumpi\n      0x00\n      dup1\n      revert\n    tag_73:\n      pop\n      tag_74\n      0x04\n      dup1\n      calldatasize\n      sub\n      dup2\n      add\n      swap1\n      tag_75\n      swap2\n      swap1\n      tag_76\n      jump\t// in\n    tag_75:\n      tag_77\n      jump\t// in\n    tag_74:\n      mload(0x40)\n      tag_78\n      swap2\n      swap1\n      tag_51\n      jump\t// in\n    tag_78:\n      mload(0x40)\n      dup1\n      swap2\n      sub\n      swap1\n      return\n        /* \"@openzeppelin/contracts/access/Ownable.sol\":1831:1932  function renounceOwnership() public virtual onlyOwner {... */\n    tag_13:\n      callvalue\n      dup1\n      iszero\n      tag_79\n      jumpi\n      0x00\n      dup1\n      revert\n    tag_79:\n      pop\n      tag_80\n      tag_81\n      jump\t// in\n    tag_80:\n      stop\n        /* \"@openzeppelin/contracts/access/Ownable.sol\":1201:1286  function owner() public view virtual returns (address) {... */\n    tag_14:\n      callvalue\n      dup1\n      iszero\n      tag_82\n      jumpi\n      0x00\n      dup1\n      revert\n    tag_82:\n      pop\n      tag_83\n      tag_84\n      jump\t// in\n    tag_83:\n      mload(0x40)\n      tag_85\n      swap2\n      swap1\n      tag_42\n      jump\t// in\n    tag_85:\n      mload(0x40)\n      dup1\n      swap2\n      sub\n      swap1\n      return\n        /* \"https://github.com/chiru-labs/ERC721A/blob/main/contracts/ERC721A.sol\":10217:10319  function symbol() public view virtual override returns (string memory) {... */\n    tag_15:\n      callvalue\n      dup1\n      iszero\n      tag_86\n      jumpi\n      0x00\n      dup1\n      revert\n    tag_86:\n      pop\n      tag_87\n      tag_88\n      jump\t// in\n    tag_87:\n      mload(0x40)\n      tag_89\n      swap2\n      swap1\n      tag_35\n      jump\t// in\n    tag_89:\n      mload(0x40)\n      dup1\n      swap2\n      sub\n      swap1\n      return\n        /* \"https://github.com/chiru-labs/ERC721A/blob/main/contracts/ERC721A.sol\":17461:17692  function setApprovalForAll(address operator, bool approved) public virtual override {... */\n    tag_16:\n      callvalue\n      dup1\n      iszero\n      tag_90\n      jumpi\n      0x00\n      dup1\n      revert\n    tag_90:\n      pop\n      tag_91\n      0x04\n      dup1\n      calldatasize\n      sub\n      dup2\n      add\n      swap1\n      tag_92\n      swap2\n      swap1\n      tag_93\n      jump\t// in\n    tag_92:\n      tag_94\n      jump\t// in\n    tag_91:\n      stop\n        /* \"https://github.com/chiru-labs/ERC721A/blob/main/contracts/ERC721A.sol\":24852:25257  function safeTransferFrom(... */\n    tag_17:\n      tag_95\n      0x04\n      dup1\n      calldatasize\n      sub\n      dup2\n      add\n      swap1\n      tag_96\n      swap2\n      swap1\n      tag_97\n      jump\t// in\n    tag_96:\n      tag_98\n      jump\t// in\n    tag_95:\n      stop\n        /* \"contracts/kiazen/ERC721A.sol\":518:838  function tokenURI(uint256 tokenId) public view  override returns (string memory) {... */\n    tag_18:\n      callvalue\n      dup1\n      iszero\n      tag_99\n      jumpi\n      0x00\n      dup1\n      revert\n    tag_99:\n      pop\n      tag_100\n      0x04\n      dup1\n      calldatasize\n      sub\n      dup2\n      add\n      swap1\n      tag_101\n      swap2\n      swap1\n      tag_39\n      jump\t// in\n    tag_101:\n      tag_102\n      jump\t// in\n    tag_100:\n      mload(0x40)\n      tag_103\n      swap2\n      swap1\n      tag_35\n      jump\t// in\n    tag_103:\n      mload(0x40)\n      dup1\n      swap2\n      sub\n      swap1\n      return\n        /* \"https://github.com/chiru-labs/ERC721A/blob/main/contracts/ERC721A.sol\":17842:18004  function isApprovedForAll(address owner, address operator) public view virtual override returns (bool) {... */\n    tag_19:\n      callvalue\n      dup1\n      iszero\n      tag_104\n      jumpi\n      0x00\n      dup1\n      revert\n    tag_104:\n      pop\n      tag_105\n      0x04\n      dup1\n      calldatasize\n      sub\n      dup2\n      add\n      swap1\n      tag_106\n      swap2\n      swap1\n      tag_107\n      jump\t// in\n    tag_106:\n      tag_108\n      jump\t// in\n    tag_105:\n      mload(0x40)\n      tag_109\n      swap2\n      swap1\n      tag_30\n      jump\t// in\n    tag_109:\n      mload(0x40)\n      dup1\n      swap2\n      sub\n      swap1\n      return\n        /* \"@openzeppelin/contracts/access/Ownable.sol\":2081:2279  function transferOwnership(address newOwner) public virtual onlyOwner {... */\n    tag_20:\n      callvalue\n      dup1\n      iszero\n      tag_110\n      jumpi\n      0x00\n      dup1\n      revert\n    tag_110:\n      pop\n      tag_111\n      0x04\n      dup1\n      calldatasize\n      sub\n      dup2\n      add\n      swap1\n      tag_112\n      swap2\n      swap1\n      tag_76\n      jump\t// in\n    tag_112:\n      tag_113\n      jump\t// in\n    tag_111:\n      stop\n        /* \"https://github.com/chiru-labs/ERC721A/blob/main/contracts/ERC721A.sol\":9164:9794  function supportsInterface(bytes4 interfaceId) public view virtual override returns (bool) {... */\n    tag_28:\n        /* \"https://github.com/chiru-labs/ERC721A/blob/main/contracts/ERC721A.sol\":9249:9253  bool */\n      0x00\n        /* \"https://github.com/chiru-labs/ERC721A/blob/main/contracts/ERC721A.sol\":9582:9592  0x01ffc9a7 */\n      0x01ffc9a7\n        /* \"https://github.com/chiru-labs/ERC721A/blob/main/contracts/ERC721A.sol\":9567:9592  interfaceId == 0x01ffc9a7 */\n      0xe0\n      shl\n        /* \"https://github.com/chiru-labs/ERC721A/blob/main/contracts/ERC721A.sol\":9567:9578  interfaceId */\n      dup3\n        /* \"https://github.com/chiru-labs/ERC721A/blob/main/contracts/ERC721A.sol\":9567:9592  interfaceId == 0x01ffc9a7 */\n      not(0xffffffffffffffffffffffffffffffffffffffffffffffffffffffff)\n      and\n      eq\n        /* \"https://github.com/chiru-labs/ERC721A/blob/main/contracts/ERC721A.sol\":9567:9668  interfaceId == 0x01ffc9a7 || // ERC165 interface ID for ERC165.... */\n      dup1\n      tag_115\n      jumpi\n      pop\n        /* \"https://github.com/chiru-labs/ERC721A/blob/main/contracts/ERC721A.sol\":9658:9668  0x80ac58cd */\n      0x80ac58cd\n        /* \"https://github.com/chiru-labs/ERC721A/blob/main/contracts/ERC721A.sol\":9643:9668  interfaceId == 0x80ac58cd */\n      0xe0\n      shl\n        /* \"https://github.com/chiru-labs/ERC721A/blob/main/contracts/ERC721A.sol\":9643:9654  interfaceId */\n      dup3\n        /* \"https://github.com/chiru-labs/ERC721A/blob/main/contracts/ERC721A.sol\":9643:9668  interfaceId == 0x80ac58cd */\n      not(0xffffffffffffffffffffffffffffffffffffffffffffffffffffffff)\n      and\n      eq\n        /* \"https://github.com/chiru-labs/ERC721A/blob/main/contracts/ERC721A.sol\":9567:9668  interfaceId == 0x01ffc9a7 || // ERC165 interface ID for ERC165.... */\n    tag_115:\n        /* \"https://github.com/chiru-labs/ERC721A/blob/main/contracts/ERC721A.sol\":9567:9744  interfaceId == 0x01ffc9a7 || // ERC165 interface ID for ERC165.... */\n      dup1\n      tag_116\n      jumpi\n      pop\n        /* \"https://github.com/chiru-labs/ERC721A/blob/main/contracts/ERC721A.sol\":9734:9744  0x5b5e139f */\n      0x5b5e139f\n        /* \"https://github.com/chiru-labs/ERC721A/blob/main/contracts/ERC721A.sol\":9719:9744  interfaceId == 0x5b5e139f */\n      0xe0\n      shl\n        /* \"https://github.com/chiru-labs/ERC721A/blob/main/contracts/ERC721A.sol\":9719:9730  interfaceId */\n      dup3\n        /* \"https://github.com/chiru-labs/ERC721A/blob/main/contracts/ERC721A.sol\":9719:9744  interfaceId == 0x5b5e139f */\n      not(0xffffffffffffffffffffffffffffffffffffffffffffffffffffffff)\n      and\n      eq\n        /* \"https://github.com/chiru-labs/ERC721A/blob/main/contracts/ERC721A.sol\":9567:9744  interfaceId == 0x01ffc9a7 || // ERC165 interface ID for ERC165.... */\n    tag_116:\n        /* \"https://github.com/chiru-labs/ERC721A/blob/main/contracts/ERC721A.sol\":9548:9744  return... */\n      swap1\n      pop\n        /* \"https://github.com/chiru-labs/ERC721A/blob/main/contracts/ERC721A.sol\":9164:9794  function supportsInterface(bytes4 interfaceId) public view virtual override returns (bool) {... */\n      swap2\n      swap1\n      pop\n      jump\t// out\n        /* \"https://github.com/chiru-labs/ERC721A/blob/main/contracts/ERC721A.sol\":10048:10146  function name() public view virtual override returns (string memory) {... */\n    tag_33:\n        /* \"https://github.com/chiru-labs/ERC721A/blob/main/contracts/ERC721A.sol\":10102:10115  string memory */\n      0x60\n        /* \"https://github.com/chiru-labs/ERC721A/blob/main/contracts/ERC721A.sol\":10134:10139  _name */\n      0x02\n        /* \"https://github.com/chiru-labs/ERC721A/blob/main/contracts/ERC721A.sol\":10127:10139  return _name */\n      dup1\n      sload\n      tag_118\n      swap1\n      tag_119\n      jump\t// in\n    tag_118:\n      dup1\n      0x1f\n      add\n      0x20\n      dup1\n      swap2\n      div\n      mul\n      0x20\n      add\n      mload(0x40)\n      swap1\n      dup2\n      add\n      0x40\n      mstore\n      dup1\n      swap3\n      swap2\n      swap1\n      dup2\n      dup2\n      mstore\n      0x20\n      add\n      dup3\n      dup1\n      sload\n      tag_120\n      swap1\n      tag_119\n      jump\t// in\n    tag_120:\n      dup1\n      iszero\n      tag_121\n      jumpi\n      dup1\n      0x1f\n      lt\n      tag_122\n      jumpi\n      0x0100\n      dup1\n      dup4\n      sload\n      div\n      mul\n      dup4\n      mstore\n      swap2\n      0x20\n      add\n      swap2\n      jump(tag_121)\n    tag_122:\n      dup3\n      add\n      swap2\n      swap1\n      0x00\n      mstore\n      keccak256(0x00, 0x20)\n      swap1\n    tag_123:\n      dup2\n      sload\n      dup2\n      mstore\n      swap1\n      0x01\n      add\n      swap1\n      0x20\n      add\n      dup1\n      dup4\n      gt\n      tag_123\n      jumpi\n      dup3\n      swap1\n      sub\n      0x1f\n      and\n      dup3\n      add\n      swap2\n    tag_121:\n      pop\n      pop\n      pop\n      pop\n      pop\n      swap1\n      pop\n        /* \"https://github.com/chiru-labs/ERC721A/blob/main/contracts/ERC721A.sol\":10048:10146  function name() public view virtual override returns (string memory) {... */\n      swap1\n      jump\t// out\n        /* \"https://github.com/chiru-labs/ERC721A/blob/main/contracts/ERC721A.sol\":16911:17134  function getApproved(uint256 tokenId) public view virtual override returns (address) {... */\n    tag_40:\n        /* \"https://github.com/chiru-labs/ERC721A/blob/main/contracts/ERC721A.sol\":16987:16994  address */\n      0x00\n        /* \"https://github.com/chiru-labs/ERC721A/blob/main/contracts/ERC721A.sol\":17011:17027  _exists(tokenId) */\n      tag_125\n        /* \"https://github.com/chiru-labs/ERC721A/blob/main/contracts/ERC721A.sol\":17019:17026  tokenId */\n      dup3\n        /* \"https://github.com/chiru-labs/ERC721A/blob/main/contracts/ERC721A.sol\":17011:17018  _exists */\n      tag_126\n        /* \"https://github.com/chiru-labs/ERC721A/blob/main/contracts/ERC721A.sol\":17011:17027  _exists(tokenId) */\n      jump\t// in\n    tag_125:\n        /* \"https://github.com/chiru-labs/ERC721A/blob/main/contracts/ERC721A.sol\":17006:17079  if (!_exists(tokenId)) _revert(ApprovalQueryForNonexistentToken.selector) */\n      tag_127\n      jumpi\n        /* \"https://github.com/chiru-labs/ERC721A/blob/main/contracts/ERC721A.sol\":17029:17079  _revert(ApprovalQueryForNonexistentToken.selector) */\n      tag_128\n        /* \"https://github.com/chiru-labs/ERC721A/blob/main/contracts/ERC721A.sol\":17037:17078  ApprovalQueryForNonexistentToken.selector */\n      shl(0xe0, 0xcf4700e4)\n        /* \"https://github.com/chiru-labs/ERC721A/blob/main/contracts/ERC721A.sol\":17029:17036  _revert */\n      tag_129\n        /* \"https://github.com/chiru-labs/ERC721A/blob/main/contracts/ERC721A.sol\":17029:17079  _revert(ApprovalQueryForNonexistentToken.selector) */\n      jump\t// in\n    tag_128:\n        /* \"https://github.com/chiru-labs/ERC721A/blob/main/contracts/ERC721A.sol\":17006:17079  if (!_exists(tokenId)) _revert(ApprovalQueryForNonexistentToken.selector) */\n    tag_127:\n        /* \"https://github.com/chiru-labs/ERC721A/blob/main/contracts/ERC721A.sol\":17097:17112  _tokenApprovals */\n      0x06\n        /* \"https://github.com/chiru-labs/ERC721A/blob/main/contracts/ERC721A.sol\":17097:17121  _tokenApprovals[tokenId] */\n      0x00\n        /* \"https://github.com/chiru-labs/ERC721A/blob/main/contracts/ERC721A.sol\":17113:17120  tokenId */\n      dup4\n        /* \"https://github.com/chiru-labs/ERC721A/blob/main/contracts/ERC721A.sol\":17097:17121  _tokenApprovals[tokenId] */\n      dup2\n      mstore\n      0x20\n      add\n      swap1\n      dup2\n      mstore\n      0x20\n      add\n      0x00\n      keccak256\n        /* \"https://github.com/chiru-labs/ERC721A/blob/main/contracts/ERC721A.sol\":17097:17127  _tokenApprovals[tokenId].value */\n      0x00\n      add\n      0x00\n      swap1\n      sload\n      swap1\n      0x0100\n      exp\n      swap1\n      div\n      0xffffffffffffffffffffffffffffffffffffffff\n      and\n        /* \"https://github.com/chiru-labs/ERC721A/blob/main/contracts/ERC721A.sol\":17090:17127  return _tokenApprovals[tokenId].value */\n      swap1\n      pop\n        /* \"https://github.com/chiru-labs/ERC721A/blob/main/contracts/ERC721A.sol\":16911:17134  function getApproved(uint256 tokenId) public view virtual override returns (address) {... */\n      swap2\n      swap1\n      pop\n      jump\t// out\n        /* \"https://github.com/chiru-labs/ERC721A/blob/main/contracts/ERC721A.sol\":16639:16761  function approve(address to, uint256 tokenId) public payable virtual override {... */\n    tag_46:\n        /* \"https://github.com/chiru-labs/ERC721A/blob/main/contracts/ERC721A.sol\":16727:16754  _approve(to, tokenId, true) */\n      tag_131\n        /* \"https://github.com/chiru-labs/ERC721A/blob/main/contracts/ERC721A.sol\":16736:16738  to */\n      dup3\n        /* \"https://github.com/chiru-labs/ERC721A/blob/main/contracts/ERC721A.sol\":16740:16747  tokenId */\n      dup3\n        /* \"https://github.com/chiru-labs/ERC721A/blob/main/contracts/ERC721A.sol\":16749:16753  true */\n      0x01\n        /* \"https://github.com/chiru-labs/ERC721A/blob/main/contracts/ERC721A.sol\":16727:16735  _approve */\n      tag_132\n        /* \"https://github.com/chiru-labs/ERC721A/blob/main/contracts/ERC721A.sol\":16727:16754  _approve(to, tokenId, true) */\n      jump\t// in\n    tag_131:\n        /* \"https://github.com/chiru-labs/ERC721A/blob/main/contracts/ERC721A.sol\":16639:16761  function approve(address to, uint256 tokenId) public payable virtual override {... */\n      pop\n      pop\n      jump\t// out\n        /* \"https://github.com/chiru-labs/ERC721A/blob/main/contracts/ERC721A.sol\":5894:6211  function totalSupply() public view virtual override returns (uint256) {... */\n    tag_49:\n        /* \"https://github.com/chiru-labs/ERC721A/blob/main/contracts/ERC721A.sol\":5955:5962  uint256 */\n      0x00\n        /* \"https://github.com/chiru-labs/ERC721A/blob/main/contracts/ERC721A.sol\":6179:6194  _startTokenId() */\n      tag_134\n        /* \"https://github.com/chiru-labs/ERC721A/blob/main/contracts/ERC721A.sol\":6179:6192  _startTokenId */\n      tag_135\n        /* \"https://github.com/chiru-labs/ERC721A/blob/main/contracts/ERC721A.sol\":6179:6194  _startTokenId() */\n      jump\t// in\n    tag_134:\n        /* \"https://github.com/chiru-labs/ERC721A/blob/main/contracts/ERC721A.sol\":6164:6176  _burnCounter */\n      sload(0x01)\n        /* \"https://github.com/chiru-labs/ERC721A/blob/main/contracts/ERC721A.sol\":6148:6161  _currentIndex */\n      sload(0x00)\n        /* \"https://github.com/chiru-labs/ERC721A/blob/main/contracts/ERC721A.sol\":6148:6176  _currentIndex - _burnCounter */\n      sub\n        /* \"https://github.com/chiru-labs/ERC721A/blob/main/contracts/ERC721A.sol\":6148:6194  _currentIndex - _burnCounter - _startTokenId() */\n      sub\n        /* \"https://github.com/chiru-labs/ERC721A/blob/main/contracts/ERC721A.sol\":6141:6194  return _currentIndex - _burnCounter - _startTokenId() */\n      swap1\n      pop\n        /* \"https://github.com/chiru-labs/ERC721A/blob/main/contracts/ERC721A.sol\":5894:6211  function totalSupply() public view virtual override returns (uint256) {... */\n      swap1\n      jump\t// out\n        /* \"https://github.com/chiru-labs/ERC721A/blob/main/contracts/ERC721A.sol\":20546:23993  function transferFrom(... */\n    tag_55:\n        /* \"https://github.com/chiru-labs/ERC721A/blob/main/contracts/ERC721A.sol\":20683:20710  uint256 prevOwnershipPacked */\n      0x00\n        /* \"https://github.com/chiru-labs/ERC721A/blob/main/contracts/ERC721A.sol\":20713:20740  _packedOwnershipOf(tokenId) */\n      tag_137\n        /* \"https://github.com/chiru-labs/ERC721A/blob/main/contracts/ERC721A.sol\":20732:20739  tokenId */\n      dup3\n        /* \"https://github.com/chiru-labs/ERC721A/blob/main/contracts/ERC721A.sol\":20713:20731  _packedOwnershipOf */\n      tag_138\n        /* \"https://github.com/chiru-labs/ERC721A/blob/main/contracts/ERC721A.sol\":20713:20740  _packedOwnershipOf(tokenId) */\n      jump\t// in\n    tag_137:\n        /* \"https://github.com/chiru-labs/ERC721A/blob/main/contracts/ERC721A.sol\":20683:20740  uint256 prevOwnershipPacked = _packedOwnershipOf(tokenId) */\n      swap1\n      pop\n        /* \"https://github.com/chiru-labs/ERC721A/blob/main/contracts/ERC721A.sol\":2785:2799  (1 << 160) - 1 */\n      0xffffffffffffffffffffffffffffffffffffffff\n        /* \"https://github.com/chiru-labs/ERC721A/blob/main/contracts/ERC721A.sol\":20881:20885  from */\n      dup5\n        /* \"https://github.com/chiru-labs/ERC721A/blob/main/contracts/ERC721A.sol\":20865:20887  uint256(uint160(from)) */\n      0xffffffffffffffffffffffffffffffffffffffff\n      and\n        /* \"https://github.com/chiru-labs/ERC721A/blob/main/contracts/ERC721A.sol\":20865:20906  uint256(uint160(from)) & _BITMASK_ADDRESS */\n      and\n        /* \"https://github.com/chiru-labs/ERC721A/blob/main/contracts/ERC721A.sol\":20842:20908  from = address(uint160(uint256(uint160(from)) & _BITMASK_ADDRESS)) */\n      swap4\n      pop\n        /* \"https://github.com/chiru-labs/ERC721A/blob/main/contracts/ERC721A.sol\":20964:20968  from */\n      dup4\n        /* \"https://github.com/chiru-labs/ERC721A/blob/main/contracts/ERC721A.sol\":20923:20968  address(uint160(prevOwnershipPacked)) != from */\n      0xffffffffffffffffffffffffffffffffffffffff\n      and\n        /* \"https://github.com/chiru-labs/ERC721A/blob/main/contracts/ERC721A.sol\":20939:20958  prevOwnershipPacked */\n      dup2\n        /* \"https://github.com/chiru-labs/ERC721A/blob/main/contracts/ERC721A.sol\":20923:20968  address(uint160(prevOwnershipPacked)) != from */\n      0xffffffffffffffffffffffffffffffffffffffff\n      and\n      eq\n        /* \"https://github.com/chiru-labs/ERC721A/blob/main/contracts/ERC721A.sol\":20919:21014  if (address(uint160(prevOwnershipPacked)) != from) _revert(TransferFromIncorrectOwner.selector) */\n      tag_139\n      jumpi\n        /* \"https://github.com/chiru-labs/ERC721A/blob/main/contracts/ERC721A.sol\":20970:21014  _revert(TransferFromIncorrectOwner.selector) */\n      tag_140\n        /* \"https://github.com/chiru-labs/ERC721A/blob/main/contracts/ERC721A.sol\":20978:21013  TransferFromIncorrectOwner.selector */\n      shl(0xe0, 0xa1148100)\n        /* \"https://github.com/chiru-labs/ERC721A/blob/main/contracts/ERC721A.sol\":20970:20977  _revert */\n      tag_129\n        /* \"https://github.com/chiru-labs/ERC721A/blob/main/contracts/ERC721A.sol\":20970:21014  _revert(TransferFromIncorrectOwner.selector) */\n      jump\t// in\n    tag_140:\n        /* \"https://github.com/chiru-labs/ERC721A/blob/main/contracts/ERC721A.sol\":20919:21014  if (address(uint160(prevOwnershipPacked)) != from) _revert(TransferFromIncorrectOwner.selector) */\n    tag_139:\n        /* \"https://github.com/chiru-labs/ERC721A/blob/main/contracts/ERC721A.sol\":21026:21053  uint256 approvedAddressSlot */\n      0x00\n        /* \"https://github.com/chiru-labs/ERC721A/blob/main/contracts/ERC721A.sol\":21055:21078  address approvedAddress */\n      dup1\n        /* \"https://github.com/chiru-labs/ERC721A/blob/main/contracts/ERC721A.sol\":21082:21117  _getApprovedSlotAndAddress(tokenId) */\n      tag_141\n        /* \"https://github.com/chiru-labs/ERC721A/blob/main/contracts/ERC721A.sol\":21109:21116  tokenId */\n      dup5\n        /* \"https://github.com/chiru-labs/ERC721A/blob/main/contracts/ERC721A.sol\":21082:21108  _getApprovedSlotAndAddress */\n      tag_142\n        /* \"https://github.com/chiru-labs/ERC721A/blob/main/contracts/ERC721A.sol\":21082:21117  _getApprovedSlotAndAddress(tokenId) */\n      jump\t// in\n    tag_141:\n        /* \"https://github.com/chiru-labs/ERC721A/blob/main/contracts/ERC721A.sol\":21025:21117  (uint256 approvedAddressSlot, address approvedAddress) = _getApprovedSlotAndAddress(tokenId) */\n      swap2\n      pop\n      swap2\n      pop\n        /* \"https://github.com/chiru-labs/ERC721A/blob/main/contracts/ERC721A.sol\":21214:21282  _isSenderApprovedOrOwner(approvedAddress, from, _msgSenderERC721A()) */\n      tag_143\n        /* \"https://github.com/chiru-labs/ERC721A/blob/main/contracts/ERC721A.sol\":21239:21254  approvedAddress */\n      dup2\n        /* \"https://github.com/chiru-labs/ERC721A/blob/main/contracts/ERC721A.sol\":21256:21260  from */\n      dup8\n        /* \"https://github.com/chiru-labs/ERC721A/blob/main/contracts/ERC721A.sol\":21262:21281  _msgSenderERC721A() */\n      tag_144\n        /* \"https://github.com/chiru-labs/ERC721A/blob/main/contracts/ERC721A.sol\":21262:21279  _msgSenderERC721A */\n      tag_145\n        /* \"https://github.com/chiru-labs/ERC721A/blob/main/contracts/ERC721A.sol\":21262:21281  _msgSenderERC721A() */\n      jump\t// in\n    tag_144:\n        /* \"https://github.com/chiru-labs/ERC721A/blob/main/contracts/ERC721A.sol\":21214:21238  _isSenderApprovedOrOwner */\n      tag_146\n        /* \"https://github.com/chiru-labs/ERC721A/blob/main/contracts/ERC721A.sol\":21214:21282  _isSenderApprovedOrOwner(approvedAddress, from, _msgSenderERC721A()) */\n      jump\t// in\n    tag_143:\n        /* \"https://github.com/chiru-labs/ERC721A/blob/main/contracts/ERC721A.sol\":21209:21397  if (!_isSenderApprovedOrOwner(approvedAddress, from, _msgSenderERC721A()))... */\n      tag_147\n      jumpi\n        /* \"https://github.com/chiru-labs/ERC721A/blob/main/contracts/ERC721A.sol\":21301:21344  isApprovedForAll(from, _msgSenderERC721A()) */\n      tag_148\n        /* \"https://github.com/chiru-labs/ERC721A/blob/main/contracts/ERC721A.sol\":21318:21322  from */\n      dup7\n        /* \"https://github.com/chiru-labs/ERC721A/blob/main/contracts/ERC721A.sol\":21324:21343  _msgSenderERC721A() */\n      tag_149\n        /* \"https://github.com/chiru-labs/ERC721A/blob/main/contracts/ERC721A.sol\":21324:21341  _msgSenderERC721A */\n      tag_145\n        /* \"https://github.com/chiru-labs/ERC721A/blob/main/contracts/ERC721A.sol\":21324:21343  _msgSenderERC721A() */\n      jump\t// in\n    tag_149:\n        /* \"https://github.com/chiru-labs/ERC721A/blob/main/contracts/ERC721A.sol\":21301:21317  isApprovedForAll */\n      tag_108\n        /* \"https://github.com/chiru-labs/ERC721A/blob/main/contracts/ERC721A.sol\":21301:21344  isApprovedForAll(from, _msgSenderERC721A()) */\n      jump\t// in\n    tag_148:\n        /* \"https://github.com/chiru-labs/ERC721A/blob/main/contracts/ERC721A.sol\":21296:21397  if (!isApprovedForAll(from, _msgSenderERC721A())) _revert(TransferCallerNotOwnerNorApproved.selector) */\n      tag_150\n      jumpi\n        /* \"https://github.com/chiru-labs/ERC721A/blob/main/contracts/ERC721A.sol\":21346:21397  _revert(TransferCallerNotOwnerNorApproved.selector) */\n      tag_151\n        /* \"https://github.com/chiru-labs/ERC721A/blob/main/contracts/ERC721A.sol\":21354:21396  TransferCallerNotOwnerNorApproved.selector */\n      shl(0xe0, 0x59c896be)\n        /* \"https://github.com/chiru-labs/ERC721A/blob/main/contracts/ERC721A.sol\":21346:21353  _revert */\n      tag_129\n        /* \"https://github.com/chiru-labs/ERC721A/blob/main/contracts/ERC721A.sol\":21346:21397  _revert(TransferCallerNotOwnerNorApproved.selector) */\n      jump\t// in\n    tag_151:\n        /* \"https://github.com/chiru-labs/ERC721A/blob/main/contracts/ERC721A.sol\":21296:21397  if (!isApprovedForAll(from, _msgSenderERC721A())) _revert(TransferCallerNotOwnerNorApproved.selector) */\n    tag_150:\n        /* \"https://github.com/chiru-labs/ERC721A/blob/main/contracts/ERC721A.sol\":21209:21397  if (!_isSenderApprovedOrOwner(approvedAddress, from, _msgSenderERC721A()))... */\n    tag_147:\n        /* \"https://github.com/chiru-labs/ERC721A/blob/main/contracts/ERC721A.sol\":21408:21451  _beforeTokenTransfers(from, to, tokenId, 1) */\n      tag_152\n        /* \"https://github.com/chiru-labs/ERC721A/blob/main/contracts/ERC721A.sol\":21430:21434  from */\n      dup7\n        /* \"https://github.com/chiru-labs/ERC721A/blob/main/contracts/ERC721A.sol\":21436:21438  to */\n      dup7\n        /* \"https://github.com/chiru-labs/ERC721A/blob/main/contracts/ERC721A.sol\":21440:21447  tokenId */\n      dup7\n        /* \"https://github.com/chiru-labs/ERC721A/blob/main/contracts/ERC721A.sol\":21449:21450  1 */\n      0x01\n        /* \"https://github.com/chiru-labs/ERC721A/blob/main/contracts/ERC721A.sol\":21408:21429  _beforeTokenTransfers */\n      tag_153\n        /* \"https://github.com/chiru-labs/ERC721A/blob/main/contracts/ERC721A.sol\":21408:21451  _beforeTokenTransfers(from, to, tokenId, 1) */\n      jump\t// in\n    tag_152:\n        /* \"https://github.com/chiru-labs/ERC721A/blob/main/contracts/ERC721A.sol\":21540:21555  approvedAddress */\n      dup1\n        /* \"https://github.com/chiru-labs/ERC721A/blob/main/contracts/ERC721A.sol\":21537:21694  if approvedAddress {... */\n      iszero\n      tag_154\n      jumpi\n        /* \"https://github.com/chiru-labs/ERC721A/blob/main/contracts/ERC721A.sol\":21678:21679  0 */\n      0x00\n        /* \"https://github.com/chiru-labs/ERC721A/blob/main/contracts/ERC721A.sol\":21657:21676  approvedAddressSlot */\n      dup3\n        /* \"https://github.com/chiru-labs/ERC721A/blob/main/contracts/ERC721A.sol\":21650:21680  sstore(approvedAddressSlot, 0) */\n      sstore\n        /* \"https://github.com/chiru-labs/ERC721A/blob/main/contracts/ERC721A.sol\":21537:21694  if approvedAddress {... */\n    tag_154:\n        /* \"https://github.com/chiru-labs/ERC721A/blob/main/contracts/ERC721A.sol\":22066:22084  _packedAddressData */\n      0x05\n        /* \"https://github.com/chiru-labs/ERC721A/blob/main/contracts/ERC721A.sol\":22066:22090  _packedAddressData[from] */\n      0x00\n        /* \"https://github.com/chiru-labs/ERC721A/blob/main/contracts/ERC721A.sol\":22085:22089  from */\n      dup8\n        /* \"https://github.com/chiru-labs/ERC721A/blob/main/contracts/ERC721A.sol\":22066:22090  _packedAddressData[from] */\n      0xffffffffffffffffffffffffffffffffffffffff\n      and\n      0xffffffffffffffffffffffffffffffffffffffff\n      and\n      dup2\n      mstore\n      0x20\n      add\n      swap1\n      dup2\n      mstore\n      0x20\n      add\n      0x00\n      keccak256\n      0x00\n        /* \"https://github.com/chiru-labs/ERC721A/blob/main/contracts/ERC721A.sol\":22064:22090  --_packedAddressData[from] */\n      dup2\n      sload\n      0x01\n      swap1\n      sub\n      swap2\n      swap1\n      pop\n      dup2\n      swap1\n      sstore\n      pop\n        /* \"https://github.com/chiru-labs/ERC721A/blob/main/contracts/ERC721A.sol\":22134:22152  _packedAddressData */\n      0x05\n        /* \"https://github.com/chiru-labs/ERC721A/blob/main/contracts/ERC721A.sol\":22134:22156  _packedAddressData[to] */\n      0x00\n        /* \"https://github.com/chiru-labs/ERC721A/blob/main/contracts/ERC721A.sol\":22153:22155  to */\n      dup7\n        /* \"https://github.com/chiru-labs/ERC721A/blob/main/contracts/ERC721A.sol\":22134:22156  _packedAddressData[to] */\n      0xffffffffffffffffffffffffffffffffffffffff\n      and\n      0xffffffffffffffffffffffffffffffffffffffff\n      and\n      dup2\n      mstore\n      0x20\n      add\n      swap1\n      dup2\n      mstore\n      0x20\n      add\n      0x00\n      keccak256\n      0x00\n        /* \"https://github.com/chiru-labs/ERC721A/blob/main/contracts/ERC721A.sol\":22132:22156  ++_packedAddressData[to] */\n      dup2\n      sload\n      0x01\n      add\n      swap2\n      swap1\n      pop\n      dup2\n      swap1\n      sstore\n      pop\n        /* \"https://github.com/chiru-labs/ERC721A/blob/main/contracts/ERC721A.sol\":22449:22592  _packOwnershipData(... */\n      tag_155\n        /* \"https://github.com/chiru-labs/ERC721A/blob/main/contracts/ERC721A.sol\":22485:22487  to */\n      dup6\n        /* \"https://github.com/chiru-labs/ERC721A/blob/main/contracts/ERC721A.sol\":22533:22578  _nextExtraData(from, to, prevOwnershipPacked) */\n      tag_156\n        /* \"https://github.com/chiru-labs/ERC721A/blob/main/contracts/ERC721A.sol\":22548:22552  from */\n      dup9\n        /* \"https://github.com/chiru-labs/ERC721A/blob/main/contracts/ERC721A.sol\":22554:22556  to */\n      dup9\n        /* \"https://github.com/chiru-labs/ERC721A/blob/main/contracts/ERC721A.sol\":22558:22577  prevOwnershipPacked */\n      dup8\n        /* \"https://github.com/chiru-labs/ERC721A/blob/main/contracts/ERC721A.sol\":22533:22547  _nextExtraData */\n      tag_157\n        /* \"https://github.com/chiru-labs/ERC721A/blob/main/contracts/ERC721A.sol\":22533:22578  _nextExtraData(from, to, prevOwnershipPacked) */\n      jump\t// in\n    tag_156:\n        /* \"https://github.com/chiru-labs/ERC721A/blob/main/contracts/ERC721A.sol\":2392:2400  1 << 225 */\n      0x0200000000000000000000000000000000000000000000000000000000\n        /* \"https://github.com/chiru-labs/ERC721A/blob/main/contracts/ERC721A.sol\":22505:22578  _BITMASK_NEXT_INITIALIZED | _nextExtraData(from, to, prevOwnershipPacked) */\n      or\n        /* \"https://github.com/chiru-labs/ERC721A/blob/main/contracts/ERC721A.sol\":22449:22467  _packOwnershipData */\n      tag_158\n        /* \"https://github.com/chiru-labs/ERC721A/blob/main/contracts/ERC721A.sol\":22449:22592  _packOwnershipData(... */\n      jump\t// in\n    tag_155:\n        /* \"https://github.com/chiru-labs/ERC721A/blob/main/contracts/ERC721A.sol\":22420:22437  _packedOwnerships */\n      0x04\n        /* \"https://github.com/chiru-labs/ERC721A/blob/main/contracts/ERC721A.sol\":22420:22446  _packedOwnerships[tokenId] */\n      0x00\n        /* \"https://github.com/chiru-labs/ERC721A/blob/main/contracts/ERC721A.sol\":22438:22445  tokenId */\n      dup7\n        /* \"https://github.com/chiru-labs/ERC721A/blob/main/contracts/ERC721A.sol\":22420:22446  _packedOwnerships[tokenId] */\n      dup2\n      mstore\n      0x20\n      add\n      swap1\n      dup2\n      mstore\n      0x20\n      add\n      0x00\n      keccak256\n        /* \"https://github.com/chiru-labs/ERC721A/blob/main/contracts/ERC721A.sol\":22420:22592  _packedOwnerships[tokenId] = _packOwnershipData(... */\n      dup2\n      swap1\n      sstore\n      pop\n        /* \"https://github.com/chiru-labs/ERC721A/blob/main/contracts/ERC721A.sol\":22760:22761  0 */\n      0x00\n        /* \"https://github.com/chiru-labs/ERC721A/blob/main/contracts/ERC721A.sol\":2392:2400  1 << 225 */\n      0x0200000000000000000000000000000000000000000000000000000000\n        /* \"https://github.com/chiru-labs/ERC721A/blob/main/contracts/ERC721A.sol\":22709:22728  prevOwnershipPacked */\n      dup5\n        /* \"https://github.com/chiru-labs/ERC721A/blob/main/contracts/ERC721A.sol\":22709:22756  prevOwnershipPacked & _BITMASK_NEXT_INITIALIZED */\n      and\n        /* \"https://github.com/chiru-labs/ERC721A/blob/main/contracts/ERC721A.sol\":22709:22761  prevOwnershipPacked & _BITMASK_NEXT_INITIALIZED == 0 */\n      eq\n        /* \"https://github.com/chiru-labs/ERC721A/blob/main/contracts/ERC721A.sol\":22705:23322  if (prevOwnershipPacked & _BITMASK_NEXT_INITIALIZED == 0) {... */\n      iszero\n      tag_159\n      jumpi\n        /* \"https://github.com/chiru-labs/ERC721A/blob/main/contracts/ERC721A.sol\":22781:22800  uint256 nextTokenId */\n      0x00\n        /* \"https://github.com/chiru-labs/ERC721A/blob/main/contracts/ERC721A.sol\":22813:22814  1 */\n      0x01\n        /* \"https://github.com/chiru-labs/ERC721A/blob/main/contracts/ERC721A.sol\":22803:22810  tokenId */\n      dup6\n        /* \"https://github.com/chiru-labs/ERC721A/blob/main/contracts/ERC721A.sol\":22803:22814  tokenId + 1 */\n      add\n        /* \"https://github.com/chiru-labs/ERC721A/blob/main/contracts/ERC721A.sol\":22781:22814  uint256 nextTokenId = tokenId + 1 */\n      swap1\n      pop\n        /* \"https://github.com/chiru-labs/ERC721A/blob/main/contracts/ERC721A.sol\":22968:22969  0 */\n      0x00\n        /* \"https://github.com/chiru-labs/ERC721A/blob/main/contracts/ERC721A.sol\":22934:22951  _packedOwnerships */\n      0x04\n        /* \"https://github.com/chiru-labs/ERC721A/blob/main/contracts/ERC721A.sol\":22934:22964  _packedOwnerships[nextTokenId] */\n      0x00\n        /* \"https://github.com/chiru-labs/ERC721A/blob/main/contracts/ERC721A.sol\":22952:22963  nextTokenId */\n      dup4\n        /* \"https://github.com/chiru-labs/ERC721A/blob/main/contracts/ERC721A.sol\":22934:22964  _packedOwnerships[nextTokenId] */\n      dup2\n      mstore\n      0x20\n      add\n      swap1\n      dup2\n      mstore\n      0x20\n      add\n      0x00\n      keccak256\n      sload\n        /* \"https://github.com/chiru-labs/ERC721A/blob/main/contracts/ERC721A.sol\":22934:22969  _packedOwnerships[nextTokenId] == 0 */\n      eq\n        /* \"https://github.com/chiru-labs/ERC721A/blob/main/contracts/ERC721A.sol\":22930:23308  if (_packedOwnerships[nextTokenId] == 0) {... */\n      iszero\n      tag_160\n      jumpi\n        /* \"https://github.com/chiru-labs/ERC721A/blob/main/contracts/ERC721A.sol\":23070:23083  _currentIndex */\n      sload(0x00)\n        /* \"https://github.com/chiru-labs/ERC721A/blob/main/contracts/ERC721A.sol\":23055:23066  nextTokenId */\n      dup2\n        /* \"https://github.com/chiru-labs/ERC721A/blob/main/contracts/ERC721A.sol\":23055:23083  nextTokenId != _currentIndex */\n      eq\n        /* \"https://github.com/chiru-labs/ERC721A/blob/main/contracts/ERC721A.sol\":23051:23290  if (nextTokenId != _currentIndex) {... */\n      tag_161\n      jumpi\n        /* \"https://github.com/chiru-labs/ERC721A/blob/main/contracts/ERC721A.sol\":23248:23267  prevOwnershipPacked */\n      dup4\n        /* \"https://github.com/chiru-labs/ERC721A/blob/main/contracts/ERC721A.sol\":23215:23232  _packedOwnerships */\n      0x04\n        /* \"https://github.com/chiru-labs/ERC721A/blob/main/contracts/ERC721A.sol\":23215:23245  _packedOwnerships[nextTokenId] */\n      0x00\n        /* \"https://github.com/chiru-labs/ERC721A/blob/main/contracts/ERC721A.sol\":23233:23244  nextTokenId */\n      dup4\n        /* \"https://github.com/chiru-labs/ERC721A/blob/main/contracts/ERC721A.sol\":23215:23245  _packedOwnerships[nextTokenId] */\n      dup2\n      mstore\n      0x20\n      add\n      swap1\n      dup2\n      mstore\n      0x20\n      add\n      0x00\n      keccak256\n        /* \"https://github.com/chiru-labs/ERC721A/blob/main/contracts/ERC721A.sol\":23215:23267  _packedOwnerships[nextTokenId] = prevOwnershipPacked */\n      dup2\n      swap1\n      sstore\n      pop\n        /* \"https://github.com/chiru-labs/ERC721A/blob/main/contracts/ERC721A.sol\":23051:23290  if (nextTokenId != _currentIndex) {... */\n    tag_161:\n        /* \"https://github.com/chiru-labs/ERC721A/blob/main/contracts/ERC721A.sol\":22930:23308  if (_packedOwnerships[nextTokenId] == 0) {... */\n    tag_160:\n        /* \"https://github.com/chiru-labs/ERC721A/blob/main/contracts/ERC721A.sol\":22763:23322  {... */\n      pop\n        /* \"https://github.com/chiru-labs/ERC721A/blob/main/contracts/ERC721A.sol\":22705:23322  if (prevOwnershipPacked & _BITMASK_NEXT_INITIALIZED == 0) {... */\n    tag_159:\n        /* \"https://github.com/chiru-labs/ERC721A/blob/main/contracts/ERC721A.sol\":23431:23447  uint256 toMasked */\n      0x00\n        /* \"https://github.com/chiru-labs/ERC721A/blob/main/contracts/ERC721A.sol\":2785:2799  (1 << 160) - 1 */\n      0xffffffffffffffffffffffffffffffffffffffff\n        /* \"https://github.com/chiru-labs/ERC721A/blob/main/contracts/ERC721A.sol\":23466:23468  to */\n      dup7\n        /* \"https://github.com/chiru-labs/ERC721A/blob/main/contracts/ERC721A.sol\":23450:23470  uint256(uint160(to)) */\n      0xffffffffffffffffffffffffffffffffffffffff\n      and\n        /* \"https://github.com/chiru-labs/ERC721A/blob/main/contracts/ERC721A.sol\":23450:23489  uint256(uint160(to)) & _BITMASK_ADDRESS */\n      and\n        /* \"https://github.com/chiru-labs/ERC721A/blob/main/contracts/ERC721A.sol\":23431:23489  uint256 toMasked = uint256(uint160(to)) & _BITMASK_ADDRESS */\n      swap1\n      pop\n        /* \"https://github.com/chiru-labs/ERC721A/blob/main/contracts/ERC721A.sol\":23821:23828  tokenId */\n      dup5\n        /* \"https://github.com/chiru-labs/ERC721A/blob/main/contracts/ERC721A.sol\":23786:23794  toMasked */\n      dup2\n        /* \"https://github.com/chiru-labs/ERC721A/blob/main/contracts/ERC721A.sol\":23753:23757  from */\n      dup9\n        /* \"https://github.com/chiru-labs/ERC721A/blob/main/contracts/ERC721A.sol\":23696:23721  _TRANSFER_EVENT_SIGNATURE */\n      0xddf252ad1be2c89b69c2b068fc378daa952ba7f163c4a11628f55a4df523b3ef\n        /* \"https://github.com/chiru-labs/ERC721A/blob/main/contracts/ERC721A.sol\":23642:23643  0 */\n      0x00\n        /* \"https://github.com/chiru-labs/ERC721A/blob/main/contracts/ERC721A.sol\":23586:23587  0 */\n      dup1\n        /* \"https://github.com/chiru-labs/ERC721A/blob/main/contracts/ERC721A.sol\":23564:23856  log4(... */\n      log4\n        /* \"https://github.com/chiru-labs/ERC721A/blob/main/contracts/ERC721A.sol\":23891:23892  0 */\n      0x00\n        /* \"https://github.com/chiru-labs/ERC721A/blob/main/contracts/ERC721A.sol\":23879:23887  toMasked */\n      dup2\n        /* \"https://github.com/chiru-labs/ERC721A/blob/main/contracts/ERC721A.sol\":23879:23892  toMasked == 0 */\n      eq\n        /* \"https://github.com/chiru-labs/ERC721A/blob/main/contracts/ERC721A.sol\":23875:23933  if (toMasked == 0) _revert(TransferToZeroAddress.selector) */\n      iszero\n      tag_162\n      jumpi\n        /* \"https://github.com/chiru-labs/ERC721A/blob/main/contracts/ERC721A.sol\":23894:23933  _revert(TransferToZeroAddress.selector) */\n      tag_163\n        /* \"https://github.com/chiru-labs/ERC721A/blob/main/contracts/ERC721A.sol\":23902:23932  TransferToZeroAddress.selector */\n      shl(0xe0, 0xea553b34)\n        /* \"https://github.com/chiru-labs/ERC721A/blob/main/contracts/ERC721A.sol\":23894:23901  _revert */\n      tag_129\n        /* \"https://github.com/chiru-labs/ERC721A/blob/main/contracts/ERC721A.sol\":23894:23933  _revert(TransferToZeroAddress.selector) */\n      jump\t// in\n    tag_163:\n        /* \"https://github.com/chiru-labs/ERC721A/blob/main/contracts/ERC721A.sol\":23875:23933  if (toMasked == 0) _revert(TransferToZeroAddress.selector) */\n    tag_162:\n        /* \"https://github.com/chiru-labs/ERC721A/blob/main/contracts/ERC721A.sol\":23944:23986  _afterTokenTransfers(from, to, tokenId, 1) */\n      tag_164\n        /* \"https://github.com/chiru-labs/ERC721A/blob/main/contracts/ERC721A.sol\":23965:23969  from */\n      dup8\n        /* \"https://github.com/chiru-labs/ERC721A/blob/main/contracts/ERC721A.sol\":23971:23973  to */\n      dup8\n        /* \"https://github.com/chiru-labs/ERC721A/blob/main/contracts/ERC721A.sol\":23975:23982  tokenId */\n      dup8\n        /* \"https://github.com/chiru-labs/ERC721A/blob/main/contracts/ERC721A.sol\":23984:23985  1 */\n      0x01\n        /* \"https://github.com/chiru-labs/ERC721A/blob/main/contracts/ERC721A.sol\":23944:23964  _afterTokenTransfers */\n      tag_165\n        /* \"https://github.com/chiru-labs/ERC721A/blob/main/contracts/ERC721A.sol\":23944:23986  _afterTokenTransfers(from, to, tokenId, 1) */\n      jump\t// in\n    tag_164:\n        /* \"https://github.com/chiru-labs/ERC721A/blob/main/contracts/ERC721A.sol\":20673:23993  {... */\n      pop\n      pop\n      pop\n      pop\n        /* \"https://github.com/chiru-labs/ERC721A/blob/main/contracts/ERC721A.sol\":20546:23993  function transferFrom(... */\n      pop\n      pop\n      pop\n      jump\t// out\n        /* \"contracts/kiazen/ERC721A.sol\":846:984  function mint(... */\n    tag_59:\n        /* \"@openzeppelin/contracts/access/Ownable.sol\":1094:1107  _checkOwner() */\n      tag_167\n        /* \"@openzeppelin/contracts/access/Ownable.sol\":1094:1105  _checkOwner */\n      tag_168\n        /* \"@openzeppelin/contracts/access/Ownable.sol\":1094:1107  _checkOwner() */\n      jump\t// in\n    tag_167:\n        /* \"contracts/kiazen/ERC721A.sol\":941:960  _mint(to, quantity) */\n      tag_170\n        /* \"contracts/kiazen/ERC721A.sol\":947:949  to */\n      dup3\n        /* \"contracts/kiazen/ERC721A.sol\":951:959  quantity */\n      dup3\n        /* \"contracts/kiazen/ERC721A.sol\":941:946  _mint */\n      tag_171\n        /* \"contracts/kiazen/ERC721A.sol\":941:960  _mint(to, quantity) */\n      jump\t// in\n    tag_170:\n        /* \"contracts/kiazen/ERC721A.sol\":846:984  function mint(... */\n      pop\n      pop\n      jump\t// out\n        /* \"https://github.com/chiru-labs/ERC721A/blob/main/contracts/ERC721A.sol\":24084:24271  function safeTransferFrom(... */\n    tag_62:\n        /* \"https://github.com/chiru-labs/ERC721A/blob/main/contracts/ERC721A.sol\":24225:24264  safeTransferFrom(from, to, tokenId, '') */\n      tag_173\n        /* \"https://github.com/chiru-labs/ERC721A/blob/main/contracts/ERC721A.sol\":24242:24246  from */\n      dup4\n        /* \"https://github.com/chiru-labs/ERC721A/blob/main/contracts/ERC721A.sol\":24248:24250  to */\n      dup4\n        /* \"https://github.com/chiru-labs/ERC721A/blob/main/contracts/ERC721A.sol\":24252:24259  tokenId */\n      dup4\n        /* \"https://github.com/chiru-labs/ERC721A/blob/main/contracts/ERC721A.sol\":24225:24264  safeTransferFrom(from, to, tokenId, '') */\n      mload(0x40)\n      dup1\n      0x20\n      add\n      0x40\n      mstore\n      dup1\n      0x00\n      dup2\n      mstore\n      pop\n        /* \"https://github.com/chiru-labs/ERC721A/blob/main/contracts/ERC721A.sol\":24225:24241  safeTransferFrom */\n      tag_98\n        /* \"https://github.com/chiru-labs/ERC721A/blob/main/contracts/ERC721A.sol\":24225:24264  safeTransferFrom(from, to, tokenId, '') */\n      jump\t// in\n    tag_173:\n        /* \"https://github.com/chiru-labs/ERC721A/blob/main/contracts/ERC721A.sol\":24084:24271  function safeTransferFrom(... */\n      pop\n      pop\n      pop\n      jump\t// out\n        /* \"contracts/kiazen/ERC721A.sol\":990:1127  function burn(uint256 tokenId) public onlyOwner returns (string memory) {... */\n    tag_66:\n        /* \"contracts/kiazen/ERC721A.sol\":1047:1060  string memory */\n      0x60\n        /* \"@openzeppelin/contracts/access/Ownable.sol\":1094:1107  _checkOwner() */\n      tag_175\n        /* \"@openzeppelin/contracts/access/Ownable.sol\":1094:1105  _checkOwner */\n      tag_168\n        /* \"@openzeppelin/contracts/access/Ownable.sol\":1094:1107  _checkOwner() */\n      jump\t// in\n    tag_175:\n        /* \"contracts/kiazen/ERC721A.sol\":1073:1087  _burn(tokenId) */\n      tag_177\n        /* \"contracts/kiazen/ERC721A.sol\":1079:1086  tokenId */\n      dup3\n        /* \"contracts/kiazen/ERC721A.sol\":1073:1078  _burn */\n      tag_178\n        /* \"contracts/kiazen/ERC721A.sol\":1073:1087  _burn(tokenId) */\n      jump\t// in\n    tag_177:\n        /* \"contracts/kiazen/ERC721A.sol\":1098:1119  return \"Token burned\" */\n      mload(0x40)\n      dup1\n      0x40\n      add\n      0x40\n      mstore\n      dup1\n      0x0c\n      dup2\n      mstore\n      0x20\n      add\n      0x546f6b656e206275726e65640000000000000000000000000000000000000000\n      dup2\n      mstore\n      pop\n      swap1\n      pop\n        /* \"contracts/kiazen/ERC721A.sol\":990:1127  function burn(uint256 tokenId) public onlyOwner returns (string memory) {... */\n      swap2\n      swap1\n      pop\n      jump\t// out\n        /* \"https://github.com/chiru-labs/ERC721A/blob/main/contracts/ERC721A.sol\":11409:11559  function ownerOf(uint256 tokenId) public view virtual override returns (address) {... */\n    tag_71:\n        /* \"https://github.com/chiru-labs/ERC721A/blob/main/contracts/ERC721A.sol\":11481:11488  address */\n      0x00\n        /* \"https://github.com/chiru-labs/ERC721A/blob/main/contracts/ERC721A.sol\":11523:11550  _packedOwnershipOf(tokenId) */\n      tag_180\n        /* \"https://github.com/chiru-labs/ERC721A/blob/main/contracts/ERC721A.sol\":11542:11549  tokenId */\n      dup3\n        /* \"https://github.com/chiru-labs/ERC721A/blob/main/contracts/ERC721A.sol\":11523:11541  _packedOwnershipOf */\n      tag_138\n        /* \"https://github.com/chiru-labs/ERC721A/blob/main/contracts/ERC721A.sol\":11523:11550  _packedOwnershipOf(tokenId) */\n      jump\t// in\n    tag_180:\n        /* \"https://github.com/chiru-labs/ERC721A/blob/main/contracts/ERC721A.sol\":11500:11552  return address(uint160(_packedOwnershipOf(tokenId))) */\n      swap1\n      pop\n        /* \"https://github.com/chiru-labs/ERC721A/blob/main/contracts/ERC721A.sol\":11409:11559  function ownerOf(uint256 tokenId) public view virtual override returns (address) {... */\n      swap2\n      swap1\n      pop\n      jump\t// out\n        /* \"https://github.com/chiru-labs/ERC721A/blob/main/contracts/ERC721A.sol\":7045:7284  function balanceOf(address owner) public view virtual override returns (uint256) {... */\n    tag_77:\n        /* \"https://github.com/chiru-labs/ERC721A/blob/main/contracts/ERC721A.sol\":7117:7124  uint256 */\n      0x00\n        /* \"https://github.com/chiru-labs/ERC721A/blob/main/contracts/ERC721A.sol\":7157:7158  0 */\n      dup1\n        /* \"https://github.com/chiru-labs/ERC721A/blob/main/contracts/ERC721A.sol\":7140:7159  owner == address(0) */\n      0xffffffffffffffffffffffffffffffffffffffff\n      and\n        /* \"https://github.com/chiru-labs/ERC721A/blob/main/contracts/ERC721A.sol\":7140:7145  owner */\n      dup3\n        /* \"https://github.com/chiru-labs/ERC721A/blob/main/contracts/ERC721A.sol\":7140:7159  owner == address(0) */\n      0xffffffffffffffffffffffffffffffffffffffff\n      and\n      eq\n        /* \"https://github.com/chiru-labs/ERC721A/blob/main/contracts/ERC721A.sol\":7136:7205  if (owner == address(0)) _revert(BalanceQueryForZeroAddress.selector) */\n      iszero\n      tag_182\n      jumpi\n        /* \"https://github.com/chiru-labs/ERC721A/blob/main/contracts/ERC721A.sol\":7161:7205  _revert(BalanceQueryForZeroAddress.selector) */\n      tag_183\n        /* \"https://github.com/chiru-labs/ERC721A/blob/main/contracts/ERC721A.sol\":7169:7204  BalanceQueryForZeroAddress.selector */\n      shl(0xe0, 0x8f4eb604)\n        /* \"https://github.com/chiru-labs/ERC721A/blob/main/contracts/ERC721A.sol\":7161:7168  _revert */\n      tag_129\n        /* \"https://github.com/chiru-labs/ERC721A/blob/main/contracts/ERC721A.sol\":7161:7205  _revert(BalanceQueryForZeroAddress.selector) */\n      jump\t// in\n    tag_183:\n        /* \"https://github.com/chiru-labs/ERC721A/blob/main/contracts/ERC721A.sol\":7136:7205  if (owner == address(0)) _revert(BalanceQueryForZeroAddress.selector) */\n    tag_182:\n        /* \"https://github.com/chiru-labs/ERC721A/blob/main/contracts/ERC721A.sol\":1360:1373  (1 << 64) - 1 */\n      0xffffffffffffffff\n        /* \"https://github.com/chiru-labs/ERC721A/blob/main/contracts/ERC721A.sol\":7222:7240  _packedAddressData */\n      0x05\n        /* \"https://github.com/chiru-labs/ERC721A/blob/main/contracts/ERC721A.sol\":7222:7247  _packedAddressData[owner] */\n      0x00\n        /* \"https://github.com/chiru-labs/ERC721A/blob/main/contracts/ERC721A.sol\":7241:7246  owner */\n      dup5\n        /* \"https://github.com/chiru-labs/ERC721A/blob/main/contracts/ERC721A.sol\":7222:7247  _packedAddressData[owner] */\n      0xffffffffffffffffffffffffffffffffffffffff\n      and\n      0xffffffffffffffffffffffffffffffffffffffff\n      and\n      dup2\n      mstore\n      0x20\n      add\n      swap1\n      dup2\n      mstore\n      0x20\n      add\n      0x00\n      keccak256\n      sload\n        /* \"https://github.com/chiru-labs/ERC721A/blob/main/contracts/ERC721A.sol\":7222:7277  _packedAddressData[owner] & _BITMASK_ADDRESS_DATA_ENTRY */\n      and\n        /* \"https://github.com/chiru-labs/ERC721A/blob/main/contracts/ERC721A.sol\":7215:7277  return _packedAddressData[owner] & _BITMASK_ADDRESS_DATA_ENTRY */\n      swap1\n      pop\n        /* \"https://github.com/chiru-labs/ERC721A/blob/main/contracts/ERC721A.sol\":7045:7284  function balanceOf(address owner) public view virtual override returns (uint256) {... */\n      swap2\n      swap1\n      pop\n      jump\t// out\n        /* \"@openzeppelin/contracts/access/Ownable.sol\":1831:1932  function renounceOwnership() public virtual onlyOwner {... */\n    tag_81:\n        /* \"@openzeppelin/contracts/access/Ownable.sol\":1094:1107  _checkOwner() */\n      tag_185\n        /* \"@openzeppelin/contracts/access/Ownable.sol\":1094:1105  _checkOwner */\n      tag_168\n        /* \"@openzeppelin/contracts/access/Ownable.sol\":1094:1107  _checkOwner() */\n      jump\t// in\n    tag_185:\n        /* \"@openzeppelin/contracts/access/Ownable.sol\":1895:1925  _transferOwnership(address(0)) */\n      tag_187\n        /* \"@openzeppelin/contracts/access/Ownable.sol\":1922:1923  0 */\n      0x00\n        /* \"@openzeppelin/contracts/access/Ownable.sol\":1895:1913  _transferOwnership */\n      tag_188\n        /* \"@openzeppelin/contracts/access/Ownable.sol\":1895:1925  _transferOwnership(address(0)) */\n      jump\t// in\n    tag_187:\n        /* \"@openzeppelin/contracts/access/Ownable.sol\":1831:1932  function renounceOwnership() public virtual onlyOwner {... */\n      jump\t// out\n        /* \"@openzeppelin/contracts/access/Ownable.sol\":1201:1286  function owner() public view virtual returns (address) {... */\n    tag_84:\n        /* \"@openzeppelin/contracts/access/Ownable.sol\":1247:1254  address */\n      0x00\n        /* \"@openzeppelin/contracts/access/Ownable.sol\":1273:1279  _owner */\n      0x08\n      0x00\n      swap1\n      sload\n      swap1\n      0x0100\n      exp\n      swap1\n      div\n      0xffffffffffffffffffffffffffffffffffffffff\n      and\n        /* \"@openzeppelin/contracts/access/Ownable.sol\":1266:1279  return _owner */\n      swap1\n      pop\n        /* \"@openzeppelin/contracts/access/Ownable.sol\":1201:1286  function owner() public view virtual returns (address) {... */\n      swap1\n      jump\t// out\n        /* \"https://github.com/chiru-labs/ERC721A/blob/main/contracts/ERC721A.sol\":10217:10319  function symbol() public view virtual override returns (string memory) {... */\n    tag_88:\n        /* \"https://github.com/chiru-labs/ERC721A/blob/main/contracts/ERC721A.sol\":10273:10286  string memory */\n      0x60\n        /* \"https://github.com/chiru-labs/ERC721A/blob/main/contracts/ERC721A.sol\":10305:10312  _symbol */\n      0x03\n        /* \"https://github.com/chiru-labs/ERC721A/blob/main/contracts/ERC721A.sol\":10298:10312  return _symbol */\n      dup1\n      sload\n      tag_191\n      swap1\n      tag_119\n      jump\t// in\n    tag_191:\n      dup1\n      0x1f\n      add\n      0x20\n      dup1\n      swap2\n      div\n      mul\n      0x20\n      add\n      mload(0x40)\n      swap1\n      dup2\n      add\n      0x40\n      mstore\n      dup1\n      swap3\n      swap2\n      swap1\n      dup2\n      dup2\n      mstore\n      0x20\n      add\n      dup3\n      dup1\n      sload\n      tag_192\n      swap1\n      tag_119\n      jump\t// in\n    tag_192:\n      dup1\n      iszero\n      tag_193\n      jumpi\n      dup1\n      0x1f\n      lt\n      tag_194\n      jumpi\n      0x0100\n      dup1\n      dup4\n      sload\n      div\n      mul\n      dup4\n      mstore\n      swap2\n      0x20\n      add\n      swap2\n      jump(tag_193)\n    tag_194:\n      dup3\n      add\n      swap2\n      swap1\n      0x00\n      mstore\n      keccak256(0x00, 0x20)\n      swap1\n    tag_195:\n      dup2\n      sload\n      dup2\n      mstore\n      swap1\n      0x01\n      add\n      swap1\n      0x20\n      add\n      dup1\n      dup4\n      gt\n      tag_195\n      jumpi\n      dup3\n      swap1\n      sub\n      0x1f\n      and\n      dup3\n      add\n      swap2\n    tag_193:\n      pop\n      pop\n      pop\n      pop\n      pop\n      swap1\n      pop\n        /* \"https://github.com/chiru-labs/ERC721A/blob/main/contracts/ERC721A.sol\":10217:10319  function symbol() public view virtual override returns (string memory) {... */\n      swap1\n      jump\t// out\n        /* \"https://github.com/chiru-labs/ERC721A/blob/main/contracts/ERC721A.sol\":17461:17692  function setApprovalForAll(address operator, bool approved) public virtual override {... */\n    tag_94:\n        /* \"https://github.com/chiru-labs/ERC721A/blob/main/contracts/ERC721A.sol\":17607:17615  approved */\n      dup1\n        /* \"https://github.com/chiru-labs/ERC721A/blob/main/contracts/ERC721A.sol\":17555:17573  _operatorApprovals */\n      0x07\n        /* \"https://github.com/chiru-labs/ERC721A/blob/main/contracts/ERC721A.sol\":17555:17594  _operatorApprovals[_msgSenderERC721A()] */\n      0x00\n        /* \"https://github.com/chiru-labs/ERC721A/blob/main/contracts/ERC721A.sol\":17574:17593  _msgSenderERC721A() */\n      tag_197\n        /* \"https://github.com/chiru-labs/ERC721A/blob/main/contracts/ERC721A.sol\":17574:17591  _msgSenderERC721A */\n      tag_145\n        /* \"https://github.com/chiru-labs/ERC721A/blob/main/contracts/ERC721A.sol\":17574:17593  _msgSenderERC721A() */\n      jump\t// in\n    tag_197:\n        /* \"https://github.com/chiru-labs/ERC721A/blob/main/contracts/ERC721A.sol\":17555:17594  _operatorApprovals[_msgSenderERC721A()] */\n      0xffffffffffffffffffffffffffffffffffffffff\n      and\n      0xffffffffffffffffffffffffffffffffffffffff\n      and\n      dup2\n      mstore\n      0x20\n      add\n      swap1\n      dup2\n      mstore\n      0x20\n      add\n      0x00\n      keccak256\n        /* \"https://github.com/chiru-labs/ERC721A/blob/main/contracts/ERC721A.sol\":17555:17604  _operatorApprovals[_msgSenderERC721A()][operator] */\n      0x00\n        /* \"https://github.com/chiru-labs/ERC721A/blob/main/contracts/ERC721A.sol\":17595:17603  operator */\n      dup5\n        /* \"https://github.com/chiru-labs/ERC721A/blob/main/contracts/ERC721A.sol\":17555:17604  _operatorApprovals[_msgSenderERC721A()][operator] */\n      0xffffffffffffffffffffffffffffffffffffffff\n      and\n      0xffffffffffffffffffffffffffffffffffffffff\n      and\n      dup2\n      mstore\n      0x20\n      add\n      swap1\n      dup2\n      mstore\n      0x20\n      add\n      0x00\n      keccak256\n      0x00\n        /* \"https://github.com/chiru-labs/ERC721A/blob/main/contracts/ERC721A.sol\":17555:17615  _operatorApprovals[_msgSenderERC721A()][operator] = approved */\n      0x0100\n      exp\n      dup2\n      sload\n      dup2\n      0xff\n      mul\n      not\n      and\n      swap1\n      dup4\n      iszero\n      iszero\n      mul\n      or\n      swap1\n      sstore\n      pop\n        /* \"https://github.com/chiru-labs/ERC721A/blob/main/contracts/ERC721A.sol\":17666:17674  operator */\n      dup2\n        /* \"https://github.com/chiru-labs/ERC721A/blob/main/contracts/ERC721A.sol\":17630:17685  ApprovalForAll(_msgSenderERC721A(), operator, approved) */\n      0xffffffffffffffffffffffffffffffffffffffff\n      and\n        /* \"https://github.com/chiru-labs/ERC721A/blob/main/contracts/ERC721A.sol\":17645:17664  _msgSenderERC721A() */\n      tag_198\n        /* \"https://github.com/chiru-labs/ERC721A/blob/main/contracts/ERC721A.sol\":17645:17662  _msgSenderERC721A */\n      tag_145\n        /* \"https://github.com/chiru-labs/ERC721A/blob/main/contracts/ERC721A.sol\":17645:17664  _msgSenderERC721A() */\n      jump\t// in\n    tag_198:\n        /* \"https://github.com/chiru-labs/ERC721A/blob/main/contracts/ERC721A.sol\":17630:17685  ApprovalForAll(_msgSenderERC721A(), operator, approved) */\n      0xffffffffffffffffffffffffffffffffffffffff\n      and\n      0x17307eab39ab6107e8899845ad3d59bd9653f200f220920489ca2b5937696c31\n        /* \"https://github.com/chiru-labs/ERC721A/blob/main/contracts/ERC721A.sol\":17676:17684  approved */\n      dup4\n        /* \"https://github.com/chiru-labs/ERC721A/blob/main/contracts/ERC721A.sol\":17630:17685  ApprovalForAll(_msgSenderERC721A(), operator, approved) */\n      mload(0x40)\n      tag_199\n      swap2\n      swap1\n      tag_30\n      jump\t// in\n    tag_199:\n      mload(0x40)\n      dup1\n      swap2\n      sub\n      swap1\n      log3\n        /* \"https://github.com/chiru-labs/ERC721A/blob/main/contracts/ERC721A.sol\":17461:17692  function setApprovalForAll(address operator, bool approved) public virtual override {... */\n      pop\n      pop\n      jump\t// out\n        /* \"https://github.com/chiru-labs/ERC721A/blob/main/contracts/ERC721A.sol\":24852:25257  function safeTransferFrom(... */\n    tag_98:\n        /* \"https://github.com/chiru-labs/ERC721A/blob/main/contracts/ERC721A.sol\":25021:25052  transferFrom(from, to, tokenId) */\n      tag_201\n        /* \"https://github.com/chiru-labs/ERC721A/blob/main/contracts/ERC721A.sol\":25034:25038  from */\n      dup5\n        /* \"https://github.com/chiru-labs/ERC721A/blob/main/contracts/ERC721A.sol\":25040:25042  to */\n      dup5\n        /* \"https://github.com/chiru-labs/ERC721A/blob/main/contracts/ERC721A.sol\":25044:25051  tokenId */\n      dup5\n        /* \"https://github.com/chiru-labs/ERC721A/blob/main/contracts/ERC721A.sol\":25021:25033  transferFrom */\n      tag_55\n        /* \"https://github.com/chiru-labs/ERC721A/blob/main/contracts/ERC721A.sol\":25021:25052  transferFrom(from, to, tokenId) */\n      jump\t// in\n    tag_201:\n        /* \"https://github.com/chiru-labs/ERC721A/blob/main/contracts/ERC721A.sol\":25084:25085  0 */\n      0x00\n        /* \"https://github.com/chiru-labs/ERC721A/blob/main/contracts/ERC721A.sol\":25066:25068  to */\n      dup4\n        /* \"https://github.com/chiru-labs/ERC721A/blob/main/contracts/ERC721A.sol\":25066:25080  to.code.length */\n      0xffffffffffffffffffffffffffffffffffffffff\n      and\n      extcodesize\n        /* \"https://github.com/chiru-labs/ERC721A/blob/main/contracts/ERC721A.sol\":25066:25085  to.code.length != 0 */\n      eq\n        /* \"https://github.com/chiru-labs/ERC721A/blob/main/contracts/ERC721A.sol\":25062:25251  if (to.code.length != 0)... */\n      tag_202\n      jumpi\n        /* \"https://github.com/chiru-labs/ERC721A/blob/main/contracts/ERC721A.sol\":25104:25160  _checkContractOnERC721Received(from, to, tokenId, _data) */\n      tag_203\n        /* \"https://github.com/chiru-labs/ERC721A/blob/main/contracts/ERC721A.sol\":25135:25139  from */\n      dup5\n        /* \"https://github.com/chiru-labs/ERC721A/blob/main/contracts/ERC721A.sol\":25141:25143  to */\n      dup5\n        /* \"https://github.com/chiru-labs/ERC721A/blob/main/contracts/ERC721A.sol\":25145:25152  tokenId */\n      dup5\n        /* \"https://github.com/chiru-labs/ERC721A/blob/main/contracts/ERC721A.sol\":25154:25159  _data */\n      dup5\n        /* \"https://github.com/chiru-labs/ERC721A/blob/main/contracts/ERC721A.sol\":25104:25134  _checkContractOnERC721Received */\n      tag_204\n        /* \"https://github.com/chiru-labs/ERC721A/blob/main/contracts/ERC721A.sol\":25104:25160  _checkContractOnERC721Received(from, to, tokenId, _data) */\n      jump\t// in\n    tag_203:\n        /* \"https://github.com/chiru-labs/ERC721A/blob/main/contracts/ERC721A.sol\":25099:25251  if (!_checkContractOnERC721Received(from, to, tokenId, _data)) {... */\n      tag_205\n      jumpi\n        /* \"https://github.com/chiru-labs/ERC721A/blob/main/contracts/ERC721A.sol\":25180:25236  _revert(TransferToNonERC721ReceiverImplementer.selector) */\n      tag_206\n        /* \"https://github.com/chiru-labs/ERC721A/blob/main/contracts/ERC721A.sol\":25188:25235  TransferToNonERC721ReceiverImplementer.selector */\n      shl(0xe0, 0xd1a57ed6)\n        /* \"https://github.com/chiru-labs/ERC721A/blob/main/contracts/ERC721A.sol\":25180:25187  _revert */\n      tag_129\n        /* \"https://github.com/chiru-labs/ERC721A/blob/main/contracts/ERC721A.sol\":25180:25236  _revert(TransferToNonERC721ReceiverImplementer.selector) */\n      jump\t// in\n    tag_206:\n        /* \"https://github.com/chiru-labs/ERC721A/blob/main/contracts/ERC721A.sol\":25099:25251  if (!_checkContractOnERC721Received(from, to, tokenId, _data)) {... */\n    tag_205:\n        /* \"https://github.com/chiru-labs/ERC721A/blob/main/contracts/ERC721A.sol\":25062:25251  if (to.code.length != 0)... */\n    tag_202:\n        /* \"https://github.com/chiru-labs/ERC721A/blob/main/contracts/ERC721A.sol\":24852:25257  function safeTransferFrom(... */\n      pop\n      pop\n      pop\n      pop\n      jump\t// out\n        /* \"contracts/kiazen/ERC721A.sol\":518:838  function tokenURI(uint256 tokenId) public view  override returns (string memory) {... */\n    tag_102:\n        /* \"contracts/kiazen/ERC721A.sol\":584:597  string memory */\n      0x60\n        /* \"contracts/kiazen/ERC721A.sol\":615:631  _exists(tokenId) */\n      tag_208\n        /* \"contracts/kiazen/ERC721A.sol\":623:630  tokenId */\n      dup3\n        /* \"contracts/kiazen/ERC721A.sol\":615:622  _exists */\n      tag_126\n        /* \"contracts/kiazen/ERC721A.sol\":615:631  _exists(tokenId) */\n      jump\t// in\n    tag_208:\n        /* \"contracts/kiazen/ERC721A.sol\":610:678  if (!_exists(tokenId)) _revert(URIQueryForNonexistentToken.selector) */\n      tag_209\n      jumpi\n        /* \"contracts/kiazen/ERC721A.sol\":633:678  _revert(URIQueryForNonexistentToken.selector) */\n      tag_210\n        /* \"contracts/kiazen/ERC721A.sol\":641:677  URIQueryForNonexistentToken.selector */\n      shl(0xe0, 0xa14c4b50)\n        /* \"contracts/kiazen/ERC721A.sol\":633:640  _revert */\n      tag_129\n        /* \"contracts/kiazen/ERC721A.sol\":633:678  _revert(URIQueryForNonexistentToken.selector) */\n      jump\t// in\n    tag_210:\n        /* \"contracts/kiazen/ERC721A.sol\":610:678  if (!_exists(tokenId)) _revert(URIQueryForNonexistentToken.selector) */\n    tag_209:\n        /* \"contracts/kiazen/ERC721A.sol\":691:712  string memory baseURI */\n      0x00\n        /* \"contracts/kiazen/ERC721A.sol\":715:725  _baseURI() */\n      tag_211\n        /* \"contracts/kiazen/ERC721A.sol\":715:723  _baseURI */\n      tag_212\n        /* \"contracts/kiazen/ERC721A.sol\":715:725  _baseURI() */\n      jump\t// in\n    tag_211:\n        /* \"contracts/kiazen/ERC721A.sol\":691:725  string memory baseURI = _baseURI() */\n      swap1\n      pop\n        /* \"contracts/kiazen/ERC721A.sol\":768:769  0 */\n      0x00\n        /* \"contracts/kiazen/ERC721A.sol\":749:756  baseURI */\n      dup2\n        /* \"contracts/kiazen/ERC721A.sol\":743:764  bytes(baseURI).length */\n      mload\n        /* \"contracts/kiazen/ERC721A.sol\":743:769  bytes(baseURI).length != 0 */\n      eq\n      iszero\n        /* \"contracts/kiazen/ERC721A.sol\":743:830  bytes(baseURI).length != 0 ? string(abi.encodePacked(baseURI, _toString(tokenId))) : '' */\n      tag_213\n      jumpi\n      mload(0x40)\n      dup1\n      0x20\n      add\n      0x40\n      mstore\n      dup1\n      0x00\n      dup2\n      mstore\n      pop\n      jump(tag_214)\n    tag_213:\n        /* \"contracts/kiazen/ERC721A.sol\":796:803  baseURI */\n      dup1\n        /* \"contracts/kiazen/ERC721A.sol\":805:823  _toString(tokenId) */\n      tag_215\n        /* \"contracts/kiazen/ERC721A.sol\":815:822  tokenId */\n      dup5\n        /* \"contracts/kiazen/ERC721A.sol\":805:814  _toString */\n      tag_216\n        /* \"contracts/kiazen/ERC721A.sol\":805:823  _toString(tokenId) */\n      jump\t// in\n    tag_215:\n        /* \"contracts/kiazen/ERC721A.sol\":779:824  abi.encodePacked(baseURI, _toString(tokenId)) */\n      add(0x20, mload(0x40))\n      tag_217\n      swap3\n      swap2\n      swap1\n      tag_218\n      jump\t// in\n    tag_217:\n      mload(0x40)\n      0x20\n      dup2\n      dup4\n      sub\n      sub\n      dup2\n      mstore\n      swap1\n      0x40\n      mstore\n        /* \"contracts/kiazen/ERC721A.sol\":743:830  bytes(baseURI).length != 0 ? string(abi.encodePacked(baseURI, _toString(tokenId))) : '' */\n    tag_214:\n        /* \"contracts/kiazen/ERC721A.sol\":736:830  return bytes(baseURI).length != 0 ? string(abi.encodePacked(baseURI, _toString(tokenId))) : '' */\n      swap2\n      pop\n      pop\n        /* \"contracts/kiazen/ERC721A.sol\":518:838  function tokenURI(uint256 tokenId) public view  override returns (string memory) {... */\n      swap2\n      swap1\n      pop\n      jump\t// out\n        /* \"https://github.com/chiru-labs/ERC721A/blob/main/contracts/ERC721A.sol\":17842:18004  function isApprovedForAll(address owner, address operator) public view virtual override returns (bool) {... */\n    tag_108:\n        /* \"https://github.com/chiru-labs/ERC721A/blob/main/contracts/ERC721A.sol\":17939:17943  bool */\n      0x00\n        /* \"https://github.com/chiru-labs/ERC721A/blob/main/contracts/ERC721A.sol\":17962:17980  _operatorApprovals */\n      0x07\n        /* \"https://github.com/chiru-labs/ERC721A/blob/main/contracts/ERC721A.sol\":17962:17987  _operatorApprovals[owner] */\n      0x00\n        /* \"https://github.com/chiru-labs/ERC721A/blob/main/contracts/ERC721A.sol\":17981:17986  owner */\n      dup5\n        /* \"https://github.com/chiru-labs/ERC721A/blob/main/contracts/ERC721A.sol\":17962:17987  _operatorApprovals[owner] */\n      0xffffffffffffffffffffffffffffffffffffffff\n      and\n      0xffffffffffffffffffffffffffffffffffffffff\n      and\n      dup2\n      mstore\n      0x20\n      add\n      swap1\n      dup2\n      mstore\n      0x20\n      add\n      0x00\n      keccak256\n        /* \"https://github.com/chiru-labs/ERC721A/blob/main/contracts/ERC721A.sol\":17962:17997  _operatorApprovals[owner][operator] */\n      0x00\n        /* \"https://github.com/chiru-labs/ERC721A/blob/main/contracts/ERC721A.sol\":17988:17996  operator */\n      dup4\n        /* \"https://github.com/chiru-labs/ERC721A/blob/main/contracts/ERC721A.sol\":17962:17997  _operatorApprovals[owner][operator] */\n      0xffffffffffffffffffffffffffffffffffffffff\n      and\n      0xffffffffffffffffffffffffffffffffffffffff\n      and\n      dup2\n      mstore\n      0x20\n      add\n      swap1\n      dup2\n      mstore\n      0x20\n      add\n      0x00\n      keccak256\n      0x00\n      swap1\n      sload\n      swap1\n      0x0100\n      exp\n      swap1\n      div\n      0xff\n      and\n        /* \"https://github.com/chiru-labs/ERC721A/blob/main/contracts/ERC721A.sol\":17955:17997  return _operatorApprovals[owner][operator] */\n      swap1\n      pop\n        /* \"https://github.com/chiru-labs/ERC721A/blob/main/contracts/ERC721A.sol\":17842:18004  function isApprovedForAll(address owner, address operator) public view virtual override returns (bool) {... */\n      swap3\n      swap2\n      pop\n      pop\n      jump\t// out\n        /* \"@openzeppelin/contracts/access/Ownable.sol\":2081:2279  function transferOwnership(address newOwner) public virtual onlyOwner {... */\n    tag_113:\n        /* \"@openzeppelin/contracts/access/Ownable.sol\":1094:1107  _checkOwner() */\n      tag_221\n        /* \"@openzeppelin/contracts/access/Ownable.sol\":1094:1105  _checkOwner */\n      tag_168\n        /* \"@openzeppelin/contracts/access/Ownable.sol\":1094:1107  _checkOwner() */\n      jump\t// in\n    tag_221:\n        /* \"@openzeppelin/contracts/access/Ownable.sol\":2189:2190  0 */\n      0x00\n        /* \"@openzeppelin/contracts/access/Ownable.sol\":2169:2191  newOwner != address(0) */\n      0xffffffffffffffffffffffffffffffffffffffff\n      and\n        /* \"@openzeppelin/contracts/access/Ownable.sol\":2169:2177  newOwner */\n      dup2\n        /* \"@openzeppelin/contracts/access/Ownable.sol\":2169:2191  newOwner != address(0) */\n      0xffffffffffffffffffffffffffffffffffffffff\n      and\n      eq\n      iszero\n        /* \"@openzeppelin/contracts/access/Ownable.sol\":2161:2234  require(newOwner != address(0), \"Ownable: new owner is the zero address\") */\n      tag_223\n      jumpi\n      mload(0x40)\n      0x08c379a000000000000000000000000000000000000000000000000000000000\n      dup2\n      mstore\n      0x04\n      add\n      tag_224\n      swap1\n      tag_225\n      jump\t// in\n    tag_224:\n      mload(0x40)\n      dup1\n      swap2\n      sub\n      swap1\n      revert\n    tag_223:\n        /* \"@openzeppelin/contracts/access/Ownable.sol\":2244:2272  _transferOwnership(newOwner) */\n      tag_226\n        /* \"@openzeppelin/contracts/access/Ownable.sol\":2263:2271  newOwner */\n      dup2\n        /* \"@openzeppelin/contracts/access/Ownable.sol\":2244:2262  _transferOwnership */\n      tag_188\n        /* \"@openzeppelin/contracts/access/Ownable.sol\":2244:2272  _transferOwnership(newOwner) */\n      jump\t// in\n    tag_226:\n        /* \"@openzeppelin/contracts/access/Ownable.sol\":2081:2279  function transferOwnership(address newOwner) public virtual onlyOwner {... */\n      pop\n      jump\t// out\n        /* \"https://github.com/chiru-labs/ERC721A/blob/main/contracts/ERC721A.sol\":18253:18613  function _exists(uint256 tokenId) internal view virtual returns (bool result) {... */\n    tag_126:\n        /* \"https://github.com/chiru-labs/ERC721A/blob/main/contracts/ERC721A.sol\":18318:18329  bool result */\n      0x00\n        /* \"https://github.com/chiru-labs/ERC721A/blob/main/contracts/ERC721A.sol\":18364:18371  tokenId */\n      dup2\n        /* \"https://github.com/chiru-labs/ERC721A/blob/main/contracts/ERC721A.sol\":18345:18360  _startTokenId() */\n      tag_228\n        /* \"https://github.com/chiru-labs/ERC721A/blob/main/contracts/ERC721A.sol\":18345:18358  _startTokenId */\n      tag_135\n        /* \"https://github.com/chiru-labs/ERC721A/blob/main/contracts/ERC721A.sol\":18345:18360  _startTokenId() */\n      jump\t// in\n    tag_228:\n        /* \"https://github.com/chiru-labs/ERC721A/blob/main/contracts/ERC721A.sol\":18345:18371  _startTokenId() <= tokenId */\n      gt\n        /* \"https://github.com/chiru-labs/ERC721A/blob/main/contracts/ERC721A.sol\":18341:18607  if (_startTokenId() <= tokenId) {... */\n      tag_229\n      jumpi\n        /* \"https://github.com/chiru-labs/ERC721A/blob/main/contracts/ERC721A.sol\":18401:18414  _currentIndex */\n      sload(0x00)\n        /* \"https://github.com/chiru-labs/ERC721A/blob/main/contracts/ERC721A.sol\":18391:18398  tokenId */\n      dup3\n        /* \"https://github.com/chiru-labs/ERC721A/blob/main/contracts/ERC721A.sol\":18391:18414  tokenId < _currentIndex */\n      lt\n        /* \"https://github.com/chiru-labs/ERC721A/blob/main/contracts/ERC721A.sol\":18387:18597  if (tokenId < _currentIndex) {... */\n      iszero\n      tag_230\n      jumpi\n        /* \"https://github.com/chiru-labs/ERC721A/blob/main/contracts/ERC721A.sol\":18434:18448  uint256 packed */\n      0x00\n        /* \"https://github.com/chiru-labs/ERC721A/blob/main/contracts/ERC721A.sol\":18466:18526  while ((packed = _packedOwnerships[tokenId]) == 0) --tokenId */\n    tag_231:\n        /* \"https://github.com/chiru-labs/ERC721A/blob/main/contracts/ERC721A.sol\":18514:18515  0 */\n      0x00\n        /* \"https://github.com/chiru-labs/ERC721A/blob/main/contracts/ERC721A.sol\":18483:18500  _packedOwnerships */\n      0x04\n        /* \"https://github.com/chiru-labs/ERC721A/blob/main/contracts/ERC721A.sol\":18483:18509  _packedOwnerships[tokenId] */\n      0x00\n        /* \"https://github.com/chiru-labs/ERC721A/blob/main/contracts/ERC721A.sol\":18501:18508  tokenId */\n      dup6\n        /* \"https://github.com/chiru-labs/ERC721A/blob/main/contracts/ERC721A.sol\":18483:18509  _packedOwnerships[tokenId] */\n      dup2\n      mstore\n      0x20\n      add\n      swap1\n      dup2\n      mstore\n      0x20\n      add\n      0x00\n      keccak256\n      sload\n        /* \"https://github.com/chiru-labs/ERC721A/blob/main/contracts/ERC721A.sol\":18474:18509  packed = _packedOwnerships[tokenId] */\n      swap2\n      pop\n      dup2\n        /* \"https://github.com/chiru-labs/ERC721A/blob/main/contracts/ERC721A.sol\":18473:18515  (packed = _packedOwnerships[tokenId]) == 0 */\n      eq\n        /* \"https://github.com/chiru-labs/ERC721A/blob/main/contracts/ERC721A.sol\":18466:18526  while ((packed = _packedOwnerships[tokenId]) == 0) --tokenId */\n      iszero\n      tag_232\n      jumpi\n        /* \"https://github.com/chiru-labs/ERC721A/blob/main/contracts/ERC721A.sol\":18517:18526  --tokenId */\n      dup3\n      tag_233\n      swap1\n      tag_234\n      jump\t// in\n    tag_233:\n      swap3\n      pop\n        /* \"https://github.com/chiru-labs/ERC721A/blob/main/contracts/ERC721A.sol\":18466:18526  while ((packed = _packedOwnerships[tokenId]) == 0) --tokenId */\n      jump(tag_231)\n    tag_232:\n        /* \"https://github.com/chiru-labs/ERC721A/blob/main/contracts/ERC721A.sol\":18581:18582  0 */\n      0x00\n        /* \"https://github.com/chiru-labs/ERC721A/blob/main/contracts/ERC721A.sol\":2118:2126  1 << 224 */\n      0x0100000000000000000000000000000000000000000000000000000000\n        /* \"https://github.com/chiru-labs/ERC721A/blob/main/contracts/ERC721A.sol\":18553:18559  packed */\n      dup3\n        /* \"https://github.com/chiru-labs/ERC721A/blob/main/contracts/ERC721A.sol\":18553:18577  packed & _BITMASK_BURNED */\n      and\n        /* \"https://github.com/chiru-labs/ERC721A/blob/main/contracts/ERC721A.sol\":18553:18582  packed & _BITMASK_BURNED == 0 */\n      eq\n        /* \"https://github.com/chiru-labs/ERC721A/blob/main/contracts/ERC721A.sol\":18544:18582  result = packed & _BITMASK_BURNED == 0 */\n      swap2\n      pop\n        /* \"https://github.com/chiru-labs/ERC721A/blob/main/contracts/ERC721A.sol\":18416:18597  {... */\n      pop\n        /* \"https://github.com/chiru-labs/ERC721A/blob/main/contracts/ERC721A.sol\":18387:18597  if (tokenId < _currentIndex) {... */\n    tag_230:\n        /* \"https://github.com/chiru-labs/ERC721A/blob/main/contracts/ERC721A.sol\":18341:18607  if (_startTokenId() <= tokenId) {... */\n    tag_229:\n        /* \"https://github.com/chiru-labs/ERC721A/blob/main/contracts/ERC721A.sol\":18253:18613  function _exists(uint256 tokenId) internal view virtual returns (bool result) {... */\n      swap2\n      swap1\n      pop\n      jump\t// out\n        /* \"https://github.com/chiru-labs/ERC721A/blob/main/contracts/ERC721A.sol\":43371:43531  function _revert(bytes4 errorSelector) internal pure {... */\n    tag_129:\n        /* \"https://github.com/chiru-labs/ERC721A/blob/main/contracts/ERC721A.sol\":43470:43483  errorSelector */\n      dup1\n        /* \"https://github.com/chiru-labs/ERC721A/blob/main/contracts/ERC721A.sol\":43464:43468  0x00 */\n      0x00\n        /* \"https://github.com/chiru-labs/ERC721A/blob/main/contracts/ERC721A.sol\":43457:43484  mstore(0x00, errorSelector) */\n      mstore\n        /* \"https://github.com/chiru-labs/ERC721A/blob/main/contracts/ERC721A.sol\":43510:43514  0x04 */\n      0x04\n        /* \"https://github.com/chiru-labs/ERC721A/blob/main/contracts/ERC721A.sol\":43504:43508  0x00 */\n      0x00\n        /* \"https://github.com/chiru-labs/ERC721A/blob/main/contracts/ERC721A.sol\":43497:43515  revert(0x00, 0x04) */\n      revert\n        /* \"https://github.com/chiru-labs/ERC721A/blob/main/contracts/ERC721A.sol\":35019:35479  function _approve(... */\n    tag_132:\n        /* \"https://github.com/chiru-labs/ERC721A/blob/main/contracts/ERC721A.sol\":35143:35156  address owner */\n      0x00\n        /* \"https://github.com/chiru-labs/ERC721A/blob/main/contracts/ERC721A.sol\":35159:35175  ownerOf(tokenId) */\n      tag_237\n        /* \"https://github.com/chiru-labs/ERC721A/blob/main/contracts/ERC721A.sol\":35167:35174  tokenId */\n      dup4\n        /* \"https://github.com/chiru-labs/ERC721A/blob/main/contracts/ERC721A.sol\":35159:35166  ownerOf */\n      tag_71\n        /* \"https://github.com/chiru-labs/ERC721A/blob/main/contracts/ERC721A.sol\":35159:35175  ownerOf(tokenId) */\n      jump\t// in\n    tag_237:\n        /* \"https://github.com/chiru-labs/ERC721A/blob/main/contracts/ERC721A.sol\":35143:35175  address owner = ownerOf(tokenId) */\n      swap1\n      pop\n        /* \"https://github.com/chiru-labs/ERC721A/blob/main/contracts/ERC721A.sol\":35190:35203  approvalCheck */\n      dup2\n        /* \"https://github.com/chiru-labs/ERC721A/blob/main/contracts/ERC721A.sol\":35190:35235  approvalCheck && _msgSenderERC721A() != owner */\n      dup1\n      iszero\n      tag_238\n      jumpi\n      pop\n        /* \"https://github.com/chiru-labs/ERC721A/blob/main/contracts/ERC721A.sol\":35230:35235  owner */\n      dup1\n        /* \"https://github.com/chiru-labs/ERC721A/blob/main/contracts/ERC721A.sol\":35207:35235  _msgSenderERC721A() != owner */\n      0xffffffffffffffffffffffffffffffffffffffff\n      and\n        /* \"https://github.com/chiru-labs/ERC721A/blob/main/contracts/ERC721A.sol\":35207:35226  _msgSenderERC721A() */\n      tag_239\n        /* \"https://github.com/chiru-labs/ERC721A/blob/main/contracts/ERC721A.sol\":35207:35224  _msgSenderERC721A */\n      tag_145\n        /* \"https://github.com/chiru-labs/ERC721A/blob/main/contracts/ERC721A.sol\":35207:35226  _msgSenderERC721A() */\n      jump\t// in\n    tag_239:\n        /* \"https://github.com/chiru-labs/ERC721A/blob/main/contracts/ERC721A.sol\":35207:35235  _msgSenderERC721A() != owner */\n      0xffffffffffffffffffffffffffffffffffffffff\n      and\n      eq\n      iszero\n        /* \"https://github.com/chiru-labs/ERC721A/blob/main/contracts/ERC721A.sol\":35190:35235  approvalCheck && _msgSenderERC721A() != owner */\n    tag_238:\n        /* \"https://github.com/chiru-labs/ERC721A/blob/main/contracts/ERC721A.sol\":35186:35384  if (approvalCheck && _msgSenderERC721A() != owner)... */\n      iszero\n      tag_240\n      jumpi\n        /* \"https://github.com/chiru-labs/ERC721A/blob/main/contracts/ERC721A.sol\":35254:35298  isApprovedForAll(owner, _msgSenderERC721A()) */\n      tag_241\n        /* \"https://github.com/chiru-labs/ERC721A/blob/main/contracts/ERC721A.sol\":35271:35276  owner */\n      dup2\n        /* \"https://github.com/chiru-labs/ERC721A/blob/main/contracts/ERC721A.sol\":35278:35297  _msgSenderERC721A() */\n      tag_242\n        /* \"https://github.com/chiru-labs/ERC721A/blob/main/contracts/ERC721A.sol\":35278:35295  _msgSenderERC721A */\n      tag_145\n        /* \"https://github.com/chiru-labs/ERC721A/blob/main/contracts/ERC721A.sol\":35278:35297  _msgSenderERC721A() */\n      jump\t// in\n    tag_242:\n        /* \"https://github.com/chiru-labs/ERC721A/blob/main/contracts/ERC721A.sol\":35254:35270  isApprovedForAll */\n      tag_108\n        /* \"https://github.com/chiru-labs/ERC721A/blob/main/contracts/ERC721A.sol\":35254:35298  isApprovedForAll(owner, _msgSenderERC721A()) */\n      jump\t// in\n    tag_241:\n        /* \"https://github.com/chiru-labs/ERC721A/blob/main/contracts/ERC721A.sol\":35249:35384  if (!isApprovedForAll(owner, _msgSenderERC721A())) {... */\n      tag_243\n      jumpi\n        /* \"https://github.com/chiru-labs/ERC721A/blob/main/contracts/ERC721A.sol\":35318:35369  _revert(ApprovalCallerNotOwnerNorApproved.selector) */\n      tag_244\n        /* \"https://github.com/chiru-labs/ERC721A/blob/main/contracts/ERC721A.sol\":35326:35368  ApprovalCallerNotOwnerNorApproved.selector */\n      shl(0xe0, 0xcfb3b942)\n        /* \"https://github.com/chiru-labs/ERC721A/blob/main/contracts/ERC721A.sol\":35318:35325  _revert */\n      tag_129\n        /* \"https://github.com/chiru-labs/ERC721A/blob/main/contracts/ERC721A.sol\":35318:35369  _revert(ApprovalCallerNotOwnerNorApproved.selector) */\n      jump\t// in\n    tag_244:\n        /* \"https://github.com/chiru-labs/ERC721A/blob/main/contracts/ERC721A.sol\":35249:35384  if (!isApprovedForAll(owner, _msgSenderERC721A())) {... */\n    tag_243:\n        /* \"https://github.com/chiru-labs/ERC721A/blob/main/contracts/ERC721A.sol\":35186:35384  if (approvalCheck && _msgSenderERC721A() != owner)... */\n    tag_240:\n        /* \"https://github.com/chiru-labs/ERC721A/blob/main/contracts/ERC721A.sol\":35427:35429  to */\n      dup4\n        /* \"https://github.com/chiru-labs/ERC721A/blob/main/contracts/ERC721A.sol\":35394:35409  _tokenApprovals */\n      0x06\n        /* \"https://github.com/chiru-labs/ERC721A/blob/main/contracts/ERC721A.sol\":35394:35418  _tokenApprovals[tokenId] */\n      0x00\n        /* \"https://github.com/chiru-labs/ERC721A/blob/main/contracts/ERC721A.sol\":35410:35417  tokenId */\n      dup6\n        /* \"https://github.com/chiru-labs/ERC721A/blob/main/contracts/ERC721A.sol\":35394:35418  _tokenApprovals[tokenId] */\n      dup2\n      mstore\n      0x20\n      add\n      swap1\n      dup2\n      mstore\n      0x20\n      add\n      0x00\n      keccak256\n        /* \"https://github.com/chiru-labs/ERC721A/blob/main/contracts/ERC721A.sol\":35394:35424  _tokenApprovals[tokenId].value */\n      0x00\n      add\n      0x00\n        /* \"https://github.com/chiru-labs/ERC721A/blob/main/contracts/ERC721A.sol\":35394:35429  _tokenApprovals[tokenId].value = to */\n      0x0100\n      exp\n      dup2\n      sload\n      dup2\n      0xffffffffffffffffffffffffffffffffffffffff\n      mul\n      not\n      and\n      swap1\n      dup4\n      0xffffffffffffffffffffffffffffffffffffffff\n      and\n      mul\n      or\n      swap1\n      sstore\n      pop\n        /* \"https://github.com/chiru-labs/ERC721A/blob/main/contracts/ERC721A.sol\":35464:35471  tokenId */\n      dup3\n        /* \"https://github.com/chiru-labs/ERC721A/blob/main/contracts/ERC721A.sol\":35460:35462  to */\n      dup5\n        /* \"https://github.com/chiru-labs/ERC721A/blob/main/contracts/ERC721A.sol\":35444:35472  Approval(owner, to, tokenId) */\n      0xffffffffffffffffffffffffffffffffffffffff\n      and\n        /* \"https://github.com/chiru-labs/ERC721A/blob/main/contracts/ERC721A.sol\":35453:35458  owner */\n      dup3\n        /* \"https://github.com/chiru-labs/ERC721A/blob/main/contracts/ERC721A.sol\":35444:35472  Approval(owner, to, tokenId) */\n      0xffffffffffffffffffffffffffffffffffffffff\n      and\n      0x8c5be1e5ebec7d5bd14f71427d1e84f3dd0314c0f7b2291e5b200ac8c7c3b925\n      mload(0x40)\n      mload(0x40)\n      dup1\n      swap2\n      sub\n      swap1\n      log4\n        /* \"https://github.com/chiru-labs/ERC721A/blob/main/contracts/ERC721A.sol\":35133:35479  {... */\n      pop\n        /* \"https://github.com/chiru-labs/ERC721A/blob/main/contracts/ERC721A.sol\":35019:35479  function _approve(... */\n      pop\n      pop\n      pop\n      jump\t// out\n        /* \"https://github.com/chiru-labs/ERC721A/blob/main/contracts/ERC721A.sol\":5426:5516  function _startTokenId() internal view virtual returns (uint256) {... */\n    tag_135:\n        /* \"https://github.com/chiru-labs/ERC721A/blob/main/contracts/ERC721A.sol\":5482:5489  uint256 */\n      0x00\n        /* \"https://github.com/chiru-labs/ERC721A/blob/main/contracts/ERC721A.sol\":5426:5516  function _startTokenId() internal view virtual returns (uint256) {... */\n      swap1\n      jump\t// out\n        /* \"https://github.com/chiru-labs/ERC721A/blob/main/contracts/ERC721A.sol\":12850:14828  function _packedOwnershipOf(uint256 tokenId) private view returns (uint256 packed) {... */\n    tag_138:\n        /* \"https://github.com/chiru-labs/ERC721A/blob/main/contracts/ERC721A.sol\":12917:12931  uint256 packed */\n      0x00\n        /* \"https://github.com/chiru-labs/ERC721A/blob/main/contracts/ERC721A.sol\":12966:12973  tokenId */\n      dup2\n        /* \"https://github.com/chiru-labs/ERC721A/blob/main/contracts/ERC721A.sol\":12947:12962  _startTokenId() */\n      tag_247\n        /* \"https://github.com/chiru-labs/ERC721A/blob/main/contracts/ERC721A.sol\":12947:12960  _startTokenId */\n      tag_135\n        /* \"https://github.com/chiru-labs/ERC721A/blob/main/contracts/ERC721A.sol\":12947:12962  _startTokenId() */\n      jump\t// in\n    tag_247:\n        /* \"https://github.com/chiru-labs/ERC721A/blob/main/contracts/ERC721A.sol\":12947:12973  _startTokenId() <= tokenId */\n      gt\n        /* \"https://github.com/chiru-labs/ERC721A/blob/main/contracts/ERC721A.sol\":12943:14765  if (_startTokenId() <= tokenId) {... */\n      tag_248\n      jumpi\n        /* \"https://github.com/chiru-labs/ERC721A/blob/main/contracts/ERC721A.sol\":12998:13015  _packedOwnerships */\n      0x04\n        /* \"https://github.com/chiru-labs/ERC721A/blob/main/contracts/ERC721A.sol\":12998:13024  _packedOwnerships[tokenId] */\n      0x00\n        /* \"https://github.com/chiru-labs/ERC721A/blob/main/contracts/ERC721A.sol\":13016:13023  tokenId */\n      dup4\n        /* \"https://github.com/chiru-labs/ERC721A/blob/main/contracts/ERC721A.sol\":12998:13024  _packedOwnerships[tokenId] */\n      dup2\n      mstore\n      0x20\n      add\n      swap1\n      dup2\n      mstore\n      0x20\n      add\n      0x00\n      keccak256\n      sload\n        /* \"https://github.com/chiru-labs/ERC721A/blob/main/contracts/ERC721A.sol\":12989:13024  packed = _packedOwnerships[tokenId] */\n      swap1\n      pop\n        /* \"https://github.com/chiru-labs/ERC721A/blob/main/contracts/ERC721A.sol\":13132:13133  0 */\n      0x00\n        /* \"https://github.com/chiru-labs/ERC721A/blob/main/contracts/ERC721A.sol\":13122:13128  packed */\n      dup2\n        /* \"https://github.com/chiru-labs/ERC721A/blob/main/contracts/ERC721A.sol\":13122:13133  packed == 0 */\n      eq\n        /* \"https://github.com/chiru-labs/ERC721A/blob/main/contracts/ERC721A.sol\":13118:14388  if (packed == 0) {... */\n      iszero\n      tag_249\n      jumpi\n        /* \"https://github.com/chiru-labs/ERC721A/blob/main/contracts/ERC721A.sol\":13168:13181  _currentIndex */\n      sload(0x00)\n        /* \"https://github.com/chiru-labs/ERC721A/blob/main/contracts/ERC721A.sol\":13157:13164  tokenId */\n      dup3\n        /* \"https://github.com/chiru-labs/ERC721A/blob/main/contracts/ERC721A.sol\":13157:13181  tokenId >= _currentIndex */\n      lt\n        /* \"https://github.com/chiru-labs/ERC721A/blob/main/contracts/ERC721A.sol\":13153:13230  if (tokenId >= _currentIndex) _revert(OwnerQueryForNonexistentToken.selector) */\n      tag_250\n      jumpi\n        /* \"https://github.com/chiru-labs/ERC721A/blob/main/contracts/ERC721A.sol\":13183:13230  _revert(OwnerQueryForNonexistentToken.selector) */\n      tag_251\n        /* \"https://github.com/chiru-labs/ERC721A/blob/main/contracts/ERC721A.sol\":13191:13229  OwnerQueryForNonexistentToken.selector */\n      shl(0xe0, 0xdf2d9b42)\n        /* \"https://github.com/chiru-labs/ERC721A/blob/main/contracts/ERC721A.sol\":13183:13190  _revert */\n      tag_129\n        /* \"https://github.com/chiru-labs/ERC721A/blob/main/contracts/ERC721A.sol\":13183:13230  _revert(OwnerQueryForNonexistentToken.selector) */\n      jump\t// in\n    tag_251:\n        /* \"https://github.com/chiru-labs/ERC721A/blob/main/contracts/ERC721A.sol\":13153:13230  if (tokenId >= _currentIndex) _revert(OwnerQueryForNonexistentToken.selector) */\n    tag_250:\n        /* \"https://github.com/chiru-labs/ERC721A/blob/main/contracts/ERC721A.sol\":13777:14374  for (;;) {... */\n    tag_252:\n        /* \"https://github.com/chiru-labs/ERC721A/blob/main/contracts/ERC721A.sol\":13853:13870  _packedOwnerships */\n      0x04\n        /* \"https://github.com/chiru-labs/ERC721A/blob/main/contracts/ERC721A.sol\":13853:13881  _packedOwnerships[--tokenId] */\n      0x00\n        /* \"https://github.com/chiru-labs/ERC721A/blob/main/contracts/ERC721A.sol\":13871:13880  --tokenId */\n      dup4\n      0x01\n      swap1\n      sub\n      swap4\n      pop\n      dup4\n        /* \"https://github.com/chiru-labs/ERC721A/blob/main/contracts/ERC721A.sol\":13853:13881  _packedOwnerships[--tokenId] */\n      dup2\n      mstore\n      0x20\n      add\n      swap1\n      dup2\n      mstore\n      0x20\n      add\n      0x00\n      keccak256\n      sload\n        /* \"https://github.com/chiru-labs/ERC721A/blob/main/contracts/ERC721A.sol\":13844:13881  packed = _packedOwnerships[--tokenId] */\n      swap1\n      pop\n        /* \"https://github.com/chiru-labs/ERC721A/blob/main/contracts/ERC721A.sol\":13939:13940  0 */\n      0x00\n        /* \"https://github.com/chiru-labs/ERC721A/blob/main/contracts/ERC721A.sol\":13929:13935  packed */\n      dup2\n        /* \"https://github.com/chiru-labs/ERC721A/blob/main/contracts/ERC721A.sol\":13929:13940  packed == 0 */\n      eq\n        /* \"https://github.com/chiru-labs/ERC721A/blob/main/contracts/ERC721A.sol\":13925:13950  if (packed == 0) continue */\n      iszero\n      tag_255\n      jumpi\n        /* \"https://github.com/chiru-labs/ERC721A/blob/main/contracts/ERC721A.sol\":13942:13950  continue */\n      jump(tag_254)\n        /* \"https://github.com/chiru-labs/ERC721A/blob/main/contracts/ERC721A.sol\":13925:13950  if (packed == 0) continue */\n    tag_255:\n        /* \"https://github.com/chiru-labs/ERC721A/blob/main/contracts/ERC721A.sol\":14004:14005  0 */\n      0x00\n        /* \"https://github.com/chiru-labs/ERC721A/blob/main/contracts/ERC721A.sol\":2118:2126  1 << 224 */\n      0x0100000000000000000000000000000000000000000000000000000000\n        /* \"https://github.com/chiru-labs/ERC721A/blob/main/contracts/ERC721A.sol\":13976:13982  packed */\n      dup3\n        /* \"https://github.com/chiru-labs/ERC721A/blob/main/contracts/ERC721A.sol\":13976:14000  packed & _BITMASK_BURNED */\n      and\n        /* \"https://github.com/chiru-labs/ERC721A/blob/main/contracts/ERC721A.sol\":13976:14005  packed & _BITMASK_BURNED == 0 */\n      eq\n        /* \"https://github.com/chiru-labs/ERC721A/blob/main/contracts/ERC721A.sol\":13972:14020  if (packed & _BITMASK_BURNED == 0) return packed */\n      iszero\n      tag_256\n      jumpi\n        /* \"https://github.com/chiru-labs/ERC721A/blob/main/contracts/ERC721A.sol\":14007:14020  return packed */\n      jump(tag_246)\n        /* \"https://github.com/chiru-labs/ERC721A/blob/main/contracts/ERC721A.sol\":13972:14020  if (packed & _BITMASK_BURNED == 0) return packed */\n    tag_256:\n        /* \"https://github.com/chiru-labs/ERC721A/blob/main/contracts/ERC721A.sol\":14308:14355  _revert(OwnerQueryForNonexistentToken.selector) */\n      tag_257\n        /* \"https://github.com/chiru-labs/ERC721A/blob/main/contracts/ERC721A.sol\":14316:14354  OwnerQueryForNonexistentToken.selector */\n      shl(0xe0, 0xdf2d9b42)\n        /* \"https://github.com/chiru-labs/ERC721A/blob/main/contracts/ERC721A.sol\":14308:14315  _revert */\n      tag_129\n        /* \"https://github.com/chiru-labs/ERC721A/blob/main/contracts/ERC721A.sol\":14308:14355  _revert(OwnerQueryForNonexistentToken.selector) */\n      jump\t// in\n    tag_257:\n        /* \"https://github.com/chiru-labs/ERC721A/blob/main/contracts/ERC721A.sol\":13777:14374  for (;;) {... */\n    tag_254:\n      jump(tag_252)\n        /* \"https://github.com/chiru-labs/ERC721A/blob/main/contracts/ERC721A.sol\":13118:14388  if (packed == 0) {... */\n    tag_249:\n        /* \"https://github.com/chiru-labs/ERC721A/blob/main/contracts/ERC721A.sol\":14738:14739  0 */\n      0x00\n        /* \"https://github.com/chiru-labs/ERC721A/blob/main/contracts/ERC721A.sol\":2118:2126  1 << 224 */\n      0x0100000000000000000000000000000000000000000000000000000000\n        /* \"https://github.com/chiru-labs/ERC721A/blob/main/contracts/ERC721A.sol\":14710:14716  packed */\n      dup3\n        /* \"https://github.com/chiru-labs/ERC721A/blob/main/contracts/ERC721A.sol\":14710:14734  packed & _BITMASK_BURNED */\n      and\n        /* \"https://github.com/chiru-labs/ERC721A/blob/main/contracts/ERC721A.sol\":14710:14739  packed & _BITMASK_BURNED == 0 */\n      eq\n        /* \"https://github.com/chiru-labs/ERC721A/blob/main/contracts/ERC721A.sol\":14706:14754  if (packed & _BITMASK_BURNED == 0) return packed */\n      iszero\n      tag_258\n      jumpi\n        /* \"https://github.com/chiru-labs/ERC721A/blob/main/contracts/ERC721A.sol\":14741:14754  return packed */\n      jump(tag_246)\n        /* \"https://github.com/chiru-labs/ERC721A/blob/main/contracts/ERC721A.sol\":14706:14754  if (packed & _BITMASK_BURNED == 0) return packed */\n    tag_258:\n        /* \"https://github.com/chiru-labs/ERC721A/blob/main/contracts/ERC721A.sol\":12943:14765  if (_startTokenId() <= tokenId) {... */\n    tag_248:\n        /* \"https://github.com/chiru-labs/ERC721A/blob/main/contracts/ERC721A.sol\":14774:14821  _revert(OwnerQueryForNonexistentToken.selector) */\n      tag_259\n        /* \"https://github.com/chiru-labs/ERC721A/blob/main/contracts/ERC721A.sol\":14782:14820  OwnerQueryForNonexistentToken.selector */\n      shl(0xe0, 0xdf2d9b42)\n        /* \"https://github.com/chiru-labs/ERC721A/blob/main/contracts/ERC721A.sol\":14774:14781  _revert */\n      tag_129\n        /* \"https://github.com/chiru-labs/ERC721A/blob/main/contracts/ERC721A.sol\":14774:14821  _revert(OwnerQueryForNonexistentToken.selector) */\n      jump\t// in\n    tag_259:\n        /* \"https://github.com/chiru-labs/ERC721A/blob/main/contracts/ERC721A.sol\":12850:14828  function _packedOwnershipOf(uint256 tokenId) private view returns (uint256 packed) {... */\n    tag_246:\n      swap2\n      swap1\n      pop\n      jump\t// out\n        /* \"https://github.com/chiru-labs/ERC721A/blob/main/contracts/ERC721A.sol\":19471:19945  function _getApprovedSlotAndAddress(uint256 tokenId)... */\n    tag_142:\n        /* \"https://github.com/chiru-labs/ERC721A/blob/main/contracts/ERC721A.sol\":19570:19597  uint256 approvedAddressSlot */\n      0x00\n        /* \"https://github.com/chiru-labs/ERC721A/blob/main/contracts/ERC721A.sol\":19599:19622  address approvedAddress */\n      dup1\n        /* \"https://github.com/chiru-labs/ERC721A/blob/main/contracts/ERC721A.sol\":19638:19676  TokenApprovalRef storage tokenApproval */\n      0x00\n        /* \"https://github.com/chiru-labs/ERC721A/blob/main/contracts/ERC721A.sol\":19679:19694  _tokenApprovals */\n      0x06\n        /* \"https://github.com/chiru-labs/ERC721A/blob/main/contracts/ERC721A.sol\":19679:19703  _tokenApprovals[tokenId] */\n      0x00\n        /* \"https://github.com/chiru-labs/ERC721A/blob/main/contracts/ERC721A.sol\":19695:19702  tokenId */\n      dup6\n        /* \"https://github.com/chiru-labs/ERC721A/blob/main/contracts/ERC721A.sol\":19679:19703  _tokenApprovals[tokenId] */\n      dup2\n      mstore\n      0x20\n      add\n      swap1\n      dup2\n      mstore\n      0x20\n      add\n      0x00\n      keccak256\n        /* \"https://github.com/chiru-labs/ERC721A/blob/main/contracts/ERC721A.sol\":19638:19703  TokenApprovalRef storage tokenApproval = _tokenApprovals[tokenId] */\n      swap1\n      pop\n        /* \"https://github.com/chiru-labs/ERC721A/blob/main/contracts/ERC721A.sol\":19853:19871  tokenApproval.slot */\n      dup1\n        /* \"https://github.com/chiru-labs/ERC721A/blob/main/contracts/ERC721A.sol\":19830:19871  approvedAddressSlot := tokenApproval.slot */\n      swap3\n      pop\n        /* \"https://github.com/chiru-labs/ERC721A/blob/main/contracts/ERC721A.sol\":19909:19928  approvedAddressSlot */\n      dup3\n        /* \"https://github.com/chiru-labs/ERC721A/blob/main/contracts/ERC721A.sol\":19903:19929  sload(approvedAddressSlot) */\n      sload\n        /* \"https://github.com/chiru-labs/ERC721A/blob/main/contracts/ERC721A.sol\":19884:19929  approvedAddress := sload(approvedAddressSlot) */\n      swap2\n      pop\n        /* \"https://github.com/chiru-labs/ERC721A/blob/main/contracts/ERC721A.sol\":19816:19939  {... */\n      pop\n        /* \"https://github.com/chiru-labs/ERC721A/blob/main/contracts/ERC721A.sol\":19471:19945  function _getApprovedSlotAndAddress(uint256 tokenId)... */\n      swap2\n      pop\n      swap2\n      jump\t// out\n        /* \"https://github.com/chiru-labs/ERC721A/blob/main/contracts/ERC721A.sol\":41401:41504  function _msgSenderERC721A() internal view virtual returns (address) {... */\n    tag_145:\n        /* \"https://github.com/chiru-labs/ERC721A/blob/main/contracts/ERC721A.sol\":41461:41468  address */\n      0x00\n        /* \"https://github.com/chiru-labs/ERC721A/blob/main/contracts/ERC721A.sol\":41487:41497  msg.sender */\n      caller\n        /* \"https://github.com/chiru-labs/ERC721A/blob/main/contracts/ERC721A.sol\":41480:41497  return msg.sender */\n      swap1\n      pop\n        /* \"https://github.com/chiru-labs/ERC721A/blob/main/contracts/ERC721A.sol\":41401:41504  function _msgSenderERC721A() internal view virtual returns (address) {... */\n      swap1\n      jump\t// out\n        /* \"https://github.com/chiru-labs/ERC721A/blob/main/contracts/ERC721A.sol\":18717:19363  function _isSenderApprovedOrOwner(... */\n    tag_146:\n        /* \"https://github.com/chiru-labs/ERC721A/blob/main/contracts/ERC721A.sol\":18862:18873  bool result */\n      0x00\n        /* \"https://github.com/chiru-labs/ERC721A/blob/main/contracts/ERC721A.sol\":19024:19040  _BITMASK_ADDRESS */\n      0xffffffffffffffffffffffffffffffffffffffff\n        /* \"https://github.com/chiru-labs/ERC721A/blob/main/contracts/ERC721A.sol\":19017:19022  owner */\n      dup4\n        /* \"https://github.com/chiru-labs/ERC721A/blob/main/contracts/ERC721A.sol\":19013:19041  and(owner, _BITMASK_ADDRESS) */\n      and\n        /* \"https://github.com/chiru-labs/ERC721A/blob/main/contracts/ERC721A.sol\":19004:19041  owner := and(owner, _BITMASK_ADDRESS) */\n      swap3\n      pop\n        /* \"https://github.com/chiru-labs/ERC721A/blob/main/contracts/ERC721A.sol\":19182:19198  _BITMASK_ADDRESS */\n      0xffffffffffffffffffffffffffffffffffffffff\n        /* \"https://github.com/chiru-labs/ERC721A/blob/main/contracts/ERC721A.sol\":19171:19180  msgSender */\n      dup3\n        /* \"https://github.com/chiru-labs/ERC721A/blob/main/contracts/ERC721A.sol\":19167:19199  and(msgSender, _BITMASK_ADDRESS) */\n      and\n        /* \"https://github.com/chiru-labs/ERC721A/blob/main/contracts/ERC721A.sol\":19154:19199  msgSender := and(msgSender, _BITMASK_ADDRESS) */\n      swap2\n      pop\n        /* \"https://github.com/chiru-labs/ERC721A/blob/main/contracts/ERC721A.sol\":19330:19345  approvedAddress */\n      dup4\n        /* \"https://github.com/chiru-labs/ERC721A/blob/main/contracts/ERC721A.sol\":19319:19328  msgSender */\n      dup3\n        /* \"https://github.com/chiru-labs/ERC721A/blob/main/contracts/ERC721A.sol\":19316:19346  eq(msgSender, approvedAddress) */\n      eq\n        /* \"https://github.com/chiru-labs/ERC721A/blob/main/contracts/ERC721A.sol\":19308:19313  owner */\n      dup4\n        /* \"https://github.com/chiru-labs/ERC721A/blob/main/contracts/ERC721A.sol\":19297:19306  msgSender */\n      dup4\n        /* \"https://github.com/chiru-labs/ERC721A/blob/main/contracts/ERC721A.sol\":19294:19314  eq(msgSender, owner) */\n      eq\n        /* \"https://github.com/chiru-labs/ERC721A/blob/main/contracts/ERC721A.sol\":19291:19347  or(eq(msgSender, owner), eq(msgSender, approvedAddress)) */\n      or\n        /* \"https://github.com/chiru-labs/ERC721A/blob/main/contracts/ERC721A.sol\":19281:19347  result := or(eq(msgSender, owner), eq(msgSender, approvedAddress)) */\n      swap1\n      pop\n        /* \"https://github.com/chiru-labs/ERC721A/blob/main/contracts/ERC721A.sol\":18717:19363  function _isSenderApprovedOrOwner(... */\n      swap4\n      swap3\n      pop\n      pop\n      pop\n      jump\t// out\n        /* \"https://github.com/chiru-labs/ERC721A/blob/main/contracts/ERC721A.sol\":25901:26055  function _beforeTokenTransfers(... */\n    tag_153:\n      pop\n      pop\n      pop\n      pop\n      jump\t// out\n        /* \"https://github.com/chiru-labs/ERC721A/blob/main/contracts/ERC721A.sol\":40728:41032  function _nextExtraData(... */\n    tag_157:\n        /* \"https://github.com/chiru-labs/ERC721A/blob/main/contracts/ERC721A.sol\":40859:40866  uint256 */\n      0x00\n        /* \"https://github.com/chiru-labs/ERC721A/blob/main/contracts/ERC721A.sol\":40878:40894  uint24 extraData */\n      dup1\n        /* \"https://github.com/chiru-labs/ERC721A/blob/main/contracts/ERC721A.sol\":2513:2516  232 */\n      0xe8\n        /* \"https://github.com/chiru-labs/ERC721A/blob/main/contracts/ERC721A.sol\":40904:40923  prevOwnershipPacked */\n      dup4\n        /* \"https://github.com/chiru-labs/ERC721A/blob/main/contracts/ERC721A.sol\":40904:40945  prevOwnershipPacked >> _BITPOS_EXTRA_DATA */\n      swap1\n      shr\n        /* \"https://github.com/chiru-labs/ERC721A/blob/main/contracts/ERC721A.sol\":40878:40946  uint24 extraData = uint24(prevOwnershipPacked >> _BITPOS_EXTRA_DATA) */\n      swap1\n      pop\n        /* \"https://github.com/chiru-labs/ERC721A/blob/main/contracts/ERC721A.sol\":2513:2516  232 */\n      0xe8\n        /* \"https://github.com/chiru-labs/ERC721A/blob/main/contracts/ERC721A.sol\":40971:41002  _extraData(from, to, extraData) */\n      tag_265\n        /* \"https://github.com/chiru-labs/ERC721A/blob/main/contracts/ERC721A.sol\":40982:40986  from */\n      dup7\n        /* \"https://github.com/chiru-labs/ERC721A/blob/main/contracts/ERC721A.sol\":40988:40990  to */\n      dup7\n        /* \"https://github.com/chiru-labs/ERC721A/blob/main/contracts/ERC721A.sol\":40992:41001  extraData */\n      dup5\n        /* \"https://github.com/chiru-labs/ERC721A/blob/main/contracts/ERC721A.sol\":40971:40981  _extraData */\n      tag_266\n        /* \"https://github.com/chiru-labs/ERC721A/blob/main/contracts/ERC721A.sol\":40971:41002  _extraData(from, to, extraData) */\n      jump\t// in\n    tag_265:\n        /* \"https://github.com/chiru-labs/ERC721A/blob/main/contracts/ERC721A.sol\":40963:41003  uint256(_extraData(from, to, extraData)) */\n      0xffffff\n      and\n        /* \"https://github.com/chiru-labs/ERC721A/blob/main/contracts/ERC721A.sol\":40963:41025  uint256(_extraData(from, to, extraData)) << _BITPOS_EXTRA_DATA */\n      swap1\n      shl\n        /* \"https://github.com/chiru-labs/ERC721A/blob/main/contracts/ERC721A.sol\":40956:41025  return uint256(_extraData(from, to, extraData)) << _BITPOS_EXTRA_DATA */\n      swap2\n      pop\n      pop\n        /* \"https://github.com/chiru-labs/ERC721A/blob/main/contracts/ERC721A.sol\":40728:41032  function _nextExtraData(... */\n      swap4\n      swap3\n      pop\n      pop\n      pop\n      jump\t// out\n        /* \"https://github.com/chiru-labs/ERC721A/blob/main/contracts/ERC721A.sol\":15361:15804  function _packOwnershipData(address owner, uint256 flags) private view returns (uint256 result) {... */\n    tag_158:\n        /* \"https://github.com/chiru-labs/ERC721A/blob/main/contracts/ERC721A.sol\":15441:15455  uint256 result */\n      0x00\n        /* \"https://github.com/chiru-labs/ERC721A/blob/main/contracts/ERC721A.sol\":15606:15622  _BITMASK_ADDRESS */\n      0xffffffffffffffffffffffffffffffffffffffff\n        /* \"https://github.com/chiru-labs/ERC721A/blob/main/contracts/ERC721A.sol\":15599:15604  owner */\n      dup4\n        /* \"https://github.com/chiru-labs/ERC721A/blob/main/contracts/ERC721A.sol\":15595:15623  and(owner, _BITMASK_ADDRESS) */\n      and\n        /* \"https://github.com/chiru-labs/ERC721A/blob/main/contracts/ERC721A.sol\":15586:15623  owner := and(owner, _BITMASK_ADDRESS) */\n      swap3\n      pop\n        /* \"https://github.com/chiru-labs/ERC721A/blob/main/contracts/ERC721A.sol\":15781:15786  flags */\n      dup2\n        /* \"https://github.com/chiru-labs/ERC721A/blob/main/contracts/ERC721A.sol\":15767:15778  timestamp() */\n      timestamp\n        /* \"https://github.com/chiru-labs/ERC721A/blob/main/contracts/ERC721A.sol\":15742:15765  _BITPOS_START_TIMESTAMP */\n      0xa0\n        /* \"https://github.com/chiru-labs/ERC721A/blob/main/contracts/ERC721A.sol\":15738:15779  shl(_BITPOS_START_TIMESTAMP, timestamp()) */\n      shl\n        /* \"https://github.com/chiru-labs/ERC721A/blob/main/contracts/ERC721A.sol\":15735:15787  or(shl(_BITPOS_START_TIMESTAMP, timestamp()), flags) */\n      or\n        /* \"https://github.com/chiru-labs/ERC721A/blob/main/contracts/ERC721A.sol\":15728:15733  owner */\n      dup4\n        /* \"https://github.com/chiru-labs/ERC721A/blob/main/contracts/ERC721A.sol\":15725:15788  or(owner, or(shl(_BITPOS_START_TIMESTAMP, timestamp()), flags)) */\n      or\n        /* \"https://github.com/chiru-labs/ERC721A/blob/main/contracts/ERC721A.sol\":15715:15788  result := or(owner, or(shl(_BITPOS_START_TIMESTAMP, timestamp()), flags)) */\n      swap1\n      pop\n        /* \"https://github.com/chiru-labs/ERC721A/blob/main/contracts/ERC721A.sol\":15361:15804  function _packOwnershipData(address owner, uint256 flags) private view returns (uint256 result) {... */\n      swap3\n      swap2\n      pop\n      pop\n      jump\t// out\n        /* \"https://github.com/chiru-labs/ERC721A/blob/main/contracts/ERC721A.sol\":26702:26855  function _afterTokenTransfers(... */\n    tag_165:\n      pop\n      pop\n      pop\n      pop\n      jump\t// out\n        /* \"@openzeppelin/contracts/access/Ownable.sol\":1359:1489  function _checkOwner() internal view virtual {... */\n    tag_168:\n        /* \"@openzeppelin/contracts/access/Ownable.sol\":1433:1445  _msgSender() */\n      tag_270\n        /* \"@openzeppelin/contracts/access/Ownable.sol\":1433:1443  _msgSender */\n      tag_271\n        /* \"@openzeppelin/contracts/access/Ownable.sol\":1433:1445  _msgSender() */\n      jump\t// in\n    tag_270:\n        /* \"@openzeppelin/contracts/access/Ownable.sol\":1422:1445  owner() == _msgSender() */\n      0xffffffffffffffffffffffffffffffffffffffff\n      and\n        /* \"@openzeppelin/contracts/access/Ownable.sol\":1422:1429  owner() */\n      tag_272\n        /* \"@openzeppelin/contracts/access/Ownable.sol\":1422:1427  owner */\n      tag_84\n        /* \"@openzeppelin/contracts/access/Ownable.sol\":1422:1429  owner() */\n      jump\t// in\n    tag_272:\n        /* \"@openzeppelin/contracts/access/Ownable.sol\":1422:1445  owner() == _msgSender() */\n      0xffffffffffffffffffffffffffffffffffffffff\n      and\n      eq\n        /* \"@openzeppelin/contracts/access/Ownable.sol\":1414:1482  require(owner() == _msgSender(), \"Ownable: caller is not the owner\") */\n      tag_273\n      jumpi\n      mload(0x40)\n      0x08c379a000000000000000000000000000000000000000000000000000000000\n      dup2\n      mstore\n      0x04\n      add\n      tag_274\n      swap1\n      tag_275\n      jump\t// in\n    tag_274:\n      mload(0x40)\n      dup1\n      swap2\n      sub\n      swap1\n      revert\n    tag_273:\n        /* \"@openzeppelin/contracts/access/Ownable.sol\":1359:1489  function _checkOwner() internal view virtual {... */\n      jump\t// out\n        /* \"https://github.com/chiru-labs/ERC721A/blob/main/contracts/ERC721A.sol\":28402:30653  function _mint(address to, uint256 quantity) internal virtual {... */\n    tag_171:\n        /* \"https://github.com/chiru-labs/ERC721A/blob/main/contracts/ERC721A.sol\":28474:28494  uint256 startTokenId */\n      0x00\n        /* \"https://github.com/chiru-labs/ERC721A/blob/main/contracts/ERC721A.sol\":28497:28510  _currentIndex */\n      dup1\n      sload\n        /* \"https://github.com/chiru-labs/ERC721A/blob/main/contracts/ERC721A.sol\":28474:28510  uint256 startTokenId = _currentIndex */\n      swap1\n      pop\n        /* \"https://github.com/chiru-labs/ERC721A/blob/main/contracts/ERC721A.sol\":28536:28537  0 */\n      0x00\n        /* \"https://github.com/chiru-labs/ERC721A/blob/main/contracts/ERC721A.sol\":28524:28532  quantity */\n      dup3\n        /* \"https://github.com/chiru-labs/ERC721A/blob/main/contracts/ERC721A.sol\":28524:28537  quantity == 0 */\n      eq\n        /* \"https://github.com/chiru-labs/ERC721A/blob/main/contracts/ERC721A.sol\":28520:28573  if (quantity == 0) _revert(MintZeroQuantity.selector) */\n      iszero\n      tag_277\n      jumpi\n        /* \"https://github.com/chiru-labs/ERC721A/blob/main/contracts/ERC721A.sol\":28539:28573  _revert(MintZeroQuantity.selector) */\n      tag_278\n        /* \"https://github.com/chiru-labs/ERC721A/blob/main/contracts/ERC721A.sol\":28547:28572  MintZeroQuantity.selector */\n      shl(0xe0, 0xb562e8dd)\n        /* \"https://github.com/chiru-labs/ERC721A/blob/main/contracts/ERC721A.sol\":28539:28546  _revert */\n      tag_129\n        /* \"https://github.com/chiru-labs/ERC721A/blob/main/contracts/ERC721A.sol\":28539:28573  _revert(MintZeroQuantity.selector) */\n      jump\t// in\n    tag_278:\n        /* \"https://github.com/chiru-labs/ERC721A/blob/main/contracts/ERC721A.sol\":28520:28573  if (quantity == 0) _revert(MintZeroQuantity.selector) */\n    tag_277:\n        /* \"https://github.com/chiru-labs/ERC721A/blob/main/contracts/ERC721A.sol\":28584:28645  _beforeTokenTransfers(address(0), to, startTokenId, quantity) */\n      tag_279\n        /* \"https://github.com/chiru-labs/ERC721A/blob/main/contracts/ERC721A.sol\":28614:28615  0 */\n      0x00\n        /* \"https://github.com/chiru-labs/ERC721A/blob/main/contracts/ERC721A.sol\":28618:28620  to */\n      dup5\n        /* \"https://github.com/chiru-labs/ERC721A/blob/main/contracts/ERC721A.sol\":28622:28634  startTokenId */\n      dup4\n        /* \"https://github.com/chiru-labs/ERC721A/blob/main/contracts/ERC721A.sol\":28636:28644  quantity */\n      dup6\n        /* \"https://github.com/chiru-labs/ERC721A/blob/main/contracts/ERC721A.sol\":28584:28605  _beforeTokenTransfers */\n      tag_153\n        /* \"https://github.com/chiru-labs/ERC721A/blob/main/contracts/ERC721A.sol\":28584:28645  _beforeTokenTransfers(address(0), to, startTokenId, quantity) */\n      jump\t// in\n    tag_279:\n        /* \"https://github.com/chiru-labs/ERC721A/blob/main/contracts/ERC721A.sol\":29107:29243  _packOwnershipData(... */\n      tag_280\n        /* \"https://github.com/chiru-labs/ERC721A/blob/main/contracts/ERC721A.sol\":29143:29145  to */\n      dup4\n        /* \"https://github.com/chiru-labs/ERC721A/blob/main/contracts/ERC721A.sol\":29196:29229  _nextExtraData(address(0), to, 0) */\n      tag_281\n        /* \"https://github.com/chiru-labs/ERC721A/blob/main/contracts/ERC721A.sol\":29219:29220  0 */\n      0x00\n        /* \"https://github.com/chiru-labs/ERC721A/blob/main/contracts/ERC721A.sol\":29223:29225  to */\n      dup7\n        /* \"https://github.com/chiru-labs/ERC721A/blob/main/contracts/ERC721A.sol\":29227:29228  0 */\n      0x00\n        /* \"https://github.com/chiru-labs/ERC721A/blob/main/contracts/ERC721A.sol\":29196:29210  _nextExtraData */\n      tag_157\n        /* \"https://github.com/chiru-labs/ERC721A/blob/main/contracts/ERC721A.sol\":29196:29229  _nextExtraData(address(0), to, 0) */\n      jump\t// in\n    tag_281:\n        /* \"https://github.com/chiru-labs/ERC721A/blob/main/contracts/ERC721A.sol\":29163:29193  _nextInitializedFlag(quantity) */\n      tag_282\n        /* \"https://github.com/chiru-labs/ERC721A/blob/main/contracts/ERC721A.sol\":29184:29192  quantity */\n      dup6\n        /* \"https://github.com/chiru-labs/ERC721A/blob/main/contracts/ERC721A.sol\":29163:29183  _nextInitializedFlag */\n      tag_283\n        /* \"https://github.com/chiru-labs/ERC721A/blob/main/contracts/ERC721A.sol\":29163:29193  _nextInitializedFlag(quantity) */\n      jump\t// in\n    tag_282:\n        /* \"https://github.com/chiru-labs/ERC721A/blob/main/contracts/ERC721A.sol\":29163:29229  _nextInitializedFlag(quantity) | _nextExtraData(address(0), to, 0) */\n      or\n        /* \"https://github.com/chiru-labs/ERC721A/blob/main/contracts/ERC721A.sol\":29107:29125  _packOwnershipData */\n      tag_158\n        /* \"https://github.com/chiru-labs/ERC721A/blob/main/contracts/ERC721A.sol\":29107:29243  _packOwnershipData(... */\n      jump\t// in\n    tag_280:\n        /* \"https://github.com/chiru-labs/ERC721A/blob/main/contracts/ERC721A.sol\":29073:29090  _packedOwnerships */\n      0x04\n        /* \"https://github.com/chiru-labs/ERC721A/blob/main/contracts/ERC721A.sol\":29073:29104  _packedOwnerships[startTokenId] */\n      0x00\n        /* \"https://github.com/chiru-labs/ERC721A/blob/main/contracts/ERC721A.sol\":29091:29103  startTokenId */\n      dup4\n        /* \"https://github.com/chiru-labs/ERC721A/blob/main/contracts/ERC721A.sol\":29073:29104  _packedOwnerships[startTokenId] */\n      dup2\n      mstore\n      0x20\n      add\n      swap1\n      dup2\n      mstore\n      0x20\n      add\n      0x00\n      keccak256\n        /* \"https://github.com/chiru-labs/ERC721A/blob/main/contracts/ERC721A.sol\":29073:29243  _packedOwnerships[startTokenId] = _packOwnershipData(... */\n      dup2\n      swap1\n      sstore\n      pop\n        /* \"https://github.com/chiru-labs/ERC721A/blob/main/contracts/ERC721A.sol\":29523:29524  1 */\n      0x01\n        /* \"https://github.com/chiru-labs/ERC721A/blob/main/contracts/ERC721A.sol\":1495:1497  64 */\n      0x40\n        /* \"https://github.com/chiru-labs/ERC721A/blob/main/contracts/ERC721A.sol\":29493:29494  1 */\n      0x01\n        /* \"https://github.com/chiru-labs/ERC721A/blob/main/contracts/ERC721A.sol\":29493:29519  1 << _BITPOS_NUMBER_MINTED */\n      swap1\n      shl\n        /* \"https://github.com/chiru-labs/ERC721A/blob/main/contracts/ERC721A.sol\":29492:29524  (1 << _BITPOS_NUMBER_MINTED) | 1 */\n      or\n        /* \"https://github.com/chiru-labs/ERC721A/blob/main/contracts/ERC721A.sol\":29480:29488  quantity */\n      dup3\n        /* \"https://github.com/chiru-labs/ERC721A/blob/main/contracts/ERC721A.sol\":29480:29525  quantity * ((1 << _BITPOS_NUMBER_MINTED) | 1) */\n      mul\n        /* \"https://github.com/chiru-labs/ERC721A/blob/main/contracts/ERC721A.sol\":29454:29472  _packedAddressData */\n      0x05\n        /* \"https://github.com/chiru-labs/ERC721A/blob/main/contracts/ERC721A.sol\":29454:29476  _packedAddressData[to] */\n      0x00\n        /* \"https://github.com/chiru-labs/ERC721A/blob/main/contracts/ERC721A.sol\":29473:29475  to */\n      dup6\n        /* \"https://github.com/chiru-labs/ERC721A/blob/main/contracts/ERC721A.sol\":29454:29476  _packedAddressData[to] */\n      0xffffffffffffffffffffffffffffffffffffffff\n      and\n      0xffffffffffffffffffffffffffffffffffffffff\n      and\n      dup2\n      mstore\n      0x20\n      add\n      swap1\n      dup2\n      mstore\n      0x20\n      add\n      0x00\n      keccak256\n      0x00\n        /* \"https://github.com/chiru-labs/ERC721A/blob/main/contracts/ERC721A.sol\":29454:29525  _packedAddressData[to] += quantity * ((1 << _BITPOS_NUMBER_MINTED) | 1) */\n      dup3\n      dup3\n      sload\n      add\n      swap3\n      pop\n      pop\n      dup2\n      swap1\n      sstore\n      pop\n        /* \"https://github.com/chiru-labs/ERC721A/blob/main/contracts/ERC721A.sol\":29633:29649  uint256 toMasked */\n      0x00\n        /* \"https://github.com/chiru-labs/ERC721A/blob/main/contracts/ERC721A.sol\":2785:2799  (1 << 160) - 1 */\n      0xffffffffffffffffffffffffffffffffffffffff\n        /* \"https://github.com/chiru-labs/ERC721A/blob/main/contracts/ERC721A.sol\":29668:29670  to */\n      dup5\n        /* \"https://github.com/chiru-labs/ERC721A/blob/main/contracts/ERC721A.sol\":29652:29672  uint256(uint160(to)) */\n      0xffffffffffffffffffffffffffffffffffffffff\n      and\n        /* \"https://github.com/chiru-labs/ERC721A/blob/main/contracts/ERC721A.sol\":29652:29691  uint256(uint160(to)) & _BITMASK_ADDRESS */\n      and\n        /* \"https://github.com/chiru-labs/ERC721A/blob/main/contracts/ERC721A.sol\":29633:29691  uint256 toMasked = uint256(uint160(to)) & _BITMASK_ADDRESS */\n      swap1\n      pop\n        /* \"https://github.com/chiru-labs/ERC721A/blob/main/contracts/ERC721A.sol\":29722:29723  0 */\n      0x00\n        /* \"https://github.com/chiru-labs/ERC721A/blob/main/contracts/ERC721A.sol\":29710:29718  toMasked */\n      dup2\n        /* \"https://github.com/chiru-labs/ERC721A/blob/main/contracts/ERC721A.sol\":29710:29723  toMasked == 0 */\n      eq\n        /* \"https://github.com/chiru-labs/ERC721A/blob/main/contracts/ERC721A.sol\":29706:29760  if (toMasked == 0) _revert(MintToZeroAddress.selector) */\n      iszero\n      tag_284\n      jumpi\n        /* \"https://github.com/chiru-labs/ERC721A/blob/main/contracts/ERC721A.sol\":29725:29760  _revert(MintToZeroAddress.selector) */\n      tag_285\n        /* \"https://github.com/chiru-labs/ERC721A/blob/main/contracts/ERC721A.sol\":29733:29759  MintToZeroAddress.selector */\n      shl(0xe0, 0x2e076300)\n        /* \"https://github.com/chiru-labs/ERC721A/blob/main/contracts/ERC721A.sol\":29725:29732  _revert */\n      tag_129\n        /* \"https://github.com/chiru-labs/ERC721A/blob/main/contracts/ERC721A.sol\":29725:29760  _revert(MintToZeroAddress.selector) */\n      jump\t// in\n    tag_285:\n        /* \"https://github.com/chiru-labs/ERC721A/blob/main/contracts/ERC721A.sol\":29706:29760  if (toMasked == 0) _revert(MintToZeroAddress.selector) */\n    tag_284:\n        /* \"https://github.com/chiru-labs/ERC721A/blob/main/contracts/ERC721A.sol\":29775:29786  uint256 end */\n      0x00\n        /* \"https://github.com/chiru-labs/ERC721A/blob/main/contracts/ERC721A.sol\":29804:29812  quantity */\n      dup4\n        /* \"https://github.com/chiru-labs/ERC721A/blob/main/contracts/ERC721A.sol\":29789:29801  startTokenId */\n      dup4\n        /* \"https://github.com/chiru-labs/ERC721A/blob/main/contracts/ERC721A.sol\":29789:29812  startTokenId + quantity */\n      add\n        /* \"https://github.com/chiru-labs/ERC721A/blob/main/contracts/ERC721A.sol\":29775:29812  uint256 end = startTokenId + quantity */\n      swap1\n      pop\n        /* \"https://github.com/chiru-labs/ERC721A/blob/main/contracts/ERC721A.sol\":29826:29841  uint256 tokenId */\n      0x00\n        /* \"https://github.com/chiru-labs/ERC721A/blob/main/contracts/ERC721A.sol\":29844:29856  startTokenId */\n      dup4\n        /* \"https://github.com/chiru-labs/ERC721A/blob/main/contracts/ERC721A.sol\":29826:29856  uint256 tokenId = startTokenId */\n      swap1\n      pop\n        /* \"https://github.com/chiru-labs/ERC721A/blob/main/contracts/ERC721A.sol\":29871:30533  do {... */\n    tag_286:\n        /* \"https://github.com/chiru-labs/ERC721A/blob/main/contracts/ERC721A.sol\":30281:30288  tokenId */\n      dup1\n        /* \"https://github.com/chiru-labs/ERC721A/blob/main/contracts/ERC721A.sol\":30238:30246  toMasked */\n      dup4\n        /* \"https://github.com/chiru-labs/ERC721A/blob/main/contracts/ERC721A.sol\":30194:30195  0 */\n      0x00\n        /* \"https://github.com/chiru-labs/ERC721A/blob/main/contracts/ERC721A.sol\":30129:30154  _TRANSFER_EVENT_SIGNATURE */\n      0xddf252ad1be2c89b69c2b068fc378daa952ba7f163c4a11628f55a4df523b3ef\n        /* \"https://github.com/chiru-labs/ERC721A/blob/main/contracts/ERC721A.sol\":30067:30068  0 */\n      0x00\n        /* \"https://github.com/chiru-labs/ERC721A/blob/main/contracts/ERC721A.sol\":30003:30004  0 */\n      dup1\n        /* \"https://github.com/chiru-labs/ERC721A/blob/main/contracts/ERC721A.sol\":29973:30324  log4(... */\n      log4\n        /* \"https://github.com/chiru-labs/ERC721A/blob/main/contracts/ERC721A.sol\":30528:30531  end */\n      dup2\n        /* \"https://github.com/chiru-labs/ERC721A/blob/main/contracts/ERC721A.sol\":30515:30524  ++tokenId */\n      dup2\n      0x01\n      add\n      swap2\n      pop\n      dup2\n        /* \"https://github.com/chiru-labs/ERC721A/blob/main/contracts/ERC721A.sol\":30515:30531  ++tokenId != end */\n      eq\n      iszero\n        /* \"https://github.com/chiru-labs/ERC721A/blob/main/contracts/ERC721A.sol\":29871:30533  do {... */\n      tag_286\n      jumpi\n        /* \"https://github.com/chiru-labs/ERC721A/blob/main/contracts/ERC721A.sol\":30563:30566  end */\n      dup2\n        /* \"https://github.com/chiru-labs/ERC721A/blob/main/contracts/ERC721A.sol\":30547:30560  _currentIndex */\n      0x00\n        /* \"https://github.com/chiru-labs/ERC721A/blob/main/contracts/ERC721A.sol\":30547:30566  _currentIndex = end */\n      dup2\n      swap1\n      sstore\n      pop\n        /* \"https://github.com/chiru-labs/ERC721A/blob/main/contracts/ERC721A.sol\":28828:30577  unchecked {... */\n      pop\n      pop\n      pop\n        /* \"https://github.com/chiru-labs/ERC721A/blob/main/contracts/ERC721A.sol\":30586:30646  _afterTokenTransfers(address(0), to, startTokenId, quantity) */\n      tag_289\n        /* \"https://github.com/chiru-labs/ERC721A/blob/main/contracts/ERC721A.sol\":30615:30616  0 */\n      0x00\n        /* \"https://github.com/chiru-labs/ERC721A/blob/main/contracts/ERC721A.sol\":30619:30621  to */\n      dup5\n        /* \"https://github.com/chiru-labs/ERC721A/blob/main/contracts/ERC721A.sol\":30623:30635  startTokenId */\n      dup4\n        /* \"https://github.com/chiru-labs/ERC721A/blob/main/contracts/ERC721A.sol\":30637:30645  quantity */\n      dup6\n        /* \"https://github.com/chiru-labs/ERC721A/blob/main/contracts/ERC721A.sol\":30586:30606  _afterTokenTransfers */\n      tag_165\n        /* \"https://github.com/chiru-labs/ERC721A/blob/main/contracts/ERC721A.sol\":30586:30646  _afterTokenTransfers(address(0), to, startTokenId, quantity) */\n      jump\t// in\n    tag_289:\n        /* \"https://github.com/chiru-labs/ERC721A/blob/main/contracts/ERC721A.sol\":28464:30653  {... */\n      pop\n        /* \"https://github.com/chiru-labs/ERC721A/blob/main/contracts/ERC721A.sol\":28402:30653  function _mint(address to, uint256 quantity) internal virtual {... */\n      pop\n      pop\n      jump\t// out\n        /* \"https://github.com/chiru-labs/ERC721A/blob/main/contracts/ERC721A.sol\":35737:35824  function _burn(uint256 tokenId) internal virtual {... */\n    tag_178:\n        /* \"https://github.com/chiru-labs/ERC721A/blob/main/contracts/ERC721A.sol\":35796:35817  _burn(tokenId, false) */\n      tag_291\n        /* \"https://github.com/chiru-labs/ERC721A/blob/main/contracts/ERC721A.sol\":35802:35809  tokenId */\n      dup2\n        /* \"https://github.com/chiru-labs/ERC721A/blob/main/contracts/ERC721A.sol\":35811:35816  false */\n      0x00\n        /* \"https://github.com/chiru-labs/ERC721A/blob/main/contracts/ERC721A.sol\":35796:35801  _burn */\n      tag_292\n        /* \"https://github.com/chiru-labs/ERC721A/blob/main/contracts/ERC721A.sol\":35796:35817  _burn(tokenId, false) */\n      jump\t// in\n    tag_291:\n        /* \"https://github.com/chiru-labs/ERC721A/blob/main/contracts/ERC721A.sol\":35737:35824  function _burn(uint256 tokenId) internal virtual {... */\n      pop\n      jump\t// out\n        /* \"@openzeppelin/contracts/access/Ownable.sol\":2433:2620  function _transferOwnership(address newOwner) internal virtual {... */\n    tag_188:\n        /* \"@openzeppelin/contracts/access/Ownable.sol\":2506:2522  address oldOwner */\n      0x00\n        /* \"@openzeppelin/contracts/access/Ownable.sol\":2525:2531  _owner */\n      0x08\n      0x00\n      swap1\n      sload\n      swap1\n      0x0100\n      exp\n      swap1\n      div\n      0xffffffffffffffffffffffffffffffffffffffff\n      and\n        /* \"@openzeppelin/contracts/access/Ownable.sol\":2506:2531  address oldOwner = _owner */\n      swap1\n      pop\n        /* \"@openzeppelin/contracts/access/Ownable.sol\":2550:2558  newOwner */\n      dup2\n        /* \"@openzeppelin/contracts/access/Ownable.sol\":2541:2547  _owner */\n      0x08\n      0x00\n        /* \"@openzeppelin/contracts/access/Ownable.sol\":2541:2558  _owner = newOwner */\n      0x0100\n      exp\n      dup2\n      sload\n      dup2\n      0xffffffffffffffffffffffffffffffffffffffff\n      mul\n      not\n      and\n      swap1\n      dup4\n      0xffffffffffffffffffffffffffffffffffffffff\n      and\n      mul\n      or\n      swap1\n      sstore\n      pop\n        /* \"@openzeppelin/contracts/access/Ownable.sol\":2604:2612  newOwner */\n      dup2\n        /* \"@openzeppelin/contracts/access/Ownable.sol\":2573:2613  OwnershipTransferred(oldOwner, newOwner) */\n      0xffffffffffffffffffffffffffffffffffffffff\n      and\n        /* \"@openzeppelin/contracts/access/Ownable.sol\":2594:2602  oldOwner */\n      dup2\n        /* \"@openzeppelin/contracts/access/Ownable.sol\":2573:2613  OwnershipTransferred(oldOwner, newOwner) */\n      0xffffffffffffffffffffffffffffffffffffffff\n      and\n      0x8be0079c531659141344cd1fd0a4f28419497f9722a3daafe3b4186f6b6457e0\n      mload(0x40)\n      mload(0x40)\n      dup1\n      swap2\n      sub\n      swap1\n      log3\n        /* \"@openzeppelin/contracts/access/Ownable.sol\":2496:2620  {... */\n      pop\n        /* \"@openzeppelin/contracts/access/Ownable.sol\":2433:2620  function _transferOwnership(address newOwner) internal virtual {... */\n      pop\n      jump\t// out\n        /* \"https://github.com/chiru-labs/ERC721A/blob/main/contracts/ERC721A.sol\":27283:27956  function _checkContractOnERC721Received(... */\n    tag_204:\n        /* \"https://github.com/chiru-labs/ERC721A/blob/main/contracts/ERC721A.sol\":27441:27445  bool */\n      0x00\n        /* \"https://github.com/chiru-labs/ERC721A/blob/main/contracts/ERC721A.sol\":27486:27488  to */\n      dup4\n        /* \"https://github.com/chiru-labs/ERC721A/blob/main/contracts/ERC721A.sol\":27461:27506  ERC721A__IERC721Receiver(to).onERC721Received */\n      0xffffffffffffffffffffffffffffffffffffffff\n      and\n      0x150b7a02\n        /* \"https://github.com/chiru-labs/ERC721A/blob/main/contracts/ERC721A.sol\":27507:27526  _msgSenderERC721A() */\n      tag_295\n        /* \"https://github.com/chiru-labs/ERC721A/blob/main/contracts/ERC721A.sol\":27507:27524  _msgSenderERC721A */\n      tag_145\n        /* \"https://github.com/chiru-labs/ERC721A/blob/main/contracts/ERC721A.sol\":27507:27526  _msgSenderERC721A() */\n      jump\t// in\n    tag_295:\n        /* \"https://github.com/chiru-labs/ERC721A/blob/main/contracts/ERC721A.sol\":27528:27532  from */\n      dup8\n        /* \"https://github.com/chiru-labs/ERC721A/blob/main/contracts/ERC721A.sol\":27534:27541  tokenId */\n      dup7\n        /* \"https://github.com/chiru-labs/ERC721A/blob/main/contracts/ERC721A.sol\":27543:27548  _data */\n      dup7\n        /* \"https://github.com/chiru-labs/ERC721A/blob/main/contracts/ERC721A.sol\":27461:27549  ERC721A__IERC721Receiver(to).onERC721Received(_msgSenderERC721A(), from, tokenId, _data) */\n      mload(0x40)\n      dup6\n      0xffffffff\n      and\n      0xe0\n      shl\n      dup2\n      mstore\n      0x04\n      add\n      tag_296\n      swap5\n      swap4\n      swap3\n      swap2\n      swap1\n      tag_297\n      jump\t// in\n    tag_296:\n      0x20\n      mload(0x40)\n      dup1\n      dup4\n      sub\n      dup2\n      0x00\n      dup8\n      dup1\n      extcodesize\n      iszero\n      dup1\n      iszero\n      tag_298\n      jumpi\n      0x00\n      dup1\n      revert\n    tag_298:\n      pop\n      gas\n      call\n      swap3\n      pop\n      pop\n      pop\n      dup1\n      iszero\n      tag_299\n      jumpi\n      pop\n      mload(0x40)\n      returndatasize\n      not(0x1f)\n      0x1f\n      dup3\n      add\n      and\n      dup3\n      add\n      dup1\n      0x40\n      mstore\n      pop\n      dup2\n      add\n      swap1\n      tag_300\n      swap2\n      swap1\n      tag_301\n      jump\t// in\n    tag_300:\n      0x01\n    tag_299:\n        /* \"https://github.com/chiru-labs/ERC721A/blob/main/contracts/ERC721A.sol\":27457:27950  try ERC721A__IERC721Receiver(to).onERC721Received(_msgSenderERC721A(), from, tokenId, _data) returns (... */\n      tag_302\n      jumpi\n      returndatasize\n      dup1\n      0x00\n      dup2\n      eq\n      tag_307\n      jumpi\n      mload(0x40)\n      swap2\n      pop\n      and(add(returndatasize, 0x3f), not(0x1f))\n      dup3\n      add\n      0x40\n      mstore\n      returndatasize\n      dup3\n      mstore\n      returndatasize\n      0x00\n      0x20\n      dup5\n      add\n      returndatacopy\n      jump(tag_306)\n    tag_307:\n      0x60\n      swap2\n      pop\n    tag_306:\n      pop\n        /* \"https://github.com/chiru-labs/ERC721A/blob/main/contracts/ERC721A.sol\":27756:27757  0 */\n      0x00\n        /* \"https://github.com/chiru-labs/ERC721A/blob/main/contracts/ERC721A.sol\":27739:27745  reason */\n      dup2\n        /* \"https://github.com/chiru-labs/ERC721A/blob/main/contracts/ERC721A.sol\":27739:27752  reason.length */\n      mload\n        /* \"https://github.com/chiru-labs/ERC721A/blob/main/contracts/ERC721A.sol\":27739:27757  reason.length == 0 */\n      eq\n        /* \"https://github.com/chiru-labs/ERC721A/blob/main/contracts/ERC721A.sol\":27735:27848  if (reason.length == 0) {... */\n      iszero\n      tag_308\n      jumpi\n        /* \"https://github.com/chiru-labs/ERC721A/blob/main/contracts/ERC721A.sol\":27777:27833  _revert(TransferToNonERC721ReceiverImplementer.selector) */\n      tag_309\n        /* \"https://github.com/chiru-labs/ERC721A/blob/main/contracts/ERC721A.sol\":27785:27832  TransferToNonERC721ReceiverImplementer.selector */\n      shl(0xe0, 0xd1a57ed6)\n        /* \"https://github.com/chiru-labs/ERC721A/blob/main/contracts/ERC721A.sol\":27777:27784  _revert */\n      tag_129\n        /* \"https://github.com/chiru-labs/ERC721A/blob/main/contracts/ERC721A.sol\":27777:27833  _revert(TransferToNonERC721ReceiverImplementer.selector) */\n      jump\t// in\n    tag_309:\n        /* \"https://github.com/chiru-labs/ERC721A/blob/main/contracts/ERC721A.sol\":27735:27848  if (reason.length == 0) {... */\n    tag_308:\n        /* \"https://github.com/chiru-labs/ERC721A/blob/main/contracts/ERC721A.sol\":27918:27924  reason */\n      dup1\n        /* \"https://github.com/chiru-labs/ERC721A/blob/main/contracts/ERC721A.sol\":27912:27925  mload(reason) */\n      mload\n        /* \"https://github.com/chiru-labs/ERC721A/blob/main/contracts/ERC721A.sol\":27903:27909  reason */\n      dup2\n        /* \"https://github.com/chiru-labs/ERC721A/blob/main/contracts/ERC721A.sol\":27899:27901  32 */\n      0x20\n        /* \"https://github.com/chiru-labs/ERC721A/blob/main/contracts/ERC721A.sol\":27895:27910  add(32, reason) */\n      add\n        /* \"https://github.com/chiru-labs/ERC721A/blob/main/contracts/ERC721A.sol\":27888:27926  revert(add(32, reason), mload(reason)) */\n      revert\n        /* \"https://github.com/chiru-labs/ERC721A/blob/main/contracts/ERC721A.sol\":27457:27950  try ERC721A__IERC721Receiver(to).onERC721Received(_msgSenderERC721A(), from, tokenId, _data) returns (... */\n    tag_302:\n        /* \"https://github.com/chiru-labs/ERC721A/blob/main/contracts/ERC721A.sol\":27627:27681  ERC721A__IERC721Receiver(to).onERC721Received.selector */\n      shl(0xe0, 0x150b7a02)\n        /* \"https://github.com/chiru-labs/ERC721A/blob/main/contracts/ERC721A.sol\":27617:27681  retval == ERC721A__IERC721Receiver(to).onERC721Received.selector */\n      not(0xffffffffffffffffffffffffffffffffffffffffffffffffffffffff)\n      and\n        /* \"https://github.com/chiru-labs/ERC721A/blob/main/contracts/ERC721A.sol\":27617:27623  retval */\n      dup2\n        /* \"https://github.com/chiru-labs/ERC721A/blob/main/contracts/ERC721A.sol\":27617:27681  retval == ERC721A__IERC721Receiver(to).onERC721Received.selector */\n      not(0xffffffffffffffffffffffffffffffffffffffffffffffffffffffff)\n      and\n      eq\n        /* \"https://github.com/chiru-labs/ERC721A/blob/main/contracts/ERC721A.sol\":27610:27681  return retval == ERC721A__IERC721Receiver(to).onERC721Received.selector */\n      swap2\n      pop\n      pop\n        /* \"https://github.com/chiru-labs/ERC721A/blob/main/contracts/ERC721A.sol\":27283:27956  function _checkContractOnERC721Received(... */\n      swap5\n      swap4\n      pop\n      pop\n      pop\n      pop\n      jump\t// out\n        /* \"contracts/kiazen/ERC721A.sol\":373:510  function _baseURI() internal pure override returns (string memory) {... */\n    tag_212:\n        /* \"contracts/kiazen/ERC721A.sol\":425:438  string memory */\n      0x60\n        /* \"contracts/kiazen/ERC721A.sol\":451:502  return 'https://boredapeyachtclub.com/api/mutants/' */\n      mload(0x40)\n      dup1\n      0x60\n      add\n      0x40\n      mstore\n      dup1\n      0x2a\n      dup2\n      mstore\n      0x20\n      add\n      data_db1f2b0395f8af81a252e25f3b1514283a1767cf693ada85de200c6148eac63d\n      0x2a\n      swap2\n      codecopy\n      swap1\n      pop\n        /* \"contracts/kiazen/ERC721A.sol\":373:510  function _baseURI() internal pure override returns (string memory) {... */\n      swap1\n      jump\t// out\n        /* \"https://github.com/chiru-labs/ERC721A/blob/main/contracts/ERC721A.sol\":41601:43309  function _toString(uint256 value) internal pure virtual returns (string memory str) {... */\n    tag_216:\n        /* \"https://github.com/chiru-labs/ERC721A/blob/main/contracts/ERC721A.sol\":41666:41683  string memory str */\n      0x60\n        /* \"https://github.com/chiru-labs/ERC721A/blob/main/contracts/ERC721A.sol\":42094:42098  0xa0 */\n      0xa0\n        /* \"https://github.com/chiru-labs/ERC721A/blob/main/contracts/ERC721A.sol\":42087:42091  0x40 */\n      0x40\n        /* \"https://github.com/chiru-labs/ERC721A/blob/main/contracts/ERC721A.sol\":42081:42092  mload(0x40) */\n      mload\n        /* \"https://github.com/chiru-labs/ERC721A/blob/main/contracts/ERC721A.sol\":42077:42099  add(mload(0x40), 0xa0) */\n      add\n        /* \"https://github.com/chiru-labs/ERC721A/blob/main/contracts/ERC721A.sol\":42184:42185  m */\n      dup1\n        /* \"https://github.com/chiru-labs/ERC721A/blob/main/contracts/ERC721A.sol\":42178:42182  0x40 */\n      0x40\n        /* \"https://github.com/chiru-labs/ERC721A/blob/main/contracts/ERC721A.sol\":42171:42186  mstore(0x40, m) */\n      mstore\n        /* \"https://github.com/chiru-labs/ERC721A/blob/main/contracts/ERC721A.sol\":42257:42261  0x20 */\n      0x20\n        /* \"https://github.com/chiru-labs/ERC721A/blob/main/contracts/ERC721A.sol\":42254:42255  m */\n      dup2\n        /* \"https://github.com/chiru-labs/ERC721A/blob/main/contracts/ERC721A.sol\":42250:42262  sub(m, 0x20) */\n      sub\n        /* \"https://github.com/chiru-labs/ERC721A/blob/main/contracts/ERC721A.sol\":42243:42262  str := sub(m, 0x20) */\n      swap2\n      pop\n        /* \"https://github.com/chiru-labs/ERC721A/blob/main/contracts/ERC721A.sol\":42337:42338  0 */\n      0x00\n        /* \"https://github.com/chiru-labs/ERC721A/blob/main/contracts/ERC721A.sol\":42332:42335  str */\n      dup3\n        /* \"https://github.com/chiru-labs/ERC721A/blob/main/contracts/ERC721A.sol\":42325:42339  mstore(str, 0) */\n      mstore\n        /* \"https://github.com/chiru-labs/ERC721A/blob/main/contracts/ERC721A.sol\":42438:42441  str */\n      dup2\n        /* \"https://github.com/chiru-labs/ERC721A/blob/main/contracts/ERC721A.sol\":42672:42677  value */\n      dup4\n        /* \"https://github.com/chiru-labs/ERC721A/blob/main/contracts/ERC721A.sol\":42654:43073  for { let temp := value } 1 {} {... */\n    tag_313:\n        /* \"https://github.com/chiru-labs/ERC721A/blob/main/contracts/ERC721A.sol\":42680:42681  1 */\n      0x01\n        /* \"https://github.com/chiru-labs/ERC721A/blob/main/contracts/ERC721A.sol\":42654:43073  for { let temp := value } 1 {} {... */\n      iszero\n      tag_315\n      jumpi\n        /* \"https://github.com/chiru-labs/ERC721A/blob/main/contracts/ERC721A.sol\":42719:42720  1 */\n      0x01\n        /* \"https://github.com/chiru-labs/ERC721A/blob/main/contracts/ERC721A.sol\":42714:42717  str */\n      dup5\n        /* \"https://github.com/chiru-labs/ERC721A/blob/main/contracts/ERC721A.sol\":42710:42721  sub(str, 1) */\n      sub\n        /* \"https://github.com/chiru-labs/ERC721A/blob/main/contracts/ERC721A.sol\":42703:42721  str := sub(str, 1) */\n      swap4\n      pop\n        /* \"https://github.com/chiru-labs/ERC721A/blob/main/contracts/ERC721A.sol\":42887:42889  10 */\n      0x0a\n        /* \"https://github.com/chiru-labs/ERC721A/blob/main/contracts/ERC721A.sol\":42881:42885  temp */\n      dup2\n        /* \"https://github.com/chiru-labs/ERC721A/blob/main/contracts/ERC721A.sol\":42877:42890  mod(temp, 10) */\n      mod\n        /* \"https://github.com/chiru-labs/ERC721A/blob/main/contracts/ERC721A.sol\":42873:42875  48 */\n      0x30\n        /* \"https://github.com/chiru-labs/ERC721A/blob/main/contracts/ERC721A.sol\":42869:42891  add(48, mod(temp, 10)) */\n      add\n        /* \"https://github.com/chiru-labs/ERC721A/blob/main/contracts/ERC721A.sol\":42864:42867  str */\n      dup5\n        /* \"https://github.com/chiru-labs/ERC721A/blob/main/contracts/ERC721A.sol\":42856:42892  mstore8(str, add(48, mod(temp, 10))) */\n      mstore8\n        /* \"https://github.com/chiru-labs/ERC721A/blob/main/contracts/ERC721A.sol\":42979:42981  10 */\n      0x0a\n        /* \"https://github.com/chiru-labs/ERC721A/blob/main/contracts/ERC721A.sol\":42973:42977  temp */\n      dup2\n        /* \"https://github.com/chiru-labs/ERC721A/blob/main/contracts/ERC721A.sol\":42969:42982  div(temp, 10) */\n      div\n        /* \"https://github.com/chiru-labs/ERC721A/blob/main/contracts/ERC721A.sol\":42961:42982  temp := div(temp, 10) */\n      swap1\n      pop\n        /* \"https://github.com/chiru-labs/ERC721A/blob/main/contracts/ERC721A.sol\":43044:43048  temp */\n      dup1\n        /* \"https://github.com/chiru-labs/ERC721A/blob/main/contracts/ERC721A.sol\":43034:43059  if iszero(temp) { break } */\n      tag_316\n      jumpi\n        /* \"https://github.com/chiru-labs/ERC721A/blob/main/contracts/ERC721A.sol\":43052:43057  break */\n      jump(tag_315)\n        /* \"https://github.com/chiru-labs/ERC721A/blob/main/contracts/ERC721A.sol\":43034:43059  if iszero(temp) { break } */\n    tag_316:\n        /* \"https://github.com/chiru-labs/ERC721A/blob/main/contracts/ERC721A.sol\":42654:43073  for { let temp := value } 1 {} {... */\n      jump(tag_313)\n    tag_315:\n        /* \"https://github.com/chiru-labs/ERC721A/blob/main/contracts/ERC721A.sol\":42658:42679  { let temp := value } */\n      pop\n        /* \"https://github.com/chiru-labs/ERC721A/blob/main/contracts/ERC721A.sol\":43110:43113  str */\n      dup3\n        /* \"https://github.com/chiru-labs/ERC721A/blob/main/contracts/ERC721A.sol\":43105:43108  end */\n      dup2\n        /* \"https://github.com/chiru-labs/ERC721A/blob/main/contracts/ERC721A.sol\":43101:43114  sub(end, str) */\n      sub\n        /* \"https://github.com/chiru-labs/ERC721A/blob/main/contracts/ERC721A.sol\":43223:43227  0x20 */\n      0x20\n        /* \"https://github.com/chiru-labs/ERC721A/blob/main/contracts/ERC721A.sol\":43218:43221  str */\n      dup5\n        /* \"https://github.com/chiru-labs/ERC721A/blob/main/contracts/ERC721A.sol\":43214:43228  sub(str, 0x20) */\n      sub\n        /* \"https://github.com/chiru-labs/ERC721A/blob/main/contracts/ERC721A.sol\":43207:43228  str := sub(str, 0x20) */\n      swap4\n      pop\n        /* \"https://github.com/chiru-labs/ERC721A/blob/main/contracts/ERC721A.sol\":43286:43292  length */\n      dup1\n        /* \"https://github.com/chiru-labs/ERC721A/blob/main/contracts/ERC721A.sol\":43281:43284  str */\n      dup5\n        /* \"https://github.com/chiru-labs/ERC721A/blob/main/contracts/ERC721A.sol\":43274:43293  mstore(str, length) */\n      mstore\n        /* \"https://github.com/chiru-labs/ERC721A/blob/main/contracts/ERC721A.sol\":41704:43303  {... */\n      pop\n      pop\n      pop\n        /* \"https://github.com/chiru-labs/ERC721A/blob/main/contracts/ERC721A.sol\":41601:43309  function _toString(uint256 value) internal pure virtual returns (string memory str) {... */\n      swap2\n      swap1\n      pop\n      jump\t// out\n        /* \"https://github.com/chiru-labs/ERC721A/blob/main/contracts/ERC721A.sol\":40439:40582  function _extraData(... */\n    tag_266:\n        /* \"https://github.com/chiru-labs/ERC721A/blob/main/contracts/ERC721A.sol\":40572:40578  uint24 */\n      0x00\n        /* \"https://github.com/chiru-labs/ERC721A/blob/main/contracts/ERC721A.sol\":40439:40582  function _extraData(... */\n      swap4\n      swap3\n      pop\n      pop\n      pop\n      jump\t// out\n        /* \"@openzeppelin/contracts/utils/Context.sol\":640:736  function _msgSender() internal view virtual returns (address) {... */\n    tag_271:\n        /* \"@openzeppelin/contracts/utils/Context.sol\":693:700  address */\n      0x00\n        /* \"@openzeppelin/contracts/utils/Context.sol\":719:729  msg.sender */\n      caller\n        /* \"@openzeppelin/contracts/utils/Context.sol\":712:729  return msg.sender */\n      swap1\n      pop\n        /* \"@openzeppelin/contracts/utils/Context.sol\":640:736  function _msgSender() internal view virtual returns (address) {... */\n      swap1\n      jump\t// out\n        /* \"https://github.com/chiru-labs/ERC721A/blob/main/contracts/ERC721A.sol\":15901:16219  function _nextInitializedFlag(uint256 quantity) private pure returns (uint256 result) {... */\n    tag_283:\n        /* \"https://github.com/chiru-labs/ERC721A/blob/main/contracts/ERC721A.sol\":15971:15985  uint256 result */\n      0x00\n        /* \"https://github.com/chiru-labs/ERC721A/blob/main/contracts/ERC721A.sol\":16200:16201  1 */\n      0x01\n        /* \"https://github.com/chiru-labs/ERC721A/blob/main/contracts/ERC721A.sol\":16190:16198  quantity */\n      dup3\n        /* \"https://github.com/chiru-labs/ERC721A/blob/main/contracts/ERC721A.sol\":16187:16202  eq(quantity, 1) */\n      eq\n        /* \"https://github.com/chiru-labs/ERC721A/blob/main/contracts/ERC721A.sol\":16161:16185  _BITPOS_NEXT_INITIALIZED */\n      0xe1\n        /* \"https://github.com/chiru-labs/ERC721A/blob/main/contracts/ERC721A.sol\":16157:16203  shl(_BITPOS_NEXT_INITIALIZED, eq(quantity, 1)) */\n      shl\n        /* \"https://github.com/chiru-labs/ERC721A/blob/main/contracts/ERC721A.sol\":16147:16203  result := shl(_BITPOS_NEXT_INITIALIZED, eq(quantity, 1)) */\n      swap1\n      pop\n        /* \"https://github.com/chiru-labs/ERC721A/blob/main/contracts/ERC721A.sol\":15901:16219  function _nextInitializedFlag(uint256 quantity) private pure returns (uint256 result) {... */\n      swap2\n      swap1\n      pop\n      jump\t// out\n        /* \"https://github.com/chiru-labs/ERC721A/blob/main/contracts/ERC721A.sol\":36041:39065  function _burn(uint256 tokenId, bool approvalCheck) internal virtual {... */\n    tag_292:\n        /* \"https://github.com/chiru-labs/ERC721A/blob/main/contracts/ERC721A.sol\":36120:36147  uint256 prevOwnershipPacked */\n      0x00\n        /* \"https://github.com/chiru-labs/ERC721A/blob/main/contracts/ERC721A.sol\":36150:36177  _packedOwnershipOf(tokenId) */\n      tag_321\n        /* \"https://github.com/chiru-labs/ERC721A/blob/main/contracts/ERC721A.sol\":36169:36176  tokenId */\n      dup4\n        /* \"https://github.com/chiru-labs/ERC721A/blob/main/contracts/ERC721A.sol\":36150:36168  _packedOwnershipOf */\n      tag_138\n        /* \"https://github.com/chiru-labs/ERC721A/blob/main/contracts/ERC721A.sol\":36150:36177  _packedOwnershipOf(tokenId) */\n      jump\t// in\n    tag_321:\n        /* \"https://github.com/chiru-labs/ERC721A/blob/main/contracts/ERC721A.sol\":36120:36177  uint256 prevOwnershipPacked = _packedOwnershipOf(tokenId) */\n      swap1\n      pop\n        /* \"https://github.com/chiru-labs/ERC721A/blob/main/contracts/ERC721A.sol\":36188:36200  address from */\n      0x00\n        /* \"https://github.com/chiru-labs/ERC721A/blob/main/contracts/ERC721A.sol\":36219:36238  prevOwnershipPacked */\n      dup2\n        /* \"https://github.com/chiru-labs/ERC721A/blob/main/contracts/ERC721A.sol\":36188:36240  address from = address(uint160(prevOwnershipPacked)) */\n      swap1\n      pop\n        /* \"https://github.com/chiru-labs/ERC721A/blob/main/contracts/ERC721A.sol\":36252:36279  uint256 approvedAddressSlot */\n      0x00\n        /* \"https://github.com/chiru-labs/ERC721A/blob/main/contracts/ERC721A.sol\":36281:36304  address approvedAddress */\n      dup1\n        /* \"https://github.com/chiru-labs/ERC721A/blob/main/contracts/ERC721A.sol\":36308:36343  _getApprovedSlotAndAddress(tokenId) */\n      tag_322\n        /* \"https://github.com/chiru-labs/ERC721A/blob/main/contracts/ERC721A.sol\":36335:36342  tokenId */\n      dup7\n        /* \"https://github.com/chiru-labs/ERC721A/blob/main/contracts/ERC721A.sol\":36308:36334  _getApprovedSlotAndAddress */\n      tag_142\n        /* \"https://github.com/chiru-labs/ERC721A/blob/main/contracts/ERC721A.sol\":36308:36343  _getApprovedSlotAndAddress(tokenId) */\n      jump\t// in\n    tag_322:\n        /* \"https://github.com/chiru-labs/ERC721A/blob/main/contracts/ERC721A.sol\":36251:36343  (uint256 approvedAddressSlot, address approvedAddress) = _getApprovedSlotAndAddress(tokenId) */\n      swap2\n      pop\n      swap2\n      pop\n        /* \"https://github.com/chiru-labs/ERC721A/blob/main/contracts/ERC721A.sol\":36358:36371  approvalCheck */\n      dup5\n        /* \"https://github.com/chiru-labs/ERC721A/blob/main/contracts/ERC721A.sol\":36354:36675  if (approvalCheck) {... */\n      iszero\n      tag_323\n      jumpi\n        /* \"https://github.com/chiru-labs/ERC721A/blob/main/contracts/ERC721A.sol\":36477:36545  _isSenderApprovedOrOwner(approvedAddress, from, _msgSenderERC721A()) */\n      tag_324\n        /* \"https://github.com/chiru-labs/ERC721A/blob/main/contracts/ERC721A.sol\":36502:36517  approvedAddress */\n      dup2\n        /* \"https://github.com/chiru-labs/ERC721A/blob/main/contracts/ERC721A.sol\":36519:36523  from */\n      dup5\n        /* \"https://github.com/chiru-labs/ERC721A/blob/main/contracts/ERC721A.sol\":36525:36544  _msgSenderERC721A() */\n      tag_325\n        /* \"https://github.com/chiru-labs/ERC721A/blob/main/contracts/ERC721A.sol\":36525:36542  _msgSenderERC721A */\n      tag_145\n        /* \"https://github.com/chiru-labs/ERC721A/blob/main/contracts/ERC721A.sol\":36525:36544  _msgSenderERC721A() */\n      jump\t// in\n    tag_325:\n        /* \"https://github.com/chiru-labs/ERC721A/blob/main/contracts/ERC721A.sol\":36477:36501  _isSenderApprovedOrOwner */\n      tag_146\n        /* \"https://github.com/chiru-labs/ERC721A/blob/main/contracts/ERC721A.sol\":36477:36545  _isSenderApprovedOrOwner(approvedAddress, from, _msgSenderERC721A()) */\n      jump\t// in\n    tag_324:\n        /* \"https://github.com/chiru-labs/ERC721A/blob/main/contracts/ERC721A.sol\":36472:36664  if (!_isSenderApprovedOrOwner(approvedAddress, from, _msgSenderERC721A()))... */\n      tag_326\n      jumpi\n        /* \"https://github.com/chiru-labs/ERC721A/blob/main/contracts/ERC721A.sol\":36568:36611  isApprovedForAll(from, _msgSenderERC721A()) */\n      tag_327\n        /* \"https://github.com/chiru-labs/ERC721A/blob/main/contracts/ERC721A.sol\":36585:36589  from */\n      dup4\n        /* \"https://github.com/chiru-labs/ERC721A/blob/main/contracts/ERC721A.sol\":36591:36610  _msgSenderERC721A() */\n      tag_328\n        /* \"https://github.com/chiru-labs/ERC721A/blob/main/contracts/ERC721A.sol\":36591:36608  _msgSenderERC721A */\n      tag_145\n        /* \"https://github.com/chiru-labs/ERC721A/blob/main/contracts/ERC721A.sol\":36591:36610  _msgSenderERC721A() */\n      jump\t// in\n    tag_328:\n        /* \"https://github.com/chiru-labs/ERC721A/blob/main/contracts/ERC721A.sol\":36568:36584  isApprovedForAll */\n      tag_108\n        /* \"https://github.com/chiru-labs/ERC721A/blob/main/contracts/ERC721A.sol\":36568:36611  isApprovedForAll(from, _msgSenderERC721A()) */\n      jump\t// in\n    tag_327:\n        /* \"https://github.com/chiru-labs/ERC721A/blob/main/contracts/ERC721A.sol\":36563:36664  if (!isApprovedForAll(from, _msgSenderERC721A())) _revert(TransferCallerNotOwnerNorApproved.selector) */\n      tag_329\n      jumpi\n        /* \"https://github.com/chiru-labs/ERC721A/blob/main/contracts/ERC721A.sol\":36613:36664  _revert(TransferCallerNotOwnerNorApproved.selector) */\n      tag_330\n        /* \"https://github.com/chiru-labs/ERC721A/blob/main/contracts/ERC721A.sol\":36621:36663  TransferCallerNotOwnerNorApproved.selector */\n      shl(0xe0, 0x59c896be)\n        /* \"https://github.com/chiru-labs/ERC721A/blob/main/contracts/ERC721A.sol\":36613:36620  _revert */\n      tag_129\n        /* \"https://github.com/chiru-labs/ERC721A/blob/main/contracts/ERC721A.sol\":36613:36664  _revert(TransferCallerNotOwnerNorApproved.selector) */\n      jump\t// in\n    tag_330:\n        /* \"https://github.com/chiru-labs/ERC721A/blob/main/contracts/ERC721A.sol\":36563:36664  if (!isApprovedForAll(from, _msgSenderERC721A())) _revert(TransferCallerNotOwnerNorApproved.selector) */\n    tag_329:\n        /* \"https://github.com/chiru-labs/ERC721A/blob/main/contracts/ERC721A.sol\":36472:36664  if (!_isSenderApprovedOrOwner(approvedAddress, from, _msgSenderERC721A()))... */\n    tag_326:\n        /* \"https://github.com/chiru-labs/ERC721A/blob/main/contracts/ERC721A.sol\":36354:36675  if (approvalCheck) {... */\n    tag_323:\n        /* \"https://github.com/chiru-labs/ERC721A/blob/main/contracts/ERC721A.sol\":36685:36736  _beforeTokenTransfers(from, address(0), tokenId, 1) */\n      tag_331\n        /* \"https://github.com/chiru-labs/ERC721A/blob/main/contracts/ERC721A.sol\":36707:36711  from */\n      dup4\n        /* \"https://github.com/chiru-labs/ERC721A/blob/main/contracts/ERC721A.sol\":36721:36722  0 */\n      0x00\n        /* \"https://github.com/chiru-labs/ERC721A/blob/main/contracts/ERC721A.sol\":36725:36732  tokenId */\n      dup9\n        /* \"https://github.com/chiru-labs/ERC721A/blob/main/contracts/ERC721A.sol\":36734:36735  1 */\n      0x01\n        /* \"https://github.com/chiru-labs/ERC721A/blob/main/contracts/ERC721A.sol\":36685:36706  _beforeTokenTransfers */\n      tag_153\n        /* \"https://github.com/chiru-labs/ERC721A/blob/main/contracts/ERC721A.sol\":36685:36736  _beforeTokenTransfers(from, address(0), tokenId, 1) */\n      jump\t// in\n    tag_331:\n        /* \"https://github.com/chiru-labs/ERC721A/blob/main/contracts/ERC721A.sol\":36825:36840  approvedAddress */\n      dup1\n        /* \"https://github.com/chiru-labs/ERC721A/blob/main/contracts/ERC721A.sol\":36822:36979  if approvedAddress {... */\n      iszero\n      tag_332\n      jumpi\n        /* \"https://github.com/chiru-labs/ERC721A/blob/main/contracts/ERC721A.sol\":36963:36964  0 */\n      0x00\n        /* \"https://github.com/chiru-labs/ERC721A/blob/main/contracts/ERC721A.sol\":36942:36961  approvedAddressSlot */\n      dup3\n        /* \"https://github.com/chiru-labs/ERC721A/blob/main/contracts/ERC721A.sol\":36935:36965  sstore(approvedAddressSlot, 0) */\n      sstore\n        /* \"https://github.com/chiru-labs/ERC721A/blob/main/contracts/ERC721A.sol\":36822:36979  if approvedAddress {... */\n    tag_332:\n        /* \"https://github.com/chiru-labs/ERC721A/blob/main/contracts/ERC721A.sol\":37627:37628  1 */\n      0x01\n        /* \"https://github.com/chiru-labs/ERC721A/blob/main/contracts/ERC721A.sol\":1619:1622  128 */\n      0x80\n        /* \"https://github.com/chiru-labs/ERC721A/blob/main/contracts/ERC721A.sol\":37597:37598  1 */\n      0x01\n        /* \"https://github.com/chiru-labs/ERC721A/blob/main/contracts/ERC721A.sol\":37597:37623  1 << _BITPOS_NUMBER_BURNED */\n      swap1\n      shl\n        /* \"https://github.com/chiru-labs/ERC721A/blob/main/contracts/ERC721A.sol\":37596:37628  (1 << _BITPOS_NUMBER_BURNED) - 1 */\n      sub\n        /* \"https://github.com/chiru-labs/ERC721A/blob/main/contracts/ERC721A.sol\":37568:37586  _packedAddressData */\n      0x05\n        /* \"https://github.com/chiru-labs/ERC721A/blob/main/contracts/ERC721A.sol\":37568:37592  _packedAddressData[from] */\n      0x00\n        /* \"https://github.com/chiru-labs/ERC721A/blob/main/contracts/ERC721A.sol\":37587:37591  from */\n      dup6\n        /* \"https://github.com/chiru-labs/ERC721A/blob/main/contracts/ERC721A.sol\":37568:37592  _packedAddressData[from] */\n      0xffffffffffffffffffffffffffffffffffffffff\n      and\n      0xffffffffffffffffffffffffffffffffffffffff\n      and\n      dup2\n      mstore\n      0x20\n      add\n      swap1\n      dup2\n      mstore\n      0x20\n      add\n      0x00\n      keccak256\n      0x00\n        /* \"https://github.com/chiru-labs/ERC721A/blob/main/contracts/ERC721A.sol\":37568:37628  _packedAddressData[from] += (1 << _BITPOS_NUMBER_BURNED) - 1 */\n      dup3\n      dup3\n      sload\n      add\n      swap3\n      pop\n      pop\n      dup2\n      swap1\n      sstore\n      pop\n        /* \"https://github.com/chiru-labs/ERC721A/blob/main/contracts/ERC721A.sol\":37888:38061  _packOwnershipData(... */\n      tag_333\n        /* \"https://github.com/chiru-labs/ERC721A/blob/main/contracts/ERC721A.sol\":37924:37928  from */\n      dup4\n        /* \"https://github.com/chiru-labs/ERC721A/blob/main/contracts/ERC721A.sol\":37994:38047  _nextExtraData(from, address(0), prevOwnershipPacked) */\n      tag_334\n        /* \"https://github.com/chiru-labs/ERC721A/blob/main/contracts/ERC721A.sol\":38009:38013  from */\n      dup6\n        /* \"https://github.com/chiru-labs/ERC721A/blob/main/contracts/ERC721A.sol\":38023:38024  0 */\n      0x00\n        /* \"https://github.com/chiru-labs/ERC721A/blob/main/contracts/ERC721A.sol\":38027:38046  prevOwnershipPacked */\n      dup9\n        /* \"https://github.com/chiru-labs/ERC721A/blob/main/contracts/ERC721A.sol\":37994:38008  _nextExtraData */\n      tag_157\n        /* \"https://github.com/chiru-labs/ERC721A/blob/main/contracts/ERC721A.sol\":37994:38047  _nextExtraData(from, address(0), prevOwnershipPacked) */\n      jump\t// in\n    tag_334:\n        /* \"https://github.com/chiru-labs/ERC721A/blob/main/contracts/ERC721A.sol\":2392:2400  1 << 225 */\n      0x0200000000000000000000000000000000000000000000000000000000\n        /* \"https://github.com/chiru-labs/ERC721A/blob/main/contracts/ERC721A.sol\":2118:2126  1 << 224 */\n      0x0100000000000000000000000000000000000000000000000000000000\n        /* \"https://github.com/chiru-labs/ERC721A/blob/main/contracts/ERC721A.sol\":37947:37990  _BITMASK_BURNED | _BITMASK_NEXT_INITIALIZED */\n      or\n        /* \"https://github.com/chiru-labs/ERC721A/blob/main/contracts/ERC721A.sol\":37946:38047  (_BITMASK_BURNED | _BITMASK_NEXT_INITIALIZED) | _nextExtraData(from, address(0), prevOwnershipPacked) */\n      or\n        /* \"https://github.com/chiru-labs/ERC721A/blob/main/contracts/ERC721A.sol\":37888:37906  _packOwnershipData */\n      tag_158\n        /* \"https://github.com/chiru-labs/ERC721A/blob/main/contracts/ERC721A.sol\":37888:38061  _packOwnershipData(... */\n      jump\t// in\n    tag_333:\n        /* \"https://github.com/chiru-labs/ERC721A/blob/main/contracts/ERC721A.sol\":37859:37876  _packedOwnerships */\n      0x04\n        /* \"https://github.com/chiru-labs/ERC721A/blob/main/contracts/ERC721A.sol\":37859:37885  _packedOwnerships[tokenId] */\n      0x00\n        /* \"https://github.com/chiru-labs/ERC721A/blob/main/contracts/ERC721A.sol\":37877:37884  tokenId */\n      dup9\n        /* \"https://github.com/chiru-labs/ERC721A/blob/main/contracts/ERC721A.sol\":37859:37885  _packedOwnerships[tokenId] */\n      dup2\n      mstore\n      0x20\n      add\n      swap1\n      dup2\n      mstore\n      0x20\n      add\n      0x00\n      keccak256\n        /* \"https://github.com/chiru-labs/ERC721A/blob/main/contracts/ERC721A.sol\":37859:38061  _packedOwnerships[tokenId] = _packOwnershipData(... */\n      dup2\n      swap1\n      sstore\n      pop\n        /* \"https://github.com/chiru-labs/ERC721A/blob/main/contracts/ERC721A.sol\":38229:38230  0 */\n      0x00\n        /* \"https://github.com/chiru-labs/ERC721A/blob/main/contracts/ERC721A.sol\":2392:2400  1 << 225 */\n      0x0200000000000000000000000000000000000000000000000000000000\n        /* \"https://github.com/chiru-labs/ERC721A/blob/main/contracts/ERC721A.sol\":38178:38197  prevOwnershipPacked */\n      dup6\n        /* \"https://github.com/chiru-labs/ERC721A/blob/main/contracts/ERC721A.sol\":38178:38225  prevOwnershipPacked & _BITMASK_NEXT_INITIALIZED */\n      and\n        /* \"https://github.com/chiru-labs/ERC721A/blob/main/contracts/ERC721A.sol\":38178:38230  prevOwnershipPacked & _BITMASK_NEXT_INITIALIZED == 0 */\n      eq\n        /* \"https://github.com/chiru-labs/ERC721A/blob/main/contracts/ERC721A.sol\":38174:38791  if (prevOwnershipPacked & _BITMASK_NEXT_INITIALIZED == 0) {... */\n      iszero\n      tag_335\n      jumpi\n        /* \"https://github.com/chiru-labs/ERC721A/blob/main/contracts/ERC721A.sol\":38250:38269  uint256 nextTokenId */\n      0x00\n        /* \"https://github.com/chiru-labs/ERC721A/blob/main/contracts/ERC721A.sol\":38282:38283  1 */\n      0x01\n        /* \"https://github.com/chiru-labs/ERC721A/blob/main/contracts/ERC721A.sol\":38272:38279  tokenId */\n      dup8\n        /* \"https://github.com/chiru-labs/ERC721A/blob/main/contracts/ERC721A.sol\":38272:38283  tokenId + 1 */\n      add\n        /* \"https://github.com/chiru-labs/ERC721A/blob/main/contracts/ERC721A.sol\":38250:38283  uint256 nextTokenId = tokenId + 1 */\n      swap1\n      pop\n        /* \"https://github.com/chiru-labs/ERC721A/blob/main/contracts/ERC721A.sol\":38437:38438  0 */\n      0x00\n        /* \"https://github.com/chiru-labs/ERC721A/blob/main/contracts/ERC721A.sol\":38403:38420  _packedOwnerships */\n      0x04\n        /* \"https://github.com/chiru-labs/ERC721A/blob/main/contracts/ERC721A.sol\":38403:38433  _packedOwnerships[nextTokenId] */\n      0x00\n        /* \"https://github.com/chiru-labs/ERC721A/blob/main/contracts/ERC721A.sol\":38421:38432  nextTokenId */\n      dup4\n        /* \"https://github.com/chiru-labs/ERC721A/blob/main/contracts/ERC721A.sol\":38403:38433  _packedOwnerships[nextTokenId] */\n      dup2\n      mstore\n      0x20\n      add\n      swap1\n      dup2\n      mstore\n      0x20\n      add\n      0x00\n      keccak256\n      sload\n        /* \"https://github.com/chiru-labs/ERC721A/blob/main/contracts/ERC721A.sol\":38403:38438  _packedOwnerships[nextTokenId] == 0 */\n      eq\n        /* \"https://github.com/chiru-labs/ERC721A/blob/main/contracts/ERC721A.sol\":38399:38777  if (_packedOwnerships[nextTokenId] == 0) {... */\n      iszero\n      tag_336\n      jumpi\n        /* \"https://github.com/chiru-labs/ERC721A/blob/main/contracts/ERC721A.sol\":38539:38552  _currentIndex */\n      sload(0x00)\n        /* \"https://github.com/chiru-labs/ERC721A/blob/main/contracts/ERC721A.sol\":38524:38535  nextTokenId */\n      dup2\n        /* \"https://github.com/chiru-labs/ERC721A/blob/main/contracts/ERC721A.sol\":38524:38552  nextTokenId != _currentIndex */\n      eq\n        /* \"https://github.com/chiru-labs/ERC721A/blob/main/contracts/ERC721A.sol\":38520:38759  if (nextTokenId != _currentIndex) {... */\n      tag_337\n      jumpi\n        /* \"https://github.com/chiru-labs/ERC721A/blob/main/contracts/ERC721A.sol\":38717:38736  prevOwnershipPacked */\n      dup5\n        /* \"https://github.com/chiru-labs/ERC721A/blob/main/contracts/ERC721A.sol\":38684:38701  _packedOwnerships */\n      0x04\n        /* \"https://github.com/chiru-labs/ERC721A/blob/main/contracts/ERC721A.sol\":38684:38714  _packedOwnerships[nextTokenId] */\n      0x00\n        /* \"https://github.com/chiru-labs/ERC721A/blob/main/contracts/ERC721A.sol\":38702:38713  nextTokenId */\n      dup4\n        /* \"https://github.com/chiru-labs/ERC721A/blob/main/contracts/ERC721A.sol\":38684:38714  _packedOwnerships[nextTokenId] */\n      dup2\n      mstore\n      0x20\n      add\n      swap1\n      dup2\n      mstore\n      0x20\n      add\n      0x00\n      keccak256\n        /* \"https://github.com/chiru-labs/ERC721A/blob/main/contracts/ERC721A.sol\":38684:38736  _packedOwnerships[nextTokenId] = prevOwnershipPacked */\n      dup2\n      swap1\n      sstore\n      pop\n        /* \"https://github.com/chiru-labs/ERC721A/blob/main/contracts/ERC721A.sol\":38520:38759  if (nextTokenId != _currentIndex) {... */\n    tag_337:\n        /* \"https://github.com/chiru-labs/ERC721A/blob/main/contracts/ERC721A.sol\":38399:38777  if (_packedOwnerships[nextTokenId] == 0) {... */\n    tag_336:\n        /* \"https://github.com/chiru-labs/ERC721A/blob/main/contracts/ERC721A.sol\":38232:38791  {... */\n      pop\n        /* \"https://github.com/chiru-labs/ERC721A/blob/main/contracts/ERC721A.sol\":38174:38791  if (prevOwnershipPacked & _BITMASK_NEXT_INITIALIZED == 0) {... */\n    tag_335:\n        /* \"https://github.com/chiru-labs/ERC721A/blob/main/contracts/ERC721A.sol\":38843:38850  tokenId */\n      dup6\n        /* \"https://github.com/chiru-labs/ERC721A/blob/main/contracts/ERC721A.sol\":38839:38840  0 */\n      0x00\n        /* \"https://github.com/chiru-labs/ERC721A/blob/main/contracts/ERC721A.sol\":38816:38851  Transfer(from, address(0), tokenId) */\n      0xffffffffffffffffffffffffffffffffffffffff\n      and\n        /* \"https://github.com/chiru-labs/ERC721A/blob/main/contracts/ERC721A.sol\":38825:38829  from */\n      dup5\n        /* \"https://github.com/chiru-labs/ERC721A/blob/main/contracts/ERC721A.sol\":38816:38851  Transfer(from, address(0), tokenId) */\n      0xffffffffffffffffffffffffffffffffffffffff\n      and\n      0xddf252ad1be2c89b69c2b068fc378daa952ba7f163c4a11628f55a4df523b3ef\n      mload(0x40)\n      mload(0x40)\n      dup1\n      swap2\n      sub\n      swap1\n      log4\n        /* \"https://github.com/chiru-labs/ERC721A/blob/main/contracts/ERC721A.sol\":38861:38911  _afterTokenTransfers(from, address(0), tokenId, 1) */\n      tag_338\n        /* \"https://github.com/chiru-labs/ERC721A/blob/main/contracts/ERC721A.sol\":38882:38886  from */\n      dup4\n        /* \"https://github.com/chiru-labs/ERC721A/blob/main/contracts/ERC721A.sol\":38896:38897  0 */\n      0x00\n        /* \"https://github.com/chiru-labs/ERC721A/blob/main/contracts/ERC721A.sol\":38900:38907  tokenId */\n      dup9\n        /* \"https://github.com/chiru-labs/ERC721A/blob/main/contracts/ERC721A.sol\":38909:38910  1 */\n      0x01\n        /* \"https://github.com/chiru-labs/ERC721A/blob/main/contracts/ERC721A.sol\":38861:38881  _afterTokenTransfers */\n      tag_165\n        /* \"https://github.com/chiru-labs/ERC721A/blob/main/contracts/ERC721A.sol\":38861:38911  _afterTokenTransfers(from, address(0), tokenId, 1) */\n      jump\t// in\n    tag_338:\n        /* \"https://github.com/chiru-labs/ERC721A/blob/main/contracts/ERC721A.sol\":39034:39046  _burnCounter */\n      0x01\n      0x00\n        /* \"https://github.com/chiru-labs/ERC721A/blob/main/contracts/ERC721A.sol\":39034:39048  _burnCounter++ */\n      dup2\n      sload\n      dup1\n      swap3\n      swap2\n      swap1\n      0x01\n      add\n      swap2\n      swap1\n      pop\n      sstore\n      pop\n        /* \"https://github.com/chiru-labs/ERC721A/blob/main/contracts/ERC721A.sol\":36110:39065  {... */\n      pop\n      pop\n      pop\n      pop\n        /* \"https://github.com/chiru-labs/ERC721A/blob/main/contracts/ERC721A.sol\":36041:39065  function _burn(uint256 tokenId, bool approvalCheck) internal virtual {... */\n      pop\n      pop\n      jump\t// out\n        /* \"#utility.yul\":7:82   */\n    tag_339:\n        /* \"#utility.yul\":40:46   */\n      0x00\n        /* \"#utility.yul\":73:75   */\n      0x40\n        /* \"#utility.yul\":67:76   */\n      mload\n        /* \"#utility.yul\":57:76   */\n      swap1\n      pop\n        /* \"#utility.yul\":7:82   */\n      swap1\n      jump\t// out\n        /* \"#utility.yul\":88:205   */\n    tag_340:\n        /* \"#utility.yul\":197:198   */\n      0x00\n        /* \"#utility.yul\":194:195   */\n      dup1\n        /* \"#utility.yul\":187:199   */\n      revert\n        /* \"#utility.yul\":211:328   */\n    tag_341:\n        /* \"#utility.yul\":320:321   */\n      0x00\n        /* \"#utility.yul\":317:318   */\n      dup1\n        /* \"#utility.yul\":310:322   */\n      revert\n        /* \"#utility.yul\":334:483   */\n    tag_342:\n        /* \"#utility.yul\":370:377   */\n      0x00\n        /* \"#utility.yul\":410:476   */\n      0xffffffff00000000000000000000000000000000000000000000000000000000\n        /* \"#utility.yul\":403:408   */\n      dup3\n        /* \"#utility.yul\":399:477   */\n      and\n        /* \"#utility.yul\":388:477   */\n      swap1\n      pop\n        /* \"#utility.yul\":334:483   */\n      swap2\n      swap1\n      pop\n      jump\t// out\n        /* \"#utility.yul\":489:609   */\n    tag_343:\n        /* \"#utility.yul\":561:584   */\n      tag_390\n        /* \"#utility.yul\":578:583   */\n      dup2\n        /* \"#utility.yul\":561:584   */\n      tag_342\n      jump\t// in\n    tag_390:\n        /* \"#utility.yul\":554:559   */\n      dup2\n        /* \"#utility.yul\":551:585   */\n      eq\n        /* \"#utility.yul\":541:603   */\n      tag_391\n      jumpi\n        /* \"#utility.yul\":599:600   */\n      0x00\n        /* \"#utility.yul\":596:597   */\n      dup1\n        /* \"#utility.yul\":589:601   */\n      revert\n        /* \"#utility.yul\":541:603   */\n    tag_391:\n        /* \"#utility.yul\":489:609   */\n      pop\n      jump\t// out\n        /* \"#utility.yul\":615:752   */\n    tag_344:\n        /* \"#utility.yul\":660:665   */\n      0x00\n        /* \"#utility.yul\":698:704   */\n      dup2\n        /* \"#utility.yul\":685:705   */\n      calldataload\n        /* \"#utility.yul\":676:705   */\n      swap1\n      pop\n        /* \"#utility.yul\":714:746   */\n      tag_393\n        /* \"#utility.yul\":740:745   */\n      dup2\n        /* \"#utility.yul\":714:746   */\n      tag_343\n      jump\t// in\n    tag_393:\n        /* \"#utility.yul\":615:752   */\n      swap3\n      swap2\n      pop\n      pop\n      jump\t// out\n        /* \"#utility.yul\":758:1085   */\n    tag_27:\n        /* \"#utility.yul\":816:822   */\n      0x00\n        /* \"#utility.yul\":865:867   */\n      0x20\n        /* \"#utility.yul\":853:862   */\n      dup3\n        /* \"#utility.yul\":844:851   */\n      dup5\n        /* \"#utility.yul\":840:863   */\n      sub\n        /* \"#utility.yul\":836:868   */\n      slt\n        /* \"#utility.yul\":833:952   */\n      iszero\n      tag_395\n      jumpi\n        /* \"#utility.yul\":871:950   */\n      tag_396\n      tag_340\n      jump\t// in\n    tag_396:\n        /* \"#utility.yul\":833:952   */\n    tag_395:\n        /* \"#utility.yul\":991:992   */\n      0x00\n        /* \"#utility.yul\":1016:1068   */\n      tag_397\n        /* \"#utility.yul\":1060:1067   */\n      dup5\n        /* \"#utility.yul\":1051:1057   */\n      dup3\n        /* \"#utility.yul\":1040:1049   */\n      dup6\n        /* \"#utility.yul\":1036:1058   */\n      add\n        /* \"#utility.yul\":1016:1068   */\n      tag_344\n      jump\t// in\n    tag_397:\n        /* \"#utility.yul\":1006:1068   */\n      swap2\n      pop\n        /* \"#utility.yul\":962:1078   */\n      pop\n        /* \"#utility.yul\":758:1085   */\n      swap3\n      swap2\n      pop\n      pop\n      jump\t// out\n        /* \"#utility.yul\":1091:1181   */\n    tag_345:\n        /* \"#utility.yul\":1125:1132   */\n      0x00\n        /* \"#utility.yul\":1168:1173   */\n      dup2\n        /* \"#utility.yul\":1161:1174   */\n      iszero\n        /* \"#utility.yul\":1154:1175   */\n      iszero\n        /* \"#utility.yul\":1143:1175   */\n      swap1\n      pop\n        /* \"#utility.yul\":1091:1181   */\n      swap2\n      swap1\n      pop\n      jump\t// out\n        /* \"#utility.yul\":1187:1296   */\n    tag_346:\n        /* \"#utility.yul\":1268:1289   */\n      tag_400\n        /* \"#utility.yul\":1283:1288   */\n      dup2\n        /* \"#utility.yul\":1268:1289   */\n      tag_345\n      jump\t// in\n    tag_400:\n        /* \"#utility.yul\":1263:1266   */\n      dup3\n        /* \"#utility.yul\":1256:1290   */\n      mstore\n        /* \"#utility.yul\":1187:1296   */\n      pop\n      pop\n      jump\t// out\n        /* \"#utility.yul\":1302:1512   */\n    tag_30:\n        /* \"#utility.yul\":1389:1393   */\n      0x00\n        /* \"#utility.yul\":1427:1429   */\n      0x20\n        /* \"#utility.yul\":1416:1425   */\n      dup3\n        /* \"#utility.yul\":1412:1430   */\n      add\n        /* \"#utility.yul\":1404:1430   */\n      swap1\n      pop\n        /* \"#utility.yul\":1440:1505   */\n      tag_402\n        /* \"#utility.yul\":1502:1503   */\n      0x00\n        /* \"#utility.yul\":1491:1500   */\n      dup4\n        /* \"#utility.yul\":1487:1504   */\n      add\n        /* \"#utility.yul\":1478:1484   */\n      dup5\n        /* \"#utility.yul\":1440:1505   */\n      tag_346\n      jump\t// in\n    tag_402:\n        /* \"#utility.yul\":1302:1512   */\n      swap3\n      swap2\n      pop\n      pop\n      jump\t// out\n        /* \"#utility.yul\":1518:1617   */\n    tag_347:\n        /* \"#utility.yul\":1570:1576   */\n      0x00\n        /* \"#utility.yul\":1604:1609   */\n      dup2\n        /* \"#utility.yul\":1598:1610   */\n      mload\n        /* \"#utility.yul\":1588:1610   */\n      swap1\n      pop\n        /* \"#utility.yul\":1518:1617   */\n      swap2\n      swap1\n      pop\n      jump\t// out\n        /* \"#utility.yul\":1623:1792   */\n    tag_348:\n        /* \"#utility.yul\":1707:1718   */\n      0x00\n        /* \"#utility.yul\":1741:1747   */\n      dup3\n        /* \"#utility.yul\":1736:1739   */\n      dup3\n        /* \"#utility.yul\":1729:1748   */\n      mstore\n        /* \"#utility.yul\":1781:1785   */\n      0x20\n        /* \"#utility.yul\":1776:1779   */\n      dup3\n        /* \"#utility.yul\":1772:1786   */\n      add\n        /* \"#utility.yul\":1757:1786   */\n      swap1\n      pop\n        /* \"#utility.yul\":1623:1792   */\n      swap3\n      swap2\n      pop\n      pop\n      jump\t// out\n        /* \"#utility.yul\":1798:2105   */\n    tag_349:\n        /* \"#utility.yul\":1866:1867   */\n      0x00\n        /* \"#utility.yul\":1876:1989   */\n    tag_406:\n        /* \"#utility.yul\":1890:1896   */\n      dup4\n        /* \"#utility.yul\":1887:1888   */\n      dup2\n        /* \"#utility.yul\":1884:1897   */\n      lt\n        /* \"#utility.yul\":1876:1989   */\n      iszero\n      tag_408\n      jumpi\n        /* \"#utility.yul\":1975:1976   */\n      dup1\n        /* \"#utility.yul\":1970:1973   */\n      dup3\n        /* \"#utility.yul\":1966:1977   */\n      add\n        /* \"#utility.yul\":1960:1978   */\n      mload\n        /* \"#utility.yul\":1956:1957   */\n      dup2\n        /* \"#utility.yul\":1951:1954   */\n      dup5\n        /* \"#utility.yul\":1947:1958   */\n      add\n        /* \"#utility.yul\":1940:1979   */\n      mstore\n        /* \"#utility.yul\":1912:1914   */\n      0x20\n        /* \"#utility.yul\":1909:1910   */\n      dup2\n        /* \"#utility.yul\":1905:1915   */\n      add\n        /* \"#utility.yul\":1900:1915   */\n      swap1\n      pop\n        /* \"#utility.yul\":1876:1989   */\n      jump(tag_406)\n    tag_408:\n        /* \"#utility.yul\":2007:2013   */\n      dup4\n        /* \"#utility.yul\":2004:2005   */\n      dup2\n        /* \"#utility.yul\":2001:2014   */\n      gt\n        /* \"#utility.yul\":1998:2099   */\n      iszero\n      tag_409\n      jumpi\n        /* \"#utility.yul\":2087:2088   */\n      0x00\n        /* \"#utility.yul\":2078:2084   */\n      dup5\n        /* \"#utility.yul\":2073:2076   */\n      dup5\n        /* \"#utility.yul\":2069:2085   */\n      add\n        /* \"#utility.yul\":2062:2089   */\n      mstore\n        /* \"#utility.yul\":1998:2099   */\n    tag_409:\n        /* \"#utility.yul\":1847:2105   */\n      pop\n        /* \"#utility.yul\":1798:2105   */\n      pop\n      pop\n      pop\n      jump\t// out\n        /* \"#utility.yul\":2111:2213   */\n    tag_350:\n        /* \"#utility.yul\":2152:2158   */\n      0x00\n        /* \"#utility.yul\":2203:2205   */\n      0x1f\n        /* \"#utility.yul\":2199:2206   */\n      not\n        /* \"#utility.yul\":2194:2196   */\n      0x1f\n        /* \"#utility.yul\":2187:2192   */\n      dup4\n        /* \"#utility.yul\":2183:2197   */\n      add\n        /* \"#utility.yul\":2179:2207   */\n      and\n        /* \"#utility.yul\":2169:2207   */\n      swap1\n      pop\n        /* \"#utility.yul\":2111:2213   */\n      swap2\n      swap1\n      pop\n      jump\t// out\n        /* \"#utility.yul\":2219:2583   */\n    tag_351:\n        /* \"#utility.yul\":2307:2310   */\n      0x00\n        /* \"#utility.yul\":2335:2374   */\n      tag_412\n        /* \"#utility.yul\":2368:2373   */\n      dup3\n        /* \"#utility.yul\":2335:2374   */\n      tag_347\n      jump\t// in\n    tag_412:\n        /* \"#utility.yul\":2390:2461   */\n      tag_413\n        /* \"#utility.yul\":2454:2460   */\n      dup2\n        /* \"#utility.yul\":2449:2452   */\n      dup6\n        /* \"#utility.yul\":2390:2461   */\n      tag_348\n      jump\t// in\n    tag_413:\n        /* \"#utility.yul\":2383:2461   */\n      swap4\n      pop\n        /* \"#utility.yul\":2470:2522   */\n      tag_414\n        /* \"#utility.yul\":2515:2521   */\n      dup2\n        /* \"#utility.yul\":2510:2513   */\n      dup6\n        /* \"#utility.yul\":2503:2507   */\n      0x20\n        /* \"#utility.yul\":2496:2501   */\n      dup7\n        /* \"#utility.yul\":2492:2508   */\n      add\n        /* \"#utility.yul\":2470:2522   */\n      tag_349\n      jump\t// in\n    tag_414:\n        /* \"#utility.yul\":2547:2576   */\n      tag_415\n        /* \"#utility.yul\":2569:2575   */\n      dup2\n        /* \"#utility.yul\":2547:2576   */\n      tag_350\n      jump\t// in\n    tag_415:\n        /* \"#utility.yul\":2542:2545   */\n      dup5\n        /* \"#utility.yul\":2538:2577   */\n      add\n        /* \"#utility.yul\":2531:2577   */\n      swap2\n      pop\n        /* \"#utility.yul\":2311:2583   */\n      pop\n        /* \"#utility.yul\":2219:2583   */\n      swap3\n      swap2\n      pop\n      pop\n      jump\t// out\n        /* \"#utility.yul\":2589:2902   */\n    tag_35:\n        /* \"#utility.yul\":2702:2706   */\n      0x00\n        /* \"#utility.yul\":2740:2742   */\n      0x20\n        /* \"#utility.yul\":2729:2738   */\n      dup3\n        /* \"#utility.yul\":2725:2743   */\n      add\n        /* \"#utility.yul\":2717:2743   */\n      swap1\n      pop\n        /* \"#utility.yul\":2789:2798   */\n      dup2\n        /* \"#utility.yul\":2783:2787   */\n      dup2\n        /* \"#utility.yul\":2779:2799   */\n      sub\n        /* \"#utility.yul\":2775:2776   */\n      0x00\n        /* \"#utility.yul\":2764:2773   */\n      dup4\n        /* \"#utility.yul\":2760:2777   */\n      add\n        /* \"#utility.yul\":2753:2800   */\n      mstore\n        /* \"#utility.yul\":2817:2895   */\n      tag_417\n        /* \"#utility.yul\":2890:2894   */\n      dup2\n        /* \"#utility.yul\":2881:2887   */\n      dup5\n        /* \"#utility.yul\":2817:2895   */\n      tag_351\n      jump\t// in\n    tag_417:\n        /* \"#utility.yul\":2809:2895   */\n      swap1\n      pop\n        /* \"#utility.yul\":2589:2902   */\n      swap3\n      swap2\n      pop\n      pop\n      jump\t// out\n        /* \"#utility.yul\":2908:2985   */\n    tag_352:\n        /* \"#utility.yul\":2945:2952   */\n      0x00\n        /* \"#utility.yul\":2974:2979   */\n      dup2\n        /* \"#utility.yul\":2963:2979   */\n      swap1\n      pop\n        /* \"#utility.yul\":2908:2985   */\n      swap2\n      swap1\n      pop\n      jump\t// out\n        /* \"#utility.yul\":2991:3113   */\n    tag_353:\n        /* \"#utility.yul\":3064:3088   */\n      tag_420\n        /* \"#utility.yul\":3082:3087   */\n      dup2\n        /* \"#utility.yul\":3064:3088   */\n      tag_352\n      jump\t// in\n    tag_420:\n        /* \"#utility.yul\":3057:3062   */\n      dup2\n        /* \"#utility.yul\":3054:3089   */\n      eq\n        /* \"#utility.yul\":3044:3107   */\n      tag_421\n      jumpi\n        /* \"#utility.yul\":3103:3104   */\n      0x00\n        /* \"#utility.yul\":3100:3101   */\n      dup1\n        /* \"#utility.yul\":3093:3105   */\n      revert\n        /* \"#utility.yul\":3044:3107   */\n    tag_421:\n        /* \"#utility.yul\":2991:3113   */\n      pop\n      jump\t// out\n        /* \"#utility.yul\":3119:3258   */\n    tag_354:\n        /* \"#utility.yul\":3165:3170   */\n      0x00\n        /* \"#utility.yul\":3203:3209   */\n      dup2\n        /* \"#utility.yul\":3190:3210   */\n      calldataload\n        /* \"#utility.yul\":3181:3210   */\n      swap1\n      pop\n        /* \"#utility.yul\":3219:3252   */\n      tag_423\n        /* \"#utility.yul\":3246:3251   */\n      dup2\n        /* \"#utility.yul\":3219:3252   */\n      tag_353\n      jump\t// in\n    tag_423:\n        /* \"#utility.yul\":3119:3258   */\n      swap3\n      swap2\n      pop\n      pop\n      jump\t// out\n        /* \"#utility.yul\":3264:3593   */\n    tag_39:\n        /* \"#utility.yul\":3323:3329   */\n      0x00\n        /* \"#utility.yul\":3372:3374   */\n      0x20\n        /* \"#utility.yul\":3360:3369   */\n      dup3\n        /* \"#utility.yul\":3351:3358   */\n      dup5\n        /* \"#utility.yul\":3347:3370   */\n      sub\n        /* \"#utility.yul\":3343:3375   */\n      slt\n        /* \"#utility.yul\":3340:3459   */\n      iszero\n      tag_425\n      jumpi\n        /* \"#utility.yul\":3378:3457   */\n      tag_426\n      tag_340\n      jump\t// in\n    tag_426:\n        /* \"#utility.yul\":3340:3459   */\n    tag_425:\n        /* \"#utility.yul\":3498:3499   */\n      0x00\n        /* \"#utility.yul\":3523:3576   */\n      tag_427\n        /* \"#utility.yul\":3568:3575   */\n      dup5\n        /* \"#utility.yul\":3559:3565   */\n      dup3\n        /* \"#utility.yul\":3548:3557   */\n      dup6\n        /* \"#utility.yul\":3544:3566   */\n      add\n        /* \"#utility.yul\":3523:3576   */\n      tag_354\n      jump\t// in\n    tag_427:\n        /* \"#utility.yul\":3513:3576   */\n      swap2\n      pop\n        /* \"#utility.yul\":3469:3586   */\n      pop\n        /* \"#utility.yul\":3264:3593   */\n      swap3\n      swap2\n      pop\n      pop\n      jump\t// out\n        /* \"#utility.yul\":3599:3725   */\n    tag_355:\n        /* \"#utility.yul\":3636:3643   */\n      0x00\n        /* \"#utility.yul\":3676:3718   */\n      0xffffffffffffffffffffffffffffffffffffffff\n        /* \"#utility.yul\":3669:3674   */\n      dup3\n        /* \"#utility.yul\":3665:3719   */\n      and\n        /* \"#utility.yul\":3654:3719   */\n      swap1\n      pop\n        /* \"#utility.yul\":3599:3725   */\n      swap2\n      swap1\n      pop\n      jump\t// out\n        /* \"#utility.yul\":3731:3827   */\n    tag_356:\n        /* \"#utility.yul\":3768:3775   */\n      0x00\n        /* \"#utility.yul\":3797:3821   */\n      tag_430\n        /* \"#utility.yul\":3815:3820   */\n      dup3\n        /* \"#utility.yul\":3797:3821   */\n      tag_355\n      jump\t// in\n    tag_430:\n        /* \"#utility.yul\":3786:3821   */\n      swap1\n      pop\n        /* \"#utility.yul\":3731:3827   */\n      swap2\n      swap1\n      pop\n      jump\t// out\n        /* \"#utility.yul\":3833:3951   */\n    tag_357:\n        /* \"#utility.yul\":3920:3944   */\n      tag_432\n        /* \"#utility.yul\":3938:3943   */\n      dup2\n        /* \"#utility.yul\":3920:3944   */\n      tag_356\n      jump\t// in\n    tag_432:\n        /* \"#utility.yul\":3915:3918   */\n      dup3\n        /* \"#utility.yul\":3908:3945   */\n      mstore\n        /* \"#utility.yul\":3833:3951   */\n      pop\n      pop\n      jump\t// out\n        /* \"#utility.yul\":3957:4179   */\n    tag_42:\n        /* \"#utility.yul\":4050:4054   */\n      0x00\n        /* \"#utility.yul\":4088:4090   */\n      0x20\n        /* \"#utility.yul\":4077:4086   */\n      dup3\n        /* \"#utility.yul\":4073:4091   */\n      add\n        /* \"#utility.yul\":4065:4091   */\n      swap1\n      pop\n        /* \"#utility.yul\":4101:4172   */\n      tag_434\n        /* \"#utility.yul\":4169:4170   */\n      0x00\n        /* \"#utility.yul\":4158:4167   */\n      dup4\n        /* \"#utility.yul\":4154:4171   */\n      add\n        /* \"#utility.yul\":4145:4151   */\n      dup5\n        /* \"#utility.yul\":4101:4172   */\n      tag_357\n      jump\t// in\n    tag_434:\n        /* \"#utility.yul\":3957:4179   */\n      swap3\n      swap2\n      pop\n      pop\n      jump\t// out\n        /* \"#utility.yul\":4185:4307   */\n    tag_358:\n        /* \"#utility.yul\":4258:4282   */\n      tag_436\n        /* \"#utility.yul\":4276:4281   */\n      dup2\n        /* \"#utility.yul\":4258:4282   */\n      tag_356\n      jump\t// in\n    tag_436:\n        /* \"#utility.yul\":4251:4256   */\n      dup2\n        /* \"#utility.yul\":4248:4283   */\n      eq\n        /* \"#utility.yul\":4238:4301   */\n      tag_437\n      jumpi\n        /* \"#utility.yul\":4297:4298   */\n      0x00\n        /* \"#utility.yul\":4294:4295   */\n      dup1\n        /* \"#utility.yul\":4287:4299   */\n      revert\n        /* \"#utility.yul\":4238:4301   */\n    tag_437:\n        /* \"#utility.yul\":4185:4307   */\n      pop\n      jump\t// out\n        /* \"#utility.yul\":4313:4452   */\n    tag_359:\n        /* \"#utility.yul\":4359:4364   */\n      0x00\n        /* \"#utility.yul\":4397:4403   */\n      dup2\n        /* \"#utility.yul\":4384:4404   */\n      calldataload\n        /* \"#utility.yul\":4375:4404   */\n      swap1\n      pop\n        /* \"#utility.yul\":4413:4446   */\n      tag_439\n        /* \"#utility.yul\":4440:4445   */\n      dup2\n        /* \"#utility.yul\":4413:4446   */\n      tag_358\n      jump\t// in\n    tag_439:\n        /* \"#utility.yul\":4313:4452   */\n      swap3\n      swap2\n      pop\n      pop\n      jump\t// out\n        /* \"#utility.yul\":4458:4932   */\n    tag_45:\n        /* \"#utility.yul\":4526:4532   */\n      0x00\n        /* \"#utility.yul\":4534:4540   */\n      dup1\n        /* \"#utility.yul\":4583:4585   */\n      0x40\n        /* \"#utility.yul\":4571:4580   */\n      dup4\n        /* \"#utility.yul\":4562:4569   */\n      dup6\n        /* \"#utility.yul\":4558:4581   */\n      sub\n        /* \"#utility.yul\":4554:4586   */\n      slt\n        /* \"#utility.yul\":4551:4670   */\n      iszero\n      tag_441\n      jumpi\n        /* \"#utility.yul\":4589:4668   */\n      tag_442\n      tag_340\n      jump\t// in\n    tag_442:\n        /* \"#utility.yul\":4551:4670   */\n    tag_441:\n        /* \"#utility.yul\":4709:4710   */\n      0x00\n        /* \"#utility.yul\":4734:4787   */\n      tag_443\n        /* \"#utility.yul\":4779:4786   */\n      dup6\n        /* \"#utility.yul\":4770:4776   */\n      dup3\n        /* \"#utility.yul\":4759:4768   */\n      dup7\n        /* \"#utility.yul\":4755:4777   */\n      add\n        /* \"#utility.yul\":4734:4787   */\n      tag_359\n      jump\t// in\n    tag_443:\n        /* \"#utility.yul\":4724:4787   */\n      swap3\n      pop\n        /* \"#utility.yul\":4680:4797   */\n      pop\n        /* \"#utility.yul\":4836:4838   */\n      0x20\n        /* \"#utility.yul\":4862:4915   */\n      tag_444\n        /* \"#utility.yul\":4907:4914   */\n      dup6\n        /* \"#utility.yul\":4898:4904   */\n      dup3\n        /* \"#utility.yul\":4887:4896   */\n      dup7\n        /* \"#utility.yul\":4883:4905   */\n      add\n        /* \"#utility.yul\":4862:4915   */\n      tag_354\n      jump\t// in\n    tag_444:\n        /* \"#utility.yul\":4852:4915   */\n      swap2\n      pop\n        /* \"#utility.yul\":4807:4925   */\n      pop\n        /* \"#utility.yul\":4458:4932   */\n      swap3\n      pop\n      swap3\n      swap1\n      pop\n      jump\t// out\n        /* \"#utility.yul\":4938:5056   */\n    tag_360:\n        /* \"#utility.yul\":5025:5049   */\n      tag_446\n        /* \"#utility.yul\":5043:5048   */\n      dup2\n        /* \"#utility.yul\":5025:5049   */\n      tag_352\n      jump\t// in\n    tag_446:\n        /* \"#utility.yul\":5020:5023   */\n      dup3\n        /* \"#utility.yul\":5013:5050   */\n      mstore\n        /* \"#utility.yul\":4938:5056   */\n      pop\n      pop\n      jump\t// out\n        /* \"#utility.yul\":5062:5284   */\n    tag_51:\n        /* \"#utility.yul\":5155:5159   */\n      0x00\n        /* \"#utility.yul\":5193:5195   */\n      0x20\n        /* \"#utility.yul\":5182:5191   */\n      dup3\n        /* \"#utility.yul\":5178:5196   */\n      add\n        /* \"#utility.yul\":5170:5196   */\n      swap1\n      pop\n        /* \"#utility.yul\":5206:5277   */\n      tag_448\n        /* \"#utility.yul\":5274:5275   */\n      0x00\n        /* \"#utility.yul\":5263:5272   */\n      dup4\n        /* \"#utility.yul\":5259:5276   */\n      add\n        /* \"#utility.yul\":5250:5256   */\n      dup5\n        /* \"#utility.yul\":5206:5277   */\n      tag_360\n      jump\t// in\n    tag_448:\n        /* \"#utility.yul\":5062:5284   */\n      swap3\n      swap2\n      pop\n      pop\n      jump\t// out\n        /* \"#utility.yul\":5290:5909   */\n    tag_54:\n        /* \"#utility.yul\":5367:5373   */\n      0x00\n        /* \"#utility.yul\":5375:5381   */\n      dup1\n        /* \"#utility.yul\":5383:5389   */\n      0x00\n        /* \"#utility.yul\":5432:5434   */\n      0x60\n        /* \"#utility.yul\":5420:5429   */\n      dup5\n        /* \"#utility.yul\":5411:5418   */\n      dup7\n        /* \"#utility.yul\":5407:5430   */\n      sub\n        /* \"#utility.yul\":5403:5435   */\n      slt\n        /* \"#utility.yul\":5400:5519   */\n      iszero\n      tag_450\n      jumpi\n        /* \"#utility.yul\":5438:5517   */\n      tag_451\n      tag_340\n      jump\t// in\n    tag_451:\n        /* \"#utility.yul\":5400:5519   */\n    tag_450:\n        /* \"#utility.yul\":5558:5559   */\n      0x00\n        /* \"#utility.yul\":5583:5636   */\n      tag_452\n        /* \"#utility.yul\":5628:5635   */\n      dup7\n        /* \"#utility.yul\":5619:5625   */\n      dup3\n        /* \"#utility.yul\":5608:5617   */\n      dup8\n        /* \"#utility.yul\":5604:5626   */\n      add\n        /* \"#utility.yul\":5583:5636   */\n      tag_359\n      jump\t// in\n    tag_452:\n        /* \"#utility.yul\":5573:5636   */\n      swap4\n      pop\n        /* \"#utility.yul\":5529:5646   */\n      pop\n        /* \"#utility.yul\":5685:5687   */\n      0x20\n        /* \"#utility.yul\":5711:5764   */\n      tag_453\n        /* \"#utility.yul\":5756:5763   */\n      dup7\n        /* \"#utility.yul\":5747:5753   */\n      dup3\n        /* \"#utility.yul\":5736:5745   */\n      dup8\n        /* \"#utility.yul\":5732:5754   */\n      add\n        /* \"#utility.yul\":5711:5764   */\n      tag_359\n      jump\t// in\n    tag_453:\n        /* \"#utility.yul\":5701:5764   */\n      swap3\n      pop\n        /* \"#utility.yul\":5656:5774   */\n      pop\n        /* \"#utility.yul\":5813:5815   */\n      0x40\n        /* \"#utility.yul\":5839:5892   */\n      tag_454\n        /* \"#utility.yul\":5884:5891   */\n      dup7\n        /* \"#utility.yul\":5875:5881   */\n      dup3\n        /* \"#utility.yul\":5864:5873   */\n      dup8\n        /* \"#utility.yul\":5860:5882   */\n      add\n        /* \"#utility.yul\":5839:5892   */\n      tag_354\n      jump\t// in\n    tag_454:\n        /* \"#utility.yul\":5829:5892   */\n      swap2\n      pop\n        /* \"#utility.yul\":5784:5902   */\n      pop\n        /* \"#utility.yul\":5290:5909   */\n      swap3\n      pop\n      swap3\n      pop\n      swap3\n      jump\t// out\n        /* \"#utility.yul\":5915:6244   */\n    tag_76:\n        /* \"#utility.yul\":5974:5980   */\n      0x00\n        /* \"#utility.yul\":6023:6025   */\n      0x20\n        /* \"#utility.yul\":6011:6020   */\n      dup3\n        /* \"#utility.yul\":6002:6009   */\n      dup5\n        /* \"#utility.yul\":5998:6021   */\n      sub\n        /* \"#utility.yul\":5994:6026   */\n      slt\n        /* \"#utility.yul\":5991:6110   */\n      iszero\n      tag_456\n      jumpi\n        /* \"#utility.yul\":6029:6108   */\n      tag_457\n      tag_340\n      jump\t// in\n    tag_457:\n        /* \"#utility.yul\":5991:6110   */\n    tag_456:\n        /* \"#utility.yul\":6149:6150   */\n      0x00\n        /* \"#utility.yul\":6174:6227   */\n      tag_458\n        /* \"#utility.yul\":6219:6226   */\n      dup5\n        /* \"#utility.yul\":6210:6216   */\n      dup3\n        /* \"#utility.yul\":6199:6208   */\n      dup6\n        /* \"#utility.yul\":6195:6217   */\n      add\n        /* \"#utility.yul\":6174:6227   */\n      tag_359\n      jump\t// in\n    tag_458:\n        /* \"#utility.yul\":6164:6227   */\n      swap2\n      pop\n        /* \"#utility.yul\":6120:6237   */\n      pop\n        /* \"#utility.yul\":5915:6244   */\n      swap3\n      swap2\n      pop\n      pop\n      jump\t// out\n        /* \"#utility.yul\":6250:6366   */\n    tag_361:\n        /* \"#utility.yul\":6320:6341   */\n      tag_460\n        /* \"#utility.yul\":6335:6340   */\n      dup2\n        /* \"#utility.yul\":6320:6341   */\n      tag_345\n      jump\t// in\n    tag_460:\n        /* \"#utility.yul\":6313:6318   */\n      dup2\n        /* \"#utility.yul\":6310:6342   */\n      eq\n        /* \"#utility.yul\":6300:6360   */\n      tag_461\n      jumpi\n        /* \"#utility.yul\":6356:6357   */\n      0x00\n        /* \"#utility.yul\":6353:6354   */\n      dup1\n        /* \"#utility.yul\":6346:6358   */\n      revert\n        /* \"#utility.yul\":6300:6360   */\n    tag_461:\n        /* \"#utility.yul\":6250:6366   */\n      pop\n      jump\t// out\n        /* \"#utility.yul\":6372:6505   */\n    tag_362:\n        /* \"#utility.yul\":6415:6420   */\n      0x00\n        /* \"#utility.yul\":6453:6459   */\n      dup2\n        /* \"#utility.yul\":6440:6460   */\n      calldataload\n        /* \"#utility.yul\":6431:6460   */\n      swap1\n      pop\n        /* \"#utility.yul\":6469:6499   */\n      tag_463\n        /* \"#utility.yul\":6493:6498   */\n      dup2\n        /* \"#utility.yul\":6469:6499   */\n      tag_361\n      jump\t// in\n    tag_463:\n        /* \"#utility.yul\":6372:6505   */\n      swap3\n      swap2\n      pop\n      pop\n      jump\t// out\n        /* \"#utility.yul\":6511:6979   */\n    tag_93:\n        /* \"#utility.yul\":6576:6582   */\n      0x00\n        /* \"#utility.yul\":6584:6590   */\n      dup1\n        /* \"#utility.yul\":6633:6635   */\n      0x40\n        /* \"#utility.yul\":6621:6630   */\n      dup4\n        /* \"#utility.yul\":6612:6619   */\n      dup6\n        /* \"#utility.yul\":6608:6631   */\n      sub\n        /* \"#utility.yul\":6604:6636   */\n      slt\n        /* \"#utility.yul\":6601:6720   */\n      iszero\n      tag_465\n      jumpi\n        /* \"#utility.yul\":6639:6718   */\n      tag_466\n      tag_340\n      jump\t// in\n    tag_466:\n        /* \"#utility.yul\":6601:6720   */\n    tag_465:\n        /* \"#utility.yul\":6759:6760   */\n      0x00\n        /* \"#utility.yul\":6784:6837   */\n      tag_467\n        /* \"#utility.yul\":6829:6836   */\n      dup6\n        /* \"#utility.yul\":6820:6826   */\n      dup3\n        /* \"#utility.yul\":6809:6818   */\n      dup7\n        /* \"#utility.yul\":6805:6827   */\n      add\n        /* \"#utility.yul\":6784:6837   */\n      tag_359\n      jump\t// in\n    tag_467:\n        /* \"#utility.yul\":6774:6837   */\n      swap3\n      pop\n        /* \"#utility.yul\":6730:6847   */\n      pop\n        /* \"#utility.yul\":6886:6888   */\n      0x20\n        /* \"#utility.yul\":6912:6962   */\n      tag_468\n        /* \"#utility.yul\":6954:6961   */\n      dup6\n        /* \"#utility.yul\":6945:6951   */\n      dup3\n        /* \"#utility.yul\":6934:6943   */\n      dup7\n        /* \"#utility.yul\":6930:6952   */\n      add\n        /* \"#utility.yul\":6912:6962   */\n      tag_362\n      jump\t// in\n    tag_468:\n        /* \"#utility.yul\":6902:6962   */\n      swap2\n      pop\n        /* \"#utility.yul\":6857:6972   */\n      pop\n        /* \"#utility.yul\":6511:6979   */\n      swap3\n      pop\n      swap3\n      swap1\n      pop\n      jump\t// out\n        /* \"#utility.yul\":6985:7102   */\n    tag_363:\n        /* \"#utility.yul\":7094:7095   */\n      0x00\n        /* \"#utility.yul\":7091:7092   */\n      dup1\n        /* \"#utility.yul\":7084:7096   */\n      revert\n        /* \"#utility.yul\":7108:7225   */\n    tag_364:\n        /* \"#utility.yul\":7217:7218   */\n      0x00\n        /* \"#utility.yul\":7214:7215   */\n      dup1\n        /* \"#utility.yul\":7207:7219   */\n      revert\n        /* \"#utility.yul\":7231:7411   */\n    tag_365:\n        /* \"#utility.yul\":7279:7356   */\n      0x4e487b7100000000000000000000000000000000000000000000000000000000\n        /* \"#utility.yul\":7276:7277   */\n      0x00\n        /* \"#utility.yul\":7269:7357   */\n      mstore\n        /* \"#utility.yul\":7376:7380   */\n      0x41\n        /* \"#utility.yul\":7373:7374   */\n      0x04\n        /* \"#utility.yul\":7366:7381   */\n      mstore\n        /* \"#utility.yul\":7400:7404   */\n      0x24\n        /* \"#utility.yul\":7397:7398   */\n      0x00\n        /* \"#utility.yul\":7390:7405   */\n      revert\n        /* \"#utility.yul\":7417:7698   */\n    tag_366:\n        /* \"#utility.yul\":7500:7527   */\n      tag_473\n        /* \"#utility.yul\":7522:7526   */\n      dup3\n        /* \"#utility.yul\":7500:7527   */\n      tag_350\n      jump\t// in\n    tag_473:\n        /* \"#utility.yul\":7492:7498   */\n      dup2\n        /* \"#utility.yul\":7488:7528   */\n      add\n        /* \"#utility.yul\":7630:7636   */\n      dup2\n        /* \"#utility.yul\":7618:7628   */\n      dup2\n        /* \"#utility.yul\":7615:7637   */\n      lt\n        /* \"#utility.yul\":7594:7612   */\n      0xffffffffffffffff\n        /* \"#utility.yul\":7582:7592   */\n      dup3\n        /* \"#utility.yul\":7579:7613   */\n      gt\n        /* \"#utility.yul\":7576:7638   */\n      or\n        /* \"#utility.yul\":7573:7661   */\n      iszero\n      tag_474\n      jumpi\n        /* \"#utility.yul\":7641:7659   */\n      tag_475\n      tag_365\n      jump\t// in\n    tag_475:\n        /* \"#utility.yul\":7573:7661   */\n    tag_474:\n        /* \"#utility.yul\":7681:7691   */\n      dup1\n        /* \"#utility.yul\":7677:7679   */\n      0x40\n        /* \"#utility.yul\":7670:7692   */\n      mstore\n        /* \"#utility.yul\":7460:7698   */\n      pop\n        /* \"#utility.yul\":7417:7698   */\n      pop\n      pop\n      jump\t// out\n        /* \"#utility.yul\":7704:7833   */\n    tag_367:\n        /* \"#utility.yul\":7738:7744   */\n      0x00\n        /* \"#utility.yul\":7765:7785   */\n      tag_477\n      tag_339\n      jump\t// in\n    tag_477:\n        /* \"#utility.yul\":7755:7785   */\n      swap1\n      pop\n        /* \"#utility.yul\":7794:7827   */\n      tag_478\n        /* \"#utility.yul\":7822:7826   */\n      dup3\n        /* \"#utility.yul\":7814:7820   */\n      dup3\n        /* \"#utility.yul\":7794:7827   */\n      tag_366\n      jump\t// in\n    tag_478:\n        /* \"#utility.yul\":7704:7833   */\n      swap2\n      swap1\n      pop\n      jump\t// out\n        /* \"#utility.yul\":7839:8146   */\n    tag_368:\n        /* \"#utility.yul\":7900:7904   */\n      0x00\n        /* \"#utility.yul\":7990:8008   */\n      0xffffffffffffffff\n        /* \"#utility.yul\":7982:7988   */\n      dup3\n        /* \"#utility.yul\":7979:8009   */\n      gt\n        /* \"#utility.yul\":7976:8032   */\n      iszero\n      tag_480\n      jumpi\n        /* \"#utility.yul\":8012:8030   */\n      tag_481\n      tag_365\n      jump\t// in\n    tag_481:\n        /* \"#utility.yul\":7976:8032   */\n    tag_480:\n        /* \"#utility.yul\":8050:8079   */\n      tag_482\n        /* \"#utility.yul\":8072:8078   */\n      dup3\n        /* \"#utility.yul\":8050:8079   */\n      tag_350\n      jump\t// in\n    tag_482:\n        /* \"#utility.yul\":8042:8079   */\n      swap1\n      pop\n        /* \"#utility.yul\":8134:8138   */\n      0x20\n        /* \"#utility.yul\":8128:8132   */\n      dup2\n        /* \"#utility.yul\":8124:8139   */\n      add\n        /* \"#utility.yul\":8116:8139   */\n      swap1\n      pop\n        /* \"#utility.yul\":7839:8146   */\n      swap2\n      swap1\n      pop\n      jump\t// out\n        /* \"#utility.yul\":8152:8306   */\n    tag_369:\n        /* \"#utility.yul\":8236:8242   */\n      dup3\n        /* \"#utility.yul\":8231:8234   */\n      dup2\n        /* \"#utility.yul\":8226:8229   */\n      dup4\n        /* \"#utility.yul\":8213:8243   */\n      calldatacopy\n        /* \"#utility.yul\":8298:8299   */\n      0x00\n        /* \"#utility.yul\":8289:8295   */\n      dup4\n        /* \"#utility.yul\":8284:8287   */\n      dup4\n        /* \"#utility.yul\":8280:8296   */\n      add\n        /* \"#utility.yul\":8273:8300   */\n      mstore\n        /* \"#utility.yul\":8152:8306   */\n      pop\n      pop\n      pop\n      jump\t// out\n        /* \"#utility.yul\":8312:8722   */\n    tag_370:\n        /* \"#utility.yul\":8389:8394   */\n      0x00\n        /* \"#utility.yul\":8414:8479   */\n      tag_485\n        /* \"#utility.yul\":8430:8478   */\n      tag_486\n        /* \"#utility.yul\":8471:8477   */\n      dup5\n        /* \"#utility.yul\":8430:8478   */\n      tag_368\n      jump\t// in\n    tag_486:\n        /* \"#utility.yul\":8414:8479   */\n      tag_367\n      jump\t// in\n    tag_485:\n        /* \"#utility.yul\":8405:8479   */\n      swap1\n      pop\n        /* \"#utility.yul\":8502:8508   */\n      dup3\n        /* \"#utility.yul\":8495:8500   */\n      dup2\n        /* \"#utility.yul\":8488:8509   */\n      mstore\n        /* \"#utility.yul\":8540:8544   */\n      0x20\n        /* \"#utility.yul\":8533:8538   */\n      dup2\n        /* \"#utility.yul\":8529:8545   */\n      add\n        /* \"#utility.yul\":8578:8581   */\n      dup5\n        /* \"#utility.yul\":8569:8575   */\n      dup5\n        /* \"#utility.yul\":8564:8567   */\n      dup5\n        /* \"#utility.yul\":8560:8576   */\n      add\n        /* \"#utility.yul\":8557:8582   */\n      gt\n        /* \"#utility.yul\":8554:8666   */\n      iszero\n      tag_487\n      jumpi\n        /* \"#utility.yul\":8585:8664   */\n      tag_488\n      tag_364\n      jump\t// in\n    tag_488:\n        /* \"#utility.yul\":8554:8666   */\n    tag_487:\n        /* \"#utility.yul\":8675:8716   */\n      tag_489\n        /* \"#utility.yul\":8709:8715   */\n      dup5\n        /* \"#utility.yul\":8704:8707   */\n      dup3\n        /* \"#utility.yul\":8699:8702   */\n      dup6\n        /* \"#utility.yul\":8675:8716   */\n      tag_369\n      jump\t// in\n    tag_489:\n        /* \"#utility.yul\":8395:8722   */\n      pop\n        /* \"#utility.yul\":8312:8722   */\n      swap4\n      swap3\n      pop\n      pop\n      pop\n      jump\t// out\n        /* \"#utility.yul\":8741:9079   */\n    tag_371:\n        /* \"#utility.yul\":8796:8801   */\n      0x00\n        /* \"#utility.yul\":8845:8848   */\n      dup3\n        /* \"#utility.yul\":8838:8842   */\n      0x1f\n        /* \"#utility.yul\":8830:8836   */\n      dup4\n        /* \"#utility.yul\":8826:8843   */\n      add\n        /* \"#utility.yul\":8822:8849   */\n      slt\n        /* \"#utility.yul\":8812:8934   */\n      tag_491\n      jumpi\n        /* \"#utility.yul\":8853:8932   */\n      tag_492\n      tag_363\n      jump\t// in\n    tag_492:\n        /* \"#utility.yul\":8812:8934   */\n    tag_491:\n        /* \"#utility.yul\":8970:8976   */\n      dup2\n        /* \"#utility.yul\":8957:8977   */\n      calldataload\n        /* \"#utility.yul\":8995:9073   */\n      tag_493\n        /* \"#utility.yul\":9069:9072   */\n      dup5\n        /* \"#utility.yul\":9061:9067   */\n      dup3\n        /* \"#utility.yul\":9054:9058   */\n      0x20\n        /* \"#utility.yul\":9046:9052   */\n      dup7\n        /* \"#utility.yul\":9042:9059   */\n      add\n        /* \"#utility.yul\":8995:9073   */\n      tag_370\n      jump\t// in\n    tag_493:\n        /* \"#utility.yul\":8986:9073   */\n      swap2\n      pop\n        /* \"#utility.yul\":8802:9079   */\n      pop\n        /* \"#utility.yul\":8741:9079   */\n      swap3\n      swap2\n      pop\n      pop\n      jump\t// out\n        /* \"#utility.yul\":9085:10028   */\n    tag_97:\n        /* \"#utility.yul\":9180:9186   */\n      0x00\n        /* \"#utility.yul\":9188:9194   */\n      dup1\n        /* \"#utility.yul\":9196:9202   */\n      0x00\n        /* \"#utility.yul\":9204:9210   */\n      dup1\n        /* \"#utility.yul\":9253:9256   */\n      0x80\n        /* \"#utility.yul\":9241:9250   */\n      dup6\n        /* \"#utility.yul\":9232:9239   */\n      dup8\n        /* \"#utility.yul\":9228:9251   */\n      sub\n        /* \"#utility.yul\":9224:9257   */\n      slt\n        /* \"#utility.yul\":9221:9341   */\n      iszero\n      tag_495\n      jumpi\n        /* \"#utility.yul\":9260:9339   */\n      tag_496\n      tag_340\n      jump\t// in\n    tag_496:\n        /* \"#utility.yul\":9221:9341   */\n    tag_495:\n        /* \"#utility.yul\":9380:9381   */\n      0x00\n        /* \"#utility.yul\":9405:9458   */\n      tag_497\n        /* \"#utility.yul\":9450:9457   */\n      dup8\n        /* \"#utility.yul\":9441:9447   */\n      dup3\n        /* \"#utility.yul\":9430:9439   */\n      dup9\n        /* \"#utility.yul\":9426:9448   */\n      add\n        /* \"#utility.yul\":9405:9458   */\n      tag_359\n      jump\t// in\n    tag_497:\n        /* \"#utility.yul\":9395:9458   */\n      swap5\n      pop\n        /* \"#utility.yul\":9351:9468   */\n      pop\n        /* \"#utility.yul\":9507:9509   */\n      0x20\n        /* \"#utility.yul\":9533:9586   */\n      tag_498\n        /* \"#utility.yul\":9578:9585   */\n      dup8\n        /* \"#utility.yul\":9569:9575   */\n      dup3\n        /* \"#utility.yul\":9558:9567   */\n      dup9\n        /* \"#utility.yul\":9554:9576   */\n      add\n        /* \"#utility.yul\":9533:9586   */\n      tag_359\n      jump\t// in\n    tag_498:\n        /* \"#utility.yul\":9523:9586   */\n      swap4\n      pop\n        /* \"#utility.yul\":9478:9596   */\n      pop\n        /* \"#utility.yul\":9635:9637   */\n      0x40\n        /* \"#utility.yul\":9661:9714   */\n      tag_499\n        /* \"#utility.yul\":9706:9713   */\n      dup8\n        /* \"#utility.yul\":9697:9703   */\n      dup3\n        /* \"#utility.yul\":9686:9695   */\n      dup9\n        /* \"#utility.yul\":9682:9704   */\n      add\n        /* \"#utility.yul\":9661:9714   */\n      tag_354\n      jump\t// in\n    tag_499:\n        /* \"#utility.yul\":9651:9714   */\n      swap3\n      pop\n        /* \"#utility.yul\":9606:9724   */\n      pop\n        /* \"#utility.yul\":9791:9793   */\n      0x60\n        /* \"#utility.yul\":9780:9789   */\n      dup6\n        /* \"#utility.yul\":9776:9794   */\n      add\n        /* \"#utility.yul\":9763:9795   */\n      calldataload\n        /* \"#utility.yul\":9822:9840   */\n      0xffffffffffffffff\n        /* \"#utility.yul\":9814:9820   */\n      dup2\n        /* \"#utility.yul\":9811:9841   */\n      gt\n        /* \"#utility.yul\":9808:9925   */\n      iszero\n      tag_500\n      jumpi\n        /* \"#utility.yul\":9844:9923   */\n      tag_501\n      tag_341\n      jump\t// in\n    tag_501:\n        /* \"#utility.yul\":9808:9925   */\n    tag_500:\n        /* \"#utility.yul\":9949:10011   */\n      tag_502\n        /* \"#utility.yul\":10003:10010   */\n      dup8\n        /* \"#utility.yul\":9994:10000   */\n      dup3\n        /* \"#utility.yul\":9983:9992   */\n      dup9\n        /* \"#utility.yul\":9979:10001   */\n      add\n        /* \"#utility.yul\":9949:10011   */\n      tag_371\n      jump\t// in\n    tag_502:\n        /* \"#utility.yul\":9939:10011   */\n      swap2\n      pop\n        /* \"#utility.yul\":9734:10021   */\n      pop\n        /* \"#utility.yul\":9085:10028   */\n      swap3\n      swap6\n      swap2\n      swap5\n      pop\n      swap3\n      pop\n      jump\t// out\n        /* \"#utility.yul\":10034:10508   */\n    tag_107:\n        /* \"#utility.yul\":10102:10108   */\n      0x00\n        /* \"#utility.yul\":10110:10116   */\n      dup1\n        /* \"#utility.yul\":10159:10161   */\n      0x40\n        /* \"#utility.yul\":10147:10156   */\n      dup4\n        /* \"#utility.yul\":10138:10145   */\n      dup6\n        /* \"#utility.yul\":10134:10157   */\n      sub\n        /* \"#utility.yul\":10130:10162   */\n      slt\n        /* \"#utility.yul\":10127:10246   */\n      iszero\n      tag_504\n      jumpi\n        /* \"#utility.yul\":10165:10244   */\n      tag_505\n      tag_340\n      jump\t// in\n    tag_505:\n        /* \"#utility.yul\":10127:10246   */\n    tag_504:\n        /* \"#utility.yul\":10285:10286   */\n      0x00\n        /* \"#utility.yul\":10310:10363   */\n      tag_506\n        /* \"#utility.yul\":10355:10362   */\n      dup6\n        /* \"#utility.yul\":10346:10352   */\n      dup3\n        /* \"#utility.yul\":10335:10344   */\n      dup7\n        /* \"#utility.yul\":10331:10353   */\n      add\n        /* \"#utility.yul\":10310:10363   */\n      tag_359\n      jump\t// in\n    tag_506:\n        /* \"#utility.yul\":10300:10363   */\n      swap3\n      pop\n        /* \"#utility.yul\":10256:10373   */\n      pop\n        /* \"#utility.yul\":10412:10414   */\n      0x20\n        /* \"#utility.yul\":10438:10491   */\n      tag_507\n        /* \"#utility.yul\":10483:10490   */\n      dup6\n        /* \"#utility.yul\":10474:10480   */\n      dup3\n        /* \"#utility.yul\":10463:10472   */\n      dup7\n        /* \"#utility.yul\":10459:10481   */\n      add\n        /* \"#utility.yul\":10438:10491   */\n      tag_359\n      jump\t// in\n    tag_507:\n        /* \"#utility.yul\":10428:10491   */\n      swap2\n      pop\n        /* \"#utility.yul\":10383:10501   */\n      pop\n        /* \"#utility.yul\":10034:10508   */\n      swap3\n      pop\n      swap3\n      swap1\n      pop\n      jump\t// out\n        /* \"#utility.yul\":10514:10694   */\n    tag_372:\n        /* \"#utility.yul\":10562:10639   */\n      0x4e487b7100000000000000000000000000000000000000000000000000000000\n        /* \"#utility.yul\":10559:10560   */\n      0x00\n        /* \"#utility.yul\":10552:10640   */\n      mstore\n        /* \"#utility.yul\":10659:10663   */\n      0x22\n        /* \"#utility.yul\":10656:10657   */\n      0x04\n        /* \"#utility.yul\":10649:10664   */\n      mstore\n        /* \"#utility.yul\":10683:10687   */\n      0x24\n        /* \"#utility.yul\":10680:10681   */\n      0x00\n        /* \"#utility.yul\":10673:10688   */\n      revert\n        /* \"#utility.yul\":10700:11020   */\n    tag_119:\n        /* \"#utility.yul\":10744:10750   */\n      0x00\n        /* \"#utility.yul\":10781:10782   */\n      0x02\n        /* \"#utility.yul\":10775:10779   */\n      dup3\n        /* \"#utility.yul\":10771:10783   */\n      div\n        /* \"#utility.yul\":10761:10783   */\n      swap1\n      pop\n        /* \"#utility.yul\":10828:10829   */\n      0x01\n        /* \"#utility.yul\":10822:10826   */\n      dup3\n        /* \"#utility.yul\":10818:10830   */\n      and\n        /* \"#utility.yul\":10849:10867   */\n      dup1\n        /* \"#utility.yul\":10839:10920   */\n      tag_510\n      jumpi\n        /* \"#utility.yul\":10905:10909   */\n      0x7f\n        /* \"#utility.yul\":10897:10903   */\n      dup3\n        /* \"#utility.yul\":10893:10910   */\n      and\n        /* \"#utility.yul\":10883:10910   */\n      swap2\n      pop\n        /* \"#utility.yul\":10839:10920   */\n    tag_510:\n        /* \"#utility.yul\":10967:10969   */\n      0x20\n        /* \"#utility.yul\":10959:10965   */\n      dup3\n        /* \"#utility.yul\":10956:10970   */\n      lt\n        /* \"#utility.yul\":10936:10954   */\n      dup2\n        /* \"#utility.yul\":10933:10971   */\n      eq\n        /* \"#utility.yul\":10930:11014   */\n      iszero\n      tag_511\n      jumpi\n        /* \"#utility.yul\":10986:11004   */\n      tag_512\n      tag_372\n      jump\t// in\n    tag_512:\n        /* \"#utility.yul\":10930:11014   */\n    tag_511:\n        /* \"#utility.yul\":10751:11020   */\n      pop\n        /* \"#utility.yul\":10700:11020   */\n      swap2\n      swap1\n      pop\n      jump\t// out\n        /* \"#utility.yul\":11026:11174   */\n    tag_373:\n        /* \"#utility.yul\":11128:11139   */\n      0x00\n        /* \"#utility.yul\":11165:11168   */\n      dup2\n        /* \"#utility.yul\":11150:11168   */\n      swap1\n      pop\n        /* \"#utility.yul\":11026:11174   */\n      swap3\n      swap2\n      pop\n      pop\n      jump\t// out\n        /* \"#utility.yul\":11180:11557   */\n    tag_374:\n        /* \"#utility.yul\":11286:11289   */\n      0x00\n        /* \"#utility.yul\":11314:11353   */\n      tag_515\n        /* \"#utility.yul\":11347:11352   */\n      dup3\n        /* \"#utility.yul\":11314:11353   */\n      tag_347\n      jump\t// in\n    tag_515:\n        /* \"#utility.yul\":11369:11458   */\n      tag_516\n        /* \"#utility.yul\":11451:11457   */\n      dup2\n        /* \"#utility.yul\":11446:11449   */\n      dup6\n        /* \"#utility.yul\":11369:11458   */\n      tag_373\n      jump\t// in\n    tag_516:\n        /* \"#utility.yul\":11362:11458   */\n      swap4\n      pop\n        /* \"#utility.yul\":11467:11519   */\n      tag_517\n        /* \"#utility.yul\":11512:11518   */\n      dup2\n        /* \"#utility.yul\":11507:11510   */\n      dup6\n        /* \"#utility.yul\":11500:11504   */\n      0x20\n        /* \"#utility.yul\":11493:11498   */\n      dup7\n        /* \"#utility.yul\":11489:11505   */\n      add\n        /* \"#utility.yul\":11467:11519   */\n      tag_349\n      jump\t// in\n    tag_517:\n        /* \"#utility.yul\":11544:11550   */\n      dup1\n        /* \"#utility.yul\":11539:11542   */\n      dup5\n        /* \"#utility.yul\":11535:11551   */\n      add\n        /* \"#utility.yul\":11528:11551   */\n      swap2\n      pop\n        /* \"#utility.yul\":11290:11557   */\n      pop\n        /* \"#utility.yul\":11180:11557   */\n      swap3\n      swap2\n      pop\n      pop\n      jump\t// out\n        /* \"#utility.yul\":11563:11998   */\n    tag_218:\n        /* \"#utility.yul\":11743:11746   */\n      0x00\n        /* \"#utility.yul\":11765:11860   */\n      tag_519\n        /* \"#utility.yul\":11856:11859   */\n      dup3\n        /* \"#utility.yul\":11847:11853   */\n      dup6\n        /* \"#utility.yul\":11765:11860   */\n      tag_374\n      jump\t// in\n    tag_519:\n        /* \"#utility.yul\":11758:11860   */\n      swap2\n      pop\n        /* \"#utility.yul\":11877:11972   */\n      tag_520\n        /* \"#utility.yul\":11968:11971   */\n      dup3\n        /* \"#utility.yul\":11959:11965   */\n      dup5\n        /* \"#utility.yul\":11877:11972   */\n      tag_374\n      jump\t// in\n    tag_520:\n        /* \"#utility.yul\":11870:11972   */\n      swap2\n      pop\n        /* \"#utility.yul\":11989:11992   */\n      dup2\n        /* \"#utility.yul\":11982:11992   */\n      swap1\n      pop\n        /* \"#utility.yul\":11563:11998   */\n      swap4\n      swap3\n      pop\n      pop\n      pop\n      jump\t// out\n        /* \"#utility.yul\":12004:12229   */\n    tag_375:\n        /* \"#utility.yul\":12144:12178   */\n      0x4f776e61626c653a206e6577206f776e657220697320746865207a65726f2061\n        /* \"#utility.yul\":12140:12141   */\n      0x00\n        /* \"#utility.yul\":12132:12138   */\n      dup3\n        /* \"#utility.yul\":12128:12142   */\n      add\n        /* \"#utility.yul\":12121:12179   */\n      mstore\n        /* \"#utility.yul\":12213:12221   */\n      0x6464726573730000000000000000000000000000000000000000000000000000\n        /* \"#utility.yul\":12208:12210   */\n      0x20\n        /* \"#utility.yul\":12200:12206   */\n      dup3\n        /* \"#utility.yul\":12196:12211   */\n      add\n        /* \"#utility.yul\":12189:12222   */\n      mstore\n        /* \"#utility.yul\":12004:12229   */\n      pop\n      jump\t// out\n        /* \"#utility.yul\":12235:12601   */\n    tag_376:\n        /* \"#utility.yul\":12377:12380   */\n      0x00\n        /* \"#utility.yul\":12398:12465   */\n      tag_523\n        /* \"#utility.yul\":12462:12464   */\n      0x26\n        /* \"#utility.yul\":12457:12460   */\n      dup4\n        /* \"#utility.yul\":12398:12465   */\n      tag_348\n      jump\t// in\n    tag_523:\n        /* \"#utility.yul\":12391:12465   */\n      swap2\n      pop\n        /* \"#utility.yul\":12474:12567   */\n      tag_524\n        /* \"#utility.yul\":12563:12566   */\n      dup3\n        /* \"#utility.yul\":12474:12567   */\n      tag_375\n      jump\t// in\n    tag_524:\n        /* \"#utility.yul\":12592:12594   */\n      0x40\n        /* \"#utility.yul\":12587:12590   */\n      dup3\n        /* \"#utility.yul\":12583:12595   */\n      add\n        /* \"#utility.yul\":12576:12595   */\n      swap1\n      pop\n        /* \"#utility.yul\":12235:12601   */\n      swap2\n      swap1\n      pop\n      jump\t// out\n        /* \"#utility.yul\":12607:13026   */\n    tag_225:\n        /* \"#utility.yul\":12773:12777   */\n      0x00\n        /* \"#utility.yul\":12811:12813   */\n      0x20\n        /* \"#utility.yul\":12800:12809   */\n      dup3\n        /* \"#utility.yul\":12796:12814   */\n      add\n        /* \"#utility.yul\":12788:12814   */\n      swap1\n      pop\n        /* \"#utility.yul\":12860:12869   */\n      dup2\n        /* \"#utility.yul\":12854:12858   */\n      dup2\n        /* \"#utility.yul\":12850:12870   */\n      sub\n        /* \"#utility.yul\":12846:12847   */\n      0x00\n        /* \"#utility.yul\":12835:12844   */\n      dup4\n        /* \"#utility.yul\":12831:12848   */\n      add\n        /* \"#utility.yul\":12824:12871   */\n      mstore\n        /* \"#utility.yul\":12888:13019   */\n      tag_526\n        /* \"#utility.yul\":13014:13018   */\n      dup2\n        /* \"#utility.yul\":12888:13019   */\n      tag_376\n      jump\t// in\n    tag_526:\n        /* \"#utility.yul\":12880:13019   */\n      swap1\n      pop\n        /* \"#utility.yul\":12607:13026   */\n      swap2\n      swap1\n      pop\n      jump\t// out\n        /* \"#utility.yul\":13032:13212   */\n    tag_377:\n        /* \"#utility.yul\":13080:13157   */\n      0x4e487b7100000000000000000000000000000000000000000000000000000000\n        /* \"#utility.yul\":13077:13078   */\n      0x00\n        /* \"#utility.yul\":13070:13158   */\n      mstore\n        /* \"#utility.yul\":13177:13181   */\n      0x11\n        /* \"#utility.yul\":13174:13175   */\n      0x04\n        /* \"#utility.yul\":13167:13182   */\n      mstore\n        /* \"#utility.yul\":13201:13205   */\n      0x24\n        /* \"#utility.yul\":13198:13199   */\n      0x00\n        /* \"#utility.yul\":13191:13206   */\n      revert\n        /* \"#utility.yul\":13218:13389   */\n    tag_234:\n        /* \"#utility.yul\":13257:13260   */\n      0x00\n        /* \"#utility.yul\":13280:13304   */\n      tag_529\n        /* \"#utility.yul\":13298:13303   */\n      dup3\n        /* \"#utility.yul\":13280:13304   */\n      tag_352\n      jump\t// in\n    tag_529:\n        /* \"#utility.yul\":13271:13304   */\n      swap2\n      pop\n        /* \"#utility.yul\":13326:13330   */\n      0x00\n        /* \"#utility.yul\":13319:13324   */\n      dup3\n        /* \"#utility.yul\":13316:13331   */\n      eq\n        /* \"#utility.yul\":13313:13354   */\n      iszero\n      tag_530\n      jumpi\n        /* \"#utility.yul\":13334:13352   */\n      tag_531\n      tag_377\n      jump\t// in\n    tag_531:\n        /* \"#utility.yul\":13313:13354   */\n    tag_530:\n        /* \"#utility.yul\":13381:13382   */\n      0x01\n        /* \"#utility.yul\":13374:13379   */\n      dup3\n        /* \"#utility.yul\":13370:13383   */\n      sub\n        /* \"#utility.yul\":13363:13383   */\n      swap1\n      pop\n        /* \"#utility.yul\":13218:13389   */\n      swap2\n      swap1\n      pop\n      jump\t// out\n        /* \"#utility.yul\":13395:13577   */\n    tag_378:\n        /* \"#utility.yul\":13535:13569   */\n      0x4f776e61626c653a2063616c6c6572206973206e6f7420746865206f776e6572\n        /* \"#utility.yul\":13531:13532   */\n      0x00\n        /* \"#utility.yul\":13523:13529   */\n      dup3\n        /* \"#utility.yul\":13519:13533   */\n      add\n        /* \"#utility.yul\":13512:13570   */\n      mstore\n        /* \"#utility.yul\":13395:13577   */\n      pop\n      jump\t// out\n        /* \"#utility.yul\":13583:13949   */\n    tag_379:\n        /* \"#utility.yul\":13725:13728   */\n      0x00\n        /* \"#utility.yul\":13746:13813   */\n      tag_534\n        /* \"#utility.yul\":13810:13812   */\n      0x20\n        /* \"#utility.yul\":13805:13808   */\n      dup4\n        /* \"#utility.yul\":13746:13813   */\n      tag_348\n      jump\t// in\n    tag_534:\n        /* \"#utility.yul\":13739:13813   */\n      swap2\n      pop\n        /* \"#utility.yul\":13822:13915   */\n      tag_535\n        /* \"#utility.yul\":13911:13914   */\n      dup3\n        /* \"#utility.yul\":13822:13915   */\n      tag_378\n      jump\t// in\n    tag_535:\n        /* \"#utility.yul\":13940:13942   */\n      0x20\n        /* \"#utility.yul\":13935:13938   */\n      dup3\n        /* \"#utility.yul\":13931:13943   */\n      add\n        /* \"#utility.yul\":13924:13943   */\n      swap1\n      pop\n        /* \"#utility.yul\":13583:13949   */\n      swap2\n      swap1\n      pop\n      jump\t// out\n        /* \"#utility.yul\":13955:14374   */\n    tag_275:\n        /* \"#utility.yul\":14121:14125   */\n      0x00\n        /* \"#utility.yul\":14159:14161   */\n      0x20\n        /* \"#utility.yul\":14148:14157   */\n      dup3\n        /* \"#utility.yul\":14144:14162   */\n      add\n        /* \"#utility.yul\":14136:14162   */\n      swap1\n      pop\n        /* \"#utility.yul\":14208:14217   */\n      dup2\n        /* \"#utility.yul\":14202:14206   */\n      dup2\n        /* \"#utility.yul\":14198:14218   */\n      sub\n        /* \"#utility.yul\":14194:14195   */\n      0x00\n        /* \"#utility.yul\":14183:14192   */\n      dup4\n        /* \"#utility.yul\":14179:14196   */\n      add\n        /* \"#utility.yul\":14172:14219   */\n      mstore\n        /* \"#utility.yul\":14236:14367   */\n      tag_537\n        /* \"#utility.yul\":14362:14366   */\n      dup2\n        /* \"#utility.yul\":14236:14367   */\n      tag_379\n      jump\t// in\n    tag_537:\n        /* \"#utility.yul\":14228:14367   */\n      swap1\n      pop\n        /* \"#utility.yul\":13955:14374   */\n      swap2\n      swap1\n      pop\n      jump\t// out\n        /* \"#utility.yul\":14380:14478   */\n    tag_380:\n        /* \"#utility.yul\":14431:14437   */\n      0x00\n        /* \"#utility.yul\":14465:14470   */\n      dup2\n        /* \"#utility.yul\":14459:14471   */\n      mload\n        /* \"#utility.yul\":14449:14471   */\n      swap1\n      pop\n        /* \"#utility.yul\":14380:14478   */\n      swap2\n      swap1\n      pop\n      jump\t// out\n        /* \"#utility.yul\":14484:14652   */\n    tag_381:\n        /* \"#utility.yul\":14567:14578   */\n      0x00\n        /* \"#utility.yul\":14601:14607   */\n      dup3\n        /* \"#utility.yul\":14596:14599   */\n      dup3\n        /* \"#utility.yul\":14589:14608   */\n      mstore\n        /* \"#utility.yul\":14641:14645   */\n      0x20\n        /* \"#utility.yul\":14636:14639   */\n      dup3\n        /* \"#utility.yul\":14632:14646   */\n      add\n        /* \"#utility.yul\":14617:14646   */\n      swap1\n      pop\n        /* \"#utility.yul\":14484:14652   */\n      swap3\n      swap2\n      pop\n      pop\n      jump\t// out\n        /* \"#utility.yul\":14658:15018   */\n    tag_382:\n        /* \"#utility.yul\":14744:14747   */\n      0x00\n        /* \"#utility.yul\":14772:14810   */\n      tag_541\n        /* \"#utility.yul\":14804:14809   */\n      dup3\n        /* \"#utility.yul\":14772:14810   */\n      tag_380\n      jump\t// in\n    tag_541:\n        /* \"#utility.yul\":14826:14896   */\n      tag_542\n        /* \"#utility.yul\":14889:14895   */\n      dup2\n        /* \"#utility.yul\":14884:14887   */\n      dup6\n        /* \"#utility.yul\":14826:14896   */\n      tag_381\n      jump\t// in\n    tag_542:\n        /* \"#utility.yul\":14819:14896   */\n      swap4\n      pop\n        /* \"#utility.yul\":14905:14957   */\n      tag_543\n        /* \"#utility.yul\":14950:14956   */\n      dup2\n        /* \"#utility.yul\":14945:14948   */\n      dup6\n        /* \"#utility.yul\":14938:14942   */\n      0x20\n        /* \"#utility.yul\":14931:14936   */\n      dup7\n        /* \"#utility.yul\":14927:14943   */\n      add\n        /* \"#utility.yul\":14905:14957   */\n      tag_349\n      jump\t// in\n    tag_543:\n        /* \"#utility.yul\":14982:15011   */\n      tag_544\n        /* \"#utility.yul\":15004:15010   */\n      dup2\n        /* \"#utility.yul\":14982:15011   */\n      tag_350\n      jump\t// in\n    tag_544:\n        /* \"#utility.yul\":14977:14980   */\n      dup5\n        /* \"#utility.yul\":14973:15012   */\n      add\n        /* \"#utility.yul\":14966:15012   */\n      swap2\n      pop\n        /* \"#utility.yul\":14748:15018   */\n      pop\n        /* \"#utility.yul\":14658:15018   */\n      swap3\n      swap2\n      pop\n      pop\n      jump\t// out\n        /* \"#utility.yul\":15024:15664   */\n    tag_297:\n        /* \"#utility.yul\":15219:15223   */\n      0x00\n        /* \"#utility.yul\":15257:15260   */\n      0x80\n        /* \"#utility.yul\":15246:15255   */\n      dup3\n        /* \"#utility.yul\":15242:15261   */\n      add\n        /* \"#utility.yul\":15234:15261   */\n      swap1\n      pop\n        /* \"#utility.yul\":15271:15342   */\n      tag_546\n        /* \"#utility.yul\":15339:15340   */\n      0x00\n        /* \"#utility.yul\":15328:15337   */\n      dup4\n        /* \"#utility.yul\":15324:15341   */\n      add\n        /* \"#utility.yul\":15315:15321   */\n      dup8\n        /* \"#utility.yul\":15271:15342   */\n      tag_357\n      jump\t// in\n    tag_546:\n        /* \"#utility.yul\":15352:15424   */\n      tag_547\n        /* \"#utility.yul\":15420:15422   */\n      0x20\n        /* \"#utility.yul\":15409:15418   */\n      dup4\n        /* \"#utility.yul\":15405:15423   */\n      add\n        /* \"#utility.yul\":15396:15402   */\n      dup7\n        /* \"#utility.yul\":15352:15424   */\n      tag_357\n      jump\t// in\n    tag_547:\n        /* \"#utility.yul\":15434:15506   */\n      tag_548\n        /* \"#utility.yul\":15502:15504   */\n      0x40\n        /* \"#utility.yul\":15491:15500   */\n      dup4\n        /* \"#utility.yul\":15487:15505   */\n      add\n        /* \"#utility.yul\":15478:15484   */\n      dup6\n        /* \"#utility.yul\":15434:15506   */\n      tag_360\n      jump\t// in\n    tag_548:\n        /* \"#utility.yul\":15553:15562   */\n      dup2\n        /* \"#utility.yul\":15547:15551   */\n      dup2\n        /* \"#utility.yul\":15543:15563   */\n      sub\n        /* \"#utility.yul\":15538:15540   */\n      0x60\n        /* \"#utility.yul\":15527:15536   */\n      dup4\n        /* \"#utility.yul\":15523:15541   */\n      add\n        /* \"#utility.yul\":15516:15564   */\n      mstore\n        /* \"#utility.yul\":15581:15657   */\n      tag_549\n        /* \"#utility.yul\":15652:15656   */\n      dup2\n        /* \"#utility.yul\":15643:15649   */\n      dup5\n        /* \"#utility.yul\":15581:15657   */\n      tag_382\n      jump\t// in\n    tag_549:\n        /* \"#utility.yul\":15573:15657   */\n      swap1\n      pop\n        /* \"#utility.yul\":15024:15664   */\n      swap6\n      swap5\n      pop\n      pop\n      pop\n      pop\n      pop\n      jump\t// out\n        /* \"#utility.yul\":15670:15811   */\n    tag_383:\n        /* \"#utility.yul\":15726:15731   */\n      0x00\n        /* \"#utility.yul\":15757:15763   */\n      dup2\n        /* \"#utility.yul\":15751:15764   */\n      mload\n        /* \"#utility.yul\":15742:15764   */\n      swap1\n      pop\n        /* \"#utility.yul\":15773:15805   */\n      tag_551\n        /* \"#utility.yul\":15799:15804   */\n      dup2\n        /* \"#utility.yul\":15773:15805   */\n      tag_343\n      jump\t// in\n    tag_551:\n        /* \"#utility.yul\":15670:15811   */\n      swap3\n      swap2\n      pop\n      pop\n      jump\t// out\n        /* \"#utility.yul\":15817:16166   */\n    tag_301:\n        /* \"#utility.yul\":15886:15892   */\n      0x00\n        /* \"#utility.yul\":15935:15937   */\n      0x20\n        /* \"#utility.yul\":15923:15932   */\n      dup3\n        /* \"#utility.yul\":15914:15921   */\n      dup5\n        /* \"#utility.yul\":15910:15933   */\n      sub\n        /* \"#utility.yul\":15906:15938   */\n      slt\n        /* \"#utility.yul\":15903:16022   */\n      iszero\n      tag_553\n      jumpi\n        /* \"#utility.yul\":15941:16020   */\n      tag_554\n      tag_340\n      jump\t// in\n    tag_554:\n        /* \"#utility.yul\":15903:16022   */\n    tag_553:\n        /* \"#utility.yul\":16061:16062   */\n      0x00\n        /* \"#utility.yul\":16086:16149   */\n      tag_555\n        /* \"#utility.yul\":16141:16148   */\n      dup5\n        /* \"#utility.yul\":16132:16138   */\n      dup3\n        /* \"#utility.yul\":16121:16130   */\n      dup6\n        /* \"#utility.yul\":16117:16139   */\n      add\n        /* \"#utility.yul\":16086:16149   */\n      tag_383\n      jump\t// in\n    tag_555:\n        /* \"#utility.yul\":16076:16149   */\n      swap2\n      pop\n        /* \"#utility.yul\":16032:16159   */\n      pop\n        /* \"#utility.yul\":15817:16166   */\n      swap3\n      swap2\n      pop\n      pop\n      jump\t// out\n    stop\n    data_db1f2b0395f8af81a252e25f3b1514283a1767cf693ada85de200c6148eac63d 68747470733a2f2f626f7265646170657961636874636c75622e636f6d2f6170692f6d7574616e74732f\n\n    auxdata: 0xa264697066735822122014222ed7d63bf1b72668e74affd735624c555782de96434a19362b0257df25f364736f6c63430008080033\n}\n",
				"bytecode": {
					"linkReferences": {},
					"object": "60806040523480156200001157600080fd5b506040518060400160405280600681526020017f4b616947656e00000000000000000000000000000000000000000000000000008152506040518060400160405280600481526020017f4b61474500000000000000000000000000000000000000000000000000000000815250816002908051906020019062000096929190620001d2565b508060039080519060200190620000af929190620001d2565b50620000c0620000ff60201b60201c565b6000819055505050620000e8620000dc6200010460201b60201c565b6200010c60201b60201c565b620000f9336200010c60201b60201c565b620002e7565b600090565b600033905090565b6000600860009054906101000a900473ffffffffffffffffffffffffffffffffffffffff16905081600860006101000a81548173ffffffffffffffffffffffffffffffffffffffff021916908373ffffffffffffffffffffffffffffffffffffffff1602179055508173ffffffffffffffffffffffffffffffffffffffff168173ffffffffffffffffffffffffffffffffffffffff167f8be0079c531659141344cd1fd0a4f28419497f9722a3daafe3b4186f6b6457e060405160405180910390a35050565b828054620001e090620002b1565b90600052602060002090601f01602090048101928262000204576000855562000250565b82601f106200021f57805160ff191683800117855562000250565b8280016001018555821562000250579182015b828111156200024f57825182559160200191906001019062000232565b5b5090506200025f919062000263565b5090565b5b808211156200027e57600081600090555060010162000264565b5090565b7f4e487b7100000000000000000000000000000000000000000000000000000000600052602260045260246000fd5b60006002820490506001821680620002ca57607f821691505b60208210811415620002e157620002e062000282565b5b50919050565b61213a80620002f76000396000f3fe6080604052600436106101145760003560e01c80636352211e116100a0578063a22cb46511610064578063a22cb4651461038a578063b88d4fde146103b3578063c87b56dd146103cf578063e985e9c51461040c578063f2fde38b1461044957610114565b80636352211e146102a357806370a08231146102e0578063715018a61461031d5780638da5cb5b1461033457806395d89b411461035f57610114565b806318160ddd116100e757806318160ddd146101da57806323b872dd1461020557806340c10f191461022157806342842e0e1461024a57806342966c681461026657610114565b806301ffc9a71461011957806306fdde0314610156578063081812fc14610181578063095ea7b3146101be575b600080fd5b34801561012557600080fd5b50610140600480360381019061013b9190611888565b610472565b60405161014d91906118d0565b60405180910390f35b34801561016257600080fd5b5061016b610504565b6040516101789190611984565b60405180910390f35b34801561018d57600080fd5b506101a860048036038101906101a391906119dc565b610596565b6040516101b59190611a4a565b60405180910390f35b6101d860048036038101906101d39190611a91565b6105f4565b005b3480156101e657600080fd5b506101ef610604565b6040516101fc9190611ae0565b60405180910390f35b61021f600480360381019061021a9190611afb565b61061b565b005b34801561022d57600080fd5b5061024860048036038101906102439190611a91565b6108df565b005b610264600480360381019061025f9190611afb565b6108f5565b005b34801561027257600080fd5b5061028d600480360381019061028891906119dc565b610915565b60405161029a9190611984565b60405180910390f35b3480156102af57600080fd5b506102ca60048036038101906102c591906119dc565b610965565b6040516102d79190611a4a565b60405180910390f35b3480156102ec57600080fd5b5061030760048036038101906103029190611b4e565b610977565b6040516103149190611ae0565b60405180910390f35b34801561032957600080fd5b50610332610a0f565b005b34801561034057600080fd5b50610349610a23565b6040516103569190611a4a565b60405180910390f35b34801561036b57600080fd5b50610374610a4d565b6040516103819190611984565b60405180910390f35b34801561039657600080fd5b506103b160048036038101906103ac9190611ba7565b610adf565b005b6103cd60048036038101906103c89190611d1c565b610bea565b005b3480156103db57600080fd5b506103f660048036038101906103f191906119dc565b610c3c565b6040516104039190611984565b60405180910390f35b34801561041857600080fd5b50610433600480360381019061042e9190611d9f565b610cba565b60405161044091906118d0565b60405180910390f35b34801561045557600080fd5b50610470600480360381019061046b9190611b4e565b610d4e565b005b60006301ffc9a760e01b827bffffffffffffffffffffffffffffffffffffffffffffffffffffffff191614806104cd57506380ac58cd60e01b827bffffffffffffffffffffffffffffffffffffffffffffffffffffffff1916145b806104fd5750635b5e139f60e01b827bffffffffffffffffffffffffffffffffffffffffffffffffffffffff1916145b9050919050565b60606002805461051390611e0e565b80601f016020809104026020016040519081016040528092919081815260200182805461053f90611e0e565b801561058c5780601f106105615761010080835404028352916020019161058c565b820191906000526020600020905b81548152906001019060200180831161056f57829003601f168201915b5050505050905090565b60006105a182610dd2565b6105b6576105b563cf4700e460e01b610e4c565b5b6006600083815260200190815260200160002060000160009054906101000a900473ffffffffffffffffffffffffffffffffffffffff169050919050565b61060082826001610e56565b5050565b600061060e610f85565b6001546000540303905090565b600061062682610f8a565b905073ffffffffffffffffffffffffffffffffffffffff8473ffffffffffffffffffffffffffffffffffffffff161693508373ffffffffffffffffffffffffffffffffffffffff168173ffffffffffffffffffffffffffffffffffffffff161461069b5761069a63a114810060e01b610e4c565b5b6000806106a784611086565b915091506106bd81876106b86110ad565b6110b5565b6106e8576106d2866106cd6110ad565b610cba565b6106e7576106e66359c896be60e01b610e4c565b5b5b6106f586868660016110f9565b801561070057600082555b600560008773ffffffffffffffffffffffffffffffffffffffff1673ffffffffffffffffffffffffffffffffffffffff168152602001908152602001600020600081546001900391905081905550600560008673ffffffffffffffffffffffffffffffffffffffff1673ffffffffffffffffffffffffffffffffffffffff16815260200190815260200160002060008154600101919050819055506107ce856107aa8888876110ff565b7c020000000000000000000000000000000000000000000000000000000017611127565b600460008681526020019081526020016000208190555060007c020000000000000000000000000000000000000000000000000000000084161415610856576000600185019050600060046000838152602001908152602001600020541415610854576000548114610853578360046000838152602001908152602001600020819055505b5b505b600073ffffffffffffffffffffffffffffffffffffffff8673ffffffffffffffffffffffffffffffffffffffff161690508481887fddf252ad1be2c89b69c2b068fc378daa952ba7f163c4a11628f55a4df523b3ef600080a460008114156108c9576108c863ea553b3460e01b610e4c565b5b6108d68787876001611152565b50505050505050565b6108e7611158565b6108f182826111d6565b5050565b61091083838360405180602001604052806000815250610bea565b505050565b606061091f611158565b6109288261133c565b6040518060400160405280600c81526020017f546f6b656e206275726e656400000000000000000000000000000000000000008152509050919050565b600061097082610f8a565b9050919050565b60008073ffffffffffffffffffffffffffffffffffffffff168273ffffffffffffffffffffffffffffffffffffffff1614156109be576109bd638f4eb60460e01b610e4c565b5b67ffffffffffffffff600560008473ffffffffffffffffffffffffffffffffffffffff1673ffffffffffffffffffffffffffffffffffffffff16815260200190815260200160002054169050919050565b610a17611158565b610a21600061134a565b565b6000600860009054906101000a900473ffffffffffffffffffffffffffffffffffffffff16905090565b606060038054610a5c90611e0e565b80601f0160208091040260200160405190810160405280929190818152602001828054610a8890611e0e565b8015610ad55780601f10610aaa57610100808354040283529160200191610ad5565b820191906000526020600020905b815481529060010190602001808311610ab857829003601f168201915b5050505050905090565b8060076000610aec6110ad565b73ffffffffffffffffffffffffffffffffffffffff1673ffffffffffffffffffffffffffffffffffffffff16815260200190815260200160002060008473ffffffffffffffffffffffffffffffffffffffff1673ffffffffffffffffffffffffffffffffffffffff16815260200190815260200160002060006101000a81548160ff0219169083151502179055508173ffffffffffffffffffffffffffffffffffffffff16610b996110ad565b73ffffffffffffffffffffffffffffffffffffffff167f17307eab39ab6107e8899845ad3d59bd9653f200f220920489ca2b5937696c3183604051610bde91906118d0565b60405180910390a35050565b610bf584848461061b565b60008373ffffffffffffffffffffffffffffffffffffffff163b14610c3657610c2084848484611410565b610c3557610c3463d1a57ed660e01b610e4c565b5b5b50505050565b6060610c4782610dd2565b610c5c57610c5b63a14c4b5060e01b610e4c565b5b6000610c6661154f565b9050600081511415610c875760405180602001604052806000815250610cb2565b80610c918461156f565b604051602001610ca2929190611e7c565b6040516020818303038152906040525b915050919050565b6000600760008473ffffffffffffffffffffffffffffffffffffffff1673ffffffffffffffffffffffffffffffffffffffff16815260200190815260200160002060008373ffffffffffffffffffffffffffffffffffffffff1673ffffffffffffffffffffffffffffffffffffffff16815260200190815260200160002060009054906101000a900460ff16905092915050565b610d56611158565b600073ffffffffffffffffffffffffffffffffffffffff168173ffffffffffffffffffffffffffffffffffffffff161415610dc6576040517f08c379a0000000000000000000000000000000000000000000000000000000008152600401610dbd90611f12565b60405180910390fd5b610dcf8161134a565b50565b600081610ddd610f85565b11610e4757600054821015610e465760005b600060046000858152602001908152602001600020549150811415610e1f5782610e1890611f61565b9250610def565b60007c01000000000000000000000000000000000000000000000000000000008216149150505b5b919050565b8060005260046000fd5b6000610e6183610965565b9050818015610ea357508073ffffffffffffffffffffffffffffffffffffffff16610e8a6110ad565b73ffffffffffffffffffffffffffffffffffffffff1614155b15610ecf57610eb981610eb46110ad565b610cba565b610ece57610ecd63cfb3b94260e01b610e4c565b5b5b836006600085815260200190815260200160002060000160006101000a81548173ffffffffffffffffffffffffffffffffffffffff021916908373ffffffffffffffffffffffffffffffffffffffff160217905550828473ffffffffffffffffffffffffffffffffffffffff168273ffffffffffffffffffffffffffffffffffffffff167f8c5be1e5ebec7d5bd14f71427d1e84f3dd0314c0f7b2291e5b200ac8c7c3b92560405160405180910390a450505050565b600090565b600081610f95610f85565b1161107057600460008381526020019081526020016000205490506000811415611042576000548210610fd357610fd263df2d9b4260e01b610e4c565b5b5b60046000836001900393508381526020019081526020016000205490506000811415610fff5761103d565b60007c01000000000000000000000000000000000000000000000000000000008216141561102c57611081565b61103c63df2d9b4260e01b610e4c565b5b610fd4565b60007c01000000000000000000000000000000000000000000000000000000008216141561106f57611081565b5b61108063df2d9b4260e01b610e4c565b5b919050565b60008060006006600085815260200190815260200160002090508092508254915050915091565b600033905090565b600073ffffffffffffffffffffffffffffffffffffffff8316925073ffffffffffffffffffffffffffffffffffffffff821691508382148383141790509392505050565b50505050565b60008060e883901c905060e86111168686846115c8565b62ffffff16901b9150509392505050565b600073ffffffffffffffffffffffffffffffffffffffff83169250814260a01b178317905092915050565b50505050565b6111606115d1565b73ffffffffffffffffffffffffffffffffffffffff1661117e610a23565b73ffffffffffffffffffffffffffffffffffffffff16146111d4576040517f08c379a00000000000000000000000000000000000000000000000000000000081526004016111cb90611fd7565b60405180910390fd5b565b60008054905060008214156111f6576111f563b562e8dd60e01b610e4c565b5b61120360008483856110f9565b6112238361121460008660006110ff565b61121d856115d9565b17611127565b6004600083815260200190815260200160002081905550600160406001901b178202600560008573ffffffffffffffffffffffffffffffffffffffff1673ffffffffffffffffffffffffffffffffffffffff16815260200190815260200160002060008282540192505081905550600073ffffffffffffffffffffffffffffffffffffffff8473ffffffffffffffffffffffffffffffffffffffff1616905060008114156112dc576112db632e07630060e01b610e4c565b5b6000838301905060008390505b808360007fddf252ad1be2c89b69c2b068fc378daa952ba7f163c4a11628f55a4df523b3ef600080a4818160010191508114156112e957816000819055505050506113376000848385611152565b505050565b6113478160006115e9565b50565b6000600860009054906101000a900473ffffffffffffffffffffffffffffffffffffffff16905081600860006101000a81548173ffffffffffffffffffffffffffffffffffffffff021916908373ffffffffffffffffffffffffffffffffffffffff1602179055508173ffffffffffffffffffffffffffffffffffffffff168173ffffffffffffffffffffffffffffffffffffffff167f8be0079c531659141344cd1fd0a4f28419497f9722a3daafe3b4186f6b6457e060405160405180910390a35050565b60008373ffffffffffffffffffffffffffffffffffffffff1663150b7a026114366110ad565b8786866040518563ffffffff1660e01b8152600401611458949392919061204c565b602060405180830381600087803b15801561147257600080fd5b505af19250505080156114a357506040513d601f19601f820116820180604052508101906114a091906120ad565b60015b6114fc573d80600081146114d3576040519150601f19603f3d011682016040523d82523d6000602084013e6114d8565b606091505b506000815114156114f4576114f363d1a57ed660e01b610e4c565b5b805181602001fd5b63150b7a0260e01b7bffffffffffffffffffffffffffffffffffffffffffffffffffffffff1916817bffffffffffffffffffffffffffffffffffffffffffffffffffffffff191614915050949350505050565b60606040518060600160405280602a81526020016120db602a9139905090565b606060a060405101806040526020810391506000825281835b6001156115b357600184039350600a81066030018453600a81049050806115ae576115b3565b611588565b50828103602084039350808452505050919050565b60009392505050565b600033905090565b60006001821460e11b9050919050565b60006115f483610f8a565b9050600081905060008061160786611086565b91509150841561164f57611623818461161e6110ad565b6110b5565b61164e57611638836116336110ad565b610cba565b61164d5761164c6359c896be60e01b610e4c565b5b5b5b61165d8360008860016110f9565b801561166857600082555b600160806001901b03600560008573ffffffffffffffffffffffffffffffffffffffff1673ffffffffffffffffffffffffffffffffffffffff16815260200190815260200160002060008282540192505081905550611710836116cd856000886110ff565b7c02000000000000000000000000000000000000000000000000000000007c01000000000000000000000000000000000000000000000000000000001717611127565b600460008881526020019081526020016000208190555060007c020000000000000000000000000000000000000000000000000000000085161415611798576000600187019050600060046000838152602001908152602001600020541415611796576000548114611795578460046000838152602001908152602001600020819055505b5b505b85600073ffffffffffffffffffffffffffffffffffffffff168473ffffffffffffffffffffffffffffffffffffffff167fddf252ad1be2c89b69c2b068fc378daa952ba7f163c4a11628f55a4df523b3ef60405160405180910390a4611802836000886001611152565b600160008154809291906001019190505550505050505050565b6000604051905090565b600080fd5b600080fd5b60007fffffffff0000000000000000000000000000000000000000000000000000000082169050919050565b61186581611830565b811461187057600080fd5b50565b6000813590506118828161185c565b92915050565b60006020828403121561189e5761189d611826565b5b60006118ac84828501611873565b91505092915050565b60008115159050919050565b6118ca816118b5565b82525050565b60006020820190506118e560008301846118c1565b92915050565b600081519050919050565b600082825260208201905092915050565b60005b8381101561192557808201518184015260208101905061190a565b83811115611934576000848401525b50505050565b6000601f19601f8301169050919050565b6000611956826118eb565b61196081856118f6565b9350611970818560208601611907565b6119798161193a565b840191505092915050565b6000602082019050818103600083015261199e818461194b565b905092915050565b6000819050919050565b6119b9816119a6565b81146119c457600080fd5b50565b6000813590506119d6816119b0565b92915050565b6000602082840312156119f2576119f1611826565b5b6000611a00848285016119c7565b91505092915050565b600073ffffffffffffffffffffffffffffffffffffffff82169050919050565b6000611a3482611a09565b9050919050565b611a4481611a29565b82525050565b6000602082019050611a5f6000830184611a3b565b92915050565b611a6e81611a29565b8114611a7957600080fd5b50565b600081359050611a8b81611a65565b92915050565b60008060408385031215611aa857611aa7611826565b5b6000611ab685828601611a7c565b9250506020611ac7858286016119c7565b9150509250929050565b611ada816119a6565b82525050565b6000602082019050611af56000830184611ad1565b92915050565b600080600060608486031215611b1457611b13611826565b5b6000611b2286828701611a7c565b9350506020611b3386828701611a7c565b9250506040611b44868287016119c7565b9150509250925092565b600060208284031215611b6457611b63611826565b5b6000611b7284828501611a7c565b91505092915050565b611b84816118b5565b8114611b8f57600080fd5b50565b600081359050611ba181611b7b565b92915050565b60008060408385031215611bbe57611bbd611826565b5b6000611bcc85828601611a7c565b9250506020611bdd85828601611b92565b9150509250929050565b600080fd5b600080fd5b7f4e487b7100000000000000000000000000000000000000000000000000000000600052604160045260246000fd5b611c298261193a565b810181811067ffffffffffffffff82111715611c4857611c47611bf1565b5b80604052505050565b6000611c5b61181c565b9050611c678282611c20565b919050565b600067ffffffffffffffff821115611c8757611c86611bf1565b5b611c908261193a565b9050602081019050919050565b82818337600083830152505050565b6000611cbf611cba84611c6c565b611c51565b905082815260208101848484011115611cdb57611cda611bec565b5b611ce6848285611c9d565b509392505050565b600082601f830112611d0357611d02611be7565b5b8135611d13848260208601611cac565b91505092915050565b60008060008060808587031215611d3657611d35611826565b5b6000611d4487828801611a7c565b9450506020611d5587828801611a7c565b9350506040611d66878288016119c7565b925050606085013567ffffffffffffffff811115611d8757611d8661182b565b5b611d9387828801611cee565b91505092959194509250565b60008060408385031215611db657611db5611826565b5b6000611dc485828601611a7c565b9250506020611dd585828601611a7c565b9150509250929050565b7f4e487b7100000000000000000000000000000000000000000000000000000000600052602260045260246000fd5b60006002820490506001821680611e2657607f821691505b60208210811415611e3a57611e39611ddf565b5b50919050565b600081905092915050565b6000611e56826118eb565b611e608185611e40565b9350611e70818560208601611907565b80840191505092915050565b6000611e888285611e4b565b9150611e948284611e4b565b91508190509392505050565b7f4f776e61626c653a206e6577206f776e657220697320746865207a65726f206160008201527f6464726573730000000000000000000000000000000000000000000000000000602082015250565b6000611efc6026836118f6565b9150611f0782611ea0565b604082019050919050565b60006020820190508181036000830152611f2b81611eef565b9050919050565b7f4e487b7100000000000000000000000000000000000000000000000000000000600052601160045260246000fd5b6000611f6c826119a6565b91506000821415611f8057611f7f611f32565b5b600182039050919050565b7f4f776e61626c653a2063616c6c6572206973206e6f7420746865206f776e6572600082015250565b6000611fc16020836118f6565b9150611fcc82611f8b565b602082019050919050565b60006020820190508181036000830152611ff081611fb4565b9050919050565b600081519050919050565b600082825260208201905092915050565b600061201e82611ff7565b6120288185612002565b9350612038818560208601611907565b6120418161193a565b840191505092915050565b60006080820190506120616000830187611a3b565b61206e6020830186611a3b565b61207b6040830185611ad1565b818103606083015261208d8184612013565b905095945050505050565b6000815190506120a78161185c565b92915050565b6000602082840312156120c3576120c2611826565b5b60006120d184828501612098565b9150509291505056fe68747470733a2f2f626f7265646170657961636874636c75622e636f6d2f6170692f6d7574616e74732fa264697066735822122014222ed7d63bf1b72668e74affd735624c555782de96434a19362b0257df25f364736f6c63430008080033",
					"opcodes": "PUSH1 0x80 PUSH1 0x40 MSTORE CALLVALUE DUP1 ISZERO PUSH3 0x11 JUMPI PUSH1 0x0 DUP1 REVERT JUMPDEST POP PUSH1 0x40 MLOAD DUP1 PUSH1 0x40 ADD PUSH1 0x40 MSTORE DUP1 PUSH1 0x6 DUP2 MSTORE PUSH1 0x20 ADD PUSH32 0x4B616947656E0000000000000000000000000000000000000000000000000000 DUP2 MSTORE POP PUSH1 0x40 MLOAD DUP1 PUSH1 0x40 ADD PUSH1 0x40 MSTORE DUP1 PUSH1 0x4 DUP2 MSTORE PUSH1 0x20 ADD PUSH32 0x4B61474500000000000000000000000000000000000000000000000000000000 DUP2 MSTORE POP DUP2 PUSH1 0x2 SWAP1 DUP1 MLOAD SWAP1 PUSH1 0x20 ADD SWAP1 PUSH3 0x96 SWAP3 SWAP2 SWAP1 PUSH3 0x1D2 JUMP JUMPDEST POP DUP1 PUSH1 0x3 SWAP1 DUP1 MLOAD SWAP1 PUSH1 0x20 ADD SWAP1 PUSH3 0xAF SWAP3 SWAP2 SWAP1 PUSH3 0x1D2 JUMP JUMPDEST POP PUSH3 0xC0 PUSH3 0xFF PUSH1 0x20 SHL PUSH1 0x20 SHR JUMP JUMPDEST PUSH1 0x0 DUP2 SWAP1 SSTORE POP POP POP PUSH3 0xE8 PUSH3 0xDC PUSH3 0x104 PUSH1 0x20 SHL PUSH1 0x20 SHR JUMP JUMPDEST PUSH3 0x10C PUSH1 0x20 SHL PUSH1 0x20 SHR JUMP JUMPDEST PUSH3 0xF9 CALLER PUSH3 0x10C PUSH1 0x20 SHL PUSH1 0x20 SHR JUMP JUMPDEST PUSH3 0x2E7 JUMP JUMPDEST PUSH1 0x0 SWAP1 JUMP JUMPDEST PUSH1 0x0 CALLER SWAP1 POP SWAP1 JUMP JUMPDEST PUSH1 0x0 PUSH1 0x8 PUSH1 0x0 SWAP1 SLOAD SWAP1 PUSH2 0x100 EXP SWAP1 DIV PUSH20 0xFFFFFFFFFFFFFFFFFFFFFFFFFFFFFFFFFFFFFFFF AND SWAP1 POP DUP2 PUSH1 0x8 PUSH1 0x0 PUSH2 0x100 EXP DUP2 SLOAD DUP2 PUSH20 0xFFFFFFFFFFFFFFFFFFFFFFFFFFFFFFFFFFFFFFFF MUL NOT AND SWAP1 DUP4 PUSH20 0xFFFFFFFFFFFFFFFFFFFFFFFFFFFFFFFFFFFFFFFF AND MUL OR SWAP1 SSTORE POP DUP2 PUSH20 0xFFFFFFFFFFFFFFFFFFFFFFFFFFFFFFFFFFFFFFFF AND DUP2 PUSH20 0xFFFFFFFFFFFFFFFFFFFFFFFFFFFFFFFFFFFFFFFF AND PUSH32 0x8BE0079C531659141344CD1FD0A4F28419497F9722A3DAAFE3B4186F6B6457E0 PUSH1 0x40 MLOAD PUSH1 0x40 MLOAD DUP1 SWAP2 SUB SWAP1 LOG3 POP POP JUMP JUMPDEST DUP3 DUP1 SLOAD PUSH3 0x1E0 SWAP1 PUSH3 0x2B1 JUMP JUMPDEST SWAP1 PUSH1 0x0 MSTORE PUSH1 0x20 PUSH1 0x0 KECCAK256 SWAP1 PUSH1 0x1F ADD PUSH1 0x20 SWAP1 DIV DUP2 ADD SWAP3 DUP3 PUSH3 0x204 JUMPI PUSH1 0x0 DUP6 SSTORE PUSH3 0x250 JUMP JUMPDEST DUP3 PUSH1 0x1F LT PUSH3 0x21F JUMPI DUP1 MLOAD PUSH1 0xFF NOT AND DUP4 DUP1 ADD OR DUP6 SSTORE PUSH3 0x250 JUMP JUMPDEST DUP3 DUP1 ADD PUSH1 0x1 ADD DUP6 SSTORE DUP3 ISZERO PUSH3 0x250 JUMPI SWAP2 DUP3 ADD JUMPDEST DUP3 DUP2 GT ISZERO PUSH3 0x24F JUMPI DUP3 MLOAD DUP3 SSTORE SWAP2 PUSH1 0x20 ADD SWAP2 SWAP1 PUSH1 0x1 ADD SWAP1 PUSH3 0x232 JUMP JUMPDEST JUMPDEST POP SWAP1 POP PUSH3 0x25F SWAP2 SWAP1 PUSH3 0x263 JUMP JUMPDEST POP SWAP1 JUMP JUMPDEST JUMPDEST DUP1 DUP3 GT ISZERO PUSH3 0x27E JUMPI PUSH1 0x0 DUP2 PUSH1 0x0 SWAP1 SSTORE POP PUSH1 0x1 ADD PUSH3 0x264 JUMP JUMPDEST POP SWAP1 JUMP JUMPDEST PUSH32 0x4E487B7100000000000000000000000000000000000000000000000000000000 PUSH1 0x0 MSTORE PUSH1 0x22 PUSH1 0x4 MSTORE PUSH1 0x24 PUSH1 0x0 REVERT JUMPDEST PUSH1 0x0 PUSH1 0x2 DUP3 DIV SWAP1 POP PUSH1 0x1 DUP3 AND DUP1 PUSH3 0x2CA JUMPI PUSH1 0x7F DUP3 AND SWAP2 POP JUMPDEST PUSH1 0x20 DUP3 LT DUP2 EQ ISZERO PUSH3 0x2E1 JUMPI PUSH3 0x2E0 PUSH3 0x282 JUMP JUMPDEST JUMPDEST POP SWAP2 SWAP1 POP JUMP JUMPDEST PUSH2 0x213A DUP1 PUSH3 0x2F7 PUSH1 0x0 CODECOPY PUSH1 0x0 RETURN INVALID PUSH1 0x80 PUSH1 0x40 MSTORE PUSH1 0x4 CALLDATASIZE LT PUSH2 0x114 JUMPI PUSH1 0x0 CALLDATALOAD PUSH1 0xE0 SHR DUP1 PUSH4 0x6352211E GT PUSH2 0xA0 JUMPI DUP1 PUSH4 0xA22CB465 GT PUSH2 0x64 JUMPI DUP1 PUSH4 0xA22CB465 EQ PUSH2 0x38A JUMPI DUP1 PUSH4 0xB88D4FDE EQ PUSH2 0x3B3 JUMPI DUP1 PUSH4 0xC87B56DD EQ PUSH2 0x3CF JUMPI DUP1 PUSH4 0xE985E9C5 EQ PUSH2 0x40C JUMPI DUP1 PUSH4 0xF2FDE38B EQ PUSH2 0x449 JUMPI PUSH2 0x114 JUMP JUMPDEST DUP1 PUSH4 0x6352211E EQ PUSH2 0x2A3 JUMPI DUP1 PUSH4 0x70A08231 EQ PUSH2 0x2E0 JUMPI DUP1 PUSH4 0x715018A6 EQ PUSH2 0x31D JUMPI DUP1 PUSH4 0x8DA5CB5B EQ PUSH2 0x334 JUMPI DUP1 PUSH4 0x95D89B41 EQ PUSH2 0x35F JUMPI PUSH2 0x114 JUMP JUMPDEST DUP1 PUSH4 0x18160DDD GT PUSH2 0xE7 JUMPI DUP1 PUSH4 0x18160DDD EQ PUSH2 0x1DA JUMPI DUP1 PUSH4 0x23B872DD EQ PUSH2 0x205 JUMPI DUP1 PUSH4 0x40C10F19 EQ PUSH2 0x221 JUMPI DUP1 PUSH4 0x42842E0E EQ PUSH2 0x24A JUMPI DUP1 PUSH4 0x42966C68 EQ PUSH2 0x266 JUMPI PUSH2 0x114 JUMP JUMPDEST DUP1 PUSH4 0x1FFC9A7 EQ PUSH2 0x119 JUMPI DUP1 PUSH4 0x6FDDE03 EQ PUSH2 0x156 JUMPI DUP1 PUSH4 0x81812FC EQ PUSH2 0x181 JUMPI DUP1 PUSH4 0x95EA7B3 EQ PUSH2 0x1BE JUMPI JUMPDEST PUSH1 0x0 DUP1 REVERT JUMPDEST CALLVALUE DUP1 ISZERO PUSH2 0x125 JUMPI PUSH1 0x0 DUP1 REVERT JUMPDEST POP PUSH2 0x140 PUSH1 0x4 DUP1 CALLDATASIZE SUB DUP2 ADD SWAP1 PUSH2 0x13B SWAP2 SWAP1 PUSH2 0x1888 JUMP JUMPDEST PUSH2 0x472 JUMP JUMPDEST PUSH1 0x40 MLOAD PUSH2 0x14D SWAP2 SWAP1 PUSH2 0x18D0 JUMP JUMPDEST PUSH1 0x40 MLOAD DUP1 SWAP2 SUB SWAP1 RETURN JUMPDEST CALLVALUE DUP1 ISZERO PUSH2 0x162 JUMPI PUSH1 0x0 DUP1 REVERT JUMPDEST POP PUSH2 0x16B PUSH2 0x504 JUMP JUMPDEST PUSH1 0x40 MLOAD PUSH2 0x178 SWAP2 SWAP1 PUSH2 0x1984 JUMP JUMPDEST PUSH1 0x40 MLOAD DUP1 SWAP2 SUB SWAP1 RETURN JUMPDEST CALLVALUE DUP1 ISZERO PUSH2 0x18D JUMPI PUSH1 0x0 DUP1 REVERT JUMPDEST POP PUSH2 0x1A8 PUSH1 0x4 DUP1 CALLDATASIZE SUB DUP2 ADD SWAP1 PUSH2 0x1A3 SWAP2 SWAP1 PUSH2 0x19DC JUMP JUMPDEST PUSH2 0x596 JUMP JUMPDEST PUSH1 0x40 MLOAD PUSH2 0x1B5 SWAP2 SWAP1 PUSH2 0x1A4A JUMP JUMPDEST PUSH1 0x40 MLOAD DUP1 SWAP2 SUB SWAP1 RETURN JUMPDEST PUSH2 0x1D8 PUSH1 0x4 DUP1 CALLDATASIZE SUB DUP2 ADD SWAP1 PUSH2 0x1D3 SWAP2 SWAP1 PUSH2 0x1A91 JUMP JUMPDEST PUSH2 0x5F4 JUMP JUMPDEST STOP JUMPDEST CALLVALUE DUP1 ISZERO PUSH2 0x1E6 JUMPI PUSH1 0x0 DUP1 REVERT JUMPDEST POP PUSH2 0x1EF PUSH2 0x604 JUMP JUMPDEST PUSH1 0x40 MLOAD PUSH2 0x1FC SWAP2 SWAP1 PUSH2 0x1AE0 JUMP JUMPDEST PUSH1 0x40 MLOAD DUP1 SWAP2 SUB SWAP1 RETURN JUMPDEST PUSH2 0x21F PUSH1 0x4 DUP1 CALLDATASIZE SUB DUP2 ADD SWAP1 PUSH2 0x21A SWAP2 SWAP1 PUSH2 0x1AFB JUMP JUMPDEST PUSH2 0x61B JUMP JUMPDEST STOP JUMPDEST CALLVALUE DUP1 ISZERO PUSH2 0x22D JUMPI PUSH1 0x0 DUP1 REVERT JUMPDEST POP PUSH2 0x248 PUSH1 0x4 DUP1 CALLDATASIZE SUB DUP2 ADD SWAP1 PUSH2 0x243 SWAP2 SWAP1 PUSH2 0x1A91 JUMP JUMPDEST PUSH2 0x8DF JUMP JUMPDEST STOP JUMPDEST PUSH2 0x264 PUSH1 0x4 DUP1 CALLDATASIZE SUB DUP2 ADD SWAP1 PUSH2 0x25F SWAP2 SWAP1 PUSH2 0x1AFB JUMP JUMPDEST PUSH2 0x8F5 JUMP JUMPDEST STOP JUMPDEST CALLVALUE DUP1 ISZERO PUSH2 0x272 JUMPI PUSH1 0x0 DUP1 REVERT JUMPDEST POP PUSH2 0x28D PUSH1 0x4 DUP1 CALLDATASIZE SUB DUP2 ADD SWAP1 PUSH2 0x288 SWAP2 SWAP1 PUSH2 0x19DC JUMP JUMPDEST PUSH2 0x915 JUMP JUMPDEST PUSH1 0x40 MLOAD PUSH2 0x29A SWAP2 SWAP1 PUSH2 0x1984 JUMP JUMPDEST PUSH1 0x40 MLOAD DUP1 SWAP2 SUB SWAP1 RETURN JUMPDEST CALLVALUE DUP1 ISZERO PUSH2 0x2AF JUMPI PUSH1 0x0 DUP1 REVERT JUMPDEST POP PUSH2 0x2CA PUSH1 0x4 DUP1 CALLDATASIZE SUB DUP2 ADD SWAP1 PUSH2 0x2C5 SWAP2 SWAP1 PUSH2 0x19DC JUMP JUMPDEST PUSH2 0x965 JUMP JUMPDEST PUSH1 0x40 MLOAD PUSH2 0x2D7 SWAP2 SWAP1 PUSH2 0x1A4A JUMP JUMPDEST PUSH1 0x40 MLOAD DUP1 SWAP2 SUB SWAP1 RETURN JUMPDEST CALLVALUE DUP1 ISZERO PUSH2 0x2EC JUMPI PUSH1 0x0 DUP1 REVERT JUMPDEST POP PUSH2 0x307 PUSH1 0x4 DUP1 CALLDATASIZE SUB DUP2 ADD SWAP1 PUSH2 0x302 SWAP2 SWAP1 PUSH2 0x1B4E JUMP JUMPDEST PUSH2 0x977 JUMP JUMPDEST PUSH1 0x40 MLOAD PUSH2 0x314 SWAP2 SWAP1 PUSH2 0x1AE0 JUMP JUMPDEST PUSH1 0x40 MLOAD DUP1 SWAP2 SUB SWAP1 RETURN JUMPDEST CALLVALUE DUP1 ISZERO PUSH2 0x329 JUMPI PUSH1 0x0 DUP1 REVERT JUMPDEST POP PUSH2 0x332 PUSH2 0xA0F JUMP JUMPDEST STOP JUMPDEST CALLVALUE DUP1 ISZERO PUSH2 0x340 JUMPI PUSH1 0x0 DUP1 REVERT JUMPDEST POP PUSH2 0x349 PUSH2 0xA23 JUMP JUMPDEST PUSH1 0x40 MLOAD PUSH2 0x356 SWAP2 SWAP1 PUSH2 0x1A4A JUMP JUMPDEST PUSH1 0x40 MLOAD DUP1 SWAP2 SUB SWAP1 RETURN JUMPDEST CALLVALUE DUP1 ISZERO PUSH2 0x36B JUMPI PUSH1 0x0 DUP1 REVERT JUMPDEST POP PUSH2 0x374 PUSH2 0xA4D JUMP JUMPDEST PUSH1 0x40 MLOAD PUSH2 0x381 SWAP2 SWAP1 PUSH2 0x1984 JUMP JUMPDEST PUSH1 0x40 MLOAD DUP1 SWAP2 SUB SWAP1 RETURN JUMPDEST CALLVALUE DUP1 ISZERO PUSH2 0x396 JUMPI PUSH1 0x0 DUP1 REVERT JUMPDEST POP PUSH2 0x3B1 PUSH1 0x4 DUP1 CALLDATASIZE SUB DUP2 ADD SWAP1 PUSH2 0x3AC SWAP2 SWAP1 PUSH2 0x1BA7 JUMP JUMPDEST PUSH2 0xADF JUMP JUMPDEST STOP JUMPDEST PUSH2 0x3CD PUSH1 0x4 DUP1 CALLDATASIZE SUB DUP2 ADD SWAP1 PUSH2 0x3C8 SWAP2 SWAP1 PUSH2 0x1D1C JUMP JUMPDEST PUSH2 0xBEA JUMP JUMPDEST STOP JUMPDEST CALLVALUE DUP1 ISZERO PUSH2 0x3DB JUMPI PUSH1 0x0 DUP1 REVERT JUMPDEST POP PUSH2 0x3F6 PUSH1 0x4 DUP1 CALLDATASIZE SUB DUP2 ADD SWAP1 PUSH2 0x3F1 SWAP2 SWAP1 PUSH2 0x19DC JUMP JUMPDEST PUSH2 0xC3C JUMP JUMPDEST PUSH1 0x40 MLOAD PUSH2 0x403 SWAP2 SWAP1 PUSH2 0x1984 JUMP JUMPDEST PUSH1 0x40 MLOAD DUP1 SWAP2 SUB SWAP1 RETURN JUMPDEST CALLVALUE DUP1 ISZERO PUSH2 0x418 JUMPI PUSH1 0x0 DUP1 REVERT JUMPDEST POP PUSH2 0x433 PUSH1 0x4 DUP1 CALLDATASIZE SUB DUP2 ADD SWAP1 PUSH2 0x42E SWAP2 SWAP1 PUSH2 0x1D9F JUMP JUMPDEST PUSH2 0xCBA JUMP JUMPDEST PUSH1 0x40 MLOAD PUSH2 0x440 SWAP2 SWAP1 PUSH2 0x18D0 JUMP JUMPDEST PUSH1 0x40 MLOAD DUP1 SWAP2 SUB SWAP1 RETURN JUMPDEST CALLVALUE DUP1 ISZERO PUSH2 0x455 JUMPI PUSH1 0x0 DUP1 REVERT JUMPDEST POP PUSH2 0x470 PUSH1 0x4 DUP1 CALLDATASIZE SUB DUP2 ADD SWAP1 PUSH2 0x46B SWAP2 SWAP1 PUSH2 0x1B4E JUMP JUMPDEST PUSH2 0xD4E JUMP JUMPDEST STOP JUMPDEST PUSH1 0x0 PUSH4 0x1FFC9A7 PUSH1 0xE0 SHL DUP3 PUSH28 0xFFFFFFFFFFFFFFFFFFFFFFFFFFFFFFFFFFFFFFFFFFFFFFFFFFFFFFFF NOT AND EQ DUP1 PUSH2 0x4CD JUMPI POP PUSH4 0x80AC58CD PUSH1 0xE0 SHL DUP3 PUSH28 0xFFFFFFFFFFFFFFFFFFFFFFFFFFFFFFFFFFFFFFFFFFFFFFFFFFFFFFFF NOT AND EQ JUMPDEST DUP1 PUSH2 0x4FD JUMPI POP PUSH4 0x5B5E139F PUSH1 0xE0 SHL DUP3 PUSH28 0xFFFFFFFFFFFFFFFFFFFFFFFFFFFFFFFFFFFFFFFFFFFFFFFFFFFFFFFF NOT AND EQ JUMPDEST SWAP1 POP SWAP2 SWAP1 POP JUMP JUMPDEST PUSH1 0x60 PUSH1 0x2 DUP1 SLOAD PUSH2 0x513 SWAP1 PUSH2 0x1E0E JUMP JUMPDEST DUP1 PUSH1 0x1F ADD PUSH1 0x20 DUP1 SWAP2 DIV MUL PUSH1 0x20 ADD PUSH1 0x40 MLOAD SWAP1 DUP2 ADD PUSH1 0x40 MSTORE DUP1 SWAP3 SWAP2 SWAP1 DUP2 DUP2 MSTORE PUSH1 0x20 ADD DUP3 DUP1 SLOAD PUSH2 0x53F SWAP1 PUSH2 0x1E0E JUMP JUMPDEST DUP1 ISZERO PUSH2 0x58C JUMPI DUP1 PUSH1 0x1F LT PUSH2 0x561 JUMPI PUSH2 0x100 DUP1 DUP4 SLOAD DIV MUL DUP4 MSTORE SWAP2 PUSH1 0x20 ADD SWAP2 PUSH2 0x58C JUMP JUMPDEST DUP3 ADD SWAP2 SWAP1 PUSH1 0x0 MSTORE PUSH1 0x20 PUSH1 0x0 KECCAK256 SWAP1 JUMPDEST DUP2 SLOAD DUP2 MSTORE SWAP1 PUSH1 0x1 ADD SWAP1 PUSH1 0x20 ADD DUP1 DUP4 GT PUSH2 0x56F JUMPI DUP3 SWAP1 SUB PUSH1 0x1F AND DUP3 ADD SWAP2 JUMPDEST POP POP POP POP POP SWAP1 POP SWAP1 JUMP JUMPDEST PUSH1 0x0 PUSH2 0x5A1 DUP3 PUSH2 0xDD2 JUMP JUMPDEST PUSH2 0x5B6 JUMPI PUSH2 0x5B5 PUSH4 0xCF4700E4 PUSH1 0xE0 SHL PUSH2 0xE4C JUMP JUMPDEST JUMPDEST PUSH1 0x6 PUSH1 0x0 DUP4 DUP2 MSTORE PUSH1 0x20 ADD SWAP1 DUP2 MSTORE PUSH1 0x20 ADD PUSH1 0x0 KECCAK256 PUSH1 0x0 ADD PUSH1 0x0 SWAP1 SLOAD SWAP1 PUSH2 0x100 EXP SWAP1 DIV PUSH20 0xFFFFFFFFFFFFFFFFFFFFFFFFFFFFFFFFFFFFFFFF AND SWAP1 POP SWAP2 SWAP1 POP JUMP JUMPDEST PUSH2 0x600 DUP3 DUP3 PUSH1 0x1 PUSH2 0xE56 JUMP JUMPDEST POP POP JUMP JUMPDEST PUSH1 0x0 PUSH2 0x60E PUSH2 0xF85 JUMP JUMPDEST PUSH1 0x1 SLOAD PUSH1 0x0 SLOAD SUB SUB SWAP1 POP SWAP1 JUMP JUMPDEST PUSH1 0x0 PUSH2 0x626 DUP3 PUSH2 0xF8A JUMP JUMPDEST SWAP1 POP PUSH20 0xFFFFFFFFFFFFFFFFFFFFFFFFFFFFFFFFFFFFFFFF DUP5 PUSH20 0xFFFFFFFFFFFFFFFFFFFFFFFFFFFFFFFFFFFFFFFF AND AND SWAP4 POP DUP4 PUSH20 0xFFFFFFFFFFFFFFFFFFFFFFFFFFFFFFFFFFFFFFFF AND DUP2 PUSH20 0xFFFFFFFFFFFFFFFFFFFFFFFFFFFFFFFFFFFFFFFF AND EQ PUSH2 0x69B JUMPI PUSH2 0x69A PUSH4 0xA1148100 PUSH1 0xE0 SHL PUSH2 0xE4C JUMP JUMPDEST JUMPDEST PUSH1 0x0 DUP1 PUSH2 0x6A7 DUP5 PUSH2 0x1086 JUMP JUMPDEST SWAP2 POP SWAP2 POP PUSH2 0x6BD DUP2 DUP8 PUSH2 0x6B8 PUSH2 0x10AD JUMP JUMPDEST PUSH2 0x10B5 JUMP JUMPDEST PUSH2 0x6E8 JUMPI PUSH2 0x6D2 DUP7 PUSH2 0x6CD PUSH2 0x10AD JUMP JUMPDEST PUSH2 0xCBA JUMP JUMPDEST PUSH2 0x6E7 JUMPI PUSH2 0x6E6 PUSH4 0x59C896BE PUSH1 0xE0 SHL PUSH2 0xE4C JUMP JUMPDEST JUMPDEST JUMPDEST PUSH2 0x6F5 DUP7 DUP7 DUP7 PUSH1 0x1 PUSH2 0x10F9 JUMP JUMPDEST DUP1 ISZERO PUSH2 0x700 JUMPI PUSH1 0x0 DUP3 SSTORE JUMPDEST PUSH1 0x5 PUSH1 0x0 DUP8 PUSH20 0xFFFFFFFFFFFFFFFFFFFFFFFFFFFFFFFFFFFFFFFF AND PUSH20 0xFFFFFFFFFFFFFFFFFFFFFFFFFFFFFFFFFFFFFFFF AND DUP2 MSTORE PUSH1 0x20 ADD SWAP1 DUP2 MSTORE PUSH1 0x20 ADD PUSH1 0x0 KECCAK256 PUSH1 0x0 DUP2 SLOAD PUSH1 0x1 SWAP1 SUB SWAP2 SWAP1 POP DUP2 SWAP1 SSTORE POP PUSH1 0x5 PUSH1 0x0 DUP7 PUSH20 0xFFFFFFFFFFFFFFFFFFFFFFFFFFFFFFFFFFFFFFFF AND PUSH20 0xFFFFFFFFFFFFFFFFFFFFFFFFFFFFFFFFFFFFFFFF AND DUP2 MSTORE PUSH1 0x20 ADD SWAP1 DUP2 MSTORE PUSH1 0x20 ADD PUSH1 0x0 KECCAK256 PUSH1 0x0 DUP2 SLOAD PUSH1 0x1 ADD SWAP2 SWAP1 POP DUP2 SWAP1 SSTORE POP PUSH2 0x7CE DUP6 PUSH2 0x7AA DUP9 DUP9 DUP8 PUSH2 0x10FF JUMP JUMPDEST PUSH29 0x200000000000000000000000000000000000000000000000000000000 OR PUSH2 0x1127 JUMP JUMPDEST PUSH1 0x4 PUSH1 0x0 DUP7 DUP2 MSTORE PUSH1 0x20 ADD SWAP1 DUP2 MSTORE PUSH1 0x20 ADD PUSH1 0x0 KECCAK256 DUP2 SWAP1 SSTORE POP PUSH1 0x0 PUSH29 0x200000000000000000000000000000000000000000000000000000000 DUP5 AND EQ ISZERO PUSH2 0x856 JUMPI PUSH1 0x0 PUSH1 0x1 DUP6 ADD SWAP1 POP PUSH1 0x0 PUSH1 0x4 PUSH1 0x0 DUP4 DUP2 MSTORE PUSH1 0x20 ADD SWAP1 DUP2 MSTORE PUSH1 0x20 ADD PUSH1 0x0 KECCAK256 SLOAD EQ ISZERO PUSH2 0x854 JUMPI PUSH1 0x0 SLOAD DUP2 EQ PUSH2 0x853 JUMPI DUP4 PUSH1 0x4 PUSH1 0x0 DUP4 DUP2 MSTORE PUSH1 0x20 ADD SWAP1 DUP2 MSTORE PUSH1 0x20 ADD PUSH1 0x0 KECCAK256 DUP2 SWAP1 SSTORE POP JUMPDEST JUMPDEST POP JUMPDEST PUSH1 0x0 PUSH20 0xFFFFFFFFFFFFFFFFFFFFFFFFFFFFFFFFFFFFFFFF DUP7 PUSH20 0xFFFFFFFFFFFFFFFFFFFFFFFFFFFFFFFFFFFFFFFF AND AND SWAP1 POP DUP5 DUP2 DUP9 PUSH32 0xDDF252AD1BE2C89B69C2B068FC378DAA952BA7F163C4A11628F55A4DF523B3EF PUSH1 0x0 DUP1 LOG4 PUSH1 0x0 DUP2 EQ ISZERO PUSH2 0x8C9 JUMPI PUSH2 0x8C8 PUSH4 0xEA553B34 PUSH1 0xE0 SHL PUSH2 0xE4C JUMP JUMPDEST JUMPDEST PUSH2 0x8D6 DUP8 DUP8 DUP8 PUSH1 0x1 PUSH2 0x1152 JUMP JUMPDEST POP POP POP POP POP POP POP JUMP JUMPDEST PUSH2 0x8E7 PUSH2 0x1158 JUMP JUMPDEST PUSH2 0x8F1 DUP3 DUP3 PUSH2 0x11D6 JUMP JUMPDEST POP POP JUMP JUMPDEST PUSH2 0x910 DUP4 DUP4 DUP4 PUSH1 0x40 MLOAD DUP1 PUSH1 0x20 ADD PUSH1 0x40 MSTORE DUP1 PUSH1 0x0 DUP2 MSTORE POP PUSH2 0xBEA JUMP JUMPDEST POP POP POP JUMP JUMPDEST PUSH1 0x60 PUSH2 0x91F PUSH2 0x1158 JUMP JUMPDEST PUSH2 0x928 DUP3 PUSH2 0x133C JUMP JUMPDEST PUSH1 0x40 MLOAD DUP1 PUSH1 0x40 ADD PUSH1 0x40 MSTORE DUP1 PUSH1 0xC DUP2 MSTORE PUSH1 0x20 ADD PUSH32 0x546F6B656E206275726E65640000000000000000000000000000000000000000 DUP2 MSTORE POP SWAP1 POP SWAP2 SWAP1 POP JUMP JUMPDEST PUSH1 0x0 PUSH2 0x970 DUP3 PUSH2 0xF8A JUMP JUMPDEST SWAP1 POP SWAP2 SWAP1 POP JUMP JUMPDEST PUSH1 0x0 DUP1 PUSH20 0xFFFFFFFFFFFFFFFFFFFFFFFFFFFFFFFFFFFFFFFF AND DUP3 PUSH20 0xFFFFFFFFFFFFFFFFFFFFFFFFFFFFFFFFFFFFFFFF AND EQ ISZERO PUSH2 0x9BE JUMPI PUSH2 0x9BD PUSH4 0x8F4EB604 PUSH1 0xE0 SHL PUSH2 0xE4C JUMP JUMPDEST JUMPDEST PUSH8 0xFFFFFFFFFFFFFFFF PUSH1 0x5 PUSH1 0x0 DUP5 PUSH20 0xFFFFFFFFFFFFFFFFFFFFFFFFFFFFFFFFFFFFFFFF AND PUSH20 0xFFFFFFFFFFFFFFFFFFFFFFFFFFFFFFFFFFFFFFFF AND DUP2 MSTORE PUSH1 0x20 ADD SWAP1 DUP2 MSTORE PUSH1 0x20 ADD PUSH1 0x0 KECCAK256 SLOAD AND SWAP1 POP SWAP2 SWAP1 POP JUMP JUMPDEST PUSH2 0xA17 PUSH2 0x1158 JUMP JUMPDEST PUSH2 0xA21 PUSH1 0x0 PUSH2 0x134A JUMP JUMPDEST JUMP JUMPDEST PUSH1 0x0 PUSH1 0x8 PUSH1 0x0 SWAP1 SLOAD SWAP1 PUSH2 0x100 EXP SWAP1 DIV PUSH20 0xFFFFFFFFFFFFFFFFFFFFFFFFFFFFFFFFFFFFFFFF AND SWAP1 POP SWAP1 JUMP JUMPDEST PUSH1 0x60 PUSH1 0x3 DUP1 SLOAD PUSH2 0xA5C SWAP1 PUSH2 0x1E0E JUMP JUMPDEST DUP1 PUSH1 0x1F ADD PUSH1 0x20 DUP1 SWAP2 DIV MUL PUSH1 0x20 ADD PUSH1 0x40 MLOAD SWAP1 DUP2 ADD PUSH1 0x40 MSTORE DUP1 SWAP3 SWAP2 SWAP1 DUP2 DUP2 MSTORE PUSH1 0x20 ADD DUP3 DUP1 SLOAD PUSH2 0xA88 SWAP1 PUSH2 0x1E0E JUMP JUMPDEST DUP1 ISZERO PUSH2 0xAD5 JUMPI DUP1 PUSH1 0x1F LT PUSH2 0xAAA JUMPI PUSH2 0x100 DUP1 DUP4 SLOAD DIV MUL DUP4 MSTORE SWAP2 PUSH1 0x20 ADD SWAP2 PUSH2 0xAD5 JUMP JUMPDEST DUP3 ADD SWAP2 SWAP1 PUSH1 0x0 MSTORE PUSH1 0x20 PUSH1 0x0 KECCAK256 SWAP1 JUMPDEST DUP2 SLOAD DUP2 MSTORE SWAP1 PUSH1 0x1 ADD SWAP1 PUSH1 0x20 ADD DUP1 DUP4 GT PUSH2 0xAB8 JUMPI DUP3 SWAP1 SUB PUSH1 0x1F AND DUP3 ADD SWAP2 JUMPDEST POP POP POP POP POP SWAP1 POP SWAP1 JUMP JUMPDEST DUP1 PUSH1 0x7 PUSH1 0x0 PUSH2 0xAEC PUSH2 0x10AD JUMP JUMPDEST PUSH20 0xFFFFFFFFFFFFFFFFFFFFFFFFFFFFFFFFFFFFFFFF AND PUSH20 0xFFFFFFFFFFFFFFFFFFFFFFFFFFFFFFFFFFFFFFFF AND DUP2 MSTORE PUSH1 0x20 ADD SWAP1 DUP2 MSTORE PUSH1 0x20 ADD PUSH1 0x0 KECCAK256 PUSH1 0x0 DUP5 PUSH20 0xFFFFFFFFFFFFFFFFFFFFFFFFFFFFFFFFFFFFFFFF AND PUSH20 0xFFFFFFFFFFFFFFFFFFFFFFFFFFFFFFFFFFFFFFFF AND DUP2 MSTORE PUSH1 0x20 ADD SWAP1 DUP2 MSTORE PUSH1 0x20 ADD PUSH1 0x0 KECCAK256 PUSH1 0x0 PUSH2 0x100 EXP DUP2 SLOAD DUP2 PUSH1 0xFF MUL NOT AND SWAP1 DUP4 ISZERO ISZERO MUL OR SWAP1 SSTORE POP DUP2 PUSH20 0xFFFFFFFFFFFFFFFFFFFFFFFFFFFFFFFFFFFFFFFF AND PUSH2 0xB99 PUSH2 0x10AD JUMP JUMPDEST PUSH20 0xFFFFFFFFFFFFFFFFFFFFFFFFFFFFFFFFFFFFFFFF AND PUSH32 0x17307EAB39AB6107E8899845AD3D59BD9653F200F220920489CA2B5937696C31 DUP4 PUSH1 0x40 MLOAD PUSH2 0xBDE SWAP2 SWAP1 PUSH2 0x18D0 JUMP JUMPDEST PUSH1 0x40 MLOAD DUP1 SWAP2 SUB SWAP1 LOG3 POP POP JUMP JUMPDEST PUSH2 0xBF5 DUP5 DUP5 DUP5 PUSH2 0x61B JUMP JUMPDEST PUSH1 0x0 DUP4 PUSH20 0xFFFFFFFFFFFFFFFFFFFFFFFFFFFFFFFFFFFFFFFF AND EXTCODESIZE EQ PUSH2 0xC36 JUMPI PUSH2 0xC20 DUP5 DUP5 DUP5 DUP5 PUSH2 0x1410 JUMP JUMPDEST PUSH2 0xC35 JUMPI PUSH2 0xC34 PUSH4 0xD1A57ED6 PUSH1 0xE0 SHL PUSH2 0xE4C JUMP JUMPDEST JUMPDEST JUMPDEST POP POP POP POP JUMP JUMPDEST PUSH1 0x60 PUSH2 0xC47 DUP3 PUSH2 0xDD2 JUMP JUMPDEST PUSH2 0xC5C JUMPI PUSH2 0xC5B PUSH4 0xA14C4B50 PUSH1 0xE0 SHL PUSH2 0xE4C JUMP JUMPDEST JUMPDEST PUSH1 0x0 PUSH2 0xC66 PUSH2 0x154F JUMP JUMPDEST SWAP1 POP PUSH1 0x0 DUP2 MLOAD EQ ISZERO PUSH2 0xC87 JUMPI PUSH1 0x40 MLOAD DUP1 PUSH1 0x20 ADD PUSH1 0x40 MSTORE DUP1 PUSH1 0x0 DUP2 MSTORE POP PUSH2 0xCB2 JUMP JUMPDEST DUP1 PUSH2 0xC91 DUP5 PUSH2 0x156F JUMP JUMPDEST PUSH1 0x40 MLOAD PUSH1 0x20 ADD PUSH2 0xCA2 SWAP3 SWAP2 SWAP1 PUSH2 0x1E7C JUMP JUMPDEST PUSH1 0x40 MLOAD PUSH1 0x20 DUP2 DUP4 SUB SUB DUP2 MSTORE SWAP1 PUSH1 0x40 MSTORE JUMPDEST SWAP2 POP POP SWAP2 SWAP1 POP JUMP JUMPDEST PUSH1 0x0 PUSH1 0x7 PUSH1 0x0 DUP5 PUSH20 0xFFFFFFFFFFFFFFFFFFFFFFFFFFFFFFFFFFFFFFFF AND PUSH20 0xFFFFFFFFFFFFFFFFFFFFFFFFFFFFFFFFFFFFFFFF AND DUP2 MSTORE PUSH1 0x20 ADD SWAP1 DUP2 MSTORE PUSH1 0x20 ADD PUSH1 0x0 KECCAK256 PUSH1 0x0 DUP4 PUSH20 0xFFFFFFFFFFFFFFFFFFFFFFFFFFFFFFFFFFFFFFFF AND PUSH20 0xFFFFFFFFFFFFFFFFFFFFFFFFFFFFFFFFFFFFFFFF AND DUP2 MSTORE PUSH1 0x20 ADD SWAP1 DUP2 MSTORE PUSH1 0x20 ADD PUSH1 0x0 KECCAK256 PUSH1 0x0 SWAP1 SLOAD SWAP1 PUSH2 0x100 EXP SWAP1 DIV PUSH1 0xFF AND SWAP1 POP SWAP3 SWAP2 POP POP JUMP JUMPDEST PUSH2 0xD56 PUSH2 0x1158 JUMP JUMPDEST PUSH1 0x0 PUSH20 0xFFFFFFFFFFFFFFFFFFFFFFFFFFFFFFFFFFFFFFFF AND DUP2 PUSH20 0xFFFFFFFFFFFFFFFFFFFFFFFFFFFFFFFFFFFFFFFF AND EQ ISZERO PUSH2 0xDC6 JUMPI PUSH1 0x40 MLOAD PUSH32 0x8C379A000000000000000000000000000000000000000000000000000000000 DUP2 MSTORE PUSH1 0x4 ADD PUSH2 0xDBD SWAP1 PUSH2 0x1F12 JUMP JUMPDEST PUSH1 0x40 MLOAD DUP1 SWAP2 SUB SWAP1 REVERT JUMPDEST PUSH2 0xDCF DUP2 PUSH2 0x134A JUMP JUMPDEST POP JUMP JUMPDEST PUSH1 0x0 DUP2 PUSH2 0xDDD PUSH2 0xF85 JUMP JUMPDEST GT PUSH2 0xE47 JUMPI PUSH1 0x0 SLOAD DUP3 LT ISZERO PUSH2 0xE46 JUMPI PUSH1 0x0 JUMPDEST PUSH1 0x0 PUSH1 0x4 PUSH1 0x0 DUP6 DUP2 MSTORE PUSH1 0x20 ADD SWAP1 DUP2 MSTORE PUSH1 0x20 ADD PUSH1 0x0 KECCAK256 SLOAD SWAP2 POP DUP2 EQ ISZERO PUSH2 0xE1F JUMPI DUP3 PUSH2 0xE18 SWAP1 PUSH2 0x1F61 JUMP JUMPDEST SWAP3 POP PUSH2 0xDEF JUMP JUMPDEST PUSH1 0x0 PUSH29 0x100000000000000000000000000000000000000000000000000000000 DUP3 AND EQ SWAP2 POP POP JUMPDEST JUMPDEST SWAP2 SWAP1 POP JUMP JUMPDEST DUP1 PUSH1 0x0 MSTORE PUSH1 0x4 PUSH1 0x0 REVERT JUMPDEST PUSH1 0x0 PUSH2 0xE61 DUP4 PUSH2 0x965 JUMP JUMPDEST SWAP1 POP DUP2 DUP1 ISZERO PUSH2 0xEA3 JUMPI POP DUP1 PUSH20 0xFFFFFFFFFFFFFFFFFFFFFFFFFFFFFFFFFFFFFFFF AND PUSH2 0xE8A PUSH2 0x10AD JUMP JUMPDEST PUSH20 0xFFFFFFFFFFFFFFFFFFFFFFFFFFFFFFFFFFFFFFFF AND EQ ISZERO JUMPDEST ISZERO PUSH2 0xECF JUMPI PUSH2 0xEB9 DUP2 PUSH2 0xEB4 PUSH2 0x10AD JUMP JUMPDEST PUSH2 0xCBA JUMP JUMPDEST PUSH2 0xECE JUMPI PUSH2 0xECD PUSH4 0xCFB3B942 PUSH1 0xE0 SHL PUSH2 0xE4C JUMP JUMPDEST JUMPDEST JUMPDEST DUP4 PUSH1 0x6 PUSH1 0x0 DUP6 DUP2 MSTORE PUSH1 0x20 ADD SWAP1 DUP2 MSTORE PUSH1 0x20 ADD PUSH1 0x0 KECCAK256 PUSH1 0x0 ADD PUSH1 0x0 PUSH2 0x100 EXP DUP2 SLOAD DUP2 PUSH20 0xFFFFFFFFFFFFFFFFFFFFFFFFFFFFFFFFFFFFFFFF MUL NOT AND SWAP1 DUP4 PUSH20 0xFFFFFFFFFFFFFFFFFFFFFFFFFFFFFFFFFFFFFFFF AND MUL OR SWAP1 SSTORE POP DUP3 DUP5 PUSH20 0xFFFFFFFFFFFFFFFFFFFFFFFFFFFFFFFFFFFFFFFF AND DUP3 PUSH20 0xFFFFFFFFFFFFFFFFFFFFFFFFFFFFFFFFFFFFFFFF AND PUSH32 0x8C5BE1E5EBEC7D5BD14F71427D1E84F3DD0314C0F7B2291E5B200AC8C7C3B925 PUSH1 0x40 MLOAD PUSH1 0x40 MLOAD DUP1 SWAP2 SUB SWAP1 LOG4 POP POP POP POP JUMP JUMPDEST PUSH1 0x0 SWAP1 JUMP JUMPDEST PUSH1 0x0 DUP2 PUSH2 0xF95 PUSH2 0xF85 JUMP JUMPDEST GT PUSH2 0x1070 JUMPI PUSH1 0x4 PUSH1 0x0 DUP4 DUP2 MSTORE PUSH1 0x20 ADD SWAP1 DUP2 MSTORE PUSH1 0x20 ADD PUSH1 0x0 KECCAK256 SLOAD SWAP1 POP PUSH1 0x0 DUP2 EQ ISZERO PUSH2 0x1042 JUMPI PUSH1 0x0 SLOAD DUP3 LT PUSH2 0xFD3 JUMPI PUSH2 0xFD2 PUSH4 0xDF2D9B42 PUSH1 0xE0 SHL PUSH2 0xE4C JUMP JUMPDEST JUMPDEST JUMPDEST PUSH1 0x4 PUSH1 0x0 DUP4 PUSH1 0x1 SWAP1 SUB SWAP4 POP DUP4 DUP2 MSTORE PUSH1 0x20 ADD SWAP1 DUP2 MSTORE PUSH1 0x20 ADD PUSH1 0x0 KECCAK256 SLOAD SWAP1 POP PUSH1 0x0 DUP2 EQ ISZERO PUSH2 0xFFF JUMPI PUSH2 0x103D JUMP JUMPDEST PUSH1 0x0 PUSH29 0x100000000000000000000000000000000000000000000000000000000 DUP3 AND EQ ISZERO PUSH2 0x102C JUMPI PUSH2 0x1081 JUMP JUMPDEST PUSH2 0x103C PUSH4 0xDF2D9B42 PUSH1 0xE0 SHL PUSH2 0xE4C JUMP JUMPDEST JUMPDEST PUSH2 0xFD4 JUMP JUMPDEST PUSH1 0x0 PUSH29 0x100000000000000000000000000000000000000000000000000000000 DUP3 AND EQ ISZERO PUSH2 0x106F JUMPI PUSH2 0x1081 JUMP JUMPDEST JUMPDEST PUSH2 0x1080 PUSH4 0xDF2D9B42 PUSH1 0xE0 SHL PUSH2 0xE4C JUMP JUMPDEST JUMPDEST SWAP2 SWAP1 POP JUMP JUMPDEST PUSH1 0x0 DUP1 PUSH1 0x0 PUSH1 0x6 PUSH1 0x0 DUP6 DUP2 MSTORE PUSH1 0x20 ADD SWAP1 DUP2 MSTORE PUSH1 0x20 ADD PUSH1 0x0 KECCAK256 SWAP1 POP DUP1 SWAP3 POP DUP3 SLOAD SWAP2 POP POP SWAP2 POP SWAP2 JUMP JUMPDEST PUSH1 0x0 CALLER SWAP1 POP SWAP1 JUMP JUMPDEST PUSH1 0x0 PUSH20 0xFFFFFFFFFFFFFFFFFFFFFFFFFFFFFFFFFFFFFFFF DUP4 AND SWAP3 POP PUSH20 0xFFFFFFFFFFFFFFFFFFFFFFFFFFFFFFFFFFFFFFFF DUP3 AND SWAP2 POP DUP4 DUP3 EQ DUP4 DUP4 EQ OR SWAP1 POP SWAP4 SWAP3 POP POP POP JUMP JUMPDEST POP POP POP POP JUMP JUMPDEST PUSH1 0x0 DUP1 PUSH1 0xE8 DUP4 SWAP1 SHR SWAP1 POP PUSH1 0xE8 PUSH2 0x1116 DUP7 DUP7 DUP5 PUSH2 0x15C8 JUMP JUMPDEST PUSH3 0xFFFFFF AND SWAP1 SHL SWAP2 POP POP SWAP4 SWAP3 POP POP POP JUMP JUMPDEST PUSH1 0x0 PUSH20 0xFFFFFFFFFFFFFFFFFFFFFFFFFFFFFFFFFFFFFFFF DUP4 AND SWAP3 POP DUP2 TIMESTAMP PUSH1 0xA0 SHL OR DUP4 OR SWAP1 POP SWAP3 SWAP2 POP POP JUMP JUMPDEST POP POP POP POP JUMP JUMPDEST PUSH2 0x1160 PUSH2 0x15D1 JUMP JUMPDEST PUSH20 0xFFFFFFFFFFFFFFFFFFFFFFFFFFFFFFFFFFFFFFFF AND PUSH2 0x117E PUSH2 0xA23 JUMP JUMPDEST PUSH20 0xFFFFFFFFFFFFFFFFFFFFFFFFFFFFFFFFFFFFFFFF AND EQ PUSH2 0x11D4 JUMPI PUSH1 0x40 MLOAD PUSH32 0x8C379A000000000000000000000000000000000000000000000000000000000 DUP2 MSTORE PUSH1 0x4 ADD PUSH2 0x11CB SWAP1 PUSH2 0x1FD7 JUMP JUMPDEST PUSH1 0x40 MLOAD DUP1 SWAP2 SUB SWAP1 REVERT JUMPDEST JUMP JUMPDEST PUSH1 0x0 DUP1 SLOAD SWAP1 POP PUSH1 0x0 DUP3 EQ ISZERO PUSH2 0x11F6 JUMPI PUSH2 0x11F5 PUSH4 0xB562E8DD PUSH1 0xE0 SHL PUSH2 0xE4C JUMP JUMPDEST JUMPDEST PUSH2 0x1203 PUSH1 0x0 DUP5 DUP4 DUP6 PUSH2 0x10F9 JUMP JUMPDEST PUSH2 0x1223 DUP4 PUSH2 0x1214 PUSH1 0x0 DUP7 PUSH1 0x0 PUSH2 0x10FF JUMP JUMPDEST PUSH2 0x121D DUP6 PUSH2 0x15D9 JUMP JUMPDEST OR PUSH2 0x1127 JUMP JUMPDEST PUSH1 0x4 PUSH1 0x0 DUP4 DUP2 MSTORE PUSH1 0x20 ADD SWAP1 DUP2 MSTORE PUSH1 0x20 ADD PUSH1 0x0 KECCAK256 DUP2 SWAP1 SSTORE POP PUSH1 0x1 PUSH1 0x40 PUSH1 0x1 SWAP1 SHL OR DUP3 MUL PUSH1 0x5 PUSH1 0x0 DUP6 PUSH20 0xFFFFFFFFFFFFFFFFFFFFFFFFFFFFFFFFFFFFFFFF AND PUSH20 0xFFFFFFFFFFFFFFFFFFFFFFFFFFFFFFFFFFFFFFFF AND DUP2 MSTORE PUSH1 0x20 ADD SWAP1 DUP2 MSTORE PUSH1 0x20 ADD PUSH1 0x0 KECCAK256 PUSH1 0x0 DUP3 DUP3 SLOAD ADD SWAP3 POP POP DUP2 SWAP1 SSTORE POP PUSH1 0x0 PUSH20 0xFFFFFFFFFFFFFFFFFFFFFFFFFFFFFFFFFFFFFFFF DUP5 PUSH20 0xFFFFFFFFFFFFFFFFFFFFFFFFFFFFFFFFFFFFFFFF AND AND SWAP1 POP PUSH1 0x0 DUP2 EQ ISZERO PUSH2 0x12DC JUMPI PUSH2 0x12DB PUSH4 0x2E076300 PUSH1 0xE0 SHL PUSH2 0xE4C JUMP JUMPDEST JUMPDEST PUSH1 0x0 DUP4 DUP4 ADD SWAP1 POP PUSH1 0x0 DUP4 SWAP1 POP JUMPDEST DUP1 DUP4 PUSH1 0x0 PUSH32 0xDDF252AD1BE2C89B69C2B068FC378DAA952BA7F163C4A11628F55A4DF523B3EF PUSH1 0x0 DUP1 LOG4 DUP2 DUP2 PUSH1 0x1 ADD SWAP2 POP DUP2 EQ ISZERO PUSH2 0x12E9 JUMPI DUP2 PUSH1 0x0 DUP2 SWAP1 SSTORE POP POP POP POP PUSH2 0x1337 PUSH1 0x0 DUP5 DUP4 DUP6 PUSH2 0x1152 JUMP JUMPDEST POP POP POP JUMP JUMPDEST PUSH2 0x1347 DUP2 PUSH1 0x0 PUSH2 0x15E9 JUMP JUMPDEST POP JUMP JUMPDEST PUSH1 0x0 PUSH1 0x8 PUSH1 0x0 SWAP1 SLOAD SWAP1 PUSH2 0x100 EXP SWAP1 DIV PUSH20 0xFFFFFFFFFFFFFFFFFFFFFFFFFFFFFFFFFFFFFFFF AND SWAP1 POP DUP2 PUSH1 0x8 PUSH1 0x0 PUSH2 0x100 EXP DUP2 SLOAD DUP2 PUSH20 0xFFFFFFFFFFFFFFFFFFFFFFFFFFFFFFFFFFFFFFFF MUL NOT AND SWAP1 DUP4 PUSH20 0xFFFFFFFFFFFFFFFFFFFFFFFFFFFFFFFFFFFFFFFF AND MUL OR SWAP1 SSTORE POP DUP2 PUSH20 0xFFFFFFFFFFFFFFFFFFFFFFFFFFFFFFFFFFFFFFFF AND DUP2 PUSH20 0xFFFFFFFFFFFFFFFFFFFFFFFFFFFFFFFFFFFFFFFF AND PUSH32 0x8BE0079C531659141344CD1FD0A4F28419497F9722A3DAAFE3B4186F6B6457E0 PUSH1 0x40 MLOAD PUSH1 0x40 MLOAD DUP1 SWAP2 SUB SWAP1 LOG3 POP POP JUMP JUMPDEST PUSH1 0x0 DUP4 PUSH20 0xFFFFFFFFFFFFFFFFFFFFFFFFFFFFFFFFFFFFFFFF AND PUSH4 0x150B7A02 PUSH2 0x1436 PUSH2 0x10AD JUMP JUMPDEST DUP8 DUP7 DUP7 PUSH1 0x40 MLOAD DUP6 PUSH4 0xFFFFFFFF AND PUSH1 0xE0 SHL DUP2 MSTORE PUSH1 0x4 ADD PUSH2 0x1458 SWAP5 SWAP4 SWAP3 SWAP2 SWAP1 PUSH2 0x204C JUMP JUMPDEST PUSH1 0x20 PUSH1 0x40 MLOAD DUP1 DUP4 SUB DUP2 PUSH1 0x0 DUP8 DUP1 EXTCODESIZE ISZERO DUP1 ISZERO PUSH2 0x1472 JUMPI PUSH1 0x0 DUP1 REVERT JUMPDEST POP GAS CALL SWAP3 POP POP POP DUP1 ISZERO PUSH2 0x14A3 JUMPI POP PUSH1 0x40 MLOAD RETURNDATASIZE PUSH1 0x1F NOT PUSH1 0x1F DUP3 ADD AND DUP3 ADD DUP1 PUSH1 0x40 MSTORE POP DUP2 ADD SWAP1 PUSH2 0x14A0 SWAP2 SWAP1 PUSH2 0x20AD JUMP JUMPDEST PUSH1 0x1 JUMPDEST PUSH2 0x14FC JUMPI RETURNDATASIZE DUP1 PUSH1 0x0 DUP2 EQ PUSH2 0x14D3 JUMPI PUSH1 0x40 MLOAD SWAP2 POP PUSH1 0x1F NOT PUSH1 0x3F RETURNDATASIZE ADD AND DUP3 ADD PUSH1 0x40 MSTORE RETURNDATASIZE DUP3 MSTORE RETURNDATASIZE PUSH1 0x0 PUSH1 0x20 DUP5 ADD RETURNDATACOPY PUSH2 0x14D8 JUMP JUMPDEST PUSH1 0x60 SWAP2 POP JUMPDEST POP PUSH1 0x0 DUP2 MLOAD EQ ISZERO PUSH2 0x14F4 JUMPI PUSH2 0x14F3 PUSH4 0xD1A57ED6 PUSH1 0xE0 SHL PUSH2 0xE4C JUMP JUMPDEST JUMPDEST DUP1 MLOAD DUP2 PUSH1 0x20 ADD REVERT JUMPDEST PUSH4 0x150B7A02 PUSH1 0xE0 SHL PUSH28 0xFFFFFFFFFFFFFFFFFFFFFFFFFFFFFFFFFFFFFFFFFFFFFFFFFFFFFFFF NOT AND DUP2 PUSH28 0xFFFFFFFFFFFFFFFFFFFFFFFFFFFFFFFFFFFFFFFFFFFFFFFFFFFFFFFF NOT AND EQ SWAP2 POP POP SWAP5 SWAP4 POP POP POP POP JUMP JUMPDEST PUSH1 0x60 PUSH1 0x40 MLOAD DUP1 PUSH1 0x60 ADD PUSH1 0x40 MSTORE DUP1 PUSH1 0x2A DUP2 MSTORE PUSH1 0x20 ADD PUSH2 0x20DB PUSH1 0x2A SWAP2 CODECOPY SWAP1 POP SWAP1 JUMP JUMPDEST PUSH1 0x60 PUSH1 0xA0 PUSH1 0x40 MLOAD ADD DUP1 PUSH1 0x40 MSTORE PUSH1 0x20 DUP2 SUB SWAP2 POP PUSH1 0x0 DUP3 MSTORE DUP2 DUP4 JUMPDEST PUSH1 0x1 ISZERO PUSH2 0x15B3 JUMPI PUSH1 0x1 DUP5 SUB SWAP4 POP PUSH1 0xA DUP2 MOD PUSH1 0x30 ADD DUP5 MSTORE8 PUSH1 0xA DUP2 DIV SWAP1 POP DUP1 PUSH2 0x15AE JUMPI PUSH2 0x15B3 JUMP JUMPDEST PUSH2 0x1588 JUMP JUMPDEST POP DUP3 DUP2 SUB PUSH1 0x20 DUP5 SUB SWAP4 POP DUP1 DUP5 MSTORE POP POP POP SWAP2 SWAP1 POP JUMP JUMPDEST PUSH1 0x0 SWAP4 SWAP3 POP POP POP JUMP JUMPDEST PUSH1 0x0 CALLER SWAP1 POP SWAP1 JUMP JUMPDEST PUSH1 0x0 PUSH1 0x1 DUP3 EQ PUSH1 0xE1 SHL SWAP1 POP SWAP2 SWAP1 POP JUMP JUMPDEST PUSH1 0x0 PUSH2 0x15F4 DUP4 PUSH2 0xF8A JUMP JUMPDEST SWAP1 POP PUSH1 0x0 DUP2 SWAP1 POP PUSH1 0x0 DUP1 PUSH2 0x1607 DUP7 PUSH2 0x1086 JUMP JUMPDEST SWAP2 POP SWAP2 POP DUP5 ISZERO PUSH2 0x164F JUMPI PUSH2 0x1623 DUP2 DUP5 PUSH2 0x161E PUSH2 0x10AD JUMP JUMPDEST PUSH2 0x10B5 JUMP JUMPDEST PUSH2 0x164E JUMPI PUSH2 0x1638 DUP4 PUSH2 0x1633 PUSH2 0x10AD JUMP JUMPDEST PUSH2 0xCBA JUMP JUMPDEST PUSH2 0x164D JUMPI PUSH2 0x164C PUSH4 0x59C896BE PUSH1 0xE0 SHL PUSH2 0xE4C JUMP JUMPDEST JUMPDEST JUMPDEST JUMPDEST PUSH2 0x165D DUP4 PUSH1 0x0 DUP9 PUSH1 0x1 PUSH2 0x10F9 JUMP JUMPDEST DUP1 ISZERO PUSH2 0x1668 JUMPI PUSH1 0x0 DUP3 SSTORE JUMPDEST PUSH1 0x1 PUSH1 0x80 PUSH1 0x1 SWAP1 SHL SUB PUSH1 0x5 PUSH1 0x0 DUP6 PUSH20 0xFFFFFFFFFFFFFFFFFFFFFFFFFFFFFFFFFFFFFFFF AND PUSH20 0xFFFFFFFFFFFFFFFFFFFFFFFFFFFFFFFFFFFFFFFF AND DUP2 MSTORE PUSH1 0x20 ADD SWAP1 DUP2 MSTORE PUSH1 0x20 ADD PUSH1 0x0 KECCAK256 PUSH1 0x0 DUP3 DUP3 SLOAD ADD SWAP3 POP POP DUP2 SWAP1 SSTORE POP PUSH2 0x1710 DUP4 PUSH2 0x16CD DUP6 PUSH1 0x0 DUP9 PUSH2 0x10FF JUMP JUMPDEST PUSH29 0x200000000000000000000000000000000000000000000000000000000 PUSH29 0x100000000000000000000000000000000000000000000000000000000 OR OR PUSH2 0x1127 JUMP JUMPDEST PUSH1 0x4 PUSH1 0x0 DUP9 DUP2 MSTORE PUSH1 0x20 ADD SWAP1 DUP2 MSTORE PUSH1 0x20 ADD PUSH1 0x0 KECCAK256 DUP2 SWAP1 SSTORE POP PUSH1 0x0 PUSH29 0x200000000000000000000000000000000000000000000000000000000 DUP6 AND EQ ISZERO PUSH2 0x1798 JUMPI PUSH1 0x0 PUSH1 0x1 DUP8 ADD SWAP1 POP PUSH1 0x0 PUSH1 0x4 PUSH1 0x0 DUP4 DUP2 MSTORE PUSH1 0x20 ADD SWAP1 DUP2 MSTORE PUSH1 0x20 ADD PUSH1 0x0 KECCAK256 SLOAD EQ ISZERO PUSH2 0x1796 JUMPI PUSH1 0x0 SLOAD DUP2 EQ PUSH2 0x1795 JUMPI DUP5 PUSH1 0x4 PUSH1 0x0 DUP4 DUP2 MSTORE PUSH1 0x20 ADD SWAP1 DUP2 MSTORE PUSH1 0x20 ADD PUSH1 0x0 KECCAK256 DUP2 SWAP1 SSTORE POP JUMPDEST JUMPDEST POP JUMPDEST DUP6 PUSH1 0x0 PUSH20 0xFFFFFFFFFFFFFFFFFFFFFFFFFFFFFFFFFFFFFFFF AND DUP5 PUSH20 0xFFFFFFFFFFFFFFFFFFFFFFFFFFFFFFFFFFFFFFFF AND PUSH32 0xDDF252AD1BE2C89B69C2B068FC378DAA952BA7F163C4A11628F55A4DF523B3EF PUSH1 0x40 MLOAD PUSH1 0x40 MLOAD DUP1 SWAP2 SUB SWAP1 LOG4 PUSH2 0x1802 DUP4 PUSH1 0x0 DUP9 PUSH1 0x1 PUSH2 0x1152 JUMP JUMPDEST PUSH1 0x1 PUSH1 0x0 DUP2 SLOAD DUP1 SWAP3 SWAP2 SWAP1 PUSH1 0x1 ADD SWAP2 SWAP1 POP SSTORE POP POP POP POP POP POP POP JUMP JUMPDEST PUSH1 0x0 PUSH1 0x40 MLOAD SWAP1 POP SWAP1 JUMP JUMPDEST PUSH1 0x0 DUP1 REVERT JUMPDEST PUSH1 0x0 DUP1 REVERT JUMPDEST PUSH1 0x0 PUSH32 0xFFFFFFFF00000000000000000000000000000000000000000000000000000000 DUP3 AND SWAP1 POP SWAP2 SWAP1 POP JUMP JUMPDEST PUSH2 0x1865 DUP2 PUSH2 0x1830 JUMP JUMPDEST DUP2 EQ PUSH2 0x1870 JUMPI PUSH1 0x0 DUP1 REVERT JUMPDEST POP JUMP JUMPDEST PUSH1 0x0 DUP2 CALLDATALOAD SWAP1 POP PUSH2 0x1882 DUP2 PUSH2 0x185C JUMP JUMPDEST SWAP3 SWAP2 POP POP JUMP JUMPDEST PUSH1 0x0 PUSH1 0x20 DUP3 DUP5 SUB SLT ISZERO PUSH2 0x189E JUMPI PUSH2 0x189D PUSH2 0x1826 JUMP JUMPDEST JUMPDEST PUSH1 0x0 PUSH2 0x18AC DUP5 DUP3 DUP6 ADD PUSH2 0x1873 JUMP JUMPDEST SWAP2 POP POP SWAP3 SWAP2 POP POP JUMP JUMPDEST PUSH1 0x0 DUP2 ISZERO ISZERO SWAP1 POP SWAP2 SWAP1 POP JUMP JUMPDEST PUSH2 0x18CA DUP2 PUSH2 0x18B5 JUMP JUMPDEST DUP3 MSTORE POP POP JUMP JUMPDEST PUSH1 0x0 PUSH1 0x20 DUP3 ADD SWAP1 POP PUSH2 0x18E5 PUSH1 0x0 DUP4 ADD DUP5 PUSH2 0x18C1 JUMP JUMPDEST SWAP3 SWAP2 POP POP JUMP JUMPDEST PUSH1 0x0 DUP2 MLOAD SWAP1 POP SWAP2 SWAP1 POP JUMP JUMPDEST PUSH1 0x0 DUP3 DUP3 MSTORE PUSH1 0x20 DUP3 ADD SWAP1 POP SWAP3 SWAP2 POP POP JUMP JUMPDEST PUSH1 0x0 JUMPDEST DUP4 DUP2 LT ISZERO PUSH2 0x1925 JUMPI DUP1 DUP3 ADD MLOAD DUP2 DUP5 ADD MSTORE PUSH1 0x20 DUP2 ADD SWAP1 POP PUSH2 0x190A JUMP JUMPDEST DUP4 DUP2 GT ISZERO PUSH2 0x1934 JUMPI PUSH1 0x0 DUP5 DUP5 ADD MSTORE JUMPDEST POP POP POP POP JUMP JUMPDEST PUSH1 0x0 PUSH1 0x1F NOT PUSH1 0x1F DUP4 ADD AND SWAP1 POP SWAP2 SWAP1 POP JUMP JUMPDEST PUSH1 0x0 PUSH2 0x1956 DUP3 PUSH2 0x18EB JUMP JUMPDEST PUSH2 0x1960 DUP2 DUP6 PUSH2 0x18F6 JUMP JUMPDEST SWAP4 POP PUSH2 0x1970 DUP2 DUP6 PUSH1 0x20 DUP7 ADD PUSH2 0x1907 JUMP JUMPDEST PUSH2 0x1979 DUP2 PUSH2 0x193A JUMP JUMPDEST DUP5 ADD SWAP2 POP POP SWAP3 SWAP2 POP POP JUMP JUMPDEST PUSH1 0x0 PUSH1 0x20 DUP3 ADD SWAP1 POP DUP2 DUP2 SUB PUSH1 0x0 DUP4 ADD MSTORE PUSH2 0x199E DUP2 DUP5 PUSH2 0x194B JUMP JUMPDEST SWAP1 POP SWAP3 SWAP2 POP POP JUMP JUMPDEST PUSH1 0x0 DUP2 SWAP1 POP SWAP2 SWAP1 POP JUMP JUMPDEST PUSH2 0x19B9 DUP2 PUSH2 0x19A6 JUMP JUMPDEST DUP2 EQ PUSH2 0x19C4 JUMPI PUSH1 0x0 DUP1 REVERT JUMPDEST POP JUMP JUMPDEST PUSH1 0x0 DUP2 CALLDATALOAD SWAP1 POP PUSH2 0x19D6 DUP2 PUSH2 0x19B0 JUMP JUMPDEST SWAP3 SWAP2 POP POP JUMP JUMPDEST PUSH1 0x0 PUSH1 0x20 DUP3 DUP5 SUB SLT ISZERO PUSH2 0x19F2 JUMPI PUSH2 0x19F1 PUSH2 0x1826 JUMP JUMPDEST JUMPDEST PUSH1 0x0 PUSH2 0x1A00 DUP5 DUP3 DUP6 ADD PUSH2 0x19C7 JUMP JUMPDEST SWAP2 POP POP SWAP3 SWAP2 POP POP JUMP JUMPDEST PUSH1 0x0 PUSH20 0xFFFFFFFFFFFFFFFFFFFFFFFFFFFFFFFFFFFFFFFF DUP3 AND SWAP1 POP SWAP2 SWAP1 POP JUMP JUMPDEST PUSH1 0x0 PUSH2 0x1A34 DUP3 PUSH2 0x1A09 JUMP JUMPDEST SWAP1 POP SWAP2 SWAP1 POP JUMP JUMPDEST PUSH2 0x1A44 DUP2 PUSH2 0x1A29 JUMP JUMPDEST DUP3 MSTORE POP POP JUMP JUMPDEST PUSH1 0x0 PUSH1 0x20 DUP3 ADD SWAP1 POP PUSH2 0x1A5F PUSH1 0x0 DUP4 ADD DUP5 PUSH2 0x1A3B JUMP JUMPDEST SWAP3 SWAP2 POP POP JUMP JUMPDEST PUSH2 0x1A6E DUP2 PUSH2 0x1A29 JUMP JUMPDEST DUP2 EQ PUSH2 0x1A79 JUMPI PUSH1 0x0 DUP1 REVERT JUMPDEST POP JUMP JUMPDEST PUSH1 0x0 DUP2 CALLDATALOAD SWAP1 POP PUSH2 0x1A8B DUP2 PUSH2 0x1A65 JUMP JUMPDEST SWAP3 SWAP2 POP POP JUMP JUMPDEST PUSH1 0x0 DUP1 PUSH1 0x40 DUP4 DUP6 SUB SLT ISZERO PUSH2 0x1AA8 JUMPI PUSH2 0x1AA7 PUSH2 0x1826 JUMP JUMPDEST JUMPDEST PUSH1 0x0 PUSH2 0x1AB6 DUP6 DUP3 DUP7 ADD PUSH2 0x1A7C JUMP JUMPDEST SWAP3 POP POP PUSH1 0x20 PUSH2 0x1AC7 DUP6 DUP3 DUP7 ADD PUSH2 0x19C7 JUMP JUMPDEST SWAP2 POP POP SWAP3 POP SWAP3 SWAP1 POP JUMP JUMPDEST PUSH2 0x1ADA DUP2 PUSH2 0x19A6 JUMP JUMPDEST DUP3 MSTORE POP POP JUMP JUMPDEST PUSH1 0x0 PUSH1 0x20 DUP3 ADD SWAP1 POP PUSH2 0x1AF5 PUSH1 0x0 DUP4 ADD DUP5 PUSH2 0x1AD1 JUMP JUMPDEST SWAP3 SWAP2 POP POP JUMP JUMPDEST PUSH1 0x0 DUP1 PUSH1 0x0 PUSH1 0x60 DUP5 DUP7 SUB SLT ISZERO PUSH2 0x1B14 JUMPI PUSH2 0x1B13 PUSH2 0x1826 JUMP JUMPDEST JUMPDEST PUSH1 0x0 PUSH2 0x1B22 DUP7 DUP3 DUP8 ADD PUSH2 0x1A7C JUMP JUMPDEST SWAP4 POP POP PUSH1 0x20 PUSH2 0x1B33 DUP7 DUP3 DUP8 ADD PUSH2 0x1A7C JUMP JUMPDEST SWAP3 POP POP PUSH1 0x40 PUSH2 0x1B44 DUP7 DUP3 DUP8 ADD PUSH2 0x19C7 JUMP JUMPDEST SWAP2 POP POP SWAP3 POP SWAP3 POP SWAP3 JUMP JUMPDEST PUSH1 0x0 PUSH1 0x20 DUP3 DUP5 SUB SLT ISZERO PUSH2 0x1B64 JUMPI PUSH2 0x1B63 PUSH2 0x1826 JUMP JUMPDEST JUMPDEST PUSH1 0x0 PUSH2 0x1B72 DUP5 DUP3 DUP6 ADD PUSH2 0x1A7C JUMP JUMPDEST SWAP2 POP POP SWAP3 SWAP2 POP POP JUMP JUMPDEST PUSH2 0x1B84 DUP2 PUSH2 0x18B5 JUMP JUMPDEST DUP2 EQ PUSH2 0x1B8F JUMPI PUSH1 0x0 DUP1 REVERT JUMPDEST POP JUMP JUMPDEST PUSH1 0x0 DUP2 CALLDATALOAD SWAP1 POP PUSH2 0x1BA1 DUP2 PUSH2 0x1B7B JUMP JUMPDEST SWAP3 SWAP2 POP POP JUMP JUMPDEST PUSH1 0x0 DUP1 PUSH1 0x40 DUP4 DUP6 SUB SLT ISZERO PUSH2 0x1BBE JUMPI PUSH2 0x1BBD PUSH2 0x1826 JUMP JUMPDEST JUMPDEST PUSH1 0x0 PUSH2 0x1BCC DUP6 DUP3 DUP7 ADD PUSH2 0x1A7C JUMP JUMPDEST SWAP3 POP POP PUSH1 0x20 PUSH2 0x1BDD DUP6 DUP3 DUP7 ADD PUSH2 0x1B92 JUMP JUMPDEST SWAP2 POP POP SWAP3 POP SWAP3 SWAP1 POP JUMP JUMPDEST PUSH1 0x0 DUP1 REVERT JUMPDEST PUSH1 0x0 DUP1 REVERT JUMPDEST PUSH32 0x4E487B7100000000000000000000000000000000000000000000000000000000 PUSH1 0x0 MSTORE PUSH1 0x41 PUSH1 0x4 MSTORE PUSH1 0x24 PUSH1 0x0 REVERT JUMPDEST PUSH2 0x1C29 DUP3 PUSH2 0x193A JUMP JUMPDEST DUP2 ADD DUP2 DUP2 LT PUSH8 0xFFFFFFFFFFFFFFFF DUP3 GT OR ISZERO PUSH2 0x1C48 JUMPI PUSH2 0x1C47 PUSH2 0x1BF1 JUMP JUMPDEST JUMPDEST DUP1 PUSH1 0x40 MSTORE POP POP POP JUMP JUMPDEST PUSH1 0x0 PUSH2 0x1C5B PUSH2 0x181C JUMP JUMPDEST SWAP1 POP PUSH2 0x1C67 DUP3 DUP3 PUSH2 0x1C20 JUMP JUMPDEST SWAP2 SWAP1 POP JUMP JUMPDEST PUSH1 0x0 PUSH8 0xFFFFFFFFFFFFFFFF DUP3 GT ISZERO PUSH2 0x1C87 JUMPI PUSH2 0x1C86 PUSH2 0x1BF1 JUMP JUMPDEST JUMPDEST PUSH2 0x1C90 DUP3 PUSH2 0x193A JUMP JUMPDEST SWAP1 POP PUSH1 0x20 DUP2 ADD SWAP1 POP SWAP2 SWAP1 POP JUMP JUMPDEST DUP3 DUP2 DUP4 CALLDATACOPY PUSH1 0x0 DUP4 DUP4 ADD MSTORE POP POP POP JUMP JUMPDEST PUSH1 0x0 PUSH2 0x1CBF PUSH2 0x1CBA DUP5 PUSH2 0x1C6C JUMP JUMPDEST PUSH2 0x1C51 JUMP JUMPDEST SWAP1 POP DUP3 DUP2 MSTORE PUSH1 0x20 DUP2 ADD DUP5 DUP5 DUP5 ADD GT ISZERO PUSH2 0x1CDB JUMPI PUSH2 0x1CDA PUSH2 0x1BEC JUMP JUMPDEST JUMPDEST PUSH2 0x1CE6 DUP5 DUP3 DUP6 PUSH2 0x1C9D JUMP JUMPDEST POP SWAP4 SWAP3 POP POP POP JUMP JUMPDEST PUSH1 0x0 DUP3 PUSH1 0x1F DUP4 ADD SLT PUSH2 0x1D03 JUMPI PUSH2 0x1D02 PUSH2 0x1BE7 JUMP JUMPDEST JUMPDEST DUP2 CALLDATALOAD PUSH2 0x1D13 DUP5 DUP3 PUSH1 0x20 DUP7 ADD PUSH2 0x1CAC JUMP JUMPDEST SWAP2 POP POP SWAP3 SWAP2 POP POP JUMP JUMPDEST PUSH1 0x0 DUP1 PUSH1 0x0 DUP1 PUSH1 0x80 DUP6 DUP8 SUB SLT ISZERO PUSH2 0x1D36 JUMPI PUSH2 0x1D35 PUSH2 0x1826 JUMP JUMPDEST JUMPDEST PUSH1 0x0 PUSH2 0x1D44 DUP8 DUP3 DUP9 ADD PUSH2 0x1A7C JUMP JUMPDEST SWAP5 POP POP PUSH1 0x20 PUSH2 0x1D55 DUP8 DUP3 DUP9 ADD PUSH2 0x1A7C JUMP JUMPDEST SWAP4 POP POP PUSH1 0x40 PUSH2 0x1D66 DUP8 DUP3 DUP9 ADD PUSH2 0x19C7 JUMP JUMPDEST SWAP3 POP POP PUSH1 0x60 DUP6 ADD CALLDATALOAD PUSH8 0xFFFFFFFFFFFFFFFF DUP2 GT ISZERO PUSH2 0x1D87 JUMPI PUSH2 0x1D86 PUSH2 0x182B JUMP JUMPDEST JUMPDEST PUSH2 0x1D93 DUP8 DUP3 DUP9 ADD PUSH2 0x1CEE JUMP JUMPDEST SWAP2 POP POP SWAP3 SWAP6 SWAP2 SWAP5 POP SWAP3 POP JUMP JUMPDEST PUSH1 0x0 DUP1 PUSH1 0x40 DUP4 DUP6 SUB SLT ISZERO PUSH2 0x1DB6 JUMPI PUSH2 0x1DB5 PUSH2 0x1826 JUMP JUMPDEST JUMPDEST PUSH1 0x0 PUSH2 0x1DC4 DUP6 DUP3 DUP7 ADD PUSH2 0x1A7C JUMP JUMPDEST SWAP3 POP POP PUSH1 0x20 PUSH2 0x1DD5 DUP6 DUP3 DUP7 ADD PUSH2 0x1A7C JUMP JUMPDEST SWAP2 POP POP SWAP3 POP SWAP3 SWAP1 POP JUMP JUMPDEST PUSH32 0x4E487B7100000000000000000000000000000000000000000000000000000000 PUSH1 0x0 MSTORE PUSH1 0x22 PUSH1 0x4 MSTORE PUSH1 0x24 PUSH1 0x0 REVERT JUMPDEST PUSH1 0x0 PUSH1 0x2 DUP3 DIV SWAP1 POP PUSH1 0x1 DUP3 AND DUP1 PUSH2 0x1E26 JUMPI PUSH1 0x7F DUP3 AND SWAP2 POP JUMPDEST PUSH1 0x20 DUP3 LT DUP2 EQ ISZERO PUSH2 0x1E3A JUMPI PUSH2 0x1E39 PUSH2 0x1DDF JUMP JUMPDEST JUMPDEST POP SWAP2 SWAP1 POP JUMP JUMPDEST PUSH1 0x0 DUP2 SWAP1 POP SWAP3 SWAP2 POP POP JUMP JUMPDEST PUSH1 0x0 PUSH2 0x1E56 DUP3 PUSH2 0x18EB JUMP JUMPDEST PUSH2 0x1E60 DUP2 DUP6 PUSH2 0x1E40 JUMP JUMPDEST SWAP4 POP PUSH2 0x1E70 DUP2 DUP6 PUSH1 0x20 DUP7 ADD PUSH2 0x1907 JUMP JUMPDEST DUP1 DUP5 ADD SWAP2 POP POP SWAP3 SWAP2 POP POP JUMP JUMPDEST PUSH1 0x0 PUSH2 0x1E88 DUP3 DUP6 PUSH2 0x1E4B JUMP JUMPDEST SWAP2 POP PUSH2 0x1E94 DUP3 DUP5 PUSH2 0x1E4B JUMP JUMPDEST SWAP2 POP DUP2 SWAP1 POP SWAP4 SWAP3 POP POP POP JUMP JUMPDEST PUSH32 0x4F776E61626C653A206E6577206F776E657220697320746865207A65726F2061 PUSH1 0x0 DUP3 ADD MSTORE PUSH32 0x6464726573730000000000000000000000000000000000000000000000000000 PUSH1 0x20 DUP3 ADD MSTORE POP JUMP JUMPDEST PUSH1 0x0 PUSH2 0x1EFC PUSH1 0x26 DUP4 PUSH2 0x18F6 JUMP JUMPDEST SWAP2 POP PUSH2 0x1F07 DUP3 PUSH2 0x1EA0 JUMP JUMPDEST PUSH1 0x40 DUP3 ADD SWAP1 POP SWAP2 SWAP1 POP JUMP JUMPDEST PUSH1 0x0 PUSH1 0x20 DUP3 ADD SWAP1 POP DUP2 DUP2 SUB PUSH1 0x0 DUP4 ADD MSTORE PUSH2 0x1F2B DUP2 PUSH2 0x1EEF JUMP JUMPDEST SWAP1 POP SWAP2 SWAP1 POP JUMP JUMPDEST PUSH32 0x4E487B7100000000000000000000000000000000000000000000000000000000 PUSH1 0x0 MSTORE PUSH1 0x11 PUSH1 0x4 MSTORE PUSH1 0x24 PUSH1 0x0 REVERT JUMPDEST PUSH1 0x0 PUSH2 0x1F6C DUP3 PUSH2 0x19A6 JUMP JUMPDEST SWAP2 POP PUSH1 0x0 DUP3 EQ ISZERO PUSH2 0x1F80 JUMPI PUSH2 0x1F7F PUSH2 0x1F32 JUMP JUMPDEST JUMPDEST PUSH1 0x1 DUP3 SUB SWAP1 POP SWAP2 SWAP1 POP JUMP JUMPDEST PUSH32 0x4F776E61626C653A2063616C6C6572206973206E6F7420746865206F776E6572 PUSH1 0x0 DUP3 ADD MSTORE POP JUMP JUMPDEST PUSH1 0x0 PUSH2 0x1FC1 PUSH1 0x20 DUP4 PUSH2 0x18F6 JUMP JUMPDEST SWAP2 POP PUSH2 0x1FCC DUP3 PUSH2 0x1F8B JUMP JUMPDEST PUSH1 0x20 DUP3 ADD SWAP1 POP SWAP2 SWAP1 POP JUMP JUMPDEST PUSH1 0x0 PUSH1 0x20 DUP3 ADD SWAP1 POP DUP2 DUP2 SUB PUSH1 0x0 DUP4 ADD MSTORE PUSH2 0x1FF0 DUP2 PUSH2 0x1FB4 JUMP JUMPDEST SWAP1 POP SWAP2 SWAP1 POP JUMP JUMPDEST PUSH1 0x0 DUP2 MLOAD SWAP1 POP SWAP2 SWAP1 POP JUMP JUMPDEST PUSH1 0x0 DUP3 DUP3 MSTORE PUSH1 0x20 DUP3 ADD SWAP1 POP SWAP3 SWAP2 POP POP JUMP JUMPDEST PUSH1 0x0 PUSH2 0x201E DUP3 PUSH2 0x1FF7 JUMP JUMPDEST PUSH2 0x2028 DUP2 DUP6 PUSH2 0x2002 JUMP JUMPDEST SWAP4 POP PUSH2 0x2038 DUP2 DUP6 PUSH1 0x20 DUP7 ADD PUSH2 0x1907 JUMP JUMPDEST PUSH2 0x2041 DUP2 PUSH2 0x193A JUMP JUMPDEST DUP5 ADD SWAP2 POP POP SWAP3 SWAP2 POP POP JUMP JUMPDEST PUSH1 0x0 PUSH1 0x80 DUP3 ADD SWAP1 POP PUSH2 0x2061 PUSH1 0x0 DUP4 ADD DUP8 PUSH2 0x1A3B JUMP JUMPDEST PUSH2 0x206E PUSH1 0x20 DUP4 ADD DUP7 PUSH2 0x1A3B JUMP JUMPDEST PUSH2 0x207B PUSH1 0x40 DUP4 ADD DUP6 PUSH2 0x1AD1 JUMP JUMPDEST DUP2 DUP2 SUB PUSH1 0x60 DUP4 ADD MSTORE PUSH2 0x208D DUP2 DUP5 PUSH2 0x2013 JUMP JUMPDEST SWAP1 POP SWAP6 SWAP5 POP POP POP POP POP JUMP JUMPDEST PUSH1 0x0 DUP2 MLOAD SWAP1 POP PUSH2 0x20A7 DUP2 PUSH2 0x185C JUMP JUMPDEST SWAP3 SWAP2 POP POP JUMP JUMPDEST PUSH1 0x0 PUSH1 0x20 DUP3 DUP5 SUB SLT ISZERO PUSH2 0x20C3 JUMPI PUSH2 0x20C2 PUSH2 0x1826 JUMP JUMPDEST JUMPDEST PUSH1 0x0 PUSH2 0x20D1 DUP5 DUP3 DUP6 ADD PUSH2 0x2098 JUMP JUMPDEST SWAP2 POP POP SWAP3 SWAP2 POP POP JUMP INVALID PUSH9 0x747470733A2F2F626F PUSH19 0x65646170657961636874636C75622E636F6D2F PUSH2 0x7069 0x2F PUSH14 0x7574616E74732FA2646970667358 0x22 SLT KECCAK256 EQ 0x22 0x2E 0xD7 0xD6 EXTCODESIZE CALL 0xB7 0x26 PUSH9 0xE74AFFD735624C5557 DUP3 0xDE SWAP7 NUMBER 0x4A NOT CALLDATASIZE 0x2B MUL JUMPI 0xDF 0x25 RETURN PUSH5 0x736F6C6343 STOP ADDMOD ADDMOD STOP CALLER "
				},
				"gasEstimates": {
					"creation": {
						"codeDepositCost": "1701200",
						"executionCost": "infinite",
						"totalCost": "infinite"
					},
					"external": {
						"approve(address,uint256)": "infinite",
						"balanceOf(address)": "2930",
						"burn(uint256)": "infinite",
						"getApproved(uint256)": "infinite",
						"isApprovedForAll(address,address)": "infinite",
						"mint(address,uint256)": "infinite",
						"name()": "infinite",
						"owner()": "2611",
						"ownerOf(uint256)": "infinite",
						"renounceOwnership()": "30465",
						"safeTransferFrom(address,address,uint256)": "infinite",
						"safeTransferFrom(address,address,uint256,bytes)": "infinite",
						"setApprovalForAll(address,bool)": "infinite",
						"supportsInterface(bytes4)": "745",
						"symbol()": "infinite",
						"tokenURI(uint256)": "infinite",
						"totalSupply()": "4599",
						"transferFrom(address,address,uint256)": "infinite",
						"transferOwnership(address)": "30857"
					},
					"internal": {
						"_baseURI()": "infinite"
					}
				},
				"methodIdentifiers": {
					"approve(address,uint256)": "095ea7b3",
					"balanceOf(address)": "70a08231",
					"burn(uint256)": "42966c68",
					"getApproved(uint256)": "081812fc",
					"isApprovedForAll(address,address)": "e985e9c5",
					"mint(address,uint256)": "40c10f19",
					"name()": "06fdde03",
					"owner()": "8da5cb5b",
					"ownerOf(uint256)": "6352211e",
					"renounceOwnership()": "715018a6",
					"safeTransferFrom(address,address,uint256)": "42842e0e",
					"safeTransferFrom(address,address,uint256,bytes)": "b88d4fde",
					"setApprovalForAll(address,bool)": "a22cb465",
					"supportsInterface(bytes4)": "01ffc9a7",
					"symbol()": "95d89b41",
					"tokenURI(uint256)": "c87b56dd",
					"totalSupply()": "18160ddd",
					"transferFrom(address,address,uint256)": "23b872dd",
					"transferOwnership(address)": "f2fde38b"
				}
			},
			"storageLayout": {
				"storage": [
					{
						"astId": 332,
						"contract": "contracts/kiazen/ERC721A.sol:KaiERC721",
						"label": "_currentIndex",
						"offset": 0,
						"slot": "0",
						"type": "t_uint256"
					},
					{
						"astId": 334,
						"contract": "contracts/kiazen/ERC721A.sol:KaiERC721",
						"label": "_burnCounter",
						"offset": 0,
						"slot": "1",
						"type": "t_uint256"
					},
					{
						"astId": 336,
						"contract": "contracts/kiazen/ERC721A.sol:KaiERC721",
						"label": "_name",
						"offset": 0,
						"slot": "2",
						"type": "t_string_storage"
					},
					{
						"astId": 338,
						"contract": "contracts/kiazen/ERC721A.sol:KaiERC721",
						"label": "_symbol",
						"offset": 0,
						"slot": "3",
						"type": "t_string_storage"
					},
					{
						"astId": 342,
						"contract": "contracts/kiazen/ERC721A.sol:KaiERC721",
						"label": "_packedOwnerships",
						"offset": 0,
						"slot": "4",
						"type": "t_mapping(t_uint256,t_uint256)"
					},
					{
						"astId": 346,
						"contract": "contracts/kiazen/ERC721A.sol:KaiERC721",
						"label": "_packedAddressData",
						"offset": 0,
						"slot": "5",
						"type": "t_mapping(t_address,t_uint256)"
					},
					{
						"astId": 351,
						"contract": "contracts/kiazen/ERC721A.sol:KaiERC721",
						"label": "_tokenApprovals",
						"offset": 0,
						"slot": "6",
						"type": "t_mapping(t_uint256,t_struct(TokenApprovalRef)264_storage)"
					},
					{
						"astId": 357,
						"contract": "contracts/kiazen/ERC721A.sol:KaiERC721",
						"label": "_operatorApprovals",
						"offset": 0,
						"slot": "7",
						"type": "t_mapping(t_address,t_mapping(t_address,t_bool))"
					},
					{
						"astId": 7,
						"contract": "contracts/kiazen/ERC721A.sol:KaiERC721",
						"label": "_owner",
						"offset": 0,
						"slot": "8",
						"type": "t_address"
					}
				],
				"types": {
					"t_address": {
						"encoding": "inplace",
						"label": "address",
						"numberOfBytes": "20"
					},
					"t_bool": {
						"encoding": "inplace",
						"label": "bool",
						"numberOfBytes": "1"
					},
					"t_mapping(t_address,t_bool)": {
						"encoding": "mapping",
						"key": "t_address",
						"label": "mapping(address => bool)",
						"numberOfBytes": "32",
						"value": "t_bool"
					},
					"t_mapping(t_address,t_mapping(t_address,t_bool))": {
						"encoding": "mapping",
						"key": "t_address",
						"label": "mapping(address => mapping(address => bool))",
						"numberOfBytes": "32",
						"value": "t_mapping(t_address,t_bool)"
					},
					"t_mapping(t_address,t_uint256)": {
						"encoding": "mapping",
						"key": "t_address",
						"label": "mapping(address => uint256)",
						"numberOfBytes": "32",
						"value": "t_uint256"
					},
					"t_mapping(t_uint256,t_struct(TokenApprovalRef)264_storage)": {
						"encoding": "mapping",
						"key": "t_uint256",
						"label": "mapping(uint256 => struct ERC721A.TokenApprovalRef)",
						"numberOfBytes": "32",
						"value": "t_struct(TokenApprovalRef)264_storage"
					},
					"t_mapping(t_uint256,t_uint256)": {
						"encoding": "mapping",
						"key": "t_uint256",
						"label": "mapping(uint256 => uint256)",
						"numberOfBytes": "32",
						"value": "t_uint256"
					},
					"t_string_storage": {
						"encoding": "bytes",
						"label": "string",
						"numberOfBytes": "32"
					},
					"t_struct(TokenApprovalRef)264_storage": {
						"encoding": "inplace",
						"label": "struct ERC721A.TokenApprovalRef",
						"members": [
							{
								"astId": 263,
								"contract": "contracts/kiazen/ERC721A.sol:KaiERC721",
								"label": "value",
								"offset": 0,
								"slot": "0",
								"type": "t_address"
							}
						],
						"numberOfBytes": "32"
					},
					"t_uint256": {
						"encoding": "inplace",
						"label": "uint256",
						"numberOfBytes": "32"
					}
				}
			},
			"userdoc": {
				"errors": {
					"ApprovalCallerNotOwnerNorApproved()": [
						{
							"notice": "The caller must own the token or be an approved operator."
						}
					],
					"ApprovalQueryForNonexistentToken()": [
						{
							"notice": "The token does not exist."
						}
					],
					"BalanceQueryForZeroAddress()": [
						{
							"notice": "Cannot query the balance for the zero address."
						}
					],
					"MintERC2309QuantityExceedsLimit()": [
						{
							"notice": "The `quantity` minted with ERC2309 exceeds the safety limit."
						}
					],
					"MintToZeroAddress()": [
						{
							"notice": "Cannot mint to the zero address."
						}
					],
					"MintZeroQuantity()": [
						{
							"notice": "The quantity of tokens minted must be more than zero."
						}
					],
					"OwnerQueryForNonexistentToken()": [
						{
							"notice": "The token does not exist."
						}
					],
					"OwnershipNotInitializedForExtraData()": [
						{
							"notice": "The `extraData` cannot be set on an unintialized ownership slot."
						}
					],
					"TransferCallerNotOwnerNorApproved()": [
						{
							"notice": "The caller must own the token or be an approved operator."
						}
					],
					"TransferFromIncorrectOwner()": [
						{
							"notice": "The token must be owned by `from`."
						}
					],
					"TransferToNonERC721ReceiverImplementer()": [
						{
							"notice": "Cannot safely transfer to a contract that does not implement the ERC721Receiver interface."
						}
					],
					"TransferToZeroAddress()": [
						{
							"notice": "Cannot transfer to the zero address."
						}
					],
					"URIQueryForNonexistentToken()": [
						{
							"notice": "The token does not exist."
						}
					]
				},
				"kind": "user",
				"methods": {},
				"version": 1
			}
		}
	}
}